{
  "contractName": "District",
  "abi": [
    {
      "inputs": [
        {
          "internalType": "uint8",
          "name": "_districtNumber",
          "type": "uint8"
        },
        {
          "components": [
            {
              "internalType": "address",
              "name": "_address",
              "type": "address"
            },
            {
              "internalType": "uint8",
              "name": "party",
              "type": "uint8"
            },
            {
              "internalType": "uint8",
              "name": "districtNo",
              "type": "uint8"
            },
            {
              "internalType": "bool",
              "name": "elected",
              "type": "bool"
            },
            {
              "internalType": "bool",
              "name": "eliminated",
              "type": "bool"
            },
            {
              "internalType": "uint32",
              "name": "votes",
              "type": "uint32"
            }
          ],
          "internalType": "struct Shared.Candidate[]",
          "name": "_candidates",
          "type": "tuple[]"
        }
      ],
      "stateMutability": "nonpayable",
      "type": "constructor"
    },
    {
      "anonymous": false,
      "inputs": [
        {
          "indexed": true,
          "internalType": "address",
          "name": "previousOwner",
          "type": "address"
        },
        {
          "indexed": true,
          "internalType": "address",
          "name": "newOwner",
          "type": "address"
        }
      ],
      "name": "OwnershipTransferred",
      "type": "event"
    },
    {
      "anonymous": false,
      "inputs": [
        {
          "indexed": false,
          "internalType": "address",
          "name": "_voter",
          "type": "address"
        },
        {
          "indexed": false,
          "internalType": "uint8",
          "name": "districtNo",
          "type": "uint8"
        },
        {
          "indexed": false,
          "internalType": "uint256",
          "name": "castVotes",
          "type": "uint256"
        }
      ],
      "name": "Vote",
      "type": "event"
    },
    {
      "inputs": [
        {
          "internalType": "uint256",
          "name": "",
          "type": "uint256"
        }
      ],
      "name": "candidateAddresses",
      "outputs": [
        {
          "internalType": "address",
          "name": "",
          "type": "address"
        }
      ],
      "stateMutability": "view",
      "type": "function"
    },
    {
      "inputs": [
        {
          "internalType": "address",
          "name": "",
          "type": "address"
        }
      ],
      "name": "candidates",
      "outputs": [
        {
          "internalType": "address",
          "name": "_address",
          "type": "address"
        },
        {
          "internalType": "uint8",
          "name": "party",
          "type": "uint8"
        },
        {
          "internalType": "uint8",
          "name": "districtNo",
          "type": "uint8"
        },
        {
          "internalType": "bool",
          "name": "elected",
          "type": "bool"
        },
        {
          "internalType": "bool",
          "name": "eliminated",
          "type": "bool"
        },
        {
          "internalType": "uint32",
          "name": "votes",
          "type": "uint32"
        }
      ],
      "stateMutability": "view",
      "type": "function"
    },
    {
      "inputs": [],
      "name": "candidatesCount",
      "outputs": [
        {
          "internalType": "uint8",
          "name": "",
          "type": "uint8"
        }
      ],
      "stateMutability": "view",
      "type": "function"
    },
    {
      "inputs": [],
      "name": "castVotes",
      "outputs": [
        {
          "internalType": "uint256",
          "name": "",
          "type": "uint256"
        }
      ],
      "stateMutability": "view",
      "type": "function"
    },
    {
      "inputs": [],
      "name": "counted",
      "outputs": [
        {
          "internalType": "bool",
          "name": "",
          "type": "bool"
        }
      ],
      "stateMutability": "view",
      "type": "function"
    },
    {
      "inputs": [],
      "name": "districtNumber",
      "outputs": [
        {
          "internalType": "uint8",
          "name": "",
          "type": "uint8"
        }
      ],
      "stateMutability": "view",
      "type": "function"
    },
    {
      "inputs": [],
      "name": "owner",
      "outputs": [
        {
          "internalType": "address",
          "name": "",
          "type": "address"
        }
      ],
      "stateMutability": "view",
      "type": "function"
    },
    {
      "inputs": [
        {
          "internalType": "uint8",
          "name": "",
          "type": "uint8"
        }
      ],
      "name": "party1stCountVotes",
      "outputs": [
        {
          "internalType": "uint64",
          "name": "",
          "type": "uint64"
        }
      ],
      "stateMutability": "view",
      "type": "function"
    },
    {
      "inputs": [],
      "name": "quota",
      "outputs": [
        {
          "internalType": "uint32",
          "name": "",
          "type": "uint32"
        }
      ],
      "stateMutability": "view",
      "type": "function"
    },
    {
      "inputs": [],
      "name": "renounceOwnership",
      "outputs": [],
      "stateMutability": "nonpayable",
      "type": "function"
    },
    {
      "inputs": [],
      "name": "seats",
      "outputs": [
        {
          "internalType": "uint8",
          "name": "",
          "type": "uint8"
        }
      ],
      "stateMutability": "view",
      "type": "function"
    },
    {
      "inputs": [],
      "name": "seatsFilled",
      "outputs": [
        {
          "internalType": "uint8",
          "name": "",
          "type": "uint8"
        }
      ],
      "stateMutability": "view",
      "type": "function"
    },
    {
      "inputs": [
        {
          "internalType": "address",
          "name": "newOwner",
          "type": "address"
        }
      ],
      "name": "transferOwnership",
      "outputs": [],
      "stateMutability": "nonpayable",
      "type": "function"
    },
    {
      "inputs": [],
      "name": "voteToken",
      "outputs": [
        {
          "internalType": "contract VoteToken",
          "name": "",
          "type": "address"
        }
      ],
      "stateMutability": "view",
      "type": "function"
    },
    {
      "inputs": [
        {
          "internalType": "contract VoteToken",
          "name": "_voteToken",
          "type": "address"
        }
      ],
      "name": "setVoteToken",
      "outputs": [],
      "stateMutability": "nonpayable",
      "type": "function"
    },
    {
      "inputs": [],
      "name": "getCandidateAddresses",
      "outputs": [
        {
          "internalType": "address[]",
          "name": "",
          "type": "address[]"
        }
      ],
      "stateMutability": "view",
      "type": "function"
    },
    {
      "inputs": [
        {
          "internalType": "uint256",
          "name": "tokenId",
          "type": "uint256"
        },
        {
          "internalType": "address[]",
          "name": "_preferences",
          "type": "address[]"
        }
      ],
      "name": "vote",
      "outputs": [],
      "stateMutability": "nonpayable",
      "type": "function"
    },
    {
      "inputs": [],
      "name": "getAddresses",
      "outputs": [
        {
          "internalType": "address[]",
          "name": "",
          "type": "address[]"
        }
      ],
      "stateMutability": "view",
      "type": "function"
    },
    {
      "inputs": [],
      "name": "getQuota",
      "outputs": [
        {
          "internalType": "uint32",
          "name": "",
          "type": "uint32"
        }
      ],
      "stateMutability": "view",
      "type": "function"
    },
    {
      "inputs": [],
      "name": "getAllElected",
      "outputs": [
        {
          "internalType": "address[]",
          "name": "",
          "type": "address[]"
        }
      ],
      "stateMutability": "nonpayable",
      "type": "function"
    },
    {
      "inputs": [],
      "name": "kill",
      "outputs": [],
      "stateMutability": "nonpayable",
      "type": "function"
    },
    {
      "inputs": [],
      "name": "countVotes",
      "outputs": [],
      "stateMutability": "nonpayable",
      "type": "function"
    }
  ],
  "bytecode": "0x60806040526000600960006101000a81548160ff0219169083151502179055503480156200002c57600080fd5b5060405162003704380380620037048339818101604052620000529190810190620004fb565b6000620000646200035f60201b60201c565b9050806000806101000a81548173ffffffffffffffffffffffffffffffffffffffff021916908373ffffffffffffffffffffffffffffffffffffffff1602179055508073ffffffffffffffffffffffffffffffffffffffff16600073ffffffffffffffffffffffffffffffffffffffff167f8be0079c531659141344cd1fd0a4f28419497f9722a3daafe3b4186f6b6457e060405160405180910390a35081600160146101000a81548160ff021916908360ff16021790555060006002819055508051600660006101000a81548160ff021916908360ff16021790555060008090505b600660009054906101000a900460ff1660ff168160ff16101562000356576005828260ff16815181106200017757fe5b6020026020010151600001519080600181540180825580915050600190039060005260206000200160009091909190916101000a81548173ffffffffffffffffffffffffffffffffffffffff021916908373ffffffffffffffffffffffffffffffffffffffff160217905550818160ff1681518110620001f357fe5b602002602001015160046000848460ff16815181106200020f57fe5b60200260200101516000015173ffffffffffffffffffffffffffffffffffffffff1673ffffffffffffffffffffffffffffffffffffffff16815260200190815260200160002060008201518160000160006101000a81548173ffffffffffffffffffffffffffffffffffffffff021916908373ffffffffffffffffffffffffffffffffffffffff16021790555060208201518160000160146101000a81548160ff021916908360ff16021790555060408201518160000160156101000a81548160ff021916908360ff16021790555060608201518160000160166101000a81548160ff02191690831515021790555060808201518160000160176101000a81548160ff02191690831515021790555060a08201518160000160186101000a81548163ffffffff021916908363ffffffff160217905550905050808060010191505062000147565b50505062000671565b600033905090565b600081519050620003788162000609565b92915050565b600082601f8301126200039057600080fd5b8151620003a7620003a18262000583565b62000555565b915081818352602084019350602081019050838560c0840282011115620003cd57600080fd5b60005b83811015620004015781620003e6888262000422565b845260208401935060c08301925050600181019050620003d0565b5050505092915050565b6000815190506200041c8162000623565b92915050565b600060c082840312156200043557600080fd5b6200044160c062000555565b90506000620004538482850162000367565b60008301525060206200046984828501620004e4565b60208301525060406200047f84828501620004e4565b604083015250606062000495848285016200040b565b6060830152506080620004ab848285016200040b565b60808301525060a0620004c184828501620004cd565b60a08301525092915050565b600081519050620004de816200063d565b92915050565b600081519050620004f58162000657565b92915050565b600080604083850312156200050f57600080fd5b60006200051f85828601620004e4565b925050602083015167ffffffffffffffff8111156200053d57600080fd5b6200054b858286016200037e565b9150509250929050565b6000604051905081810181811067ffffffffffffffff821117156200057957600080fd5b8060405250919050565b600067ffffffffffffffff8211156200059b57600080fd5b602082029050602081019050919050565b6000620005b982620005cc565b9050919050565b60008115159050919050565b600073ffffffffffffffffffffffffffffffffffffffff82169050919050565b600063ffffffff82169050919050565b600060ff82169050919050565b6200061481620005ac565b81146200062057600080fd5b50565b6200062e81620005c0565b81146200063a57600080fd5b50565b6200064881620005ec565b81146200065457600080fd5b50565b6200066281620005fc565b81146200066e57600080fd5b50565b61308380620006816000396000f3fe608060405234801561001057600080fd5b50600436106101425760003560e01c80638ab66a90116100b8578063c5bf93ba1161007c578063c5bf93ba14610312578063cebe09c91461032e578063d55d73c51461034c578063dd7177d81461037c578063f2fde38b1461039a578063f937f910146103b657610142565b80638ab66a90146102795780638da5cb5b146102ae5780639c5655d6146102cc578063a39fac12146102ea578063b647990a1461030857610142565b806343d4ed831161010a57806343d4ed83146101c95780634d23aaa7146101e75780634ede20d8146102035780636d89c6ab14610221578063715018a6146102515780638155f7361461025b57610142565b8063160d66ae146101475780631df8ba77146101655780632d35a8a21461018357806337b40f66146101a157806341c0e1b5146101bf575b600080fd5b61014f6103d4565b60405161015c9190612cfb565b60405180910390f35b61016d6103fa565b60405161017a9190612e0a565b60405180910390f35b61018b610416565b6040516101989190612e40565b60405180910390f35b6101a9610429565b6040516101b69190612e40565b60405180910390f35b6101c761043c565b005b6101d16104eb565b6040516101de9190612d96565b60405180910390f35b61020160048036036101fc91908101906127fb565b6104f1565b005b61020b6105cb565b6040516102189190612cbe565b60405180910390f35b61023b600480360361023691908101906128ca565b61082f565b6040516102489190612e25565b60405180910390f35b610259610856565b005b6102636109ab565b6040516102709190612cbe565b60405180910390f35b610293600480360361028e91908101906127a9565b610a39565b6040516102a596959493929190612c5d565b60405180910390f35b6102b6610ad9565b6040516102c39190612b74565b60405180910390f35b6102d4610b02565b6040516102e19190612e40565b60405180910390f35b6102f2610b07565b6040516102ff9190612cbe565b60405180910390f35b610310610b95565b005b61032c60048036036103279190810190612876565b611fd9565b005b610336612363565b6040516103439190612e0a565b60405180910390f35b61036660048036036103619190810190612824565b612379565b6040516103739190612b74565b60405180910390f35b6103846123b5565b6040516103919190612e40565b60405180910390f35b6103b460048036036103af91908101906127a9565b6123c8565b005b6103be61258c565b6040516103cb9190612ce0565b60405180910390f35b600160009054906101000a900473ffffffffffffffffffffffffffffffffffffffff1681565b600060018060050160ff166002548161040f57fe5b0401905090565b600660009054906101000a900460ff1681565b600360009054906101000a900460ff1681565b61044461259f565b73ffffffffffffffffffffffffffffffffffffffff166000809054906101000a900473ffffffffffffffffffffffffffffffffffffffff1673ffffffffffffffffffffffffffffffffffffffff16146104d2576040517f08c379a00000000000000000000000000000000000000000000000000000000081526004016104c990612d76565b60405180910390fd5b3373ffffffffffffffffffffffffffffffffffffffff16ff5b60025481565b6104f961259f565b73ffffffffffffffffffffffffffffffffffffffff166000809054906101000a900473ffffffffffffffffffffffffffffffffffffffff1673ffffffffffffffffffffffffffffffffffffffff1614610587576040517f08c379a000000000000000000000000000000000000000000000000000000000815260040161057e90612d76565b60405180910390fd5b80600160006101000a81548173ffffffffffffffffffffffffffffffffffffffff021916908373ffffffffffffffffffffffffffffffffffffffff16021790555050565b6060600060088054905014156107a35760008090505b600660009054906101000a900460ff1660ff168160ff1610156107a157600115156004600060058460ff168154811061061657fe5b9060005260206000200160009054906101000a900473ffffffffffffffffffffffffffffffffffffffff1673ffffffffffffffffffffffffffffffffffffffff1673ffffffffffffffffffffffffffffffffffffffff16815260200190815260200160002060000160169054906101000a900460ff16151514156107945760086004600060058460ff16815481106106aa57fe5b9060005260206000200160009054906101000a900473ffffffffffffffffffffffffffffffffffffffff1673ffffffffffffffffffffffffffffffffffffffff1673ffffffffffffffffffffffffffffffffffffffff16815260200190815260200160002060000160009054906101000a900473ffffffffffffffffffffffffffffffffffffffff169080600181540180825580915050600190039060005260206000200160009091909190916101000a81548173ffffffffffffffffffffffffffffffffffffffff021916908373ffffffffffffffffffffffffffffffffffffffff1602179055505b80806001019150506105e1565b505b600880548060200260200160405190810160405280929190818152602001828054801561082557602002820191906000526020600020905b8160009054906101000a900473ffffffffffffffffffffffffffffffffffffffff1673ffffffffffffffffffffffffffffffffffffffff16815260200190600101908083116107db575b5050505050905090565b60076020528060005260406000206000915054906101000a900467ffffffffffffffff1681565b61085e61259f565b73ffffffffffffffffffffffffffffffffffffffff166000809054906101000a900473ffffffffffffffffffffffffffffffffffffffff1673ffffffffffffffffffffffffffffffffffffffff16146108ec576040517f08c379a00000000000000000000000000000000000000000000000000000000081526004016108e390612d76565b60405180910390fd5b600073ffffffffffffffffffffffffffffffffffffffff166000809054906101000a900473ffffffffffffffffffffffffffffffffffffffff1673ffffffffffffffffffffffffffffffffffffffff167f8be0079c531659141344cd1fd0a4f28419497f9722a3daafe3b4186f6b6457e060405160405180910390a360008060006101000a81548173ffffffffffffffffffffffffffffffffffffffff021916908373ffffffffffffffffffffffffffffffffffffffff160217905550565b60606005805480602002602001604051908101604052809291908181526020018280548015610a2f57602002820191906000526020600020905b8160009054906101000a900473ffffffffffffffffffffffffffffffffffffffff1673ffffffffffffffffffffffffffffffffffffffff16815260200190600101908083116109e5575b5050505050905090565b60046020528060005260406000206000915090508060000160009054906101000a900473ffffffffffffffffffffffffffffffffffffffff16908060000160149054906101000a900460ff16908060000160159054906101000a900460ff16908060000160169054906101000a900460ff16908060000160179054906101000a900460ff16908060000160189054906101000a900463ffffffff16905086565b60008060009054906101000a900473ffffffffffffffffffffffffffffffffffffffff16905090565b600581565b60606005805480602002602001604051908101604052809291908181526020018280548015610b8b57602002820191906000526020600020905b8160009054906101000a900473ffffffffffffffffffffffffffffffffffffffff1673ffffffffffffffffffffffffffffffffffffffff1681526020019060010190808311610b41575b5050505050905090565b600060059050600160009054906101000a900473ffffffffffffffffffffffffffffffffffffffff1673ffffffffffffffffffffffffffffffffffffffff166370a08231306040518263ffffffff1660e01b8152600401610bf69190612b74565b60206040518083038186803b158015610c0e57600080fd5b505afa158015610c22573d6000803e3d6000fd5b505050506040513d601f19601f82011682018060405250610c46919081019061284d565b600281905550610c546103fa565b600360016101000a81548163ffffffff021916908363ffffffff1602179055506000600190505b600660009054906101000a900460ff1660ff168160ff1611611ae55760006001905060008090506000600160009054906101000a900473ffffffffffffffffffffffffffffffffffffffff1673ffffffffffffffffffffffffffffffffffffffff166370a08231306040518263ffffffff1660e01b8152600401610cff9190612b74565b60206040518083038186803b158015610d1757600080fd5b505afa158015610d2b573d6000803e3d6000fd5b505050506040513d601f19601f82011682018060405250610d4f919081019061284d565b905060008090505b600082118015610d695750818160ff16105b156115f1576000600160009054906101000a900473ffffffffffffffffffffffffffffffffffffffff1673ffffffffffffffffffffffffffffffffffffffff16632f745c5930846040518363ffffffff1660e01b8152600401610dcd929190612c34565b60206040518083038186803b158015610de557600080fd5b505afa158015610df9573d6000803e3d6000fd5b505050506040513d601f19601f82011682018060405250610e1d919081019061284d565b90506000600160009054906101000a900473ffffffffffffffffffffffffffffffffffffffff1673ffffffffffffffffffffffffffffffffffffffff1663d1d0a5ea83896040518363ffffffff1660e01b8152600401610e7e929190612de1565b60206040518083038186803b158015610e9657600080fd5b505afa158015610eaa573d6000803e3d6000fd5b505050506040513d601f19601f82011682018060405250610ece91908101906127d2565b9050600073ffffffffffffffffffffffffffffffffffffffff168173ffffffffffffffffffffffffffffffffffffffff161415610f145782806001019350505050610d57565b6000955060018760ff161415610fce57600160076000600460008573ffffffffffffffffffffffffffffffffffffffff1673ffffffffffffffffffffffffffffffffffffffff16815260200190815260200160002060000160149054906101000a900460ff1660ff1660ff16815260200190815260200160002060008282829054906101000a900467ffffffffffffffff160192506101000a81548167ffffffffffffffff021916908367ffffffffffffffff1602179055505b6000600160009054906101000a900473ffffffffffffffffffffffffffffffffffffffff1673ffffffffffffffffffffffffffffffffffffffff166370a08231836040518263ffffffff1660e01b815260040161102b9190612b74565b60206040518083038186803b15801561104357600080fd5b505afa158015611057573d6000803e3d6000fd5b505050506040513d601f19601f8201168201806040525061107b919081019061284d565b90506001600360019054906101000a900463ffffffff160363ffffffff16811480156110fa575060001515600460008473ffffffffffffffffffffffffffffffffffffffff1673ffffffffffffffffffffffffffffffffffffffff16815260200190815260200160002060000160179054906101000a900460ff161515145b1561131f57600160009054906101000a900473ffffffffffffffffffffffffffffffffffffffff1673ffffffffffffffffffffffffffffffffffffffff166323b872dd3084866040518463ffffffff1660e01b815260040161115e93929190612bfd565b600060405180830381600087803b15801561117857600080fd5b505af115801561118c573d6000803e3d6000fd5b505050506001600460008473ffffffffffffffffffffffffffffffffffffffff1673ffffffffffffffffffffffffffffffffffffffff16815260200190815260200160002060000160166101000a81548160ff021916908315150217905550600195506008829080600181540180825580915050600190039060005260206000200160009091909190916101000a81548173ffffffffffffffffffffffffffffffffffffffff021916908373ffffffffffffffffffffffffffffffffffffffff160217905550600160009054906101000a900473ffffffffffffffffffffffffffffffffffffffff1673ffffffffffffffffffffffffffffffffffffffff166370a08231306040518263ffffffff1660e01b81526004016112ad9190612b74565b60206040518083038186803b1580156112c557600080fd5b505afa1580156112d9573d6000803e3d6000fd5b505050506040513d601f19601f820116820180604052506112fd919081019061284d565b94508860019003985060008960ff16141561131a575050506115f1565b6115e9565b60001515600460008473ffffffffffffffffffffffffffffffffffffffff1673ffffffffffffffffffffffffffffffffffffffff16815260200190815260200160002060000160169054906101000a900460ff1615151480156113d5575060001515600460008473ffffffffffffffffffffffffffffffffffffffff1673ffffffffffffffffffffffffffffffffffffffff16815260200190815260200160002060000160179054906101000a900460ff161515145b1561151d57600160009054906101000a900473ffffffffffffffffffffffffffffffffffffffff1673ffffffffffffffffffffffffffffffffffffffff166323b872dd3084866040518463ffffffff1660e01b815260040161143993929190612bfd565b600060405180830381600087803b15801561145357600080fd5b505af1158015611467573d6000803e3d6000fd5b50505050600160009054906101000a900473ffffffffffffffffffffffffffffffffffffffff1673ffffffffffffffffffffffffffffffffffffffff166370a08231306040518263ffffffff1660e01b81526004016114c69190612b74565b60206040518083038186803b1580156114de57600080fd5b505afa1580156114f2573d6000803e3d6000fd5b505050506040513d601f19601f82011682018060405250611516919081019061284d565b94506115e8565b60011515600460008473ffffffffffffffffffffffffffffffffffffffff1673ffffffffffffffffffffffffffffffffffffffff16815260200190815260200160002060000160169054906101000a900460ff16151514806115d2575060011515600460008473ffffffffffffffffffffffffffffffffffffffff1673ffffffffffffffffffffffffffffffffffffffff16815260200190815260200160002060000160179054906101000a900460ff161515145b156115e7578380600101945050505050610d57565b5b5b505050610d57565b8380611600575060008660ff16145b1561160e5750505050611ae5565b821561161d5750505050611ad8565b6000600560008154811061162d57fe5b9060005260206000200160009054906101000a900473ffffffffffffffffffffffffffffffffffffffff1690506000600160009054906101000a900473ffffffffffffffffffffffffffffffffffffffff1673ffffffffffffffffffffffffffffffffffffffff166370a08231836040518263ffffffff1660e01b81526004016116b79190612b74565b60206040518083038186803b1580156116cf57600080fd5b505afa1580156116e3573d6000803e3d6000fd5b505050506040513d601f19601f82011682018060405250611707919081019061284d565b90506000600190505b600660009054906101000a900460ff1660ff168160ff161015611931576000600160009054906101000a900473ffffffffffffffffffffffffffffffffffffffff1673ffffffffffffffffffffffffffffffffffffffff166370a0823160058460ff168154811061177d57fe5b9060005260206000200160009054906101000a900473ffffffffffffffffffffffffffffffffffffffff166040518263ffffffff1660e01b81526004016117c49190612b74565b60206040518083038186803b1580156117dc57600080fd5b505afa1580156117f0573d6000803e3d6000fd5b505050506040513d601f19601f82011682018060405250611814919081019061284d565b9050600060058360ff168154811061182857fe5b9060005260206000200160009054906101000a900473ffffffffffffffffffffffffffffffffffffffff16905083821080156118b7575060001515600460008373ffffffffffffffffffffffffffffffffffffffff1673ffffffffffffffffffffffffffffffffffffffff16815260200190815260200160002060000160179054906101000a900460ff161515145b8015611916575060001515600460008373ffffffffffffffffffffffffffffffffffffffff1673ffffffffffffffffffffffffffffffffffffffff16815260200190815260200160002060000160169054906101000a900460ff161515145b15611922578094508193505b50508080600101915050611710565b506001600460008473ffffffffffffffffffffffffffffffffffffffff1673ffffffffffffffffffffffffffffffffffffffff16815260200190815260200160002060000160176101000a81548160ff0219169083151502179055506000811115611ad157600160009054906101000a900473ffffffffffffffffffffffffffffffffffffffff1673ffffffffffffffffffffffffffffffffffffffff1663abd2a233836040518263ffffffff1660e01b81526004016119f19190612b74565b600060405180830381600087803b158015611a0b57600080fd5b505af1158015611a1f573d6000803e3d6000fd5b50505050600160009054906101000a900473ffffffffffffffffffffffffffffffffffffffff1673ffffffffffffffffffffffffffffffffffffffff166370a08231306040518263ffffffff1660e01b8152600401611a7e9190612b74565b60206040518083038186803b158015611a9657600080fd5b505afa158015611aaa573d6000803e3d6000fd5b505050506040513d601f19601f82011682018060405250611ace919081019061284d565b93505b5050505050505b8080600101915050610c7b565b5080600503600360006101000a81548160ff021916908360ff16021790555060008090505b6005805490508160ff161015611e9f57600160009054906101000a900473ffffffffffffffffffffffffffffffffffffffff1673ffffffffffffffffffffffffffffffffffffffff166370a0823160058360ff1681548110611b6857fe5b9060005260206000200160009054906101000a900473ffffffffffffffffffffffffffffffffffffffff166040518263ffffffff1660e01b8152600401611baf9190612b74565b60206040518083038186803b158015611bc757600080fd5b505afa158015611bdb573d6000803e3d6000fd5b505050506040513d601f19601f82011682018060405250611bff919081019061284d565b6004600060058460ff1681548110611c1357fe5b9060005260206000200160009054906101000a900473ffffffffffffffffffffffffffffffffffffffff1673ffffffffffffffffffffffffffffffffffffffff1673ffffffffffffffffffffffffffffffffffffffff16815260200190815260200160002060000160186101000a81548163ffffffff021916908363ffffffff160217905550600a6001016004600060058460ff1681548110611cb257fe5b9060005260206000200160009054906101000a900473ffffffffffffffffffffffffffffffffffffffff1673ffffffffffffffffffffffffffffffffffffffff1673ffffffffffffffffffffffffffffffffffffffff168152602001908152602001600020908060018154018082558091505060019003906000526020600020016000909190919091506000820160009054906101000a900473ffffffffffffffffffffffffffffffffffffffff168160000160006101000a81548173ffffffffffffffffffffffffffffffffffffffff021916908373ffffffffffffffffffffffffffffffffffffffff1602179055506000820160149054906101000a900460ff168160000160146101000a81548160ff021916908360ff1602179055506000820160159054906101000a900460ff168160000160156101000a81548160ff021916908360ff1602179055506000820160169054906101000a900460ff168160000160166101000a81548160ff0219169083151502179055506000820160179054906101000a900460ff168160000160176101000a81548160ff0219169083151502179055506000820160189054906101000a900463ffffffff168160000160186101000a81548163ffffffff021916908363ffffffff16021790555050508080600101915050611b0a565b5060008090505b6000600760008360ff1660ff16815260200190815260200160002060009054906101000a900467ffffffffffffffff1667ffffffffffffffff161115611fba57600260ff16604051908082528060200260200182016040528015611f195781602001602082028038833980820191505090505b50600a6002019080519060200190611f329291906125a7565b50600760008280600101935060ff1660ff16815260200190815260200160002060009054906101000a900467ffffffffffffffff16600a6002018260ff1681548110611f7a57fe5b90600052602060002090600491828204019190066008026101000a81548167ffffffffffffffff021916908367ffffffffffffffff160217905550611ea6565b6001600960006101000a81548160ff0219169083151502179055505050565b600160149054906101000a900460ff1660ff16600160009054906101000a900473ffffffffffffffffffffffffffffffffffffffff1673ffffffffffffffffffffffffffffffffffffffff16631979955e846040518263ffffffff1660e01b81526004016120479190612d96565b60206040518083038186803b15801561205f57600080fd5b505afa158015612073573d6000803e3d6000fd5b505050506040513d601f19601f8201168201806040525061209791908101906128f3565b60ff16146120da576040517f08c379a00000000000000000000000000000000000000000000000000000000081526004016120d190612d56565b60405180910390fd5b60008090505b81518160ff1610156121e157600073ffffffffffffffffffffffffffffffffffffffff1660046000848460ff168151811061211757fe5b602002602001015173ffffffffffffffffffffffffffffffffffffffff1673ffffffffffffffffffffffffffffffffffffffff16815260200190815260200160002060000160009054906101000a900473ffffffffffffffffffffffffffffffffffffffff1673ffffffffffffffffffffffffffffffffffffffff1614156121d4576040517f08c379a00000000000000000000000000000000000000000000000000000000081526004016121cb90612d16565b60405180910390fd5b80806001019150506120e0565b50600160009054906101000a900473ffffffffffffffffffffffffffffffffffffffff1673ffffffffffffffffffffffffffffffffffffffff166323b872dd3330856040518463ffffffff1660e01b815260040161224193929190612b8f565b600060405180830381600087803b15801561225b57600080fd5b505af115801561226f573d6000803e3d6000fd5b50505050600160009054906101000a900473ffffffffffffffffffffffffffffffffffffffff1673ffffffffffffffffffffffffffffffffffffffff1663324b1dc683836040518363ffffffff1660e01b81526004016122d0929190612db1565b600060405180830381600087803b1580156122ea57600080fd5b505af11580156122fe573d6000803e3d6000fd5b5050505060016002600082825401925050819055507f7f3b06fb321072e157fa07f588b2ea4e02a23688046482ab463ef53aac8be0bb33600160149054906101000a900460ff1660025460405161235793929190612bc6565b60405180910390a15050565b600360019054906101000a900463ffffffff1681565b6005818154811061238657fe5b906000526020600020016000915054906101000a900473ffffffffffffffffffffffffffffffffffffffff1681565b600160149054906101000a900460ff1681565b6123d061259f565b73ffffffffffffffffffffffffffffffffffffffff166000809054906101000a900473ffffffffffffffffffffffffffffffffffffffff1673ffffffffffffffffffffffffffffffffffffffff161461245e576040517f08c379a000000000000000000000000000000000000000000000000000000000815260040161245590612d76565b60405180910390fd5b600073ffffffffffffffffffffffffffffffffffffffff168173ffffffffffffffffffffffffffffffffffffffff1614156124ce576040517f08c379a00000000000000000000000000000000000000000000000000000000081526004016124c590612d36565b60405180910390fd5b8073ffffffffffffffffffffffffffffffffffffffff166000809054906101000a900473ffffffffffffffffffffffffffffffffffffffff1673ffffffffffffffffffffffffffffffffffffffff167f8be0079c531659141344cd1fd0a4f28419497f9722a3daafe3b4186f6b6457e060405160405180910390a3806000806101000a81548173ffffffffffffffffffffffffffffffffffffffff021916908373ffffffffffffffffffffffffffffffffffffffff16021790555050565b600960009054906101000a900460ff1681565b600033905090565b8280548282559060005260206000209060030160049004810192821561264b5791602002820160005b8382111561261557835183826101000a81548167ffffffffffffffff021916908360ff16021790555092602001926008016020816007010492830192600103026125d0565b80156126495782816101000a81549067ffffffffffffffff0219169055600801602081600701049283019260010302612615565b505b509050612658919061265c565b5090565b61269091905b8082111561268c57600081816101000a81549067ffffffffffffffff021916905550600101612662565b5090565b90565b6000813590506126a281612ff1565b92915050565b6000815190506126b781612ff1565b92915050565b600082601f8301126126ce57600080fd5b81356126e16126dc82612e88565b612e5b565b9150818183526020840193506020810190508385602084028201111561270657600080fd5b60005b83811015612736578161271c8882612693565b845260208401935060208301925050600181019050612709565b5050505092915050565b60008135905061274f81613008565b92915050565b6000813590506127648161301f565b92915050565b6000815190506127798161301f565b92915050565b60008135905061278e81613036565b92915050565b6000815190506127a381613036565b92915050565b6000602082840312156127bb57600080fd5b60006127c984828501612693565b91505092915050565b6000602082840312156127e457600080fd5b60006127f2848285016126a8565b91505092915050565b60006020828403121561280d57600080fd5b600061281b84828501612740565b91505092915050565b60006020828403121561283657600080fd5b600061284484828501612755565b91505092915050565b60006020828403121561285f57600080fd5b600061286d8482850161276a565b91505092915050565b6000806040838503121561288957600080fd5b600061289785828601612755565b925050602083013567ffffffffffffffff8111156128b457600080fd5b6128c0858286016126bd565b9150509250929050565b6000602082840312156128dc57600080fd5b60006128ea8482850161277f565b91505092915050565b60006020828403121561290557600080fd5b600061291384828501612794565b91505092915050565b60006129288383612943565b60208301905092915050565b61293d81612f85565b82525050565b61294c81612efa565b82525050565b61295b81612efa565b82525050565b600061296c82612ec0565b6129768185612ed8565b935061298183612eb0565b8060005b838110156129b2578151612999888261291c565b97506129a483612ecb565b925050600181019050612985565b5085935050505092915050565b6129c881612f0c565b82525050565b6129d781612f97565b82525050565b60006129ea603a83612ee9565b91507f566f74656420666f722063616e646964617465206e6f742066726f6d2074686960008301527f732064697374726963742e20566f74652052656a65637465642e0000000000006020830152604082019050919050565b6000612a50602683612ee9565b91507f4f776e61626c653a206e6577206f776e657220697320746865207a65726f206160008301527f64647265737300000000000000000000000000000000000000000000000000006020830152604082019050919050565b6000612ab6601283612ee9565b91507f496e636f727265637420446973747269637400000000000000000000000000006000830152602082019050919050565b6000612af6602083612ee9565b91507f4f776e61626c653a2063616c6c6572206973206e6f7420746865206f776e65726000830152602082019050919050565b612b3281612f4a565b82525050565b612b4181612f54565b82525050565b612b5081612f64565b82525050565b612b5f81612fdf565b82525050565b612b6e81612f78565b82525050565b6000602082019050612b896000830184612952565b92915050565b6000606082019050612ba46000830186612934565b612bb16020830185612952565b612bbe6040830184612b29565b949350505050565b6000606082019050612bdb6000830186612934565b612be86020830185612b65565b612bf56040830184612b29565b949350505050565b6000606082019050612c126000830186612952565b612c1f6020830185612952565b612c2c6040830184612b29565b949350505050565b6000604082019050612c496000830185612952565b612c566020830184612b56565b9392505050565b600060c082019050612c726000830189612952565b612c7f6020830188612b65565b612c8c6040830187612b65565b612c9960608301866129bf565b612ca660808301856129bf565b612cb360a0830184612b38565b979650505050505050565b60006020820190508181036000830152612cd88184612961565b905092915050565b6000602082019050612cf560008301846129bf565b92915050565b6000602082019050612d1060008301846129ce565b92915050565b60006020820190508181036000830152612d2f816129dd565b9050919050565b60006020820190508181036000830152612d4f81612a43565b9050919050565b60006020820190508181036000830152612d6f81612aa9565b9050919050565b60006020820190508181036000830152612d8f81612ae9565b9050919050565b6000602082019050612dab6000830184612b29565b92915050565b6000604082019050612dc66000830185612b29565b8181036020830152612dd88184612961565b90509392505050565b6000604082019050612df66000830185612b29565b612e036020830184612b65565b9392505050565b6000602082019050612e1f6000830184612b38565b92915050565b6000602082019050612e3a6000830184612b47565b92915050565b6000602082019050612e556000830184612b65565b92915050565b6000604051905081810181811067ffffffffffffffff82111715612e7e57600080fd5b8060405250919050565b600067ffffffffffffffff821115612e9f57600080fd5b602082029050602081019050919050565b6000819050602082019050919050565b600081519050919050565b6000602082019050919050565b600082825260208201905092915050565b600082825260208201905092915050565b6000612f0582612f2a565b9050919050565b60008115159050919050565b6000612f2382612efa565b9050919050565b600073ffffffffffffffffffffffffffffffffffffffff82169050919050565b6000819050919050565b600063ffffffff82169050919050565b600067ffffffffffffffff82169050919050565b600060ff82169050919050565b6000612f9082612fbb565b9050919050565b6000612fa282612fa9565b9050919050565b6000612fb482612f2a565b9050919050565b6000612fc682612fcd565b9050919050565b6000612fd882612f2a565b9050919050565b6000612fea82612f78565b9050919050565b612ffa81612efa565b811461300557600080fd5b50565b61301181612f18565b811461301c57600080fd5b50565b61302881612f4a565b811461303357600080fd5b50565b61303f81612f78565b811461304a57600080fd5b5056fea2646970667358221220bac71d6204643a901f7db17104686c0f4d1f85f29cfce7209dbe6fc0ed19146564736f6c63430006020033",
  "source": "pragma solidity ^0.6.0;\npragma experimental ABIEncoderV2;\n\n//import \"@openzeppelin/contracts/token/ERC721/IERC721Receiver.sol\";\nimport \"./VoteToken.sol\";\nimport \"./Shared.sol\";\nimport \"@openzeppelin/contracts/access/Ownable.sol\";\nimport \"@openzeppelin/contracts/math/SafeMath.sol\";\n\ncontract District is Ownable{\n    using SafeMath for uint256;\n    using SafeMath for uint32;\n    using SafeMath for uint8;\n    using SafeMath for uint;\n\n    VoteToken public voteToken;\n    uint8 public districtNumber;\n    //uint public eligibleVotes ;\n    uint public castVotes;\n    //uint32 internal uncountedVotes;\n    uint8 constant public seats = 5;\n    uint8 public seatsFilled;\n    uint32 public quota;\n    \n    //Shared.DistrictResults internal results;\n    mapping(address => Shared.Candidate) public candidates;\n    address[] public candidateAddresses;\n    uint8 public candidatesCount;\n    mapping(uint8 => uint64) public party1stCountVotes;\n    address[] electedCandidates;\n    \n    bool public counted = false;\n\n    Shared.DistrictResults internal districtResults;\n\n\n    event Vote(address _voter, uint8 districtNo, uint castVotes);\n\n    constructor(uint8 _districtNumber, Shared.Candidate[] memory _candidates/*, VoteToken _voteToken*/) Ownable() public{\n        //voteToken = _voteToken;\n        districtNumber = _districtNumber;\n        //eligibleVotes = _eligibleVotes;\n        castVotes = 0;\n        candidatesCount = uint8(_candidates.length);\n        \n        for(uint8 i = 0; i < candidatesCount; i++){\n            candidateAddresses.push(_candidates[i]._address);\n            candidates[_candidates[i]._address] = _candidates[i];\n        }\n    }\n    \n    function setVoteToken(VoteToken _voteToken) public onlyOwner{\n        voteToken = _voteToken;\n    }\n    /*function getVoterTurnout() public view returns(uint){\n        return castVotes/eligibleVotes;\n    }*/\n\n    function getCandidateAddresses() public view returns(address[] memory){\n        return candidateAddresses;\n    }\n    \n    function vote(uint256 tokenId, address[] memory _preferences) public {\n        require(voteToken.district(tokenId) == districtNumber,\"Incorrect District\");\n\n        for(uint8 i = 0; i < _preferences.length; i++)\n            require(candidates[_preferences[i]]._address != address(0), \"Voted for candidate not from this district. Vote Rejected.\");\n//WRITE TEST FOR ABOVE LINE ^^^\n        voteToken.transferFrom(msg.sender,address(this),tokenId);\n        voteToken.setVotePreferences(tokenId, _preferences);\n        castVotes += 1;\n        emit Vote(msg.sender, districtNumber, castVotes);\n    }\n    \n    \n    /*function onERC721Received(address operator, address from, uint256 tokenId, bytes calldata data) external override returns (bytes4){\n        require(voteToken.district(tokenId) == districtNumber,\"Incorrect District\");\n\n   }*/\n\n   function getAddresses() public view returns(address[] memory) {\n       return candidateAddresses;\n   }\n\n    /*function getResults() public returns(Shared.DistrictResults memory) {\n        require(counted,\"Votes have not yet been tallied for this district.\");\n        return districtResults;\n    }*/\n\n   function getQuota() public view returns(uint32){\n       //quota = (castVotes/(seats+1)) + 1;\n       return uint32((castVotes/(seats + 1)) + 1);\n   }\n\n\n    function getAllElected() public returns(address[] memory){\n        if(electedCandidates.length==0){\n        \n            for(uint8 i = 0; i < candidatesCount; i++){\n                if(candidates[candidateAddresses[i]].elected == true)\n                    electedCandidates.push(candidates[candidateAddresses[i]]._address);\n            }\n        \n        }\n        return electedCandidates;\n    }\n    \n    function kill() public onlyOwner {\n        //require(msg.sender == owner);\n        selfdestruct(msg.sender);\n    }\n\n    function transferAllBack(address _from) internal {\n        voteToken.transferAllBack(_from);\n    }\n\n    function countVotes() public{\n        uint8 seatsRemaining = seats; //number of seats which have not yet been filled.\n        castVotes = voteToken.balanceOf(address(this));\n        quota = getQuota();\n        \n        for (uint8 j = 1; j <= candidatesCount; j++){ \n            /*the number of candidates being the theoretical maximum preferences a voter can select, and therefore the theoretical maximum possible number of rounds.*/\n            bool noMoreRounds = true; \n            //Will remain set to true if it is found that for a given round of counting j, no voter has selected a preference this high, and signal to terminate the counting process.\n            bool candidateElected = false; \n            //whether in this round of counting at least one seat has been filled. \n            uint uncountedVotes = voteToken.balanceOf(address(this));\n            //uint256[] memory voteTokenIDs = new uint256[](uncountedVotes);\n\n            /*for (uint32 i = 0; i < uncountedVotes; i++){\n                uint256 voteTokenID = voteToken.tokenOfOwnerByIndex(address(this),i);\n                voteTokenIDs[i] = voteTokenID;\n            }*/\n\n            /*for (uint i = 0; i < uncountedVotes; i++)*/\n            uint8 i=0; \n            /*\n            i: \"pointer\" value which indicates which indicates the index of the token that will be counted, starts at 0 at each round of counting and increases by 1 when a vote is encountered that cannot be\n            counted this round.\n            Reminder that in ERC721 implementing IERC721enumerable and using the Openzeppelin EnumerableSet library, when a token is removed from an address' balance, the last token in\n            the Enumerable list of tokens swaps places with the removed token in the enumerate list, with the last index of the array being popped off, and the arrays length reduced by 1.\n            \n            When a vote is encountered where the jth preference is a candidate that is elected or eliminated, or not marked; ie their vote will be transferred to the next j+1th\n            round of counting, the pointer value i is incremented by 1 for this round and the loop is moved forward one iteration. \n            In the next iteration, the token at index i + 1 will be counted, with the process above repeating itself if this vote also cannot be counted in this round.\n\n            When i becomes == the remaining balance (uncountedVotes) it means there are no more votes left to count this round and the loop will end.\n            When the balance is reduced to 0, the inner while loop ends  \n            */\n            while(uncountedVotes > 0 && i < uncountedVotes){\n                uint256 voteTokenID = voteToken.tokenOfOwnerByIndex(address(this),i); \n                //uint256 voteTokenID = voteTokenIDs[i];\n\n                /*\n                If a vote is uncounted by the jth round of counting, and the voter only marked j-1 preferences,\n                ie: the voter's preferences from 1 to j-1 have all been elected or eliminated by the time the vote is counted,\n                the vote is said to be non-transferable and is effectively discarded. In reality, it remains in the District contract balance.\n                */\n                address candidateAddress = voteToken.preferences(voteTokenID,j);\n                if(candidateAddress == address(0)){\n                    i++;\n                    continue;\n                }\n                else\n                    noMoreRounds = false;\n                \n               /* else\n                    noMoreRounds = false;*/\n\n                if(j==1)\n                    party1stCountVotes[candidates[candidateAddress].party] += 1;\n                    /*\n                    Party 1st count votes balance increases regardless of whether the vote actually ends up at the 1st preference candidate or \n                    is transferred to another candidate, potentially of a different party.\n                    */\n                \n                uint voteBalance = voteToken.balanceOf(candidateAddress);\n                \n                \n                if(voteBalance == quota-1 && candidates[candidateAddress].eliminated == false){\n                    voteToken.transferFrom(address(this), candidateAddress, voteTokenID);\n                    candidates[candidateAddress].elected = true;\n                    candidateElected = true;\n                    electedCandidates.push(candidateAddress);\n                    uncountedVotes = voteToken.balanceOf(address(this));\n                    --seatsRemaining;\n                    if(seatsRemaining == 0)\n                        break;\n                }\n                else if(candidates[candidateAddress].elected == false && candidates[candidateAddress].eliminated == false){\n                    voteToken.transferFrom(address(this), candidateAddress, voteTokenID);\n                    uncountedVotes = voteToken.balanceOf(address(this));\n                }\n                else if(candidates[candidateAddress].elected == true || candidates[candidateAddress].eliminated == true){\n                    // move pointer forward\n                    i++;\n                    continue;\n                }\n            }\n            \n            if(noMoreRounds || seatsRemaining == 0) \n                break;\n            else if(candidateElected)\n                continue;\n\n            /*If no candidate was elected this round of counting, we eliminate candidate with least votes and transfer their votes back to the district contract for next preference counting.*/\n            address currentCandidateWithLeastVotes = candidateAddresses[0];\n            uint currentLeastVotes = voteToken.balanceOf(currentCandidateWithLeastVotes);\n            /*In STV, the candidate to be eliminated is selected randomly if 2 or more candidates are\n            tied for least amount of votes; This would be expensive to implement on chain, so to eliminate bias, the addresses passed as candidateAddresses to the District constructor should\n            be \"shuffled\" off-chain before being passed. */\n            for (uint8 k = 1; k < candidatesCount; k++){\n                uint _balance = voteToken.balanceOf(candidateAddresses[k]);\n                address _candidateAddress = candidateAddresses[k];\n\n                if(_balance < currentLeastVotes && candidates[_candidateAddress].eliminated == false && candidates[_candidateAddress].elected == false ){\n                    currentCandidateWithLeastVotes = _candidateAddress;\n                    currentLeastVotes = _balance;\n                }\n            }\n\n            candidates[currentCandidateWithLeastVotes].eliminated = true;\n            if(currentLeastVotes>0){\n                voteToken.transferAllBack(currentCandidateWithLeastVotes);\n                uncountedVotes = voteToken.balanceOf(address(this));\n            }\n           \n            \n            \n        }\n        \n        seatsFilled = seats - seatsRemaining;\n\n        for(uint8 i = 0; i<candidateAddresses.length; i++){\n            candidates[candidateAddresses[i]].votes = uint32(voteToken.balanceOf(candidateAddresses[i]));\n            districtResults.candidateResults.push(candidates[candidateAddresses[i]]);\n        }\n\n        uint8 k = 0;\n        while(party1stCountVotes[k]>0){\n            districtResults.party1stCountVotes = new uint8[](Shared.parties);\n            districtResults.party1stCountVotes[k] = party1stCountVotes[k++];\n        }\n\n\n        counted = true;\n    }\n}",
  "sourcePath": "/Users/timothymuscat/Documents/MScThesis/BlockVote_ReactBox/contracts/District.sol",
  "compiler": {
    "name": "solc",
    "version": "0.6.2+commit.bacdbe57.Emscripten.clang"
  },
  "schemaVersion": "3.2.2",
  "updatedAt": "2020-09-21T08:53:10.728Z",
  "devdoc": {
    "methods": {
      "owner()": {
        "details": "Returns the address of the current owner."
      },
      "renounceOwnership()": {
        "details": "Leaves the contract without owner. It will not be possible to call `onlyOwner` functions anymore. Can only be called by the current owner.     * NOTE: Renouncing ownership will leave the contract without an owner, thereby removing any functionality that is only available to the owner."
      },
      "transferOwnership(address)": {
        "details": "Transfers ownership of the contract to a new account (`newOwner`). Can only be called by the current owner."
      }
    }
  },
  "userdoc": {
    "methods": {}
  }
}