{
  "contractName": "District",
  "abi": [
    {
      "inputs": [
        {
          "internalType": "uint8",
          "name": "_districtNumber",
          "type": "uint8"
        },
        {
          "components": [
            {
              "internalType": "address",
              "name": "_address",
              "type": "address"
            },
            {
              "internalType": "uint8",
              "name": "party",
              "type": "uint8"
            },
            {
              "internalType": "uint8",
              "name": "districtNo",
              "type": "uint8"
            },
            {
              "internalType": "bool",
              "name": "elected",
              "type": "bool"
            },
            {
              "internalType": "bool",
              "name": "eliminated",
              "type": "bool"
            },
            {
              "internalType": "uint32",
              "name": "votes",
              "type": "uint32"
            }
          ],
          "internalType": "struct Shared.Candidate[]",
          "name": "_candidates",
          "type": "tuple[]"
        }
      ],
      "stateMutability": "nonpayable",
      "type": "constructor"
    },
    {
      "anonymous": false,
      "inputs": [
        {
          "indexed": true,
          "internalType": "address",
          "name": "previousOwner",
          "type": "address"
        },
        {
          "indexed": true,
          "internalType": "address",
          "name": "newOwner",
          "type": "address"
        }
      ],
      "name": "OwnershipTransferred",
      "type": "event"
    },
    {
      "anonymous": false,
      "inputs": [
        {
          "indexed": false,
          "internalType": "address",
          "name": "_voter",
          "type": "address"
        },
        {
          "indexed": false,
          "internalType": "uint8",
          "name": "districtNo",
          "type": "uint8"
        },
        {
          "indexed": false,
          "internalType": "uint32",
          "name": "castVotes",
          "type": "uint32"
        }
      ],
      "name": "Vote",
      "type": "event"
    },
    {
      "inputs": [
        {
          "internalType": "uint256",
          "name": "",
          "type": "uint256"
        }
      ],
      "name": "candidateAddresses",
      "outputs": [
        {
          "internalType": "address",
          "name": "",
          "type": "address"
        }
      ],
      "stateMutability": "view",
      "type": "function"
    },
    {
      "inputs": [
        {
          "internalType": "address",
          "name": "",
          "type": "address"
        }
      ],
      "name": "candidates",
      "outputs": [
        {
          "internalType": "address",
          "name": "_address",
          "type": "address"
        },
        {
          "internalType": "uint8",
          "name": "party",
          "type": "uint8"
        },
        {
          "internalType": "uint8",
          "name": "districtNo",
          "type": "uint8"
        },
        {
          "internalType": "bool",
          "name": "elected",
          "type": "bool"
        },
        {
          "internalType": "bool",
          "name": "eliminated",
          "type": "bool"
        },
        {
          "internalType": "uint32",
          "name": "votes",
          "type": "uint32"
        }
      ],
      "stateMutability": "view",
      "type": "function"
    },
    {
      "inputs": [],
      "name": "candidatesCount",
      "outputs": [
        {
          "internalType": "uint8",
          "name": "",
          "type": "uint8"
        }
      ],
      "stateMutability": "view",
      "type": "function"
    },
    {
      "inputs": [],
      "name": "castVotes",
      "outputs": [
        {
          "internalType": "uint32",
          "name": "",
          "type": "uint32"
        }
      ],
      "stateMutability": "view",
      "type": "function"
    },
    {
      "inputs": [],
      "name": "counted",
      "outputs": [
        {
          "internalType": "bool",
          "name": "",
          "type": "bool"
        }
      ],
      "stateMutability": "view",
      "type": "function"
    },
    {
      "inputs": [],
      "name": "districtNumber",
      "outputs": [
        {
          "internalType": "uint8",
          "name": "",
          "type": "uint8"
        }
      ],
      "stateMutability": "view",
      "type": "function"
    },
    {
      "inputs": [],
      "name": "owner",
      "outputs": [
        {
          "internalType": "address",
          "name": "",
          "type": "address"
        }
      ],
      "stateMutability": "view",
      "type": "function"
    },
    {
      "inputs": [
        {
          "internalType": "uint8",
          "name": "",
          "type": "uint8"
        }
      ],
      "name": "party1stCountVotes",
      "outputs": [
        {
          "internalType": "uint32",
          "name": "",
          "type": "uint32"
        }
      ],
      "stateMutability": "view",
      "type": "function"
    },
    {
      "inputs": [],
      "name": "quota",
      "outputs": [
        {
          "internalType": "uint32",
          "name": "",
          "type": "uint32"
        }
      ],
      "stateMutability": "view",
      "type": "function"
    },
    {
      "inputs": [],
      "name": "renounceOwnership",
      "outputs": [],
      "stateMutability": "nonpayable",
      "type": "function"
    },
    {
      "inputs": [],
      "name": "seats",
      "outputs": [
        {
          "internalType": "uint8",
          "name": "",
          "type": "uint8"
        }
      ],
      "stateMutability": "view",
      "type": "function"
    },
    {
      "inputs": [],
      "name": "seatsFilled",
      "outputs": [
        {
          "internalType": "uint8",
          "name": "",
          "type": "uint8"
        }
      ],
      "stateMutability": "view",
      "type": "function"
    },
    {
      "inputs": [
        {
          "internalType": "address",
          "name": "newOwner",
          "type": "address"
        }
      ],
      "name": "transferOwnership",
      "outputs": [],
      "stateMutability": "nonpayable",
      "type": "function"
    },
    {
      "inputs": [],
      "name": "voteToken",
      "outputs": [
        {
          "internalType": "contract VoteToken",
          "name": "",
          "type": "address"
        }
      ],
      "stateMutability": "view",
      "type": "function"
    },
    {
      "inputs": [
        {
          "internalType": "contract VoteToken",
          "name": "_voteToken",
          "type": "address"
        }
      ],
      "name": "setVoteToken",
      "outputs": [],
      "stateMutability": "nonpayable",
      "type": "function"
    },
    {
      "inputs": [],
      "name": "getCandidateAddresses",
      "outputs": [
        {
          "internalType": "address[]",
          "name": "",
          "type": "address[]"
        }
      ],
      "stateMutability": "view",
      "type": "function"
    },
    {
      "inputs": [
        {
          "internalType": "uint256",
          "name": "tokenId",
          "type": "uint256"
        },
        {
          "internalType": "address[]",
          "name": "_preferences",
          "type": "address[]"
        }
      ],
      "name": "vote",
      "outputs": [],
      "stateMutability": "nonpayable",
      "type": "function"
    },
    {
      "inputs": [],
      "name": "getAddresses",
      "outputs": [
        {
          "internalType": "address[]",
          "name": "",
          "type": "address[]"
        }
      ],
      "stateMutability": "view",
      "type": "function"
    },
    {
      "inputs": [],
      "name": "getQuota",
      "outputs": [
        {
          "internalType": "uint32",
          "name": "",
          "type": "uint32"
        }
      ],
      "stateMutability": "view",
      "type": "function"
    },
    {
      "inputs": [],
      "name": "getAllElected",
      "outputs": [
        {
          "internalType": "address[]",
          "name": "",
          "type": "address[]"
        }
      ],
      "stateMutability": "nonpayable",
      "type": "function"
    },
    {
      "inputs": [],
      "name": "kill",
      "outputs": [],
      "stateMutability": "nonpayable",
      "type": "function"
    },
    {
      "inputs": [
        {
          "internalType": "address",
          "name": "_from",
          "type": "address"
        }
      ],
      "name": "transferAllBack",
      "outputs": [],
      "stateMutability": "nonpayable",
      "type": "function"
    },
    {
      "inputs": [],
      "name": "countVotes",
      "outputs": [],
      "stateMutability": "nonpayable",
      "type": "function"
    }
  ],
  "bytecode": "0x60806040526000600760006101000a81548160ff0219169083151502179055503480156200002c57600080fd5b506040516200367e3803806200367e833981810160405262000052919081019062000515565b6000620000646200037960201b60201c565b9050806000806101000a81548173ffffffffffffffffffffffffffffffffffffffff021916908373ffffffffffffffffffffffffffffffffffffffff1602179055508073ffffffffffffffffffffffffffffffffffffffff16600073ffffffffffffffffffffffffffffffffffffffff167f8be0079c531659141344cd1fd0a4f28419497f9722a3daafe3b4186f6b6457e060405160405180910390a35081600160146101000a81548160ff021916908360ff1602179055506000600160156101000a81548163ffffffff021916908363ffffffff1602179055508051600460006101000a81548160ff021916908360ff16021790555060008090505b600460009054906101000a900460ff1660ff168160ff16101562000370576003828260ff16815181106200019157fe5b6020026020010151600001519080600181540180825580915050600190039060005260206000200160009091909190916101000a81548173ffffffffffffffffffffffffffffffffffffffff021916908373ffffffffffffffffffffffffffffffffffffffff160217905550818160ff16815181106200020d57fe5b602002602001015160026000848460ff16815181106200022957fe5b60200260200101516000015173ffffffffffffffffffffffffffffffffffffffff1673ffffffffffffffffffffffffffffffffffffffff16815260200190815260200160002060008201518160000160006101000a81548173ffffffffffffffffffffffffffffffffffffffff021916908373ffffffffffffffffffffffffffffffffffffffff16021790555060208201518160000160146101000a81548160ff021916908360ff16021790555060408201518160000160156101000a81548160ff021916908360ff16021790555060608201518160000160166101000a81548160ff02191690831515021790555060808201518160000160176101000a81548160ff02191690831515021790555060a08201518160000160186101000a81548163ffffffff021916908363ffffffff160217905550905050808060010191505062000161565b5050506200068b565b600033905090565b600081519050620003928162000623565b92915050565b600082601f830112620003aa57600080fd5b8151620003c1620003bb826200059d565b6200056f565b915081818352602084019350602081019050838560c0840282011115620003e757600080fd5b60005b838110156200041b57816200040088826200043c565b845260208401935060c08301925050600181019050620003ea565b5050505092915050565b60008151905062000436816200063d565b92915050565b600060c082840312156200044f57600080fd5b6200045b60c06200056f565b905060006200046d8482850162000381565b60008301525060206200048384828501620004fe565b60208301525060406200049984828501620004fe565b6040830152506060620004af8482850162000425565b6060830152506080620004c58482850162000425565b60808301525060a0620004db84828501620004e7565b60a08301525092915050565b600081519050620004f88162000657565b92915050565b6000815190506200050f8162000671565b92915050565b600080604083850312156200052957600080fd5b60006200053985828601620004fe565b925050602083015167ffffffffffffffff8111156200055757600080fd5b620005658582860162000398565b9150509250929050565b6000604051905081810181811067ffffffffffffffff821117156200059357600080fd5b8060405250919050565b600067ffffffffffffffff821115620005b557600080fd5b602082029050602081019050919050565b6000620005d382620005e6565b9050919050565b60008115159050919050565b600073ffffffffffffffffffffffffffffffffffffffff82169050919050565b600063ffffffff82169050919050565b600060ff82169050919050565b6200062e81620005c6565b81146200063a57600080fd5b50565b6200064881620005da565b81146200065457600080fd5b50565b620006628162000606565b81146200066e57600080fd5b50565b6200067c8162000616565b81146200068857600080fd5b50565b612fe3806200069b6000396000f3fe608060405234801561001057600080fd5b506004361061014d5760003560e01c80638ab66a90116100c3578063c5bf93ba1161007c578063c5bf93ba14610339578063cebe09c914610355578063d55d73c514610373578063dd7177d8146103a3578063f2fde38b146103c1578063f937f910146103dd5761014d565b80638ab66a90146102845780638da5cb5b146102b95780639c5655d6146102d7578063a39fac12146102f5578063abd2a23314610313578063b647990a1461032f5761014d565b806343d4ed831161011557806343d4ed83146101d45780634d23aaa7146101f25780634ede20d81461020e5780636d89c6ab1461022c578063715018a61461025c5780638155f736146102665761014d565b8063160d66ae146101525780631df8ba77146101705780632d35a8a21461018e57806337b40f66146101ac57806341c0e1b5146101ca575b600080fd5b61015a6103fb565b6040516101679190612c8a565b60405180910390f35b610178610421565b6040516101859190612d99565b60405180910390f35b610196610453565b6040516101a39190612db4565b60405180910390f35b6101b4610466565b6040516101c19190612db4565b60405180910390f35b6101d2610479565b005b6101dc610528565b6040516101e99190612d99565b60405180910390f35b61020c60048036036102079190810190612799565b61053e565b005b610216610618565b6040516102239190612c4d565b60405180910390f35b61024660048036036102419190810190612868565b61087c565b6040516102539190612d99565b60405180910390f35b61026461089f565b005b61026e6109f4565b60405161027b9190612c4d565b60405180910390f35b61029e60048036036102999190810190612747565b610a82565b6040516102b096959493929190612bec565b60405180910390f35b6102c1610b22565b6040516102ce9190612b03565b60405180910390f35b6102df610b4b565b6040516102ec9190612db4565b60405180910390f35b6102fd610b50565b60405161030a9190612c4d565b60405180910390f35b61032d60048036036103289190810190612747565b610bde565b005b610337610c6e565b005b610353600480360361034e9190810190612814565b611f4e565b005b61035d61230d565b60405161036a9190612d99565b60405180910390f35b61038d600480360361038891908101906127c2565b612323565b60405161039a9190612b03565b60405180910390f35b6103ab61235f565b6040516103b89190612db4565b60405180910390f35b6103db60048036036103d69190810190612747565b612372565b005b6103e5612536565b6040516103f29190612c6f565b60405180910390f35b600160009054906101000a900473ffffffffffffffffffffffffffffffffffffffff1681565b600060018060050160ff16600160159054906101000a900463ffffffff1663ffffffff168161044c57fe5b0401905090565b600460009054906101000a900460ff1681565b600160199054906101000a900460ff1681565b610481612549565b73ffffffffffffffffffffffffffffffffffffffff166000809054906101000a900473ffffffffffffffffffffffffffffffffffffffff1673ffffffffffffffffffffffffffffffffffffffff161461050f576040517f08c379a000000000000000000000000000000000000000000000000000000000815260040161050690612d05565b60405180910390fd5b3373ffffffffffffffffffffffffffffffffffffffff16ff5b600160159054906101000a900463ffffffff1681565b610546612549565b73ffffffffffffffffffffffffffffffffffffffff166000809054906101000a900473ffffffffffffffffffffffffffffffffffffffff1673ffffffffffffffffffffffffffffffffffffffff16146105d4576040517f08c379a00000000000000000000000000000000000000000000000000000000081526004016105cb90612d05565b60405180910390fd5b80600160006101000a81548173ffffffffffffffffffffffffffffffffffffffff021916908373ffffffffffffffffffffffffffffffffffffffff16021790555050565b6060600060068054905014156107f05760008090505b600460009054906101000a900460ff1660ff168160ff1610156107ee57600115156002600060038460ff168154811061066357fe5b9060005260206000200160009054906101000a900473ffffffffffffffffffffffffffffffffffffffff1673ffffffffffffffffffffffffffffffffffffffff1673ffffffffffffffffffffffffffffffffffffffff16815260200190815260200160002060000160169054906101000a900460ff16151514156107e15760066002600060038460ff16815481106106f757fe5b9060005260206000200160009054906101000a900473ffffffffffffffffffffffffffffffffffffffff1673ffffffffffffffffffffffffffffffffffffffff1673ffffffffffffffffffffffffffffffffffffffff16815260200190815260200160002060000160009054906101000a900473ffffffffffffffffffffffffffffffffffffffff169080600181540180825580915050600190039060005260206000200160009091909190916101000a81548173ffffffffffffffffffffffffffffffffffffffff021916908373ffffffffffffffffffffffffffffffffffffffff1602179055505b808060010191505061062e565b505b600680548060200260200160405190810160405280929190818152602001828054801561087257602002820191906000526020600020905b8160009054906101000a900473ffffffffffffffffffffffffffffffffffffffff1673ffffffffffffffffffffffffffffffffffffffff1681526020019060010190808311610828575b5050505050905090565b60056020528060005260406000206000915054906101000a900463ffffffff1681565b6108a7612549565b73ffffffffffffffffffffffffffffffffffffffff166000809054906101000a900473ffffffffffffffffffffffffffffffffffffffff1673ffffffffffffffffffffffffffffffffffffffff1614610935576040517f08c379a000000000000000000000000000000000000000000000000000000000815260040161092c90612d05565b60405180910390fd5b600073ffffffffffffffffffffffffffffffffffffffff166000809054906101000a900473ffffffffffffffffffffffffffffffffffffffff1673ffffffffffffffffffffffffffffffffffffffff167f8be0079c531659141344cd1fd0a4f28419497f9722a3daafe3b4186f6b6457e060405160405180910390a360008060006101000a81548173ffffffffffffffffffffffffffffffffffffffff021916908373ffffffffffffffffffffffffffffffffffffffff160217905550565b60606003805480602002602001604051908101604052809291908181526020018280548015610a7857602002820191906000526020600020905b8160009054906101000a900473ffffffffffffffffffffffffffffffffffffffff1673ffffffffffffffffffffffffffffffffffffffff1681526020019060010190808311610a2e575b5050505050905090565b60026020528060005260406000206000915090508060000160009054906101000a900473ffffffffffffffffffffffffffffffffffffffff16908060000160149054906101000a900460ff16908060000160159054906101000a900460ff16908060000160169054906101000a900460ff16908060000160179054906101000a900460ff16908060000160189054906101000a900463ffffffff16905086565b60008060009054906101000a900473ffffffffffffffffffffffffffffffffffffffff16905090565b600581565b60606003805480602002602001604051908101604052809291908181526020018280548015610bd457602002820191906000526020600020905b8160009054906101000a900473ffffffffffffffffffffffffffffffffffffffff1673ffffffffffffffffffffffffffffffffffffffff1681526020019060010190808311610b8a575b5050505050905090565b600160009054906101000a900473ffffffffffffffffffffffffffffffffffffffff1673ffffffffffffffffffffffffffffffffffffffff1663abd2a233826040518263ffffffff1660e01b8152600401610c399190612b03565b600060405180830381600087803b158015610c5357600080fd5b505af1158015610c67573d6000803e3d6000fd5b5050505050565b600060059050600160009054906101000a900473ffffffffffffffffffffffffffffffffffffffff1673ffffffffffffffffffffffffffffffffffffffff166370a08231306040518263ffffffff1660e01b8152600401610ccf9190612b03565b60206040518083038186803b158015610ce757600080fd5b505afa158015610cfb573d6000803e3d6000fd5b505050506040513d601f19601f82011682018060405250610d1f91908101906127eb565b600160156101000a81548163ffffffff021916908363ffffffff160217905550610d47610421565b6001601a6101000a81548163ffffffff021916908363ffffffff1602179055506000600190505b600460009054906101000a900460ff1660ff168160ff1611611a6e5760006001905060008090506000600160009054906101000a900473ffffffffffffffffffffffffffffffffffffffff1673ffffffffffffffffffffffffffffffffffffffff166370a08231306040518263ffffffff1660e01b8152600401610df29190612b03565b60206040518083038186803b158015610e0a57600080fd5b505afa158015610e1e573d6000803e3d6000fd5b505050506040513d601f19601f82011682018060405250610e4291908101906127eb565b905060608163ffffffff16604051908082528060200260200182016040528015610e7b5781602001602082028038833980820191505090505b50905060008090505b8263ffffffff168163ffffffff161015610f76576000600160009054906101000a900473ffffffffffffffffffffffffffffffffffffffff1673ffffffffffffffffffffffffffffffffffffffff16632f745c5930846040518363ffffffff1660e01b8152600401610ef7929190612bc3565b60206040518083038186803b158015610f0f57600080fd5b505afa158015610f23573d6000803e3d6000fd5b505050506040513d601f19601f82011682018060405250610f4791908101906127eb565b905080838363ffffffff1681518110610f5c57fe5b602002602001018181525050508080600101915050610e84565b5060008090505b81518163ffffffff161015611614576000828263ffffffff1681518110610fa057fe5b602002602001015190506000600160009054906101000a900473ffffffffffffffffffffffffffffffffffffffff1673ffffffffffffffffffffffffffffffffffffffff1663d1d0a5ea838a6040518363ffffffff1660e01b8152600401611009929190612d70565b60206040518083038186803b15801561102157600080fd5b505afa158015611035573d6000803e3d6000fd5b505050506040513d601f19601f820116820180604052506110599190810190612770565b9050600073ffffffffffffffffffffffffffffffffffffffff168173ffffffffffffffffffffffffffffffffffffffff161415611097575050611607565b6000965060018860ff16141561114557600160056000600260008573ffffffffffffffffffffffffffffffffffffffff1673ffffffffffffffffffffffffffffffffffffffff16815260200190815260200160002060000160149054906101000a900460ff1660ff1660ff16815260200190815260200160002060008282829054906101000a900463ffffffff160192506101000a81548163ffffffff021916908363ffffffff1602179055505b6000600160009054906101000a900473ffffffffffffffffffffffffffffffffffffffff1673ffffffffffffffffffffffffffffffffffffffff166370a08231836040518263ffffffff1660e01b81526004016111a29190612b03565b60206040518083038186803b1580156111ba57600080fd5b505afa1580156111ce573d6000803e3d6000fd5b505050506040513d601f19601f820116820180604052506111f291908101906127eb565b9050600180601a9054906101000a900463ffffffff160363ffffffff168163ffffffff16148015611276575060001515600260008473ffffffffffffffffffffffffffffffffffffffff1673ffffffffffffffffffffffffffffffffffffffff16815260200190815260200160002060000160179054906101000a900460ff161515145b156113ee57600160009054906101000a900473ffffffffffffffffffffffffffffffffffffffff1673ffffffffffffffffffffffffffffffffffffffff166323b872dd3084866040518463ffffffff1660e01b81526004016112da93929190612b8c565b600060405180830381600087803b1580156112f457600080fd5b505af1158015611308573d6000803e3d6000fd5b505050506001600260008473ffffffffffffffffffffffffffffffffffffffff1673ffffffffffffffffffffffffffffffffffffffff16815260200190815260200160002060000160166101000a81548160ff021916908315150217905550600196506006829080600181540180825580915050600190039060005260206000200160009091909190916101000a81548173ffffffffffffffffffffffffffffffffffffffff021916908373ffffffffffffffffffffffffffffffffffffffff16021790555060008a600190039a508a60ff1614156113e957505050611614565b611603565b60001515600260008473ffffffffffffffffffffffffffffffffffffffff1673ffffffffffffffffffffffffffffffffffffffff16815260200190815260200160002060000160169054906101000a900460ff1615151480156114a4575060001515600260008473ffffffffffffffffffffffffffffffffffffffff1673ffffffffffffffffffffffffffffffffffffffff16815260200190815260200160002060000160179054906101000a900460ff161515145b1561153f57600160009054906101000a900473ffffffffffffffffffffffffffffffffffffffff1673ffffffffffffffffffffffffffffffffffffffff166323b872dd3084866040518463ffffffff1660e01b815260040161150893929190612b8c565b600060405180830381600087803b15801561152257600080fd5b505af1158015611536573d6000803e3d6000fd5b50505050611602565b60011515600260008473ffffffffffffffffffffffffffffffffffffffff1673ffffffffffffffffffffffffffffffffffffffff16815260200190815260200160002060000160169054906101000a900460ff16151514806115f4575060011515600260008473ffffffffffffffffffffffffffffffffffffffff1673ffffffffffffffffffffffffffffffffffffffff16815260200190815260200160002060000160179054906101000a900460ff161515145b1561160157505050611607565b5b5b5050505b8080600101915050610f7d565b508380611624575060008660ff16145b156116325750505050611a6e565b82156116415750505050611a61565b6000600360008154811061165157fe5b9060005260206000200160009054906101000a900473ffffffffffffffffffffffffffffffffffffffff1690506000600160009054906101000a900473ffffffffffffffffffffffffffffffffffffffff1673ffffffffffffffffffffffffffffffffffffffff166370a08231836040518263ffffffff1660e01b81526004016116db9190612b03565b60206040518083038186803b1580156116f357600080fd5b505afa158015611707573d6000803e3d6000fd5b505050506040513d601f19601f8201168201806040525061172b91908101906127eb565b90506000600190505b600460009054906101000a900460ff1660ff168160ff161015611961576000600160009054906101000a900473ffffffffffffffffffffffffffffffffffffffff1673ffffffffffffffffffffffffffffffffffffffff166370a0823160038460ff16815481106117a157fe5b9060005260206000200160009054906101000a900473ffffffffffffffffffffffffffffffffffffffff166040518263ffffffff1660e01b81526004016117e89190612b03565b60206040518083038186803b15801561180057600080fd5b505afa158015611814573d6000803e3d6000fd5b505050506040513d601f19601f8201168201806040525061183891908101906127eb565b9050600060038360ff168154811061184c57fe5b9060005260206000200160009054906101000a900473ffffffffffffffffffffffffffffffffffffffff1690508363ffffffff168263ffffffff161080156118e7575060001515600260008373ffffffffffffffffffffffffffffffffffffffff1673ffffffffffffffffffffffffffffffffffffffff16815260200190815260200160002060000160179054906101000a900460ff161515145b8015611946575060001515600260008373ffffffffffffffffffffffffffffffffffffffff1673ffffffffffffffffffffffffffffffffffffffff16815260200190815260200160002060000160169054906101000a900460ff161515145b15611952578094508193505b50508080600101915050611734565b506001600260008473ffffffffffffffffffffffffffffffffffffffff1673ffffffffffffffffffffffffffffffffffffffff16815260200190815260200160002060000160176101000a81548160ff02191690831515021790555060008163ffffffff161115611a5a57600160009054906101000a900473ffffffffffffffffffffffffffffffffffffffff1673ffffffffffffffffffffffffffffffffffffffff1663abd2a233836040518263ffffffff1660e01b8152600401611a279190612b03565b600060405180830381600087803b158015611a4157600080fd5b505af1158015611a55573d6000803e3d6000fd5b505050505b5050505050505b8080600101915050610d6e565b5080600503600160196101000a81548160ff021916908360ff16021790555060008090505b6003805490508160ff161015611e2857600160009054906101000a900473ffffffffffffffffffffffffffffffffffffffff1673ffffffffffffffffffffffffffffffffffffffff166370a0823160038360ff1681548110611af157fe5b9060005260206000200160009054906101000a900473ffffffffffffffffffffffffffffffffffffffff166040518263ffffffff1660e01b8152600401611b389190612b03565b60206040518083038186803b158015611b5057600080fd5b505afa158015611b64573d6000803e3d6000fd5b505050506040513d601f19601f82011682018060405250611b8891908101906127eb565b6002600060038460ff1681548110611b9c57fe5b9060005260206000200160009054906101000a900473ffffffffffffffffffffffffffffffffffffffff1673ffffffffffffffffffffffffffffffffffffffff1673ffffffffffffffffffffffffffffffffffffffff16815260200190815260200160002060000160186101000a81548163ffffffff021916908363ffffffff16021790555060086001016002600060038460ff1681548110611c3b57fe5b9060005260206000200160009054906101000a900473ffffffffffffffffffffffffffffffffffffffff1673ffffffffffffffffffffffffffffffffffffffff1673ffffffffffffffffffffffffffffffffffffffff168152602001908152602001600020908060018154018082558091505060019003906000526020600020016000909190919091506000820160009054906101000a900473ffffffffffffffffffffffffffffffffffffffff168160000160006101000a81548173ffffffffffffffffffffffffffffffffffffffff021916908373ffffffffffffffffffffffffffffffffffffffff1602179055506000820160149054906101000a900460ff168160000160146101000a81548160ff021916908360ff1602179055506000820160159054906101000a900460ff168160000160156101000a81548160ff021916908360ff1602179055506000820160169054906101000a900460ff168160000160166101000a81548160ff0219169083151502179055506000820160179054906101000a900460ff168160000160176101000a81548160ff0219169083151502179055506000820160189054906101000a900463ffffffff168160000160186101000a81548163ffffffff021916908363ffffffff16021790555050508080600101915050611a93565b5060008090505b6000600560008360ff1660ff16815260200190815260200160002060009054906101000a900463ffffffff1663ffffffff161115611f2f57600260ff16604051908082528060200260200182016040528015611e9a5781602001602082028038833980820191505090505b5060086002019080519060200190611eb3929190612551565b50600560008280600101935060ff1660ff16815260200190815260200160002060009054906101000a900463ffffffff1660086002018260ff1681548110611ef757fe5b90600052602060002090600891828204019190066004026101000a81548163ffffffff021916908363ffffffff160217905550611e2f565b6001600760006101000a81548160ff0219169083151502179055505050565b600160149054906101000a900460ff1660ff16600160009054906101000a900473ffffffffffffffffffffffffffffffffffffffff1673ffffffffffffffffffffffffffffffffffffffff16631979955e846040518263ffffffff1660e01b8152600401611fbc9190612d25565b60206040518083038186803b158015611fd457600080fd5b505afa158015611fe8573d6000803e3d6000fd5b505050506040513d601f19601f8201168201806040525061200c9190810190612891565b60ff161461204f576040517f08c379a000000000000000000000000000000000000000000000000000000000815260040161204690612ce5565b60405180910390fd5b60008090505b81518160ff16101561215657600073ffffffffffffffffffffffffffffffffffffffff1660026000848460ff168151811061208c57fe5b602002602001015173ffffffffffffffffffffffffffffffffffffffff1673ffffffffffffffffffffffffffffffffffffffff16815260200190815260200160002060000160009054906101000a900473ffffffffffffffffffffffffffffffffffffffff1673ffffffffffffffffffffffffffffffffffffffff161415612149576040517f08c379a000000000000000000000000000000000000000000000000000000000815260040161214090612ca5565b60405180910390fd5b8080600101915050612055565b50600160009054906101000a900473ffffffffffffffffffffffffffffffffffffffff1673ffffffffffffffffffffffffffffffffffffffff166323b872dd3330856040518463ffffffff1660e01b81526004016121b693929190612b1e565b600060405180830381600087803b1580156121d057600080fd5b505af11580156121e4573d6000803e3d6000fd5b50505050600160009054906101000a900473ffffffffffffffffffffffffffffffffffffffff1673ffffffffffffffffffffffffffffffffffffffff1663324b1dc683836040518363ffffffff1660e01b8152600401612245929190612d40565b600060405180830381600087803b15801561225f57600080fd5b505af1158015612273573d6000803e3d6000fd5b5050505060018060158282829054906101000a900463ffffffff160192506101000a81548163ffffffff021916908363ffffffff1602179055507fd68b742028f68048faefb8051bcb1780ed03a757f341c613cce8cd9b9d794a2333600160149054906101000a900460ff16600160159054906101000a900463ffffffff1660405161230193929190612b55565b60405180910390a15050565b6001601a9054906101000a900463ffffffff1681565b6003818154811061233057fe5b906000526020600020016000915054906101000a900473ffffffffffffffffffffffffffffffffffffffff1681565b600160149054906101000a900460ff1681565b61237a612549565b73ffffffffffffffffffffffffffffffffffffffff166000809054906101000a900473ffffffffffffffffffffffffffffffffffffffff1673ffffffffffffffffffffffffffffffffffffffff1614612408576040517f08c379a00000000000000000000000000000000000000000000000000000000081526004016123ff90612d05565b60405180910390fd5b600073ffffffffffffffffffffffffffffffffffffffff168173ffffffffffffffffffffffffffffffffffffffff161415612478576040517f08c379a000000000000000000000000000000000000000000000000000000000815260040161246f90612cc5565b60405180910390fd5b8073ffffffffffffffffffffffffffffffffffffffff166000809054906101000a900473ffffffffffffffffffffffffffffffffffffffff1673ffffffffffffffffffffffffffffffffffffffff167f8be0079c531659141344cd1fd0a4f28419497f9722a3daafe3b4186f6b6457e060405160405180910390a3806000806101000a81548173ffffffffffffffffffffffffffffffffffffffff021916908373ffffffffffffffffffffffffffffffffffffffff16021790555050565b600760009054906101000a900460ff1681565b600033905090565b828054828255906000526020600020906007016008900481019282156125ed5791602002820160005b838211156125bb57835183826101000a81548163ffffffff021916908360ff160217905550926020019260040160208160030104928301926001030261257a565b80156125eb5782816101000a81549063ffffffff02191690556004016020816003010492830192600103026125bb565b505b5090506125fa91906125fe565b5090565b61262e91905b8082111561262a57600081816101000a81549063ffffffff021916905550600101612604565b5090565b90565b60008135905061264081612f51565b92915050565b60008151905061265581612f51565b92915050565b600082601f83011261266c57600080fd5b813561267f61267a82612dfc565b612dcf565b915081818352602084019350602081019050838560208402820111156126a457600080fd5b60005b838110156126d457816126ba8882612631565b8452602084019350602083019250506001810190506126a7565b5050505092915050565b6000813590506126ed81612f68565b92915050565b60008135905061270281612f7f565b92915050565b60008151905061271781612f7f565b92915050565b60008135905061272c81612f96565b92915050565b60008151905061274181612f96565b92915050565b60006020828403121561275957600080fd5b600061276784828501612631565b91505092915050565b60006020828403121561278257600080fd5b600061279084828501612646565b91505092915050565b6000602082840312156127ab57600080fd5b60006127b9848285016126de565b91505092915050565b6000602082840312156127d457600080fd5b60006127e2848285016126f3565b91505092915050565b6000602082840312156127fd57600080fd5b600061280b84828501612708565b91505092915050565b6000806040838503121561282757600080fd5b6000612835858286016126f3565b925050602083013567ffffffffffffffff81111561285257600080fd5b61285e8582860161265b565b9150509250929050565b60006020828403121561287a57600080fd5b60006128888482850161271d565b91505092915050565b6000602082840312156128a357600080fd5b60006128b184828501612732565b91505092915050565b60006128c683836128e1565b60208301905092915050565b6128db81612ee5565b82525050565b6128ea81612e6e565b82525050565b6128f981612e6e565b82525050565b600061290a82612e34565b6129148185612e4c565b935061291f83612e24565b8060005b8381101561295057815161293788826128ba565b975061294283612e3f565b925050600181019050612923565b5085935050505092915050565b61296681612e80565b82525050565b61297581612ef7565b82525050565b6000612988603a83612e5d565b91507f566f74656420666f722063616e646964617465206e6f742066726f6d2074686960008301527f732064697374726963742e20566f74652052656a65637465642e0000000000006020830152604082019050919050565b60006129ee602683612e5d565b91507f4f776e61626c653a206e6577206f776e657220697320746865207a65726f206160008301527f64647265737300000000000000000000000000000000000000000000000000006020830152604082019050919050565b6000612a54601283612e5d565b91507f496e636f727265637420446973747269637400000000000000000000000000006000830152602082019050919050565b6000612a94602083612e5d565b91507f4f776e61626c653a2063616c6c6572206973206e6f7420746865206f776e65726000830152602082019050919050565b612ad081612ebe565b82525050565b612adf81612f3f565b82525050565b612aee81612ec8565b82525050565b612afd81612ed8565b82525050565b6000602082019050612b1860008301846128f0565b92915050565b6000606082019050612b3360008301866128d2565b612b4060208301856128f0565b612b4d6040830184612ac7565b949350505050565b6000606082019050612b6a60008301866128d2565b612b776020830185612af4565b612b846040830184612ae5565b949350505050565b6000606082019050612ba160008301866128f0565b612bae60208301856128f0565b612bbb6040830184612ac7565b949350505050565b6000604082019050612bd860008301856128f0565b612be56020830184612ad6565b9392505050565b600060c082019050612c0160008301896128f0565b612c0e6020830188612af4565b612c1b6040830187612af4565b612c28606083018661295d565b612c35608083018561295d565b612c4260a0830184612ae5565b979650505050505050565b60006020820190508181036000830152612c6781846128ff565b905092915050565b6000602082019050612c84600083018461295d565b92915050565b6000602082019050612c9f600083018461296c565b92915050565b60006020820190508181036000830152612cbe8161297b565b9050919050565b60006020820190508181036000830152612cde816129e1565b9050919050565b60006020820190508181036000830152612cfe81612a47565b9050919050565b60006020820190508181036000830152612d1e81612a87565b9050919050565b6000602082019050612d3a6000830184612ac7565b92915050565b6000604082019050612d556000830185612ac7565b8181036020830152612d6781846128ff565b90509392505050565b6000604082019050612d856000830185612ac7565b612d926020830184612af4565b9392505050565b6000602082019050612dae6000830184612ae5565b92915050565b6000602082019050612dc96000830184612af4565b92915050565b6000604051905081810181811067ffffffffffffffff82111715612df257600080fd5b8060405250919050565b600067ffffffffffffffff821115612e1357600080fd5b602082029050602081019050919050565b6000819050602082019050919050565b600081519050919050565b6000602082019050919050565b600082825260208201905092915050565b600082825260208201905092915050565b6000612e7982612e9e565b9050919050565b60008115159050919050565b6000612e9782612e6e565b9050919050565b600073ffffffffffffffffffffffffffffffffffffffff82169050919050565b6000819050919050565b600063ffffffff82169050919050565b600060ff82169050919050565b6000612ef082612f1b565b9050919050565b6000612f0282612f09565b9050919050565b6000612f1482612e9e565b9050919050565b6000612f2682612f2d565b9050919050565b6000612f3882612e9e565b9050919050565b6000612f4a82612ec8565b9050919050565b612f5a81612e6e565b8114612f6557600080fd5b50565b612f7181612e8c565b8114612f7c57600080fd5b50565b612f8881612ebe565b8114612f9357600080fd5b50565b612f9f81612ed8565b8114612faa57600080fd5b5056fea26469706673582212205b057f30166a99c1f4a74454e0d588157c02d68bd8cc1c5bcdb488aaaaa2e9ab64736f6c63430006020033",
  "source": "pragma solidity ^0.6.0;\npragma experimental ABIEncoderV2;\n\n//import \"@openzeppelin/contracts/token/ERC721/IERC721Receiver.sol\";\nimport \"./VoteToken.sol\";\nimport \"./Shared.sol\";\nimport \"@openzeppelin/contracts/access/Ownable.sol\";\n\ncontract District is Ownable{\n    VoteToken public voteToken;\n    uint8 public districtNumber;\n    //uint public eligibleVotes ;\n    uint32 public castVotes;\n    //uint32 internal uncountedVotes;\n    uint8 constant public seats = 5;\n    uint8 public seatsFilled;\n    uint32 public quota;\n    \n    //Shared.DistrictResults internal results;\n    mapping(address => Shared.Candidate) public candidates;\n    address[] public candidateAddresses;\n    uint8 public candidatesCount;\n    mapping(uint8 => uint32) public party1stCountVotes;\n    address[] electedCandidates;\n    \n    bool public counted = false;\n\n    Shared.DistrictResults internal districtResults;\n\n\n    event Vote(address _voter, uint8 districtNo, uint32 castVotes);\n\n    constructor(uint8 _districtNumber, Shared.Candidate[] memory _candidates/*, VoteToken _voteToken*/) Ownable() public{\n        //voteToken = _voteToken;\n        districtNumber = _districtNumber;\n        //eligibleVotes = _eligibleVotes;\n        castVotes = 0;\n        candidatesCount = uint8(_candidates.length);\n        \n        for(uint8 i = 0; i < candidatesCount; i++){\n            candidateAddresses.push(_candidates[i]._address);\n            candidates[_candidates[i]._address] = _candidates[i];\n        }\n    }\n    \n    function setVoteToken(VoteToken _voteToken) public onlyOwner{\n        voteToken = _voteToken;\n    }\n    /*function getVoterTurnout() public view returns(uint){\n        return castVotes/eligibleVotes;\n    }*/\n\n    function getCandidateAddresses() public view returns(address[] memory){\n        return candidateAddresses;\n    }\n    \n    function vote(uint256 tokenId, address[] memory _preferences) public {\n        require(voteToken.district(tokenId) == districtNumber,\"Incorrect District\");\n        for(uint8 i = 0; i < _preferences.length; i++)\n            require(candidates[_preferences[i]]._address != address(0), \"Voted for candidate not from this district. Vote Rejected.\");\n//WRITE TEST FOR ABOVE LINE ^^^\n        voteToken.transferFrom(msg.sender,address(this),tokenId);\n        voteToken.setVotePreferences(tokenId, _preferences);\n        castVotes += 1;\n        emit Vote(msg.sender, districtNumber, castVotes);\n    }\n    \n    \n    /*function onERC721Received(address operator, address from, uint256 tokenId, bytes calldata data) external override returns (bytes4){\n        require(voteToken.district(tokenId) == districtNumber,\"Incorrect District\");\n\n   }*/\n\n   function getAddresses() public view returns(address[] memory) {\n       return candidateAddresses;\n   }\n\n    /*function getResults() public returns(Shared.DistrictResults memory) {\n        require(counted,\"Votes have not yet been tallied for this district.\");\n        return districtResults;\n    }*/\n\n   function getQuota() public view returns(uint32){\n       //quota = (castVotes/(seats+1)) + 1;\n       return (castVotes/(seats+1)) + 1;\n   }\n\n\n    function getAllElected() public returns(address[] memory){\n        if(electedCandidates.length==0){\n        \n            for(uint8 i = 0; i < candidatesCount; i++){\n                if(candidates[candidateAddresses[i]].elected == true)\n                    electedCandidates.push(candidates[candidateAddresses[i]]._address);\n            }\n        \n        }\n        return electedCandidates;\n    }\n    \n    function kill() public onlyOwner {\n        //require(msg.sender == owner);\n        selfdestruct(msg.sender);\n    }\n\n    function transferAllBack(address _from) public {\n        voteToken.transferAllBack(_from);\n    }\n\n    function countVotes() public{\n        uint8 seatsRemaining = seats; //number of seats which have not yet been filled.\n        castVotes = uint32(voteToken.balanceOf(address(this)));\n        //uncountedVotes = castVotes;\n        quota = getQuota();\n        \n\n        for (uint8 j = 1; j <= candidatesCount; j++){ //the number of candidates being the theoretical maximum preferences a voter can select.\n            bool noMoreRounds = true; //will be set to false if it is found that for a given preference number j, no voter has selected a preference this high, and signal to terminate the counting process.\n            bool candidateElected = false; \n            //whether in this round of counting at least one seat has been filled. \n\n            uint32 uncountedVotes = uint32(voteToken.balanceOf(address(this)));\n            uint256[] memory voteTokenIDs = new uint256[](uncountedVotes);\n\n            for (uint32 i = 0; i < uncountedVotes; i++){\n                uint256 voteTokenID = voteToken.tokenOfOwnerByIndex(address(this),i);\n                voteTokenIDs[i] = voteTokenID;\n            }\n\n            for (uint32 i = 0; i < voteTokenIDs.length; i++){\n                //uint256 voteTokenID = voteToken.tokenOfOwnerByIndex(address(this),i);\n                uint256 voteTokenID = voteTokenIDs[i];\n\n                address candidateAddress = voteToken.preferences(voteTokenID,j);\n                if(candidateAddress == address(0))\n                    continue;\n                else\n                    noMoreRounds = false;\n                \n               /* else\n                    noMoreRounds = false;*/\n\n                if(j==1)\n                    party1stCountVotes[candidates[candidateAddress].party] += 1;\n                \n                uint32 voteBalance = uint32(voteToken.balanceOf(candidateAddress));\n                \n                \n                if(voteBalance == quota-1 && candidates[candidateAddress].eliminated == false){\n                    voteToken.transferFrom(address(this), candidateAddress, voteTokenID);\n                    candidates[candidateAddress].elected = true;\n                    candidateElected = true;\n                    electedCandidates.push(candidateAddress);\n                    if(--seatsRemaining == 0)\n                        break;\n                }\n                else if(candidates[candidateAddress].elected == false && candidates[candidateAddress].eliminated == false){\n                    voteToken.transferFrom(address(this), candidateAddress, voteTokenID);\n                }\n                else if(candidates[candidateAddress].elected == true || candidates[candidateAddress].eliminated == true){\n                    continue;\n                }\n                //voteBalance = uint32(voteToken.balanceOf(candidateAddress));\n                /*\n                else {\n                    if(voteBalance < currentLeastVotes){\n                        currentLeastVotes = voteBalance;\n                        currentCandidateWithLeastVotes = candidateAddress;\n                    }\n                    continue;\n                }\n                \n                if(voteBalance+1 < currentLeastVotes || currentLeastVotes == -1){\n                        currentLeastVotes = voteBalance+1;\n                        currentCandidateWithLeastVotes = candidateAddress;\n                    }\n                   */\n            }    \n            \n            if(noMoreRounds || seatsRemaining == 0) \n                break;\n            else if(candidateElected)\n                continue;\n\n            /*If no candidate was elected this round of counting, we eliminate candidate with least votes and transfer their votes back to the district contract for next preference counting.*/\n            address currentCandidateWithLeastVotes = candidateAddresses[0];\n            uint32 currentLeastVotes = uint32(voteToken.balanceOf(currentCandidateWithLeastVotes));\n            /*In STV, the candidate to be eliminated is selected randomly if 2 or more candidates are\n            tied for least amount of votes; This would be expensive to implement on chain, so to eliminate bias, the addresses passed as candidateAddresses to the District constructor should\n            be \"shuffled\" off-chain before being passed. */\n            for (uint8 k = 1; k < candidatesCount; k++){\n                uint32 _balance = uint32(voteToken.balanceOf(candidateAddresses[k]));\n                address _candidateAddress = candidateAddresses[k];\n\n                if(_balance < currentLeastVotes && candidates[_candidateAddress].eliminated == false && candidates[_candidateAddress].elected ==false ){\n                    currentCandidateWithLeastVotes = _candidateAddress;\n                    currentLeastVotes = _balance;\n                }\n            }\n\n            candidates[currentCandidateWithLeastVotes].eliminated = true;\n            if(currentLeastVotes>0)\n                voteToken.transferAllBack(currentCandidateWithLeastVotes);\n           \n            \n            \n        }\n        \n        seatsFilled = seats - seatsRemaining;\n\n        for(uint8 i = 0; i<candidateAddresses.length; i++){\n            candidates[candidateAddresses[i]].votes = uint32(voteToken.balanceOf(candidateAddresses[i]));\n            districtResults.candidateResults.push(candidates[candidateAddresses[i]]);\n        }\n\n        uint8 k = 0;\n        while(party1stCountVotes[k]>0){\n            districtResults.party1stCountVotes = new uint8[](Shared.parties);\n            districtResults.party1stCountVotes[k] = party1stCountVotes[k++];\n        }\n\n\n        counted = true;\n    }\n}",
  "sourcePath": "/Users/timothymuscat/Documents/MScThesis/BlockVote_ReactBox/contracts/District.sol",
  "compiler": {
    "name": "solc",
    "version": "0.6.2+commit.bacdbe57.Emscripten.clang"
  },
  "schemaVersion": "3.2.2",
  "updatedAt": "2020-09-15T18:40:27.809Z",
  "networkType": "ethereum",
  "devdoc": {
    "methods": {
      "owner()": {
        "details": "Returns the address of the current owner."
      },
      "renounceOwnership()": {
        "details": "Leaves the contract without owner. It will not be possible to call `onlyOwner` functions anymore. Can only be called by the current owner.     * NOTE: Renouncing ownership will leave the contract without an owner, thereby removing any functionality that is only available to the owner."
      },
      "transferOwnership(address)": {
        "details": "Transfers ownership of the contract to a new account (`newOwner`). Can only be called by the current owner."
      }
    }
  },
  "userdoc": {
    "methods": {}
  }
}