{
  "contractName": "District",
  "abi": [
    {
      "inputs": [
        {
          "internalType": "uint8",
          "name": "_districtNumber",
          "type": "uint8"
        },
        {
          "components": [
            {
              "internalType": "address",
              "name": "_address",
              "type": "address"
            },
            {
              "internalType": "uint8",
              "name": "party",
              "type": "uint8"
            },
            {
              "internalType": "uint8",
              "name": "districtNo",
              "type": "uint8"
            },
            {
              "internalType": "bool",
              "name": "elected",
              "type": "bool"
            },
            {
              "internalType": "bool",
              "name": "eliminated",
              "type": "bool"
            },
            {
              "internalType": "uint32",
              "name": "votes",
              "type": "uint32"
            }
          ],
          "internalType": "struct Shared.Candidate[]",
          "name": "_candidates",
          "type": "tuple[]"
        }
      ],
      "stateMutability": "nonpayable",
      "type": "constructor"
    },
    {
      "anonymous": false,
      "inputs": [
        {
          "indexed": true,
          "internalType": "address",
          "name": "previousOwner",
          "type": "address"
        },
        {
          "indexed": true,
          "internalType": "address",
          "name": "newOwner",
          "type": "address"
        }
      ],
      "name": "OwnershipTransferred",
      "type": "event"
    },
    {
      "anonymous": false,
      "inputs": [
        {
          "indexed": false,
          "internalType": "address",
          "name": "_voter",
          "type": "address"
        },
        {
          "indexed": false,
          "internalType": "uint8",
          "name": "districtNo",
          "type": "uint8"
        },
        {
          "indexed": false,
          "internalType": "uint32",
          "name": "castVotes",
          "type": "uint32"
        }
      ],
      "name": "Vote",
      "type": "event"
    },
    {
      "inputs": [
        {
          "internalType": "uint256",
          "name": "",
          "type": "uint256"
        }
      ],
      "name": "candidateAddresses",
      "outputs": [
        {
          "internalType": "address",
          "name": "",
          "type": "address"
        }
      ],
      "stateMutability": "view",
      "type": "function"
    },
    {
      "inputs": [
        {
          "internalType": "address",
          "name": "",
          "type": "address"
        }
      ],
      "name": "candidates",
      "outputs": [
        {
          "internalType": "address",
          "name": "_address",
          "type": "address"
        },
        {
          "internalType": "uint8",
          "name": "party",
          "type": "uint8"
        },
        {
          "internalType": "uint8",
          "name": "districtNo",
          "type": "uint8"
        },
        {
          "internalType": "bool",
          "name": "elected",
          "type": "bool"
        },
        {
          "internalType": "bool",
          "name": "eliminated",
          "type": "bool"
        },
        {
          "internalType": "uint32",
          "name": "votes",
          "type": "uint32"
        }
      ],
      "stateMutability": "view",
      "type": "function"
    },
    {
      "inputs": [],
      "name": "candidatesCount",
      "outputs": [
        {
          "internalType": "uint8",
          "name": "",
          "type": "uint8"
        }
      ],
      "stateMutability": "view",
      "type": "function"
    },
    {
      "inputs": [],
      "name": "castVotes",
      "outputs": [
        {
          "internalType": "uint32",
          "name": "",
          "type": "uint32"
        }
      ],
      "stateMutability": "view",
      "type": "function"
    },
    {
      "inputs": [],
      "name": "counted",
      "outputs": [
        {
          "internalType": "bool",
          "name": "",
          "type": "bool"
        }
      ],
      "stateMutability": "view",
      "type": "function"
    },
    {
      "inputs": [],
      "name": "districtNumber",
      "outputs": [
        {
          "internalType": "uint8",
          "name": "",
          "type": "uint8"
        }
      ],
      "stateMutability": "view",
      "type": "function"
    },
    {
      "inputs": [],
      "name": "owner",
      "outputs": [
        {
          "internalType": "address",
          "name": "",
          "type": "address"
        }
      ],
      "stateMutability": "view",
      "type": "function"
    },
    {
      "inputs": [
        {
          "internalType": "uint8",
          "name": "",
          "type": "uint8"
        }
      ],
      "name": "party1stCountVotes",
      "outputs": [
        {
          "internalType": "uint32",
          "name": "",
          "type": "uint32"
        }
      ],
      "stateMutability": "view",
      "type": "function"
    },
    {
      "inputs": [],
      "name": "quota",
      "outputs": [
        {
          "internalType": "uint32",
          "name": "",
          "type": "uint32"
        }
      ],
      "stateMutability": "view",
      "type": "function"
    },
    {
      "inputs": [],
      "name": "renounceOwnership",
      "outputs": [],
      "stateMutability": "nonpayable",
      "type": "function"
    },
    {
      "inputs": [],
      "name": "seats",
      "outputs": [
        {
          "internalType": "uint8",
          "name": "",
          "type": "uint8"
        }
      ],
      "stateMutability": "view",
      "type": "function"
    },
    {
      "inputs": [],
      "name": "seatsFilled",
      "outputs": [
        {
          "internalType": "uint8",
          "name": "",
          "type": "uint8"
        }
      ],
      "stateMutability": "view",
      "type": "function"
    },
    {
      "inputs": [
        {
          "internalType": "address",
          "name": "newOwner",
          "type": "address"
        }
      ],
      "name": "transferOwnership",
      "outputs": [],
      "stateMutability": "nonpayable",
      "type": "function"
    },
    {
      "inputs": [
        {
          "internalType": "contract VoteToken",
          "name": "_voteToken",
          "type": "address"
        }
      ],
      "name": "setVoteToken",
      "outputs": [],
      "stateMutability": "nonpayable",
      "type": "function"
    },
    {
      "inputs": [],
      "name": "getCandidateAddresses",
      "outputs": [
        {
          "internalType": "address[]",
          "name": "",
          "type": "address[]"
        }
      ],
      "stateMutability": "view",
      "type": "function"
    },
    {
      "inputs": [
        {
          "internalType": "uint256",
          "name": "tokenId",
          "type": "uint256"
        },
        {
          "internalType": "address[]",
          "name": "_preferences",
          "type": "address[]"
        }
      ],
      "name": "vote",
      "outputs": [],
      "stateMutability": "nonpayable",
      "type": "function"
    },
    {
      "inputs": [],
      "name": "getAddresses",
      "outputs": [
        {
          "internalType": "address[]",
          "name": "",
          "type": "address[]"
        }
      ],
      "stateMutability": "view",
      "type": "function"
    },
    {
      "inputs": [],
      "name": "getQuota",
      "outputs": [
        {
          "internalType": "uint32",
          "name": "",
          "type": "uint32"
        }
      ],
      "stateMutability": "view",
      "type": "function"
    },
    {
      "inputs": [],
      "name": "getAllElected",
      "outputs": [
        {
          "internalType": "address[]",
          "name": "",
          "type": "address[]"
        }
      ],
      "stateMutability": "nonpayable",
      "type": "function"
    },
    {
      "inputs": [],
      "name": "kill",
      "outputs": [],
      "stateMutability": "nonpayable",
      "type": "function"
    },
    {
      "inputs": [
        {
          "internalType": "address",
          "name": "_from",
          "type": "address"
        }
      ],
      "name": "transferAllBack",
      "outputs": [],
      "stateMutability": "nonpayable",
      "type": "function"
    },
    {
      "inputs": [],
      "name": "countVotes",
      "outputs": [],
      "stateMutability": "nonpayable",
      "type": "function"
    }
  ],
  "bytecode": "0x60806040526000600760006101000a81548160ff0219169083151502179055503480156200002c57600080fd5b506040516200359638038062003596833981810160405262000052919081019062000515565b6000620000646200037960201b60201c565b9050806000806101000a81548173ffffffffffffffffffffffffffffffffffffffff021916908373ffffffffffffffffffffffffffffffffffffffff1602179055508073ffffffffffffffffffffffffffffffffffffffff16600073ffffffffffffffffffffffffffffffffffffffff167f8be0079c531659141344cd1fd0a4f28419497f9722a3daafe3b4186f6b6457e060405160405180910390a35081600160146101000a81548160ff021916908360ff1602179055506000600160156101000a81548163ffffffff021916908363ffffffff1602179055508051600460006101000a81548160ff021916908360ff16021790555060008090505b600460009054906101000a900460ff1660ff168160ff16101562000370576003828260ff16815181106200019157fe5b6020026020010151600001519080600181540180825580915050600190039060005260206000200160009091909190916101000a81548173ffffffffffffffffffffffffffffffffffffffff021916908373ffffffffffffffffffffffffffffffffffffffff160217905550818160ff16815181106200020d57fe5b602002602001015160026000848460ff16815181106200022957fe5b60200260200101516000015173ffffffffffffffffffffffffffffffffffffffff1673ffffffffffffffffffffffffffffffffffffffff16815260200190815260200160002060008201518160000160006101000a81548173ffffffffffffffffffffffffffffffffffffffff021916908373ffffffffffffffffffffffffffffffffffffffff16021790555060208201518160000160146101000a81548160ff021916908360ff16021790555060408201518160000160156101000a81548160ff021916908360ff16021790555060608201518160000160166101000a81548160ff02191690831515021790555060808201518160000160176101000a81548160ff02191690831515021790555060a08201518160000160186101000a81548163ffffffff021916908363ffffffff160217905550905050808060010191505062000161565b5050506200068b565b600033905090565b600081519050620003928162000623565b92915050565b600082601f830112620003aa57600080fd5b8151620003c1620003bb826200059d565b6200056f565b915081818352602084019350602081019050838560c0840282011115620003e757600080fd5b60005b838110156200041b57816200040088826200043c565b845260208401935060c08301925050600181019050620003ea565b5050505092915050565b60008151905062000436816200063d565b92915050565b600060c082840312156200044f57600080fd5b6200045b60c06200056f565b905060006200046d8482850162000381565b60008301525060206200048384828501620004fe565b60208301525060406200049984828501620004fe565b6040830152506060620004af8482850162000425565b6060830152506080620004c58482850162000425565b60808301525060a0620004db84828501620004e7565b60a08301525092915050565b600081519050620004f88162000657565b92915050565b6000815190506200050f8162000671565b92915050565b600080604083850312156200052957600080fd5b60006200053985828601620004fe565b925050602083015167ffffffffffffffff8111156200055757600080fd5b620005658582860162000398565b9150509250929050565b6000604051905081810181811067ffffffffffffffff821117156200059357600080fd5b8060405250919050565b600067ffffffffffffffff821115620005b557600080fd5b602082029050602081019050919050565b6000620005d382620005e6565b9050919050565b60008115159050919050565b600073ffffffffffffffffffffffffffffffffffffffff82169050919050565b600063ffffffff82169050919050565b600060ff82169050919050565b6200062e81620005c6565b81146200063a57600080fd5b50565b6200064881620005da565b81146200065457600080fd5b50565b620006628162000606565b81146200066e57600080fd5b50565b6200067c8162000616565b81146200068857600080fd5b50565b612efb806200069b6000396000f3fe608060405234801561001057600080fd5b50600436106101425760003560e01c80638da5cb5b116100b8578063c5bf93ba1161007c578063c5bf93ba14610310578063cebe09c91461032c578063d55d73c51461034a578063dd7177d81461037a578063f2fde38b14610398578063f937f910146103b457610142565b80638da5cb5b146102905780639c5655d6146102ae578063a39fac12146102cc578063abd2a233146102ea578063b647990a1461030657610142565b80634d23aaa71161010a5780634d23aaa7146101c95780634ede20d8146101e55780636d89c6ab14610203578063715018a6146102335780638155f7361461023d5780638ab66a901461025b57610142565b80631df8ba77146101475780632d35a8a21461016557806337b40f661461018357806341c0e1b5146101a157806343d4ed83146101ab575b600080fd5b61014f6103d2565b60405161015c9190612cd5565b60405180910390f35b61016d610404565b60405161017a9190612cf0565b60405180910390f35b61018b610417565b6040516101989190612cf0565b60405180910390f35b6101a961042a565b005b6101b36104d9565b6040516101c09190612cd5565b60405180910390f35b6101e360048036036101de9190810190612785565b6104ef565b005b6101ed6105c9565b6040516101fa9190612bc4565b60405180910390f35b61021d60048036036102189190810190612854565b61082d565b60405161022a9190612cd5565b60405180910390f35b61023b610850565b005b6102456109a5565b6040516102529190612bc4565b60405180910390f35b61027560048036036102709190810190612733565b610a33565b60405161028796959493929190612b63565b60405180910390f35b610298610ad3565b6040516102a59190612a7a565b60405180910390f35b6102b6610afc565b6040516102c39190612cf0565b60405180910390f35b6102d4610b01565b6040516102e19190612bc4565b60405180910390f35b61030460048036036102ff9190810190612733565b610b8f565b005b61030e610c1f565b005b61032a60048036036103259190810190612800565b611fac565b005b6103346122f9565b6040516103419190612cd5565b60405180910390f35b610364600480360361035f91908101906127ae565b61230f565b6040516103719190612a7a565b60405180910390f35b61038261234b565b60405161038f9190612cf0565b60405180910390f35b6103b260048036036103ad9190810190612733565b61235e565b005b6103bc612522565b6040516103c99190612be6565b60405180910390f35b600060018060050160ff16600160159054906101000a900463ffffffff1663ffffffff16816103fd57fe5b0401905090565b600460009054906101000a900460ff1681565b600160199054906101000a900460ff1681565b610432612535565b73ffffffffffffffffffffffffffffffffffffffff166000809054906101000a900473ffffffffffffffffffffffffffffffffffffffff1673ffffffffffffffffffffffffffffffffffffffff16146104c0576040517f08c379a00000000000000000000000000000000000000000000000000000000081526004016104b790612c41565b60405180910390fd5b3373ffffffffffffffffffffffffffffffffffffffff16ff5b600160159054906101000a900463ffffffff1681565b6104f7612535565b73ffffffffffffffffffffffffffffffffffffffff166000809054906101000a900473ffffffffffffffffffffffffffffffffffffffff1673ffffffffffffffffffffffffffffffffffffffff1614610585576040517f08c379a000000000000000000000000000000000000000000000000000000000815260040161057c90612c41565b60405180910390fd5b80600160006101000a81548173ffffffffffffffffffffffffffffffffffffffff021916908373ffffffffffffffffffffffffffffffffffffffff16021790555050565b6060600060068054905014156107a15760008090505b600460009054906101000a900460ff1660ff168160ff16101561079f57600115156002600060038460ff168154811061061457fe5b9060005260206000200160009054906101000a900473ffffffffffffffffffffffffffffffffffffffff1673ffffffffffffffffffffffffffffffffffffffff1673ffffffffffffffffffffffffffffffffffffffff16815260200190815260200160002060000160169054906101000a900460ff16151514156107925760066002600060038460ff16815481106106a857fe5b9060005260206000200160009054906101000a900473ffffffffffffffffffffffffffffffffffffffff1673ffffffffffffffffffffffffffffffffffffffff1673ffffffffffffffffffffffffffffffffffffffff16815260200190815260200160002060000160009054906101000a900473ffffffffffffffffffffffffffffffffffffffff169080600181540180825580915050600190039060005260206000200160009091909190916101000a81548173ffffffffffffffffffffffffffffffffffffffff021916908373ffffffffffffffffffffffffffffffffffffffff1602179055505b80806001019150506105df565b505b600680548060200260200160405190810160405280929190818152602001828054801561082357602002820191906000526020600020905b8160009054906101000a900473ffffffffffffffffffffffffffffffffffffffff1673ffffffffffffffffffffffffffffffffffffffff16815260200190600101908083116107d9575b5050505050905090565b60056020528060005260406000206000915054906101000a900463ffffffff1681565b610858612535565b73ffffffffffffffffffffffffffffffffffffffff166000809054906101000a900473ffffffffffffffffffffffffffffffffffffffff1673ffffffffffffffffffffffffffffffffffffffff16146108e6576040517f08c379a00000000000000000000000000000000000000000000000000000000081526004016108dd90612c41565b60405180910390fd5b600073ffffffffffffffffffffffffffffffffffffffff166000809054906101000a900473ffffffffffffffffffffffffffffffffffffffff1673ffffffffffffffffffffffffffffffffffffffff167f8be0079c531659141344cd1fd0a4f28419497f9722a3daafe3b4186f6b6457e060405160405180910390a360008060006101000a81548173ffffffffffffffffffffffffffffffffffffffff021916908373ffffffffffffffffffffffffffffffffffffffff160217905550565b60606003805480602002602001604051908101604052809291908181526020018280548015610a2957602002820191906000526020600020905b8160009054906101000a900473ffffffffffffffffffffffffffffffffffffffff1673ffffffffffffffffffffffffffffffffffffffff16815260200190600101908083116109df575b5050505050905090565b60026020528060005260406000206000915090508060000160009054906101000a900473ffffffffffffffffffffffffffffffffffffffff16908060000160149054906101000a900460ff16908060000160159054906101000a900460ff16908060000160169054906101000a900460ff16908060000160179054906101000a900460ff16908060000160189054906101000a900463ffffffff16905086565b60008060009054906101000a900473ffffffffffffffffffffffffffffffffffffffff16905090565b600581565b60606003805480602002602001604051908101604052809291908181526020018280548015610b8557602002820191906000526020600020905b8160009054906101000a900473ffffffffffffffffffffffffffffffffffffffff1673ffffffffffffffffffffffffffffffffffffffff1681526020019060010190808311610b3b575b5050505050905090565b600160009054906101000a900473ffffffffffffffffffffffffffffffffffffffff1673ffffffffffffffffffffffffffffffffffffffff1663abd2a233826040518263ffffffff1660e01b8152600401610bea9190612a7a565b600060405180830381600087803b158015610c0457600080fd5b505af1158015610c18573d6000803e3d6000fd5b5050505050565b600060059050600160009054906101000a900473ffffffffffffffffffffffffffffffffffffffff1673ffffffffffffffffffffffffffffffffffffffff166370a08231306040518263ffffffff1660e01b8152600401610c809190612a7a565b60206040518083038186803b158015610c9857600080fd5b505afa158015610cac573d6000803e3d6000fd5b505050506040513d601f19601f82011682018060405250610cd091908101906127d7565b600160156101000a81548163ffffffff021916908363ffffffff160217905550610cf86103d2565b6001601a6101000a81548163ffffffff021916908363ffffffff1602179055506000600190505b600460009054906101000a900460ff1660ff168160ff1611611acc5760006001905060008090506000600160009054906101000a900473ffffffffffffffffffffffffffffffffffffffff1673ffffffffffffffffffffffffffffffffffffffff166370a08231306040518263ffffffff1660e01b8152600401610da39190612a7a565b60206040518083038186803b158015610dbb57600080fd5b505afa158015610dcf573d6000803e3d6000fd5b505050506040513d601f19601f82011682018060405250610df391908101906127d7565b905060608163ffffffff16604051908082528060200260200182016040528015610e2c5781602001602082028038833980820191505090505b50905060008090505b8263ffffffff168163ffffffff161015610f27576000600160009054906101000a900473ffffffffffffffffffffffffffffffffffffffff1673ffffffffffffffffffffffffffffffffffffffff16632f745c5930846040518363ffffffff1660e01b8152600401610ea8929190612b3a565b60206040518083038186803b158015610ec057600080fd5b505afa158015610ed4573d6000803e3d6000fd5b505050506040513d601f19601f82011682018060405250610ef891908101906127d7565b905080838363ffffffff1681518110610f0d57fe5b602002602001018181525050508080600101915050610e35565b5060008090505b81518163ffffffff161015611672576000828263ffffffff1681518110610f5157fe5b602002602001015190506000600160009054906101000a900473ffffffffffffffffffffffffffffffffffffffff1673ffffffffffffffffffffffffffffffffffffffff1663d1d0a5ea838a6040518363ffffffff1660e01b8152600401610fba929190612cac565b60206040518083038186803b158015610fd257600080fd5b505afa158015610fe6573d6000803e3d6000fd5b505050506040513d601f19601f8201168201806040525061100a919081019061275c565b9050600073ffffffffffffffffffffffffffffffffffffffff168173ffffffffffffffffffffffffffffffffffffffff161415611048575050611672565b6000965060018860ff1614156110f657600160056000600260008573ffffffffffffffffffffffffffffffffffffffff1673ffffffffffffffffffffffffffffffffffffffff16815260200190815260200160002060000160149054906101000a900460ff1660ff1660ff16815260200190815260200160002060008282829054906101000a900463ffffffff160192506101000a81548163ffffffff021916908363ffffffff1602179055505b6000600160009054906101000a900473ffffffffffffffffffffffffffffffffffffffff1673ffffffffffffffffffffffffffffffffffffffff166370a08231836040518263ffffffff1660e01b81526004016111539190612a7a565b60206040518083038186803b15801561116b57600080fd5b505afa15801561117f573d6000803e3d6000fd5b505050506040513d601f19601f820116820180604052506111a391908101906127d7565b9050600180601a9054906101000a900463ffffffff160363ffffffff168163ffffffff16148015611227575060001515600260008473ffffffffffffffffffffffffffffffffffffffff1673ffffffffffffffffffffffffffffffffffffffff16815260200190815260200160002060000160179054906101000a900460ff161515145b1561139f57600160009054906101000a900473ffffffffffffffffffffffffffffffffffffffff1673ffffffffffffffffffffffffffffffffffffffff166323b872dd3084866040518463ffffffff1660e01b815260040161128b93929190612b03565b600060405180830381600087803b1580156112a557600080fd5b505af11580156112b9573d6000803e3d6000fd5b505050506001600260008473ffffffffffffffffffffffffffffffffffffffff1673ffffffffffffffffffffffffffffffffffffffff16815260200190815260200160002060000160166101000a81548160ff021916908315150217905550600196506006829080600181540180825580915050600190039060005260206000200160009091909190916101000a81548173ffffffffffffffffffffffffffffffffffffffff021916908373ffffffffffffffffffffffffffffffffffffffff16021790555060008a600190039a508a60ff16141561139a57505050611672565b6115b4565b60001515600260008473ffffffffffffffffffffffffffffffffffffffff1673ffffffffffffffffffffffffffffffffffffffff16815260200190815260200160002060000160169054906101000a900460ff161515148015611455575060001515600260008473ffffffffffffffffffffffffffffffffffffffff1673ffffffffffffffffffffffffffffffffffffffff16815260200190815260200160002060000160179054906101000a900460ff161515145b156114f057600160009054906101000a900473ffffffffffffffffffffffffffffffffffffffff1673ffffffffffffffffffffffffffffffffffffffff166323b872dd3084866040518463ffffffff1660e01b81526004016114b993929190612b03565b600060405180830381600087803b1580156114d357600080fd5b505af11580156114e7573d6000803e3d6000fd5b505050506115b3565b60011515600260008473ffffffffffffffffffffffffffffffffffffffff1673ffffffffffffffffffffffffffffffffffffffff16815260200190815260200160002060000160169054906101000a900460ff16151514806115a5575060011515600260008473ffffffffffffffffffffffffffffffffffffffff1673ffffffffffffffffffffffffffffffffffffffff16815260200190815260200160002060000160179054906101000a900460ff161515145b156115b257505050611665565b5b5b600160009054906101000a900473ffffffffffffffffffffffffffffffffffffffff1673ffffffffffffffffffffffffffffffffffffffff166370a08231836040518263ffffffff1660e01b815260040161160f9190612a7a565b60206040518083038186803b15801561162757600080fd5b505afa15801561163b573d6000803e3d6000fd5b505050506040513d601f19601f8201168201806040525061165f91908101906127d7565b90505050505b8080600101915050610f2e565b508380611682575060008660ff16145b156116905750505050611acc565b821561169f5750505050611abf565b600060036000815481106116af57fe5b9060005260206000200160009054906101000a900473ffffffffffffffffffffffffffffffffffffffff1690506000600160009054906101000a900473ffffffffffffffffffffffffffffffffffffffff1673ffffffffffffffffffffffffffffffffffffffff166370a08231836040518263ffffffff1660e01b81526004016117399190612a7a565b60206040518083038186803b15801561175157600080fd5b505afa158015611765573d6000803e3d6000fd5b505050506040513d601f19601f8201168201806040525061178991908101906127d7565b90506000600190505b600460009054906101000a900460ff1660ff168160ff1610156119bf576000600160009054906101000a900473ffffffffffffffffffffffffffffffffffffffff1673ffffffffffffffffffffffffffffffffffffffff166370a0823160038460ff16815481106117ff57fe5b9060005260206000200160009054906101000a900473ffffffffffffffffffffffffffffffffffffffff166040518263ffffffff1660e01b81526004016118469190612a7a565b60206040518083038186803b15801561185e57600080fd5b505afa158015611872573d6000803e3d6000fd5b505050506040513d601f19601f8201168201806040525061189691908101906127d7565b9050600060038360ff16815481106118aa57fe5b9060005260206000200160009054906101000a900473ffffffffffffffffffffffffffffffffffffffff1690508363ffffffff168263ffffffff16108015611945575060001515600260008373ffffffffffffffffffffffffffffffffffffffff1673ffffffffffffffffffffffffffffffffffffffff16815260200190815260200160002060000160179054906101000a900460ff161515145b80156119a4575060001515600260008373ffffffffffffffffffffffffffffffffffffffff1673ffffffffffffffffffffffffffffffffffffffff16815260200190815260200160002060000160169054906101000a900460ff161515145b156119b0578094508193505b50508080600101915050611792565b506001600260008473ffffffffffffffffffffffffffffffffffffffff1673ffffffffffffffffffffffffffffffffffffffff16815260200190815260200160002060000160176101000a81548160ff02191690831515021790555060008163ffffffff161115611ab857600160009054906101000a900473ffffffffffffffffffffffffffffffffffffffff1673ffffffffffffffffffffffffffffffffffffffff1663abd2a233836040518263ffffffff1660e01b8152600401611a859190612a7a565b600060405180830381600087803b158015611a9f57600080fd5b505af1158015611ab3573d6000803e3d6000fd5b505050505b5050505050505b8080600101915050610d1f565b5080600503600160196101000a81548160ff021916908360ff16021790555060008090505b6003805490508160ff161015611e8657600160009054906101000a900473ffffffffffffffffffffffffffffffffffffffff1673ffffffffffffffffffffffffffffffffffffffff166370a0823160038360ff1681548110611b4f57fe5b9060005260206000200160009054906101000a900473ffffffffffffffffffffffffffffffffffffffff166040518263ffffffff1660e01b8152600401611b969190612a7a565b60206040518083038186803b158015611bae57600080fd5b505afa158015611bc2573d6000803e3d6000fd5b505050506040513d601f19601f82011682018060405250611be691908101906127d7565b6002600060038460ff1681548110611bfa57fe5b9060005260206000200160009054906101000a900473ffffffffffffffffffffffffffffffffffffffff1673ffffffffffffffffffffffffffffffffffffffff1673ffffffffffffffffffffffffffffffffffffffff16815260200190815260200160002060000160186101000a81548163ffffffff021916908363ffffffff16021790555060086001016002600060038460ff1681548110611c9957fe5b9060005260206000200160009054906101000a900473ffffffffffffffffffffffffffffffffffffffff1673ffffffffffffffffffffffffffffffffffffffff1673ffffffffffffffffffffffffffffffffffffffff168152602001908152602001600020908060018154018082558091505060019003906000526020600020016000909190919091506000820160009054906101000a900473ffffffffffffffffffffffffffffffffffffffff168160000160006101000a81548173ffffffffffffffffffffffffffffffffffffffff021916908373ffffffffffffffffffffffffffffffffffffffff1602179055506000820160149054906101000a900460ff168160000160146101000a81548160ff021916908360ff1602179055506000820160159054906101000a900460ff168160000160156101000a81548160ff021916908360ff1602179055506000820160169054906101000a900460ff168160000160166101000a81548160ff0219169083151502179055506000820160179054906101000a900460ff168160000160176101000a81548160ff0219169083151502179055506000820160189054906101000a900463ffffffff168160000160186101000a81548163ffffffff021916908363ffffffff16021790555050508080600101915050611af1565b5060008090505b6000600560008360ff1660ff16815260200190815260200160002060009054906101000a900463ffffffff1663ffffffff161115611f8d57600260ff16604051908082528060200260200182016040528015611ef85781602001602082028038833980820191505090505b5060086002019080519060200190611f1192919061253d565b50600560008280600101935060ff1660ff16815260200190815260200160002060009054906101000a900463ffffffff1660086002018260ff1681548110611f5557fe5b90600052602060002090600891828204019190066004026101000a81548163ffffffff021916908363ffffffff160217905550611e8d565b6001600760006101000a81548160ff0219169083151502179055505050565b611fb4612535565b73ffffffffffffffffffffffffffffffffffffffff166000809054906101000a900473ffffffffffffffffffffffffffffffffffffffff1673ffffffffffffffffffffffffffffffffffffffff1614612042576040517f08c379a000000000000000000000000000000000000000000000000000000000815260040161203990612c41565b60405180910390fd5b600160149054906101000a900460ff1660ff16600160009054906101000a900473ffffffffffffffffffffffffffffffffffffffff1673ffffffffffffffffffffffffffffffffffffffff16631979955e846040518263ffffffff1660e01b81526004016120b09190612c61565b60206040518083038186803b1580156120c857600080fd5b505afa1580156120dc573d6000803e3d6000fd5b505050506040513d601f19601f82011682018060405250612100919081019061287d565b60ff1614612143576040517f08c379a000000000000000000000000000000000000000000000000000000000815260040161213a90612c21565b60405180910390fd5b600160009054906101000a900473ffffffffffffffffffffffffffffffffffffffff1673ffffffffffffffffffffffffffffffffffffffff166323b872dd3330856040518463ffffffff1660e01b81526004016121a293929190612a95565b600060405180830381600087803b1580156121bc57600080fd5b505af11580156121d0573d6000803e3d6000fd5b50505050600160009054906101000a900473ffffffffffffffffffffffffffffffffffffffff1673ffffffffffffffffffffffffffffffffffffffff1663324b1dc683836040518363ffffffff1660e01b8152600401612231929190612c7c565b600060405180830381600087803b15801561224b57600080fd5b505af115801561225f573d6000803e3d6000fd5b5050505060018060158282829054906101000a900463ffffffff160192506101000a81548163ffffffff021916908363ffffffff1602179055507fd68b742028f68048faefb8051bcb1780ed03a757f341c613cce8cd9b9d794a2333600160149054906101000a900460ff16600160159054906101000a900463ffffffff166040516122ed93929190612acc565b60405180910390a15050565b6001601a9054906101000a900463ffffffff1681565b6003818154811061231c57fe5b906000526020600020016000915054906101000a900473ffffffffffffffffffffffffffffffffffffffff1681565b600160149054906101000a900460ff1681565b612366612535565b73ffffffffffffffffffffffffffffffffffffffff166000809054906101000a900473ffffffffffffffffffffffffffffffffffffffff1673ffffffffffffffffffffffffffffffffffffffff16146123f4576040517f08c379a00000000000000000000000000000000000000000000000000000000081526004016123eb90612c41565b60405180910390fd5b600073ffffffffffffffffffffffffffffffffffffffff168173ffffffffffffffffffffffffffffffffffffffff161415612464576040517f08c379a000000000000000000000000000000000000000000000000000000000815260040161245b90612c01565b60405180910390fd5b8073ffffffffffffffffffffffffffffffffffffffff166000809054906101000a900473ffffffffffffffffffffffffffffffffffffffff1673ffffffffffffffffffffffffffffffffffffffff167f8be0079c531659141344cd1fd0a4f28419497f9722a3daafe3b4186f6b6457e060405160405180910390a3806000806101000a81548173ffffffffffffffffffffffffffffffffffffffff021916908373ffffffffffffffffffffffffffffffffffffffff16021790555050565b600760009054906101000a900460ff1681565b600033905090565b828054828255906000526020600020906007016008900481019282156125d95791602002820160005b838211156125a757835183826101000a81548163ffffffff021916908360ff1602179055509260200192600401602081600301049283019260010302612566565b80156125d75782816101000a81549063ffffffff02191690556004016020816003010492830192600103026125a7565b505b5090506125e691906125ea565b5090565b61261a91905b8082111561261657600081816101000a81549063ffffffff0219169055506001016125f0565b5090565b90565b60008135905061262c81612e69565b92915050565b60008151905061264181612e69565b92915050565b600082601f83011261265857600080fd5b813561266b61266682612d38565b612d0b565b9150818183526020840193506020810190508385602084028201111561269057600080fd5b60005b838110156126c057816126a6888261261d565b845260208401935060208301925050600181019050612693565b5050505092915050565b6000813590506126d981612e80565b92915050565b6000813590506126ee81612e97565b92915050565b60008151905061270381612e97565b92915050565b60008135905061271881612eae565b92915050565b60008151905061272d81612eae565b92915050565b60006020828403121561274557600080fd5b60006127538482850161261d565b91505092915050565b60006020828403121561276e57600080fd5b600061277c84828501612632565b91505092915050565b60006020828403121561279757600080fd5b60006127a5848285016126ca565b91505092915050565b6000602082840312156127c057600080fd5b60006127ce848285016126df565b91505092915050565b6000602082840312156127e957600080fd5b60006127f7848285016126f4565b91505092915050565b6000806040838503121561281357600080fd5b6000612821858286016126df565b925050602083013567ffffffffffffffff81111561283e57600080fd5b61284a85828601612647565b9150509250929050565b60006020828403121561286657600080fd5b600061287484828501612709565b91505092915050565b60006020828403121561288f57600080fd5b600061289d8482850161271e565b91505092915050565b60006128b283836128cd565b60208301905092915050565b6128c781612e21565b82525050565b6128d681612daa565b82525050565b6128e581612daa565b82525050565b60006128f682612d70565b6129008185612d88565b935061290b83612d60565b8060005b8381101561293c57815161292388826128a6565b975061292e83612d7b565b92505060018101905061290f565b5085935050505092915050565b61295281612dbc565b82525050565b6000612965602683612d99565b91507f4f776e61626c653a206e6577206f776e657220697320746865207a65726f206160008301527f64647265737300000000000000000000000000000000000000000000000000006020830152604082019050919050565b60006129cb601283612d99565b91507f496e636f727265637420446973747269637400000000000000000000000000006000830152602082019050919050565b6000612a0b602083612d99565b91507f4f776e61626c653a2063616c6c6572206973206e6f7420746865206f776e65726000830152602082019050919050565b612a4781612dfa565b82525050565b612a5681612e57565b82525050565b612a6581612e04565b82525050565b612a7481612e14565b82525050565b6000602082019050612a8f60008301846128dc565b92915050565b6000606082019050612aaa60008301866128be565b612ab760208301856128dc565b612ac46040830184612a3e565b949350505050565b6000606082019050612ae160008301866128be565b612aee6020830185612a6b565b612afb6040830184612a5c565b949350505050565b6000606082019050612b1860008301866128dc565b612b2560208301856128dc565b612b326040830184612a3e565b949350505050565b6000604082019050612b4f60008301856128dc565b612b5c6020830184612a4d565b9392505050565b600060c082019050612b7860008301896128dc565b612b856020830188612a6b565b612b926040830187612a6b565b612b9f6060830186612949565b612bac6080830185612949565b612bb960a0830184612a5c565b979650505050505050565b60006020820190508181036000830152612bde81846128eb565b905092915050565b6000602082019050612bfb6000830184612949565b92915050565b60006020820190508181036000830152612c1a81612958565b9050919050565b60006020820190508181036000830152612c3a816129be565b9050919050565b60006020820190508181036000830152612c5a816129fe565b9050919050565b6000602082019050612c766000830184612a3e565b92915050565b6000604082019050612c916000830185612a3e565b8181036020830152612ca381846128eb565b90509392505050565b6000604082019050612cc16000830185612a3e565b612cce6020830184612a6b565b9392505050565b6000602082019050612cea6000830184612a5c565b92915050565b6000602082019050612d056000830184612a6b565b92915050565b6000604051905081810181811067ffffffffffffffff82111715612d2e57600080fd5b8060405250919050565b600067ffffffffffffffff821115612d4f57600080fd5b602082029050602081019050919050565b6000819050602082019050919050565b600081519050919050565b6000602082019050919050565b600082825260208201905092915050565b600082825260208201905092915050565b6000612db582612dda565b9050919050565b60008115159050919050565b6000612dd382612daa565b9050919050565b600073ffffffffffffffffffffffffffffffffffffffff82169050919050565b6000819050919050565b600063ffffffff82169050919050565b600060ff82169050919050565b6000612e2c82612e33565b9050919050565b6000612e3e82612e45565b9050919050565b6000612e5082612dda565b9050919050565b6000612e6282612e04565b9050919050565b612e7281612daa565b8114612e7d57600080fd5b50565b612e8981612dc8565b8114612e9457600080fd5b50565b612ea081612dfa565b8114612eab57600080fd5b50565b612eb781612e14565b8114612ec257600080fd5b5056fea2646970667358221220cf4f953935edc8e9451b04ce9d3079ea6db43aeb9f36bbddda5b642772cc11bd64736f6c63430006020033",
  "source": "pragma solidity ^0.6.0;\npragma experimental ABIEncoderV2;\n\n//import \"@openzeppelin/contracts/token/ERC721/IERC721Receiver.sol\";\nimport \"./VoteToken.sol\";\nimport \"./Shared.sol\";\nimport \"@openzeppelin/contracts/access/Ownable.sol\";\n\ncontract District is Ownable{\n    VoteToken internal voteToken;\n    uint8 public districtNumber;\n    //uint public eligibleVotes ;\n    uint32 public castVotes;\n    //uint32 internal uncountedVotes;\n    uint8 constant public seats = 5;\n    uint8 public seatsFilled;\n    uint32 public quota;\n    \n    //Shared.DistrictResults internal results;\n    mapping(address => Shared.Candidate) public candidates;\n    address[] public candidateAddresses;\n    uint8 public candidatesCount;\n    mapping(uint8 => uint32) public party1stCountVotes;\n    address[] electedCandidates;\n    \n    bool public counted = false;\n\n    Shared.DistrictResults internal districtResults;\n\n\n    event Vote(address _voter, uint8 districtNo, uint32 castVotes);\n\n    constructor(uint8 _districtNumber, Shared.Candidate[] memory _candidates/*, VoteToken _voteToken*/) Ownable() public{\n        //voteToken = _voteToken;\n        districtNumber = _districtNumber;\n        //eligibleVotes = _eligibleVotes;\n        castVotes = 0;\n        candidatesCount = uint8(_candidates.length);\n        \n        for(uint8 i = 0; i < candidatesCount; i++){\n            candidateAddresses.push(_candidates[i]._address);\n            candidates[_candidates[i]._address] = _candidates[i];\n        }\n    }\n    \n    function setVoteToken(VoteToken _voteToken) public onlyOwner{\n        voteToken = _voteToken;\n    }\n    /*function getVoterTurnout() public view returns(uint){\n        return castVotes/eligibleVotes;\n    }*/\n\n    function getCandidateAddresses() public view returns(address[] memory){\n        return candidateAddresses;\n    }\n    \n    function vote(uint256 tokenId, address[] memory _preferences) public onlyOwner{\n        require(voteToken.district(tokenId) == districtNumber,\"Incorrect District\");\n        //require(voteToken.district(_tokenId) == districtNumber);\n        //voteToken.approve(address(this),_tokenId);\n        voteToken.transferFrom(msg.sender,address(this),tokenId);\n        voteToken.setVotePreferences(tokenId, _preferences);\n        castVotes += 1;\n        emit Vote(msg.sender, districtNumber, castVotes);\n    }\n    \n    \n    /*function onERC721Received(address operator, address from, uint256 tokenId, bytes calldata data) external override returns (bytes4){\n        require(voteToken.district(tokenId) == districtNumber,\"Incorrect District\");\n\n   }*/\n\n   function getAddresses() public view returns(address[] memory) {\n       return candidateAddresses;\n   }\n\n    /*function getResults() public returns(Shared.DistrictResults memory) {\n        require(counted,\"Votes have not yet been tallied for this district.\");\n        return districtResults;\n    }*/\n\n   function getQuota() public view returns(uint32){\n       //quota = (castVotes/(seats+1)) + 1;\n       return (castVotes/(seats+1)) + 1;\n   }\n\n\n    function getAllElected() public returns(address[] memory){\n        if(electedCandidates.length==0){\n        \n            for(uint8 i = 0; i < candidatesCount; i++){\n                if(candidates[candidateAddresses[i]].elected == true)\n                    electedCandidates.push(candidates[candidateAddresses[i]]._address);\n            }\n        \n        }\n        return electedCandidates;\n    }\n    \n    function kill() public onlyOwner {\n        //require(msg.sender == owner);\n        selfdestruct(msg.sender);\n    }\n\n    function transferAllBack(address _from) public {\n        voteToken.transferAllBack(_from);\n    }\n\n    function countVotes() public{\n        uint8 seatsRemaining = seats; //number of seats which have not yet been filled.\n        castVotes = uint32(voteToken.balanceOf(address(this)));\n        //uncountedVotes = castVotes;\n        quota = getQuota();\n        \n\n        for (uint8 j = 1; j <= candidatesCount; j++){ //the number of candidates being the theoretical maximum preferences a voter can select.\n            bool noMoreRounds = true; //will be set to false if it is found that for a given preference number j, no voter has selected a preference this high, and signal to terminate the counting process.\n            bool candidateElected = false; \n            //whether in this round of counting at least one seat has been filled. \n\n            uint32 uncountedVotes = uint32(voteToken.balanceOf(address(this)));\n            uint256[] memory voteTokenIDs = new uint256[](uncountedVotes);\n\n            for (uint32 i = 0; i < uncountedVotes; i++){\n                uint256 voteTokenID = voteToken.tokenOfOwnerByIndex(address(this),i);\n                voteTokenIDs[i] = voteTokenID;\n            }\n\n            for (uint32 i = 0; i < voteTokenIDs.length; i++){\n                //uint256 voteTokenID = voteToken.tokenOfOwnerByIndex(address(this),i);\n                uint256 voteTokenID = voteTokenIDs[i];\n\n                address candidateAddress = voteToken.preferences(voteTokenID,j);\n                if(candidateAddress == address(0))\n                    break;\n                else\n                    noMoreRounds = false;\n                \n               /* else\n                    noMoreRounds = false;*/\n\n                if(j==1)\n                    party1stCountVotes[candidates[candidateAddress].party] += 1;\n                \n                uint32 voteBalance = uint32(voteToken.balanceOf(candidateAddress));\n                \n                \n                if(voteBalance == quota-1 && candidates[candidateAddress].eliminated == false){\n                    voteToken.transferFrom(address(this), candidateAddress, voteTokenID);\n                    candidates[candidateAddress].elected = true;\n                    candidateElected = true;\n                    electedCandidates.push(candidateAddress);\n                    if(--seatsRemaining == 0)\n                        break;\n                }\n                else if(candidates[candidateAddress].elected == false && candidates[candidateAddress].eliminated == false){\n                    voteToken.transferFrom(address(this), candidateAddress, voteTokenID);\n                }\n                else if(candidates[candidateAddress].elected == true || candidates[candidateAddress].eliminated == true){\n                    continue;\n                }\n                voteBalance = uint32(voteToken.balanceOf(candidateAddress));\n                /*\n                else {\n                    if(voteBalance < currentLeastVotes){\n                        currentLeastVotes = voteBalance;\n                        currentCandidateWithLeastVotes = candidateAddress;\n                    }\n                    continue;\n                }\n                \n                if(voteBalance+1 < currentLeastVotes || currentLeastVotes == -1){\n                        currentLeastVotes = voteBalance+1;\n                        currentCandidateWithLeastVotes = candidateAddress;\n                    }\n                   */\n            }    \n            \n            if(noMoreRounds || seatsRemaining == 0) \n                break;\n            else if(candidateElected)\n                continue;\n\n            /*If no candidate was elected this round of counting, we eliminate candidate with least votes and transfer their votes back to the district contract for next preference counting.*/\n            address currentCandidateWithLeastVotes = candidateAddresses[0];\n            uint32 currentLeastVotes = uint32(voteToken.balanceOf(currentCandidateWithLeastVotes));\n            /*In STV, the candidate to be eliminated is selected randomly if 2 or more candidates are\n            tied for least amount of votes; This would be expensive to implement on chain, so to eliminate bias, the addresses passed as candidateAddresses to the District constructor should\n            be \"shuffled\" off-chain before being passed. */\n            for (uint8 k = 1; k < candidatesCount; k++){\n                uint32 _balance = uint32(voteToken.balanceOf(candidateAddresses[k]));\n                address _candidateAddress = candidateAddresses[k];\n\n                if(_balance < currentLeastVotes && candidates[_candidateAddress].eliminated == false && candidates[_candidateAddress].elected ==false ){\n                    currentCandidateWithLeastVotes = _candidateAddress;\n                    currentLeastVotes = _balance;\n                }\n            }\n\n            candidates[currentCandidateWithLeastVotes].eliminated = true;\n            if(currentLeastVotes>0)\n                voteToken.transferAllBack(currentCandidateWithLeastVotes);\n           \n            \n            \n        }\n        \n        seatsFilled = seats - seatsRemaining;\n\n        for(uint8 i = 0; i<candidateAddresses.length; i++){\n            candidates[candidateAddresses[i]].votes = uint32(voteToken.balanceOf(candidateAddresses[i]));\n            districtResults.candidateResults.push(candidates[candidateAddresses[i]]);\n        }\n\n        uint8 k = 0;\n        while(party1stCountVotes[k]>0){\n            districtResults.party1stCountVotes = new uint8[](Shared.parties);\n            districtResults.party1stCountVotes[k] = party1stCountVotes[k++];\n        }\n\n\n        counted = true;\n    }\n}",
  "sourcePath": "/Users/timothymuscat/Documents/MScThesis/BlockVote_ReactBox/contracts/District.sol",
  "compiler": {
    "name": "solc",
    "version": "0.6.2+commit.bacdbe57.Emscripten.clang"
  },
  "schemaVersion": "3.2.2",
  "updatedAt": "2020-09-05T11:37:03.196Z",
  "devdoc": {
    "methods": {
      "owner()": {
        "details": "Returns the address of the current owner."
      },
      "renounceOwnership()": {
        "details": "Leaves the contract without owner. It will not be possible to call `onlyOwner` functions anymore. Can only be called by the current owner.     * NOTE: Renouncing ownership will leave the contract without an owner, thereby removing any functionality that is only available to the owner."
      },
      "transferOwnership(address)": {
        "details": "Transfers ownership of the contract to a new account (`newOwner`). Can only be called by the current owner."
      }
    }
  },
  "userdoc": {
    "methods": {}
  }
}