{
  "contractName": "DistrictFactory",
  "abi": [
    {
      "inputs": [],
      "stateMutability": "nonpayable",
      "type": "constructor"
    },
    {
      "inputs": [
        {
          "internalType": "uint8",
          "name": "_districtNumber",
          "type": "uint8"
        },
        {
          "components": [
            {
              "internalType": "address",
              "name": "_address",
              "type": "address"
            },
            {
              "internalType": "uint8",
              "name": "party",
              "type": "uint8"
            },
            {
              "internalType": "uint8",
              "name": "districtNo",
              "type": "uint8"
            },
            {
              "internalType": "bool",
              "name": "elected",
              "type": "bool"
            },
            {
              "internalType": "bool",
              "name": "eliminated",
              "type": "bool"
            },
            {
              "internalType": "uint32",
              "name": "votes",
              "type": "uint32"
            }
          ],
          "internalType": "struct Shared.Candidate[]",
          "name": "_candidates",
          "type": "tuple[]"
        }
      ],
      "name": "create",
      "outputs": [
        {
          "internalType": "contract District",
          "name": "",
          "type": "address"
        }
      ],
      "stateMutability": "nonpayable",
      "type": "function"
    }
  ],
  "bytecode": "0x608060405234801561001057600080fd5b50613e77806100206000396000f3fe60806040523480156200001157600080fd5b50600436106200002e5760003560e01c8063d6fb2bce1462000033575b600080fd5b6200005160048036036200004b9190810190620001dc565b62000069565b60405162000060919062000414565b60405180910390f35b6000808484846040516200007d9062000125565b6200008b9392919062000431565b604051809103906000f080158015620000a8573d6000803e3d6000fd5b5090508073ffffffffffffffffffffffffffffffffffffffff1663f2fde38b336040518263ffffffff1660e01b8152600401620000e69190620003f7565b600060405180830381600087803b1580156200010157600080fd5b505af115801562000116573d6000803e3d6000fd5b50505050809150509392505050565b61381a806200062883390190565b6000813590506200014481620005bf565b92915050565b60008083601f8401126200015d57600080fd5b8235905067ffffffffffffffff8111156200017757600080fd5b6020830191508360c08202830111156200019057600080fd5b9250929050565b600081359050620001a881620005d9565b92915050565b600081359050620001bf81620005f3565b92915050565b600081359050620001d6816200060d565b92915050565b600080600060408486031215620001f257600080fd5b60006200020286828701620001c5565b935050602084013567ffffffffffffffff8111156200022057600080fd5b6200022e868287016200014a565b92509250509250925092565b600062000248838362000301565b60c08301905092915050565b6200025f816200055b565b82525050565b6200027081620004fe565b82525050565b60006200028483856200047e565b9350620002918262000467565b8060005b85811015620002d257620002aa8284620004c1565b620002b688826200023a565b9750620002c38362000471565b92505060018101905062000295565b5085925050509392505050565b620002ea8162000512565b82525050565b620002fb816200056f565b82525050565b60c082016200031460008301836200048f565b62000323600085018262000265565b50620003336020830183620004e5565b620003426020850182620003d5565b50620003526040830183620004e5565b620003616040850182620003d5565b50620003716060830183620004a8565b620003806060850182620002df565b50620003906080830183620004a8565b6200039f6080850182620002df565b50620003af60a0830183620004cc565b620003be60a0850182620003c4565b50505050565b620003cf816200053e565b82525050565b620003e0816200054e565b82525050565b620003f1816200054e565b82525050565b60006020820190506200040e600083018462000254565b92915050565b60006020820190506200042b6000830184620002f0565b92915050565b6000604082019050620004486000830186620003e6565b81810360208301526200045d81848662000276565b9050949350505050565b6000819050919050565b600060c082019050919050565b600082825260208201905092915050565b6000620004a0602084018462000133565b905092915050565b6000620004b9602084018462000197565b905092915050565b600082905092915050565b6000620004dd6020840184620001ae565b905092915050565b6000620004f66020840184620001c5565b905092915050565b60006200050b826200051e565b9050919050565b60008115159050919050565b600073ffffffffffffffffffffffffffffffffffffffff82169050919050565b600063ffffffff82169050919050565b600060ff82169050919050565b6000620005688262000597565b9050919050565b60006200057c8262000583565b9050919050565b600062000590826200051e565b9050919050565b6000620005a482620005ab565b9050919050565b6000620005b8826200051e565b9050919050565b620005ca81620004fe565b8114620005d657600080fd5b50565b620005e48162000512565b8114620005f057600080fd5b50565b620005fe816200053e565b81146200060a57600080fd5b50565b62000618816200054e565b81146200062457600080fd5b5056fe60806040526000600960006101000a81548160ff0219169083151502179055503480156200002c57600080fd5b506040516200381a3803806200381a8339818101604052620000529190810190620004fb565b6000620000646200035f60201b60201c565b9050806000806101000a81548173ffffffffffffffffffffffffffffffffffffffff021916908373ffffffffffffffffffffffffffffffffffffffff1602179055508073ffffffffffffffffffffffffffffffffffffffff16600073ffffffffffffffffffffffffffffffffffffffff167f8be0079c531659141344cd1fd0a4f28419497f9722a3daafe3b4186f6b6457e060405160405180910390a35081600160146101000a81548160ff021916908360ff16021790555060006002819055508051600660006101000a81548160ff021916908360ff16021790555060008090505b600660009054906101000a900460ff1660ff168160ff16101562000356576005828260ff16815181106200017757fe5b6020026020010151600001519080600181540180825580915050600190039060005260206000200160009091909190916101000a81548173ffffffffffffffffffffffffffffffffffffffff021916908373ffffffffffffffffffffffffffffffffffffffff160217905550818160ff1681518110620001f357fe5b602002602001015160046000848460ff16815181106200020f57fe5b60200260200101516000015173ffffffffffffffffffffffffffffffffffffffff1673ffffffffffffffffffffffffffffffffffffffff16815260200190815260200160002060008201518160000160006101000a81548173ffffffffffffffffffffffffffffffffffffffff021916908373ffffffffffffffffffffffffffffffffffffffff16021790555060208201518160000160146101000a81548160ff021916908360ff16021790555060408201518160000160156101000a81548160ff021916908360ff16021790555060608201518160000160166101000a81548160ff02191690831515021790555060808201518160000160176101000a81548160ff02191690831515021790555060a08201518160000160186101000a81548163ffffffff021916908363ffffffff160217905550905050808060010191505062000147565b50505062000671565b600033905090565b600081519050620003788162000609565b92915050565b600082601f8301126200039057600080fd5b8151620003a7620003a18262000583565b62000555565b915081818352602084019350602081019050838560c0840282011115620003cd57600080fd5b60005b83811015620004015781620003e6888262000422565b845260208401935060c08301925050600181019050620003d0565b5050505092915050565b6000815190506200041c8162000623565b92915050565b600060c082840312156200043557600080fd5b6200044160c062000555565b90506000620004538482850162000367565b60008301525060206200046984828501620004e4565b60208301525060406200047f84828501620004e4565b604083015250606062000495848285016200040b565b6060830152506080620004ab848285016200040b565b60808301525060a0620004c184828501620004cd565b60a08301525092915050565b600081519050620004de816200063d565b92915050565b600081519050620004f58162000657565b92915050565b600080604083850312156200050f57600080fd5b60006200051f85828601620004e4565b925050602083015167ffffffffffffffff8111156200053d57600080fd5b6200054b858286016200037e565b9150509250929050565b6000604051905081810181811067ffffffffffffffff821117156200057957600080fd5b8060405250919050565b600067ffffffffffffffff8211156200059b57600080fd5b602082029050602081019050919050565b6000620005b982620005cc565b9050919050565b60008115159050919050565b600073ffffffffffffffffffffffffffffffffffffffff82169050919050565b600063ffffffff82169050919050565b600060ff82169050919050565b6200061481620005ac565b81146200062057600080fd5b50565b6200062e81620005c0565b81146200063a57600080fd5b50565b6200064881620005ec565b81146200065457600080fd5b50565b6200066281620005fc565b81146200066e57600080fd5b50565b61319980620006816000396000f3fe608060405234801561001057600080fd5b50600436106101425760003560e01c80638ab66a90116100b8578063c5bf93ba1161007c578063c5bf93ba14610312578063cebe09c91461032e578063d55d73c51461034c578063dd7177d81461037c578063f2fde38b1461039a578063f937f910146103b657610142565b80638ab66a90146102795780638da5cb5b146102ae5780639c5655d6146102cc578063a39fac12146102ea578063b647990a1461030857610142565b806343d4ed831161010a57806343d4ed83146101c95780634d23aaa7146101e75780634ede20d8146102035780636d89c6ab14610221578063715018a6146102515780638155f7361461025b57610142565b8063160d66ae146101475780631df8ba77146101655780632d35a8a21461018357806337b40f66146101a157806341c0e1b5146101bf575b600080fd5b61014f6103d4565b60405161015c9190612e36565b60405180910390f35b61016d6103fa565b60405161017a9190612f47565b60405180910390f35b61018b610416565b6040516101989190612f7d565b60405180910390f35b6101a9610429565b6040516101b69190612f7d565b60405180910390f35b6101c761043c565b005b6101d16104eb565b6040516101de9190612ed1565b60405180910390f35b61020160048036036101fc91908101906128d5565b6104f1565b005b61020b6105cb565b6040516102189190612df9565b60405180910390f35b61023b600480360361023691908101906129a8565b61082f565b6040516102489190612f62565b60405180910390f35b610259610856565b005b6102636109ab565b6040516102709190612df9565b60405180910390f35b610293600480360361028e9190810190612883565b610a39565b6040516102a596959493929190612d98565b60405180910390f35b6102b6610ad9565b6040516102c39190612caf565b60405180910390f35b6102d4610b02565b6040516102e19190612f7d565b60405180910390f35b6102f2610b07565b6040516102ff9190612df9565b60405180910390f35b610310610b95565b005b61032c60048036036103279190810190612950565b612044565b005b610336612476565b6040516103439190612f47565b60405180910390f35b610366600480360361036191908101906128fe565b61248c565b6040516103739190612caf565b60405180910390f35b6103846124c8565b6040516103919190612f7d565b60405180910390f35b6103b460048036036103af9190810190612883565b6124db565b005b6103be61269f565b6040516103cb9190612e1b565b60405180910390f35b600160009054906101000a900473ffffffffffffffffffffffffffffffffffffffff1681565b600060018060050160ff166002548161040f57fe5b0401905090565b600660009054906101000a900460ff1681565b600360009054906101000a900460ff1681565b6104446126b2565b73ffffffffffffffffffffffffffffffffffffffff166000809054906101000a900473ffffffffffffffffffffffffffffffffffffffff1673ffffffffffffffffffffffffffffffffffffffff16146104d2576040517f08c379a00000000000000000000000000000000000000000000000000000000081526004016104c990612eb1565b60405180910390fd5b3373ffffffffffffffffffffffffffffffffffffffff16ff5b60025481565b6104f96126b2565b73ffffffffffffffffffffffffffffffffffffffff166000809054906101000a900473ffffffffffffffffffffffffffffffffffffffff1673ffffffffffffffffffffffffffffffffffffffff1614610587576040517f08c379a000000000000000000000000000000000000000000000000000000000815260040161057e90612eb1565b60405180910390fd5b80600160006101000a81548173ffffffffffffffffffffffffffffffffffffffff021916908373ffffffffffffffffffffffffffffffffffffffff16021790555050565b6060600060088054905014156107a35760008090505b600660009054906101000a900460ff1660ff168160ff1610156107a157600115156004600060058460ff168154811061061657fe5b9060005260206000200160009054906101000a900473ffffffffffffffffffffffffffffffffffffffff1673ffffffffffffffffffffffffffffffffffffffff1673ffffffffffffffffffffffffffffffffffffffff16815260200190815260200160002060000160169054906101000a900460ff16151514156107945760086004600060058460ff16815481106106aa57fe5b9060005260206000200160009054906101000a900473ffffffffffffffffffffffffffffffffffffffff1673ffffffffffffffffffffffffffffffffffffffff1673ffffffffffffffffffffffffffffffffffffffff16815260200190815260200160002060000160009054906101000a900473ffffffffffffffffffffffffffffffffffffffff169080600181540180825580915050600190039060005260206000200160009091909190916101000a81548173ffffffffffffffffffffffffffffffffffffffff021916908373ffffffffffffffffffffffffffffffffffffffff1602179055505b80806001019150506105e1565b505b600880548060200260200160405190810160405280929190818152602001828054801561082557602002820191906000526020600020905b8160009054906101000a900473ffffffffffffffffffffffffffffffffffffffff1673ffffffffffffffffffffffffffffffffffffffff16815260200190600101908083116107db575b5050505050905090565b60076020528060005260406000206000915054906101000a900467ffffffffffffffff1681565b61085e6126b2565b73ffffffffffffffffffffffffffffffffffffffff166000809054906101000a900473ffffffffffffffffffffffffffffffffffffffff1673ffffffffffffffffffffffffffffffffffffffff16146108ec576040517f08c379a00000000000000000000000000000000000000000000000000000000081526004016108e390612eb1565b60405180910390fd5b600073ffffffffffffffffffffffffffffffffffffffff166000809054906101000a900473ffffffffffffffffffffffffffffffffffffffff1673ffffffffffffffffffffffffffffffffffffffff167f8be0079c531659141344cd1fd0a4f28419497f9722a3daafe3b4186f6b6457e060405160405180910390a360008060006101000a81548173ffffffffffffffffffffffffffffffffffffffff021916908373ffffffffffffffffffffffffffffffffffffffff160217905550565b60606005805480602002602001604051908101604052809291908181526020018280548015610a2f57602002820191906000526020600020905b8160009054906101000a900473ffffffffffffffffffffffffffffffffffffffff1673ffffffffffffffffffffffffffffffffffffffff16815260200190600101908083116109e5575b5050505050905090565b60046020528060005260406000206000915090508060000160009054906101000a900473ffffffffffffffffffffffffffffffffffffffff16908060000160149054906101000a900460ff16908060000160159054906101000a900460ff16908060000160169054906101000a900460ff16908060000160179054906101000a900460ff16908060000160189054906101000a900463ffffffff16905086565b60008060009054906101000a900473ffffffffffffffffffffffffffffffffffffffff16905090565b600581565b60606005805480602002602001604051908101604052809291908181526020018280548015610b8b57602002820191906000526020600020905b8160009054906101000a900473ffffffffffffffffffffffffffffffffffffffff1673ffffffffffffffffffffffffffffffffffffffff1681526020019060010190808311610b41575b5050505050905090565b610b9d6126b2565b73ffffffffffffffffffffffffffffffffffffffff166000809054906101000a900473ffffffffffffffffffffffffffffffffffffffff1673ffffffffffffffffffffffffffffffffffffffff1614610c2b576040517f08c379a0000000000000000000000000000000000000000000000000000000008152600401610c2290612eb1565b60405180910390fd5b600060059050600160009054906101000a900473ffffffffffffffffffffffffffffffffffffffff1673ffffffffffffffffffffffffffffffffffffffff166370a08231306040518263ffffffff1660e01b8152600401610c8c9190612caf565b60206040518083038186803b158015610ca457600080fd5b505afa158015610cb8573d6000803e3d6000fd5b505050506040513d601f19601f82011682018060405250610cdc9190810190612927565b600281905550610cea6103fa565b600360016101000a81548163ffffffff021916908363ffffffff1602179055506000600190505b600660009054906101000a900460ff1660ff168160ff1611611b505760006001905060008090506000600160009054906101000a900473ffffffffffffffffffffffffffffffffffffffff1673ffffffffffffffffffffffffffffffffffffffff166370a08231306040518263ffffffff1660e01b8152600401610d959190612caf565b60206040518083038186803b158015610dad57600080fd5b505afa158015610dc1573d6000803e3d6000fd5b505050506040513d601f19601f82011682018060405250610de59190810190612927565b905060008090505b600082118015610dff5750818160ff16105b15611668576000600160009054906101000a900473ffffffffffffffffffffffffffffffffffffffff1673ffffffffffffffffffffffffffffffffffffffff16632f745c5930846040518363ffffffff1660e01b8152600401610e63929190612d6f565b60206040518083038186803b158015610e7b57600080fd5b505afa158015610e8f573d6000803e3d6000fd5b505050506040513d601f19601f82011682018060405250610eb39190810190612927565b90506000600160009054906101000a900473ffffffffffffffffffffffffffffffffffffffff1673ffffffffffffffffffffffffffffffffffffffff1663d1d0a5ea83896040518363ffffffff1660e01b8152600401610f14929190612f1e565b60206040518083038186803b158015610f2c57600080fd5b505afa158015610f40573d6000803e3d6000fd5b505050506040513d601f19601f82011682018060405250610f6491908101906128ac565b9050600073ffffffffffffffffffffffffffffffffffffffff168173ffffffffffffffffffffffffffffffffffffffff161415610faa5782806001019350505050610ded565b6000955060018760ff16141561106457600160076000600460008573ffffffffffffffffffffffffffffffffffffffff1673ffffffffffffffffffffffffffffffffffffffff16815260200190815260200160002060000160149054906101000a900460ff1660ff1660ff16815260200190815260200160002060008282829054906101000a900467ffffffffffffffff160192506101000a81548167ffffffffffffffff021916908367ffffffffffffffff1602179055505b6000600160009054906101000a900473ffffffffffffffffffffffffffffffffffffffff1673ffffffffffffffffffffffffffffffffffffffff166370a08231836040518263ffffffff1660e01b81526004016110c19190612caf565b60206040518083038186803b1580156110d957600080fd5b505afa1580156110ed573d6000803e3d6000fd5b505050506040513d601f19601f820116820180604052506111119190810190612927565b90506001600360019054906101000a900463ffffffff160363ffffffff16811015801561118b5750600460008373ffffffffffffffffffffffffffffffffffffffff1673ffffffffffffffffffffffffffffffffffffffff16815260200190815260200160002060000160179054906101000a900460ff16155b156113b057600160009054906101000a900473ffffffffffffffffffffffffffffffffffffffff1673ffffffffffffffffffffffffffffffffffffffff166323b872dd3084866040518463ffffffff1660e01b81526004016111ef93929190612d38565b600060405180830381600087803b15801561120957600080fd5b505af115801561121d573d6000803e3d6000fd5b505050506001600460008473ffffffffffffffffffffffffffffffffffffffff1673ffffffffffffffffffffffffffffffffffffffff16815260200190815260200160002060000160166101000a81548160ff021916908315150217905550600195506008829080600181540180825580915050600190039060005260206000200160009091909190916101000a81548173ffffffffffffffffffffffffffffffffffffffff021916908373ffffffffffffffffffffffffffffffffffffffff160217905550600160009054906101000a900473ffffffffffffffffffffffffffffffffffffffff1673ffffffffffffffffffffffffffffffffffffffff166370a08231306040518263ffffffff1660e01b815260040161133e9190612caf565b60206040518083038186803b15801561135657600080fd5b505afa15801561136a573d6000803e3d6000fd5b505050506040513d601f19601f8201168201806040525061138e9190810190612927565b94508860019003985060008960ff1614156113ab57505050611668565b611660565b600460008373ffffffffffffffffffffffffffffffffffffffff1673ffffffffffffffffffffffffffffffffffffffff16815260200190815260200160002060000160169054906101000a900460ff1615801561145a5750600460008373ffffffffffffffffffffffffffffffffffffffff1673ffffffffffffffffffffffffffffffffffffffff16815260200190815260200160002060000160179054906101000a900460ff16155b156115a257600160009054906101000a900473ffffffffffffffffffffffffffffffffffffffff1673ffffffffffffffffffffffffffffffffffffffff166323b872dd3084866040518463ffffffff1660e01b81526004016114be93929190612d38565b600060405180830381600087803b1580156114d857600080fd5b505af11580156114ec573d6000803e3d6000fd5b50505050600160009054906101000a900473ffffffffffffffffffffffffffffffffffffffff1673ffffffffffffffffffffffffffffffffffffffff166370a08231306040518263ffffffff1660e01b815260040161154b9190612caf565b60206040518083038186803b15801561156357600080fd5b505afa158015611577573d6000803e3d6000fd5b505050506040513d601f19601f8201168201806040525061159b9190810190612927565b945061165f565b600460008373ffffffffffffffffffffffffffffffffffffffff1673ffffffffffffffffffffffffffffffffffffffff16815260200190815260200160002060000160169054906101000a900460ff16806116495750600460008373ffffffffffffffffffffffffffffffffffffffff1673ffffffffffffffffffffffffffffffffffffffff16815260200190815260200160002060000160179054906101000a900460ff165b1561165e578380600101945050505050610ded565b5b5b505050610ded565b8380611677575060008660ff16145b156116855750505050611b50565b82156116945750505050611b43565b600060056000815481106116a457fe5b9060005260206000200160009054906101000a900473ffffffffffffffffffffffffffffffffffffffff1690506000600160009054906101000a900473ffffffffffffffffffffffffffffffffffffffff1673ffffffffffffffffffffffffffffffffffffffff166370a08231836040518263ffffffff1660e01b815260040161172e9190612caf565b60206040518083038186803b15801561174657600080fd5b505afa15801561175a573d6000803e3d6000fd5b505050506040513d601f19601f8201168201806040525061177e9190810190612927565b90506000600190505b600660009054906101000a900460ff1660ff168160ff16101561199c576000600160009054906101000a900473ffffffffffffffffffffffffffffffffffffffff1673ffffffffffffffffffffffffffffffffffffffff166370a0823160058460ff16815481106117f457fe5b9060005260206000200160009054906101000a900473ffffffffffffffffffffffffffffffffffffffff166040518263ffffffff1660e01b815260040161183b9190612caf565b60206040518083038186803b15801561185357600080fd5b505afa158015611867573d6000803e3d6000fd5b505050506040513d601f19601f8201168201806040525061188b9190810190612927565b9050600060058360ff168154811061189f57fe5b9060005260206000200160009054906101000a900473ffffffffffffffffffffffffffffffffffffffff16905083821080156119285750600460008273ffffffffffffffffffffffffffffffffffffffff1673ffffffffffffffffffffffffffffffffffffffff16815260200190815260200160002060000160179054906101000a900460ff16155b80156119815750600460008273ffffffffffffffffffffffffffffffffffffffff1673ffffffffffffffffffffffffffffffffffffffff16815260200190815260200160002060000160169054906101000a900460ff16155b1561198d578094508193505b50508080600101915050611787565b506001600460008473ffffffffffffffffffffffffffffffffffffffff1673ffffffffffffffffffffffffffffffffffffffff16815260200190815260200160002060000160176101000a81548160ff0219169083151502179055506000811115611b3c57600160009054906101000a900473ffffffffffffffffffffffffffffffffffffffff1673ffffffffffffffffffffffffffffffffffffffff1663abd2a233836040518263ffffffff1660e01b8152600401611a5c9190612caf565b600060405180830381600087803b158015611a7657600080fd5b505af1158015611a8a573d6000803e3d6000fd5b50505050600160009054906101000a900473ffffffffffffffffffffffffffffffffffffffff1673ffffffffffffffffffffffffffffffffffffffff166370a08231306040518263ffffffff1660e01b8152600401611ae99190612caf565b60206040518083038186803b158015611b0157600080fd5b505afa158015611b15573d6000803e3d6000fd5b505050506040513d601f19601f82011682018060405250611b399190810190612927565b93505b5050505050505b8080600101915050610d11565b5080600503600360006101000a81548160ff021916908360ff16021790555060008090505b6005805490508160ff161015611f0a57600160009054906101000a900473ffffffffffffffffffffffffffffffffffffffff1673ffffffffffffffffffffffffffffffffffffffff166370a0823160058360ff1681548110611bd357fe5b9060005260206000200160009054906101000a900473ffffffffffffffffffffffffffffffffffffffff166040518263ffffffff1660e01b8152600401611c1a9190612caf565b60206040518083038186803b158015611c3257600080fd5b505afa158015611c46573d6000803e3d6000fd5b505050506040513d601f19601f82011682018060405250611c6a9190810190612927565b6004600060058460ff1681548110611c7e57fe5b9060005260206000200160009054906101000a900473ffffffffffffffffffffffffffffffffffffffff1673ffffffffffffffffffffffffffffffffffffffff1673ffffffffffffffffffffffffffffffffffffffff16815260200190815260200160002060000160186101000a81548163ffffffff021916908363ffffffff160217905550600a6001016004600060058460ff1681548110611d1d57fe5b9060005260206000200160009054906101000a900473ffffffffffffffffffffffffffffffffffffffff1673ffffffffffffffffffffffffffffffffffffffff1673ffffffffffffffffffffffffffffffffffffffff168152602001908152602001600020908060018154018082558091505060019003906000526020600020016000909190919091506000820160009054906101000a900473ffffffffffffffffffffffffffffffffffffffff168160000160006101000a81548173ffffffffffffffffffffffffffffffffffffffff021916908373ffffffffffffffffffffffffffffffffffffffff1602179055506000820160149054906101000a900460ff168160000160146101000a81548160ff021916908360ff1602179055506000820160159054906101000a900460ff168160000160156101000a81548160ff021916908360ff1602179055506000820160169054906101000a900460ff168160000160166101000a81548160ff0219169083151502179055506000820160179054906101000a900460ff168160000160176101000a81548160ff0219169083151502179055506000820160189054906101000a900463ffffffff168160000160186101000a81548163ffffffff021916908363ffffffff16021790555050508080600101915050611b75565b5060008090505b6000600760008360ff1660ff16815260200190815260200160002060009054906101000a900467ffffffffffffffff1667ffffffffffffffff16111561202557600260ff16604051908082528060200260200182016040528015611f845781602001602082028038833980820191505090505b50600a6002019080519060200190611f9d9291906126ba565b50600760008280600101935060ff1660ff16815260200190815260200160002060009054906101000a900467ffffffffffffffff16600a6002018260ff1681548110611fe557fe5b90600052602060002090600491828204019190066008026101000a81548167ffffffffffffffff021916908367ffffffffffffffff160217905550611f11565b6001600960006101000a81548160ff0219169083151502179055505050565b61204c6126b2565b73ffffffffffffffffffffffffffffffffffffffff166000809054906101000a900473ffffffffffffffffffffffffffffffffffffffff1673ffffffffffffffffffffffffffffffffffffffff16146120da576040517f08c379a00000000000000000000000000000000000000000000000000000000081526004016120d190612eb1565b60405180910390fd5b600160149054906101000a900460ff1660ff16600160009054906101000a900473ffffffffffffffffffffffffffffffffffffffff1673ffffffffffffffffffffffffffffffffffffffff16631979955e856040518263ffffffff1660e01b81526004016121489190612ed1565b60206040518083038186803b15801561216057600080fd5b505afa158015612174573d6000803e3d6000fd5b505050506040513d601f19601f8201168201806040525061219891908101906129d1565b60ff16146121db576040517f08c379a00000000000000000000000000000000000000000000000000000000081526004016121d290612e91565b60405180910390fd5b60008090505b828290508160ff1610156122f157600073ffffffffffffffffffffffffffffffffffffffff166004600085858560ff1681811061221a57fe5b905060200201602061222f9190810190612883565b73ffffffffffffffffffffffffffffffffffffffff1673ffffffffffffffffffffffffffffffffffffffff16815260200190815260200160002060000160009054906101000a900473ffffffffffffffffffffffffffffffffffffffff1673ffffffffffffffffffffffffffffffffffffffff1614156122e4576040517f08c379a00000000000000000000000000000000000000000000000000000000081526004016122db90612e51565b60405180910390fd5b80806001019150506121e1565b50600160009054906101000a900473ffffffffffffffffffffffffffffffffffffffff1673ffffffffffffffffffffffffffffffffffffffff166323b872dd3330866040518463ffffffff1660e01b815260040161235193929190612cca565b600060405180830381600087803b15801561236b57600080fd5b505af115801561237f573d6000803e3d6000fd5b50505050600160009054906101000a900473ffffffffffffffffffffffffffffffffffffffff1673ffffffffffffffffffffffffffffffffffffffff1663324b1dc68484846040518463ffffffff1660e01b81526004016123e293929190612eec565b600060405180830381600087803b1580156123fc57600080fd5b505af1158015612410573d6000803e3d6000fd5b5050505060016002600082825401925050819055507f7f3b06fb321072e157fa07f588b2ea4e02a23688046482ab463ef53aac8be0bb33600160149054906101000a900460ff1660025460405161246993929190612d01565b60405180910390a1505050565b600360019054906101000a900463ffffffff1681565b6005818154811061249957fe5b906000526020600020016000915054906101000a900473ffffffffffffffffffffffffffffffffffffffff1681565b600160149054906101000a900460ff1681565b6124e36126b2565b73ffffffffffffffffffffffffffffffffffffffff166000809054906101000a900473ffffffffffffffffffffffffffffffffffffffff1673ffffffffffffffffffffffffffffffffffffffff1614612571576040517f08c379a000000000000000000000000000000000000000000000000000000000815260040161256890612eb1565b60405180910390fd5b600073ffffffffffffffffffffffffffffffffffffffff168173ffffffffffffffffffffffffffffffffffffffff1614156125e1576040517f08c379a00000000000000000000000000000000000000000000000000000000081526004016125d890612e71565b60405180910390fd5b8073ffffffffffffffffffffffffffffffffffffffff166000809054906101000a900473ffffffffffffffffffffffffffffffffffffffff1673ffffffffffffffffffffffffffffffffffffffff167f8be0079c531659141344cd1fd0a4f28419497f9722a3daafe3b4186f6b6457e060405160405180910390a3806000806101000a81548173ffffffffffffffffffffffffffffffffffffffff021916908373ffffffffffffffffffffffffffffffffffffffff16021790555050565b600960009054906101000a900460ff1681565b600033905090565b8280548282559060005260206000209060030160049004810192821561275e5791602002820160005b8382111561272857835183826101000a81548167ffffffffffffffff021916908360ff16021790555092602001926008016020816007010492830192600103026126e3565b801561275c5782816101000a81549067ffffffffffffffff0219169055600801602081600701049283019260010302612728565b505b50905061276b919061276f565b5090565b6127a391905b8082111561279f57600081816101000a81549067ffffffffffffffff021916905550600101612775565b5090565b90565b6000813590506127b581613107565b92915050565b6000815190506127ca81613107565b92915050565b60008083601f8401126127e257600080fd5b8235905067ffffffffffffffff8111156127fb57600080fd5b60208301915083602082028301111561281357600080fd5b9250929050565b6000813590506128298161311e565b92915050565b60008135905061283e81613135565b92915050565b60008151905061285381613135565b92915050565b6000813590506128688161314c565b92915050565b60008151905061287d8161314c565b92915050565b60006020828403121561289557600080fd5b60006128a3848285016127a6565b91505092915050565b6000602082840312156128be57600080fd5b60006128cc848285016127bb565b91505092915050565b6000602082840312156128e757600080fd5b60006128f58482850161281a565b91505092915050565b60006020828403121561291057600080fd5b600061291e8482850161282f565b91505092915050565b60006020828403121561293957600080fd5b600061294784828501612844565b91505092915050565b60008060006040848603121561296557600080fd5b60006129738682870161282f565b935050602084013567ffffffffffffffff81111561299057600080fd5b61299c868287016127d0565b92509250509250925092565b6000602082840312156129ba57600080fd5b60006129c884828501612859565b91505092915050565b6000602082840312156129e357600080fd5b60006129f18482850161286e565b91505092915050565b6000612a068383612a21565b60208301905092915050565b612a1b8161309b565b82525050565b612a2a81613010565b82525050565b612a3981613010565b82525050565b6000612a4b8385612fd7565b9350612a5682612f98565b8060005b85811015612a8f57612a6c8284612ff9565b612a7688826129fa565b9750612a8183612fbd565b925050600181019050612a5a565b5085925050509392505050565b6000612aa782612fb2565b612ab18185612fd7565b9350612abc83612fa2565b8060005b83811015612aed578151612ad488826129fa565b9750612adf83612fca565b925050600181019050612ac0565b5085935050505092915050565b612b0381613022565b82525050565b612b12816130ad565b82525050565b6000612b25603a83612fe8565b91507f566f74656420666f722063616e646964617465206e6f742066726f6d2074686960008301527f732064697374726963742e20566f74652052656a65637465642e0000000000006020830152604082019050919050565b6000612b8b602683612fe8565b91507f4f776e61626c653a206e6577206f776e657220697320746865207a65726f206160008301527f64647265737300000000000000000000000000000000000000000000000000006020830152604082019050919050565b6000612bf1601283612fe8565b91507f496e636f727265637420446973747269637400000000000000000000000000006000830152602082019050919050565b6000612c31602083612fe8565b91507f4f776e61626c653a2063616c6c6572206973206e6f7420746865206f776e65726000830152602082019050919050565b612c6d81613060565b82525050565b612c7c8161306a565b82525050565b612c8b8161307a565b82525050565b612c9a816130f5565b82525050565b612ca98161308e565b82525050565b6000602082019050612cc46000830184612a30565b92915050565b6000606082019050612cdf6000830186612a12565b612cec6020830185612a30565b612cf96040830184612c64565b949350505050565b6000606082019050612d166000830186612a12565b612d236020830185612ca0565b612d306040830184612c64565b949350505050565b6000606082019050612d4d6000830186612a30565b612d5a6020830185612a30565b612d676040830184612c64565b949350505050565b6000604082019050612d846000830185612a30565b612d916020830184612c91565b9392505050565b600060c082019050612dad6000830189612a30565b612dba6020830188612ca0565b612dc76040830187612ca0565b612dd46060830186612afa565b612de16080830185612afa565b612dee60a0830184612c73565b979650505050505050565b60006020820190508181036000830152612e138184612a9c565b905092915050565b6000602082019050612e306000830184612afa565b92915050565b6000602082019050612e4b6000830184612b09565b92915050565b60006020820190508181036000830152612e6a81612b18565b9050919050565b60006020820190508181036000830152612e8a81612b7e565b9050919050565b60006020820190508181036000830152612eaa81612be4565b9050919050565b60006020820190508181036000830152612eca81612c24565b9050919050565b6000602082019050612ee66000830184612c64565b92915050565b6000604082019050612f016000830186612c64565b8181036020830152612f14818486612a3f565b9050949350505050565b6000604082019050612f336000830185612c64565b612f406020830184612ca0565b9392505050565b6000602082019050612f5c6000830184612c73565b92915050565b6000602082019050612f776000830184612c82565b92915050565b6000602082019050612f926000830184612ca0565b92915050565b6000819050919050565b6000819050602082019050919050565b600081519050919050565b6000602082019050919050565b6000602082019050919050565b600082825260208201905092915050565b600082825260208201905092915050565b600061300860208401846127a6565b905092915050565b600061301b82613040565b9050919050565b60008115159050919050565b600061303982613010565b9050919050565b600073ffffffffffffffffffffffffffffffffffffffff82169050919050565b6000819050919050565b600063ffffffff82169050919050565b600067ffffffffffffffff82169050919050565b600060ff82169050919050565b60006130a6826130d1565b9050919050565b60006130b8826130bf565b9050919050565b60006130ca82613040565b9050919050565b60006130dc826130e3565b9050919050565b60006130ee82613040565b9050919050565b60006131008261308e565b9050919050565b61311081613010565b811461311b57600080fd5b50565b6131278161302e565b811461313257600080fd5b50565b61313e81613060565b811461314957600080fd5b50565b6131558161308e565b811461316057600080fd5b5056fea264697066735822122099c547056f8cd4840d7ac46b75683411c746028db6e8d7903b49833442e73d6b64736f6c63430006020033a2646970667358221220636178159546b81f2fb8cbd22b368054a1245ffcc15c70baf195d01a6aa8818f64736f6c63430006020033",
  "source": "pragma solidity ^0.6.0;\npragma experimental ABIEncoderV2;\n\nimport \"./District.sol\";\n\ncontract DistrictFactory{\n    constructor() public{\n\n    }\n\n    function create(uint8 _districtNumber, Shared.Candidate[] calldata _candidates) external returns(District) {\n        District d = new District(_districtNumber, _candidates);\n        d.transferOwnership(msg.sender);\n        return d;\n    }\n}",
  "sourcePath": "/Users/timothymuscat/Documents/MScThesis/BlockVote_ReactBox/contracts/DistrictFactory.sol",
  "compiler": {
    "name": "solc",
    "version": "0.6.2+commit.bacdbe57.Emscripten.clang"
  },
  "schemaVersion": "3.2.2",
  "updatedAt": "2020-09-22T16:12:16.105Z",
  "devdoc": {
    "methods": {}
  },
  "userdoc": {
    "methods": {}
  }
}