{
  "contractName": "District",
  "abi": [
    {
      "inputs": [
        {
          "internalType": "uint8",
          "name": "_districtNumber",
          "type": "uint8"
        },
        {
          "components": [
            {
              "internalType": "address",
              "name": "_address",
              "type": "address"
            },
            {
              "internalType": "uint8",
              "name": "party",
              "type": "uint8"
            },
            {
              "internalType": "uint8",
              "name": "districtNo",
              "type": "uint8"
            },
            {
              "internalType": "bool",
              "name": "elected",
              "type": "bool"
            },
            {
              "internalType": "bool",
              "name": "eliminated",
              "type": "bool"
            },
            {
              "internalType": "uint32",
              "name": "votes",
              "type": "uint32"
            }
          ],
          "internalType": "struct Shared.Candidate[]",
          "name": "_candidates",
          "type": "tuple[]"
        }
      ],
      "stateMutability": "nonpayable",
      "type": "constructor"
    },
    {
      "anonymous": false,
      "inputs": [
        {
          "indexed": true,
          "internalType": "address",
          "name": "previousOwner",
          "type": "address"
        },
        {
          "indexed": true,
          "internalType": "address",
          "name": "newOwner",
          "type": "address"
        }
      ],
      "name": "OwnershipTransferred",
      "type": "event"
    },
    {
      "anonymous": false,
      "inputs": [
        {
          "indexed": false,
          "internalType": "address",
          "name": "_voter",
          "type": "address"
        },
        {
          "indexed": false,
          "internalType": "uint8",
          "name": "districtNo",
          "type": "uint8"
        },
        {
          "indexed": false,
          "internalType": "uint256",
          "name": "castVotes",
          "type": "uint256"
        }
      ],
      "name": "Vote",
      "type": "event"
    },
    {
      "inputs": [
        {
          "internalType": "uint256",
          "name": "",
          "type": "uint256"
        }
      ],
      "name": "candidateAddresses",
      "outputs": [
        {
          "internalType": "address",
          "name": "",
          "type": "address"
        }
      ],
      "stateMutability": "view",
      "type": "function"
    },
    {
      "inputs": [
        {
          "internalType": "address",
          "name": "",
          "type": "address"
        }
      ],
      "name": "candidates",
      "outputs": [
        {
          "internalType": "address",
          "name": "_address",
          "type": "address"
        },
        {
          "internalType": "uint8",
          "name": "party",
          "type": "uint8"
        },
        {
          "internalType": "uint8",
          "name": "districtNo",
          "type": "uint8"
        },
        {
          "internalType": "bool",
          "name": "elected",
          "type": "bool"
        },
        {
          "internalType": "bool",
          "name": "eliminated",
          "type": "bool"
        },
        {
          "internalType": "uint32",
          "name": "votes",
          "type": "uint32"
        }
      ],
      "stateMutability": "view",
      "type": "function"
    },
    {
      "inputs": [],
      "name": "candidatesCount",
      "outputs": [
        {
          "internalType": "uint8",
          "name": "",
          "type": "uint8"
        }
      ],
      "stateMutability": "view",
      "type": "function"
    },
    {
      "inputs": [],
      "name": "castVotes",
      "outputs": [
        {
          "internalType": "uint256",
          "name": "",
          "type": "uint256"
        }
      ],
      "stateMutability": "view",
      "type": "function"
    },
    {
      "inputs": [],
      "name": "counted",
      "outputs": [
        {
          "internalType": "bool",
          "name": "",
          "type": "bool"
        }
      ],
      "stateMutability": "view",
      "type": "function"
    },
    {
      "inputs": [],
      "name": "districtNumber",
      "outputs": [
        {
          "internalType": "uint8",
          "name": "",
          "type": "uint8"
        }
      ],
      "stateMutability": "view",
      "type": "function"
    },
    {
      "inputs": [],
      "name": "owner",
      "outputs": [
        {
          "internalType": "address",
          "name": "",
          "type": "address"
        }
      ],
      "stateMutability": "view",
      "type": "function"
    },
    {
      "inputs": [
        {
          "internalType": "uint8",
          "name": "",
          "type": "uint8"
        }
      ],
      "name": "party1stCountVotes",
      "outputs": [
        {
          "internalType": "uint64",
          "name": "",
          "type": "uint64"
        }
      ],
      "stateMutability": "view",
      "type": "function"
    },
    {
      "inputs": [],
      "name": "quota",
      "outputs": [
        {
          "internalType": "uint32",
          "name": "",
          "type": "uint32"
        }
      ],
      "stateMutability": "view",
      "type": "function"
    },
    {
      "inputs": [],
      "name": "renounceOwnership",
      "outputs": [],
      "stateMutability": "nonpayable",
      "type": "function"
    },
    {
      "inputs": [],
      "name": "seats",
      "outputs": [
        {
          "internalType": "uint8",
          "name": "",
          "type": "uint8"
        }
      ],
      "stateMutability": "view",
      "type": "function"
    },
    {
      "inputs": [],
      "name": "seatsFilled",
      "outputs": [
        {
          "internalType": "uint8",
          "name": "",
          "type": "uint8"
        }
      ],
      "stateMutability": "view",
      "type": "function"
    },
    {
      "inputs": [
        {
          "internalType": "address",
          "name": "newOwner",
          "type": "address"
        }
      ],
      "name": "transferOwnership",
      "outputs": [],
      "stateMutability": "nonpayable",
      "type": "function"
    },
    {
      "inputs": [],
      "name": "voteToken",
      "outputs": [
        {
          "internalType": "contract VoteToken",
          "name": "",
          "type": "address"
        }
      ],
      "stateMutability": "view",
      "type": "function"
    },
    {
      "inputs": [
        {
          "internalType": "contract VoteToken",
          "name": "_voteToken",
          "type": "address"
        }
      ],
      "name": "setVoteToken",
      "outputs": [],
      "stateMutability": "nonpayable",
      "type": "function"
    },
    {
      "inputs": [],
      "name": "getCandidateAddresses",
      "outputs": [
        {
          "internalType": "address[]",
          "name": "",
          "type": "address[]"
        }
      ],
      "stateMutability": "view",
      "type": "function"
    },
    {
      "inputs": [
        {
          "internalType": "uint256",
          "name": "tokenId",
          "type": "uint256"
        },
        {
          "internalType": "address[]",
          "name": "_preferences",
          "type": "address[]"
        }
      ],
      "name": "vote",
      "outputs": [],
      "stateMutability": "nonpayable",
      "type": "function"
    },
    {
      "inputs": [],
      "name": "getAddresses",
      "outputs": [
        {
          "internalType": "address[]",
          "name": "",
          "type": "address[]"
        }
      ],
      "stateMutability": "view",
      "type": "function"
    },
    {
      "inputs": [],
      "name": "getQuota",
      "outputs": [
        {
          "internalType": "uint32",
          "name": "",
          "type": "uint32"
        }
      ],
      "stateMutability": "view",
      "type": "function"
    },
    {
      "inputs": [],
      "name": "getAllElected",
      "outputs": [
        {
          "internalType": "address[]",
          "name": "",
          "type": "address[]"
        }
      ],
      "stateMutability": "nonpayable",
      "type": "function"
    },
    {
      "inputs": [],
      "name": "kill",
      "outputs": [],
      "stateMutability": "nonpayable",
      "type": "function"
    },
    {
      "inputs": [],
      "name": "countVotes",
      "outputs": [],
      "stateMutability": "nonpayable",
      "type": "function"
    }
  ],
  "bytecode": "0x60806040526000600960006101000a81548160ff0219169083151502179055503480156200002c57600080fd5b506040516200381a3803806200381a8339818101604052620000529190810190620004fb565b6000620000646200035f60201b60201c565b9050806000806101000a81548173ffffffffffffffffffffffffffffffffffffffff021916908373ffffffffffffffffffffffffffffffffffffffff1602179055508073ffffffffffffffffffffffffffffffffffffffff16600073ffffffffffffffffffffffffffffffffffffffff167f8be0079c531659141344cd1fd0a4f28419497f9722a3daafe3b4186f6b6457e060405160405180910390a35081600160146101000a81548160ff021916908360ff16021790555060006002819055508051600660006101000a81548160ff021916908360ff16021790555060008090505b600660009054906101000a900460ff1660ff168160ff16101562000356576005828260ff16815181106200017757fe5b6020026020010151600001519080600181540180825580915050600190039060005260206000200160009091909190916101000a81548173ffffffffffffffffffffffffffffffffffffffff021916908373ffffffffffffffffffffffffffffffffffffffff160217905550818160ff1681518110620001f357fe5b602002602001015160046000848460ff16815181106200020f57fe5b60200260200101516000015173ffffffffffffffffffffffffffffffffffffffff1673ffffffffffffffffffffffffffffffffffffffff16815260200190815260200160002060008201518160000160006101000a81548173ffffffffffffffffffffffffffffffffffffffff021916908373ffffffffffffffffffffffffffffffffffffffff16021790555060208201518160000160146101000a81548160ff021916908360ff16021790555060408201518160000160156101000a81548160ff021916908360ff16021790555060608201518160000160166101000a81548160ff02191690831515021790555060808201518160000160176101000a81548160ff02191690831515021790555060a08201518160000160186101000a81548163ffffffff021916908363ffffffff160217905550905050808060010191505062000147565b50505062000671565b600033905090565b600081519050620003788162000609565b92915050565b600082601f8301126200039057600080fd5b8151620003a7620003a18262000583565b62000555565b915081818352602084019350602081019050838560c0840282011115620003cd57600080fd5b60005b83811015620004015781620003e6888262000422565b845260208401935060c08301925050600181019050620003d0565b5050505092915050565b6000815190506200041c8162000623565b92915050565b600060c082840312156200043557600080fd5b6200044160c062000555565b90506000620004538482850162000367565b60008301525060206200046984828501620004e4565b60208301525060406200047f84828501620004e4565b604083015250606062000495848285016200040b565b6060830152506080620004ab848285016200040b565b60808301525060a0620004c184828501620004cd565b60a08301525092915050565b600081519050620004de816200063d565b92915050565b600081519050620004f58162000657565b92915050565b600080604083850312156200050f57600080fd5b60006200051f85828601620004e4565b925050602083015167ffffffffffffffff8111156200053d57600080fd5b6200054b858286016200037e565b9150509250929050565b6000604051905081810181811067ffffffffffffffff821117156200057957600080fd5b8060405250919050565b600067ffffffffffffffff8211156200059b57600080fd5b602082029050602081019050919050565b6000620005b982620005cc565b9050919050565b60008115159050919050565b600073ffffffffffffffffffffffffffffffffffffffff82169050919050565b600063ffffffff82169050919050565b600060ff82169050919050565b6200061481620005ac565b81146200062057600080fd5b50565b6200062e81620005c0565b81146200063a57600080fd5b50565b6200064881620005ec565b81146200065457600080fd5b50565b6200066281620005fc565b81146200066e57600080fd5b50565b61319980620006816000396000f3fe608060405234801561001057600080fd5b50600436106101425760003560e01c80638ab66a90116100b8578063c5bf93ba1161007c578063c5bf93ba14610312578063cebe09c91461032e578063d55d73c51461034c578063dd7177d81461037c578063f2fde38b1461039a578063f937f910146103b657610142565b80638ab66a90146102795780638da5cb5b146102ae5780639c5655d6146102cc578063a39fac12146102ea578063b647990a1461030857610142565b806343d4ed831161010a57806343d4ed83146101c95780634d23aaa7146101e75780634ede20d8146102035780636d89c6ab14610221578063715018a6146102515780638155f7361461025b57610142565b8063160d66ae146101475780631df8ba77146101655780632d35a8a21461018357806337b40f66146101a157806341c0e1b5146101bf575b600080fd5b61014f6103d4565b60405161015c9190612e36565b60405180910390f35b61016d6103fa565b60405161017a9190612f47565b60405180910390f35b61018b610416565b6040516101989190612f7d565b60405180910390f35b6101a9610429565b6040516101b69190612f7d565b60405180910390f35b6101c761043c565b005b6101d16104eb565b6040516101de9190612ed1565b60405180910390f35b61020160048036036101fc91908101906128d5565b6104f1565b005b61020b6105cb565b6040516102189190612df9565b60405180910390f35b61023b600480360361023691908101906129a8565b61082f565b6040516102489190612f62565b60405180910390f35b610259610856565b005b6102636109ab565b6040516102709190612df9565b60405180910390f35b610293600480360361028e9190810190612883565b610a39565b6040516102a596959493929190612d98565b60405180910390f35b6102b6610ad9565b6040516102c39190612caf565b60405180910390f35b6102d4610b02565b6040516102e19190612f7d565b60405180910390f35b6102f2610b07565b6040516102ff9190612df9565b60405180910390f35b610310610b95565b005b61032c60048036036103279190810190612950565b612044565b005b610336612476565b6040516103439190612f47565b60405180910390f35b610366600480360361036191908101906128fe565b61248c565b6040516103739190612caf565b60405180910390f35b6103846124c8565b6040516103919190612f7d565b60405180910390f35b6103b460048036036103af9190810190612883565b6124db565b005b6103be61269f565b6040516103cb9190612e1b565b60405180910390f35b600160009054906101000a900473ffffffffffffffffffffffffffffffffffffffff1681565b600060018060050160ff166002548161040f57fe5b0401905090565b600660009054906101000a900460ff1681565b600360009054906101000a900460ff1681565b6104446126b2565b73ffffffffffffffffffffffffffffffffffffffff166000809054906101000a900473ffffffffffffffffffffffffffffffffffffffff1673ffffffffffffffffffffffffffffffffffffffff16146104d2576040517f08c379a00000000000000000000000000000000000000000000000000000000081526004016104c990612eb1565b60405180910390fd5b3373ffffffffffffffffffffffffffffffffffffffff16ff5b60025481565b6104f96126b2565b73ffffffffffffffffffffffffffffffffffffffff166000809054906101000a900473ffffffffffffffffffffffffffffffffffffffff1673ffffffffffffffffffffffffffffffffffffffff1614610587576040517f08c379a000000000000000000000000000000000000000000000000000000000815260040161057e90612eb1565b60405180910390fd5b80600160006101000a81548173ffffffffffffffffffffffffffffffffffffffff021916908373ffffffffffffffffffffffffffffffffffffffff16021790555050565b6060600060088054905014156107a35760008090505b600660009054906101000a900460ff1660ff168160ff1610156107a157600115156004600060058460ff168154811061061657fe5b9060005260206000200160009054906101000a900473ffffffffffffffffffffffffffffffffffffffff1673ffffffffffffffffffffffffffffffffffffffff1673ffffffffffffffffffffffffffffffffffffffff16815260200190815260200160002060000160169054906101000a900460ff16151514156107945760086004600060058460ff16815481106106aa57fe5b9060005260206000200160009054906101000a900473ffffffffffffffffffffffffffffffffffffffff1673ffffffffffffffffffffffffffffffffffffffff1673ffffffffffffffffffffffffffffffffffffffff16815260200190815260200160002060000160009054906101000a900473ffffffffffffffffffffffffffffffffffffffff169080600181540180825580915050600190039060005260206000200160009091909190916101000a81548173ffffffffffffffffffffffffffffffffffffffff021916908373ffffffffffffffffffffffffffffffffffffffff1602179055505b80806001019150506105e1565b505b600880548060200260200160405190810160405280929190818152602001828054801561082557602002820191906000526020600020905b8160009054906101000a900473ffffffffffffffffffffffffffffffffffffffff1673ffffffffffffffffffffffffffffffffffffffff16815260200190600101908083116107db575b5050505050905090565b60076020528060005260406000206000915054906101000a900467ffffffffffffffff1681565b61085e6126b2565b73ffffffffffffffffffffffffffffffffffffffff166000809054906101000a900473ffffffffffffffffffffffffffffffffffffffff1673ffffffffffffffffffffffffffffffffffffffff16146108ec576040517f08c379a00000000000000000000000000000000000000000000000000000000081526004016108e390612eb1565b60405180910390fd5b600073ffffffffffffffffffffffffffffffffffffffff166000809054906101000a900473ffffffffffffffffffffffffffffffffffffffff1673ffffffffffffffffffffffffffffffffffffffff167f8be0079c531659141344cd1fd0a4f28419497f9722a3daafe3b4186f6b6457e060405160405180910390a360008060006101000a81548173ffffffffffffffffffffffffffffffffffffffff021916908373ffffffffffffffffffffffffffffffffffffffff160217905550565b60606005805480602002602001604051908101604052809291908181526020018280548015610a2f57602002820191906000526020600020905b8160009054906101000a900473ffffffffffffffffffffffffffffffffffffffff1673ffffffffffffffffffffffffffffffffffffffff16815260200190600101908083116109e5575b5050505050905090565b60046020528060005260406000206000915090508060000160009054906101000a900473ffffffffffffffffffffffffffffffffffffffff16908060000160149054906101000a900460ff16908060000160159054906101000a900460ff16908060000160169054906101000a900460ff16908060000160179054906101000a900460ff16908060000160189054906101000a900463ffffffff16905086565b60008060009054906101000a900473ffffffffffffffffffffffffffffffffffffffff16905090565b600581565b60606005805480602002602001604051908101604052809291908181526020018280548015610b8b57602002820191906000526020600020905b8160009054906101000a900473ffffffffffffffffffffffffffffffffffffffff1673ffffffffffffffffffffffffffffffffffffffff1681526020019060010190808311610b41575b5050505050905090565b610b9d6126b2565b73ffffffffffffffffffffffffffffffffffffffff166000809054906101000a900473ffffffffffffffffffffffffffffffffffffffff1673ffffffffffffffffffffffffffffffffffffffff1614610c2b576040517f08c379a0000000000000000000000000000000000000000000000000000000008152600401610c2290612eb1565b60405180910390fd5b600060059050600160009054906101000a900473ffffffffffffffffffffffffffffffffffffffff1673ffffffffffffffffffffffffffffffffffffffff166370a08231306040518263ffffffff1660e01b8152600401610c8c9190612caf565b60206040518083038186803b158015610ca457600080fd5b505afa158015610cb8573d6000803e3d6000fd5b505050506040513d601f19601f82011682018060405250610cdc9190810190612927565b600281905550610cea6103fa565b600360016101000a81548163ffffffff021916908363ffffffff1602179055506000600190505b600660009054906101000a900460ff1660ff168160ff1611611b505760006001905060008090506000600160009054906101000a900473ffffffffffffffffffffffffffffffffffffffff1673ffffffffffffffffffffffffffffffffffffffff166370a08231306040518263ffffffff1660e01b8152600401610d959190612caf565b60206040518083038186803b158015610dad57600080fd5b505afa158015610dc1573d6000803e3d6000fd5b505050506040513d601f19601f82011682018060405250610de59190810190612927565b905060008090505b600082118015610dff5750818160ff16105b15611668576000600160009054906101000a900473ffffffffffffffffffffffffffffffffffffffff1673ffffffffffffffffffffffffffffffffffffffff16632f745c5930846040518363ffffffff1660e01b8152600401610e63929190612d6f565b60206040518083038186803b158015610e7b57600080fd5b505afa158015610e8f573d6000803e3d6000fd5b505050506040513d601f19601f82011682018060405250610eb39190810190612927565b90506000600160009054906101000a900473ffffffffffffffffffffffffffffffffffffffff1673ffffffffffffffffffffffffffffffffffffffff1663d1d0a5ea83896040518363ffffffff1660e01b8152600401610f14929190612f1e565b60206040518083038186803b158015610f2c57600080fd5b505afa158015610f40573d6000803e3d6000fd5b505050506040513d601f19601f82011682018060405250610f6491908101906128ac565b9050600073ffffffffffffffffffffffffffffffffffffffff168173ffffffffffffffffffffffffffffffffffffffff161415610faa5782806001019350505050610ded565b6000955060018760ff16141561106457600160076000600460008573ffffffffffffffffffffffffffffffffffffffff1673ffffffffffffffffffffffffffffffffffffffff16815260200190815260200160002060000160149054906101000a900460ff1660ff1660ff16815260200190815260200160002060008282829054906101000a900467ffffffffffffffff160192506101000a81548167ffffffffffffffff021916908367ffffffffffffffff1602179055505b6000600160009054906101000a900473ffffffffffffffffffffffffffffffffffffffff1673ffffffffffffffffffffffffffffffffffffffff166370a08231836040518263ffffffff1660e01b81526004016110c19190612caf565b60206040518083038186803b1580156110d957600080fd5b505afa1580156110ed573d6000803e3d6000fd5b505050506040513d601f19601f820116820180604052506111119190810190612927565b90506001600360019054906101000a900463ffffffff160363ffffffff16811015801561118b5750600460008373ffffffffffffffffffffffffffffffffffffffff1673ffffffffffffffffffffffffffffffffffffffff16815260200190815260200160002060000160179054906101000a900460ff16155b156113b057600160009054906101000a900473ffffffffffffffffffffffffffffffffffffffff1673ffffffffffffffffffffffffffffffffffffffff166323b872dd3084866040518463ffffffff1660e01b81526004016111ef93929190612d38565b600060405180830381600087803b15801561120957600080fd5b505af115801561121d573d6000803e3d6000fd5b505050506001600460008473ffffffffffffffffffffffffffffffffffffffff1673ffffffffffffffffffffffffffffffffffffffff16815260200190815260200160002060000160166101000a81548160ff021916908315150217905550600195506008829080600181540180825580915050600190039060005260206000200160009091909190916101000a81548173ffffffffffffffffffffffffffffffffffffffff021916908373ffffffffffffffffffffffffffffffffffffffff160217905550600160009054906101000a900473ffffffffffffffffffffffffffffffffffffffff1673ffffffffffffffffffffffffffffffffffffffff166370a08231306040518263ffffffff1660e01b815260040161133e9190612caf565b60206040518083038186803b15801561135657600080fd5b505afa15801561136a573d6000803e3d6000fd5b505050506040513d601f19601f8201168201806040525061138e9190810190612927565b94508860019003985060008960ff1614156113ab57505050611668565b611660565b600460008373ffffffffffffffffffffffffffffffffffffffff1673ffffffffffffffffffffffffffffffffffffffff16815260200190815260200160002060000160169054906101000a900460ff1615801561145a5750600460008373ffffffffffffffffffffffffffffffffffffffff1673ffffffffffffffffffffffffffffffffffffffff16815260200190815260200160002060000160179054906101000a900460ff16155b156115a257600160009054906101000a900473ffffffffffffffffffffffffffffffffffffffff1673ffffffffffffffffffffffffffffffffffffffff166323b872dd3084866040518463ffffffff1660e01b81526004016114be93929190612d38565b600060405180830381600087803b1580156114d857600080fd5b505af11580156114ec573d6000803e3d6000fd5b50505050600160009054906101000a900473ffffffffffffffffffffffffffffffffffffffff1673ffffffffffffffffffffffffffffffffffffffff166370a08231306040518263ffffffff1660e01b815260040161154b9190612caf565b60206040518083038186803b15801561156357600080fd5b505afa158015611577573d6000803e3d6000fd5b505050506040513d601f19601f8201168201806040525061159b9190810190612927565b945061165f565b600460008373ffffffffffffffffffffffffffffffffffffffff1673ffffffffffffffffffffffffffffffffffffffff16815260200190815260200160002060000160169054906101000a900460ff16806116495750600460008373ffffffffffffffffffffffffffffffffffffffff1673ffffffffffffffffffffffffffffffffffffffff16815260200190815260200160002060000160179054906101000a900460ff165b1561165e578380600101945050505050610ded565b5b5b505050610ded565b8380611677575060008660ff16145b156116855750505050611b50565b82156116945750505050611b43565b600060056000815481106116a457fe5b9060005260206000200160009054906101000a900473ffffffffffffffffffffffffffffffffffffffff1690506000600160009054906101000a900473ffffffffffffffffffffffffffffffffffffffff1673ffffffffffffffffffffffffffffffffffffffff166370a08231836040518263ffffffff1660e01b815260040161172e9190612caf565b60206040518083038186803b15801561174657600080fd5b505afa15801561175a573d6000803e3d6000fd5b505050506040513d601f19601f8201168201806040525061177e9190810190612927565b90506000600190505b600660009054906101000a900460ff1660ff168160ff16101561199c576000600160009054906101000a900473ffffffffffffffffffffffffffffffffffffffff1673ffffffffffffffffffffffffffffffffffffffff166370a0823160058460ff16815481106117f457fe5b9060005260206000200160009054906101000a900473ffffffffffffffffffffffffffffffffffffffff166040518263ffffffff1660e01b815260040161183b9190612caf565b60206040518083038186803b15801561185357600080fd5b505afa158015611867573d6000803e3d6000fd5b505050506040513d601f19601f8201168201806040525061188b9190810190612927565b9050600060058360ff168154811061189f57fe5b9060005260206000200160009054906101000a900473ffffffffffffffffffffffffffffffffffffffff16905083821080156119285750600460008273ffffffffffffffffffffffffffffffffffffffff1673ffffffffffffffffffffffffffffffffffffffff16815260200190815260200160002060000160179054906101000a900460ff16155b80156119815750600460008273ffffffffffffffffffffffffffffffffffffffff1673ffffffffffffffffffffffffffffffffffffffff16815260200190815260200160002060000160169054906101000a900460ff16155b1561198d578094508193505b50508080600101915050611787565b506001600460008473ffffffffffffffffffffffffffffffffffffffff1673ffffffffffffffffffffffffffffffffffffffff16815260200190815260200160002060000160176101000a81548160ff0219169083151502179055506000811115611b3c57600160009054906101000a900473ffffffffffffffffffffffffffffffffffffffff1673ffffffffffffffffffffffffffffffffffffffff1663abd2a233836040518263ffffffff1660e01b8152600401611a5c9190612caf565b600060405180830381600087803b158015611a7657600080fd5b505af1158015611a8a573d6000803e3d6000fd5b50505050600160009054906101000a900473ffffffffffffffffffffffffffffffffffffffff1673ffffffffffffffffffffffffffffffffffffffff166370a08231306040518263ffffffff1660e01b8152600401611ae99190612caf565b60206040518083038186803b158015611b0157600080fd5b505afa158015611b15573d6000803e3d6000fd5b505050506040513d601f19601f82011682018060405250611b399190810190612927565b93505b5050505050505b8080600101915050610d11565b5080600503600360006101000a81548160ff021916908360ff16021790555060008090505b6005805490508160ff161015611f0a57600160009054906101000a900473ffffffffffffffffffffffffffffffffffffffff1673ffffffffffffffffffffffffffffffffffffffff166370a0823160058360ff1681548110611bd357fe5b9060005260206000200160009054906101000a900473ffffffffffffffffffffffffffffffffffffffff166040518263ffffffff1660e01b8152600401611c1a9190612caf565b60206040518083038186803b158015611c3257600080fd5b505afa158015611c46573d6000803e3d6000fd5b505050506040513d601f19601f82011682018060405250611c6a9190810190612927565b6004600060058460ff1681548110611c7e57fe5b9060005260206000200160009054906101000a900473ffffffffffffffffffffffffffffffffffffffff1673ffffffffffffffffffffffffffffffffffffffff1673ffffffffffffffffffffffffffffffffffffffff16815260200190815260200160002060000160186101000a81548163ffffffff021916908363ffffffff160217905550600a6001016004600060058460ff1681548110611d1d57fe5b9060005260206000200160009054906101000a900473ffffffffffffffffffffffffffffffffffffffff1673ffffffffffffffffffffffffffffffffffffffff1673ffffffffffffffffffffffffffffffffffffffff168152602001908152602001600020908060018154018082558091505060019003906000526020600020016000909190919091506000820160009054906101000a900473ffffffffffffffffffffffffffffffffffffffff168160000160006101000a81548173ffffffffffffffffffffffffffffffffffffffff021916908373ffffffffffffffffffffffffffffffffffffffff1602179055506000820160149054906101000a900460ff168160000160146101000a81548160ff021916908360ff1602179055506000820160159054906101000a900460ff168160000160156101000a81548160ff021916908360ff1602179055506000820160169054906101000a900460ff168160000160166101000a81548160ff0219169083151502179055506000820160179054906101000a900460ff168160000160176101000a81548160ff0219169083151502179055506000820160189054906101000a900463ffffffff168160000160186101000a81548163ffffffff021916908363ffffffff16021790555050508080600101915050611b75565b5060008090505b6000600760008360ff1660ff16815260200190815260200160002060009054906101000a900467ffffffffffffffff1667ffffffffffffffff16111561202557600260ff16604051908082528060200260200182016040528015611f845781602001602082028038833980820191505090505b50600a6002019080519060200190611f9d9291906126ba565b50600760008280600101935060ff1660ff16815260200190815260200160002060009054906101000a900467ffffffffffffffff16600a6002018260ff1681548110611fe557fe5b90600052602060002090600491828204019190066008026101000a81548167ffffffffffffffff021916908367ffffffffffffffff160217905550611f11565b6001600960006101000a81548160ff0219169083151502179055505050565b61204c6126b2565b73ffffffffffffffffffffffffffffffffffffffff166000809054906101000a900473ffffffffffffffffffffffffffffffffffffffff1673ffffffffffffffffffffffffffffffffffffffff16146120da576040517f08c379a00000000000000000000000000000000000000000000000000000000081526004016120d190612eb1565b60405180910390fd5b600160149054906101000a900460ff1660ff16600160009054906101000a900473ffffffffffffffffffffffffffffffffffffffff1673ffffffffffffffffffffffffffffffffffffffff16631979955e856040518263ffffffff1660e01b81526004016121489190612ed1565b60206040518083038186803b15801561216057600080fd5b505afa158015612174573d6000803e3d6000fd5b505050506040513d601f19601f8201168201806040525061219891908101906129d1565b60ff16146121db576040517f08c379a00000000000000000000000000000000000000000000000000000000081526004016121d290612e91565b60405180910390fd5b60008090505b828290508160ff1610156122f157600073ffffffffffffffffffffffffffffffffffffffff166004600085858560ff1681811061221a57fe5b905060200201602061222f9190810190612883565b73ffffffffffffffffffffffffffffffffffffffff1673ffffffffffffffffffffffffffffffffffffffff16815260200190815260200160002060000160009054906101000a900473ffffffffffffffffffffffffffffffffffffffff1673ffffffffffffffffffffffffffffffffffffffff1614156122e4576040517f08c379a00000000000000000000000000000000000000000000000000000000081526004016122db90612e51565b60405180910390fd5b80806001019150506121e1565b50600160009054906101000a900473ffffffffffffffffffffffffffffffffffffffff1673ffffffffffffffffffffffffffffffffffffffff166323b872dd3330866040518463ffffffff1660e01b815260040161235193929190612cca565b600060405180830381600087803b15801561236b57600080fd5b505af115801561237f573d6000803e3d6000fd5b50505050600160009054906101000a900473ffffffffffffffffffffffffffffffffffffffff1673ffffffffffffffffffffffffffffffffffffffff1663324b1dc68484846040518463ffffffff1660e01b81526004016123e293929190612eec565b600060405180830381600087803b1580156123fc57600080fd5b505af1158015612410573d6000803e3d6000fd5b5050505060016002600082825401925050819055507f7f3b06fb321072e157fa07f588b2ea4e02a23688046482ab463ef53aac8be0bb33600160149054906101000a900460ff1660025460405161246993929190612d01565b60405180910390a1505050565b600360019054906101000a900463ffffffff1681565b6005818154811061249957fe5b906000526020600020016000915054906101000a900473ffffffffffffffffffffffffffffffffffffffff1681565b600160149054906101000a900460ff1681565b6124e36126b2565b73ffffffffffffffffffffffffffffffffffffffff166000809054906101000a900473ffffffffffffffffffffffffffffffffffffffff1673ffffffffffffffffffffffffffffffffffffffff1614612571576040517f08c379a000000000000000000000000000000000000000000000000000000000815260040161256890612eb1565b60405180910390fd5b600073ffffffffffffffffffffffffffffffffffffffff168173ffffffffffffffffffffffffffffffffffffffff1614156125e1576040517f08c379a00000000000000000000000000000000000000000000000000000000081526004016125d890612e71565b60405180910390fd5b8073ffffffffffffffffffffffffffffffffffffffff166000809054906101000a900473ffffffffffffffffffffffffffffffffffffffff1673ffffffffffffffffffffffffffffffffffffffff167f8be0079c531659141344cd1fd0a4f28419497f9722a3daafe3b4186f6b6457e060405160405180910390a3806000806101000a81548173ffffffffffffffffffffffffffffffffffffffff021916908373ffffffffffffffffffffffffffffffffffffffff16021790555050565b600960009054906101000a900460ff1681565b600033905090565b8280548282559060005260206000209060030160049004810192821561275e5791602002820160005b8382111561272857835183826101000a81548167ffffffffffffffff021916908360ff16021790555092602001926008016020816007010492830192600103026126e3565b801561275c5782816101000a81549067ffffffffffffffff0219169055600801602081600701049283019260010302612728565b505b50905061276b919061276f565b5090565b6127a391905b8082111561279f57600081816101000a81549067ffffffffffffffff021916905550600101612775565b5090565b90565b6000813590506127b581613107565b92915050565b6000815190506127ca81613107565b92915050565b60008083601f8401126127e257600080fd5b8235905067ffffffffffffffff8111156127fb57600080fd5b60208301915083602082028301111561281357600080fd5b9250929050565b6000813590506128298161311e565b92915050565b60008135905061283e81613135565b92915050565b60008151905061285381613135565b92915050565b6000813590506128688161314c565b92915050565b60008151905061287d8161314c565b92915050565b60006020828403121561289557600080fd5b60006128a3848285016127a6565b91505092915050565b6000602082840312156128be57600080fd5b60006128cc848285016127bb565b91505092915050565b6000602082840312156128e757600080fd5b60006128f58482850161281a565b91505092915050565b60006020828403121561291057600080fd5b600061291e8482850161282f565b91505092915050565b60006020828403121561293957600080fd5b600061294784828501612844565b91505092915050565b60008060006040848603121561296557600080fd5b60006129738682870161282f565b935050602084013567ffffffffffffffff81111561299057600080fd5b61299c868287016127d0565b92509250509250925092565b6000602082840312156129ba57600080fd5b60006129c884828501612859565b91505092915050565b6000602082840312156129e357600080fd5b60006129f18482850161286e565b91505092915050565b6000612a068383612a21565b60208301905092915050565b612a1b8161309b565b82525050565b612a2a81613010565b82525050565b612a3981613010565b82525050565b6000612a4b8385612fd7565b9350612a5682612f98565b8060005b85811015612a8f57612a6c8284612ff9565b612a7688826129fa565b9750612a8183612fbd565b925050600181019050612a5a565b5085925050509392505050565b6000612aa782612fb2565b612ab18185612fd7565b9350612abc83612fa2565b8060005b83811015612aed578151612ad488826129fa565b9750612adf83612fca565b925050600181019050612ac0565b5085935050505092915050565b612b0381613022565b82525050565b612b12816130ad565b82525050565b6000612b25603a83612fe8565b91507f566f74656420666f722063616e646964617465206e6f742066726f6d2074686960008301527f732064697374726963742e20566f74652052656a65637465642e0000000000006020830152604082019050919050565b6000612b8b602683612fe8565b91507f4f776e61626c653a206e6577206f776e657220697320746865207a65726f206160008301527f64647265737300000000000000000000000000000000000000000000000000006020830152604082019050919050565b6000612bf1601283612fe8565b91507f496e636f727265637420446973747269637400000000000000000000000000006000830152602082019050919050565b6000612c31602083612fe8565b91507f4f776e61626c653a2063616c6c6572206973206e6f7420746865206f776e65726000830152602082019050919050565b612c6d81613060565b82525050565b612c7c8161306a565b82525050565b612c8b8161307a565b82525050565b612c9a816130f5565b82525050565b612ca98161308e565b82525050565b6000602082019050612cc46000830184612a30565b92915050565b6000606082019050612cdf6000830186612a12565b612cec6020830185612a30565b612cf96040830184612c64565b949350505050565b6000606082019050612d166000830186612a12565b612d236020830185612ca0565b612d306040830184612c64565b949350505050565b6000606082019050612d4d6000830186612a30565b612d5a6020830185612a30565b612d676040830184612c64565b949350505050565b6000604082019050612d846000830185612a30565b612d916020830184612c91565b9392505050565b600060c082019050612dad6000830189612a30565b612dba6020830188612ca0565b612dc76040830187612ca0565b612dd46060830186612afa565b612de16080830185612afa565b612dee60a0830184612c73565b979650505050505050565b60006020820190508181036000830152612e138184612a9c565b905092915050565b6000602082019050612e306000830184612afa565b92915050565b6000602082019050612e4b6000830184612b09565b92915050565b60006020820190508181036000830152612e6a81612b18565b9050919050565b60006020820190508181036000830152612e8a81612b7e565b9050919050565b60006020820190508181036000830152612eaa81612be4565b9050919050565b60006020820190508181036000830152612eca81612c24565b9050919050565b6000602082019050612ee66000830184612c64565b92915050565b6000604082019050612f016000830186612c64565b8181036020830152612f14818486612a3f565b9050949350505050565b6000604082019050612f336000830185612c64565b612f406020830184612ca0565b9392505050565b6000602082019050612f5c6000830184612c73565b92915050565b6000602082019050612f776000830184612c82565b92915050565b6000602082019050612f926000830184612ca0565b92915050565b6000819050919050565b6000819050602082019050919050565b600081519050919050565b6000602082019050919050565b6000602082019050919050565b600082825260208201905092915050565b600082825260208201905092915050565b600061300860208401846127a6565b905092915050565b600061301b82613040565b9050919050565b60008115159050919050565b600061303982613010565b9050919050565b600073ffffffffffffffffffffffffffffffffffffffff82169050919050565b6000819050919050565b600063ffffffff82169050919050565b600067ffffffffffffffff82169050919050565b600060ff82169050919050565b60006130a6826130d1565b9050919050565b60006130b8826130bf565b9050919050565b60006130ca82613040565b9050919050565b60006130dc826130e3565b9050919050565b60006130ee82613040565b9050919050565b60006131008261308e565b9050919050565b61311081613010565b811461311b57600080fd5b50565b6131278161302e565b811461313257600080fd5b50565b61313e81613060565b811461314957600080fd5b50565b6131558161308e565b811461316057600080fd5b5056fea264697066735822122099c547056f8cd4840d7ac46b75683411c746028db6e8d7903b49833442e73d6b64736f6c63430006020033",
  "source": "pragma solidity ^0.6.0;\npragma experimental ABIEncoderV2;\n\n//import \"@openzeppelin/contracts/token/ERC721/IERC721Receiver.sol\";\nimport \"./VoteToken.sol\";\nimport \"./Shared.sol\";\nimport \"@openzeppelin/contracts/access/Ownable.sol\";\nimport \"@openzeppelin/contracts/math/SafeMath.sol\";\n\ncontract District is Ownable{\n    using SafeMath for uint256;\n    using SafeMath for uint32;\n    using SafeMath for uint8;\n    using SafeMath for uint;\n\n    VoteToken public voteToken;\n    uint8 public districtNumber;\n    //uint public eligibleVotes ;\n    uint public castVotes;\n    //uint32 internal uncountedVotes;\n    uint8 constant public seats = 5;\n    uint8 public seatsFilled;\n    uint32 public quota;\n    \n    //Shared.DistrictResults internal results;\n    mapping(address => Shared.Candidate) public candidates;\n    address[] public candidateAddresses;\n    uint8 public candidatesCount;\n    mapping(uint8 => uint64) public party1stCountVotes;\n    address[] electedCandidates;\n    \n    bool public counted = false;\n\n    Shared.DistrictResults internal districtResults;\n\n\n    event Vote(address _voter, uint8 districtNo, uint castVotes);\n\n    constructor(uint8 _districtNumber, Shared.Candidate[] memory _candidates/*, VoteToken _voteToken*/) Ownable() public{\n        //voteToken = _voteToken;\n        districtNumber = _districtNumber;\n        //eligibleVotes = _eligibleVotes;\n        castVotes = 0;\n        candidatesCount = uint8(_candidates.length);\n        \n        for(uint8 i = 0; i < candidatesCount; i++){\n            candidateAddresses.push(_candidates[i]._address);\n            candidates[_candidates[i]._address] = _candidates[i];\n        }\n    }\n    \n    function setVoteToken(VoteToken _voteToken) external onlyOwner{\n        voteToken = _voteToken;\n    }\n    /*function getVoterTurnout() public view returns(uint){\n        return castVotes/eligibleVotes;\n    }*/\n\n    function getCandidateAddresses() external view returns(address[] memory){\n        return candidateAddresses;\n    }\n    \n    function vote(uint256 tokenId, address[] calldata _preferences) external onlyOwner {\n        require(voteToken.district(tokenId) == districtNumber,\"Incorrect District\");\n\n        for(uint8 i = 0; i < _preferences.length; i++)\n            require(candidates[_preferences[i]]._address != address(0), \"Voted for candidate not from this district. Vote Rejected.\");\n        \n        voteToken.transferFrom(msg.sender,address(this),tokenId);\n        voteToken.setVotePreferences(tokenId, _preferences);\n        castVotes += 1;\n        emit Vote(msg.sender, districtNumber, castVotes);\n    }\n    \n    \n    /*function onERC721Received(address operator, address from, uint256 tokenId, bytes calldata data) external override returns (bytes4){\n        require(voteToken.district(tokenId) == districtNumber,\"Incorrect District\");\n\n   }*/\n\n   function getAddresses() external view returns(address[] memory) {\n       return candidateAddresses;\n   }\n\n    /*function getResults() public returns(Shared.DistrictResults memory) {\n        require(counted,\"Votes have not yet been tallied for this district.\");\n        return districtResults;\n    }*/\n\n   function getQuota() public view returns(uint32){\n       //quota = (castVotes/(seats+1)) + 1;\n       return uint32((castVotes/(seats + 1)) + 1);\n   }\n\n\n    function getAllElected() external returns(address[] memory){\n        if(electedCandidates.length==0){\n        \n            for(uint8 i = 0; i < candidatesCount; i++){\n                if(candidates[candidateAddresses[i]].elected == true)\n                    electedCandidates.push(candidates[candidateAddresses[i]]._address);\n            }\n        \n        }\n        return electedCandidates;\n    }\n    \n    function kill() external onlyOwner {\n        //require(msg.sender == owner);\n        selfdestruct(msg.sender);\n    }\n\n    function transferAllBack(address _from) private {\n        voteToken.transferAllBack(_from);\n    }\n\n    function countVotes() external onlyOwner{\n        uint8 seatsRemaining = seats; //number of seats which have not yet been filled.\n        castVotes = voteToken.balanceOf(address(this));\n        quota = getQuota();\n        \n        for (uint8 j = 1; j <= candidatesCount; j++){ \n            /*the number of candidates being the theoretical maximum preferences a voter can select, and therefore the theoretical maximum possible number of rounds.*/\n            bool noMoreRounds = true; \n            //Will remain set to true if it is found that for a given round of counting j, no voter has selected a preference this high, and signal to terminate the counting process.\n            bool candidateElected = false; \n            //whether in this round of counting at least one seat has been filled. \n            uint uncountedVotes = voteToken.balanceOf(address(this));\n            //uint256[] memory voteTokenIDs = new uint256[](uncountedVotes);\n\n            /*for (uint32 i = 0; i < uncountedVotes; i++){\n                uint256 voteTokenID = voteToken.tokenOfOwnerByIndex(address(this),i);\n                voteTokenIDs[i] = voteTokenID;\n            }*/\n\n            /*for (uint i = 0; i < uncountedVotes; i++)*/\n            uint8 i=0; \n            /*\n            i: \"pointer\" value which indicates which indicates the index of the token that will be counted, starts at 0 at each round of counting and increases by 1 when a vote is encountered that cannot be\n            counted this round.\n            Reminder that in ERC721 implementing IERC721enumerable and using the Openzeppelin EnumerableSet library, when a token is removed from an address' balance, the last token in\n            the Enumerable list of tokens swaps places with the removed token in the enumerate list, with the last index of the array being popped off, and the arrays length reduced by 1.\n            \n            When a vote is encountered where the jth preference is a candidate that is elected or eliminated, or not marked; ie their vote will be transferred to the next j+1th\n            round of counting, the pointer value i is incremented by 1 for this round and the loop is moved forward one iteration. \n            In the next iteration, the token at index i + 1 will be counted, with the process above repeating itself if this vote also cannot be counted in this round.\n\n            When i becomes == the remaining balance (uncountedVotes) it means there are no more votes left to count this round and the loop will end.\n            When the balance is reduced to 0, the inner while loop ends  \n            */\n            while(uncountedVotes > 0 && i < uncountedVotes){\n                uint256 voteTokenID = voteToken.tokenOfOwnerByIndex(address(this),i); \n                //uint256 voteTokenID = voteTokenIDs[i];\n\n                /*\n                If a vote is uncounted by the jth round of counting, and the voter only marked j-1 preferences,\n                ie: the voter's preferences from 1 to j-1 have all been elected or eliminated by the time the vote is counted,\n                the vote is said to be non-transferable and is effectively discarded. In reality, it remains in the District contract balance.\n                */\n                address candidateAddress = voteToken.preferences(voteTokenID,j);\n                if(candidateAddress == address(0)){\n                    i++;\n                    continue;\n                }\n                else\n                    noMoreRounds = false;\n                \n               /* else\n                    noMoreRounds = false;*/\n\n                if(j==1)\n                    party1stCountVotes[candidates[candidateAddress].party] += 1;\n                    /*\n                    Party 1st count votes balance increases regardless of whether the vote actually ends up at the 1st preference candidate or \n                    is transferred to another candidate, potentially of a different party.\n                    */\n                \n                uint voteBalance = voteToken.balanceOf(candidateAddress);\n                \n                \n                if(voteBalance >= quota-1 && !candidates[candidateAddress].eliminated){\n                    voteToken.transferFrom(address(this), candidateAddress, voteTokenID);\n                    candidates[candidateAddress].elected = true;\n                    candidateElected = true;\n                    electedCandidates.push(candidateAddress);\n                    uncountedVotes = voteToken.balanceOf(address(this));\n                    --seatsRemaining;\n                    if(seatsRemaining == 0)\n                        break;\n                }\n                else if(!candidates[candidateAddress].elected && !candidates[candidateAddress].eliminated){\n                    voteToken.transferFrom(address(this), candidateAddress, voteTokenID);\n                    uncountedVotes = voteToken.balanceOf(address(this));\n                }\n                else if(candidates[candidateAddress].elected  || candidates[candidateAddress].eliminated ){\n                    // move pointer forward\n                    i++;\n                    continue;\n                }\n            }\n            \n            if(noMoreRounds || seatsRemaining == 0) \n                break;\n            else if(candidateElected)\n                continue;\n\n            /*If no candidate was elected this round of counting, we eliminate candidate with least votes and transfer their votes back to the district contract for next preference counting.*/\n            address currentCandidateWithLeastVotes = candidateAddresses[0];\n            uint currentLeastVotes = voteToken.balanceOf(currentCandidateWithLeastVotes);\n            /*In STV, the candidate to be eliminated is selected randomly if 2 or more candidates are\n            tied for least amount of votes; This would be expensive to implement on chain, so to eliminate bias, the addresses passed as candidateAddresses to the District constructor should\n            be \"shuffled\" off-chain before being passed. */\n            for (uint8 k = 1; k < candidatesCount; k++){\n                uint _balance = voteToken.balanceOf(candidateAddresses[k]);\n                address _candidateAddress = candidateAddresses[k];\n\n                if(_balance < currentLeastVotes && !candidates[_candidateAddress].eliminated && !candidates[_candidateAddress].elected ){\n                    currentCandidateWithLeastVotes = _candidateAddress;\n                    currentLeastVotes = _balance;\n                }\n            }\n\n            candidates[currentCandidateWithLeastVotes].eliminated = true;\n            if(currentLeastVotes>0){\n                voteToken.transferAllBack(currentCandidateWithLeastVotes);\n                uncountedVotes = voteToken.balanceOf(address(this));\n            }\n           \n            \n            \n        }\n        \n        seatsFilled = seats - seatsRemaining;\n\n        for(uint8 i = 0; i<candidateAddresses.length; i++){\n            candidates[candidateAddresses[i]].votes = uint32(voteToken.balanceOf(candidateAddresses[i]));\n            districtResults.candidateResults.push(candidates[candidateAddresses[i]]);\n        }\n\n        uint8 k = 0;\n        while(party1stCountVotes[k]>0){\n            districtResults.party1stCountVotes = new uint8[](Shared.parties);\n            districtResults.party1stCountVotes[k] = party1stCountVotes[k++];\n        }\n\n\n        counted = true;\n    }\n}",
  "sourcePath": "/Users/timothymuscat/Documents/MScThesis/BlockVote_ReactBox/contracts/District.sol",
  "compiler": {
    "name": "solc",
    "version": "0.6.2+commit.bacdbe57.Emscripten.clang"
  },
  "schemaVersion": "3.2.2",
  "updatedAt": "2020-09-22T16:12:16.095Z",
  "devdoc": {
    "methods": {
      "owner()": {
        "details": "Returns the address of the current owner."
      },
      "renounceOwnership()": {
        "details": "Leaves the contract without owner. It will not be possible to call `onlyOwner` functions anymore. Can only be called by the current owner.     * NOTE: Renouncing ownership will leave the contract without an owner, thereby removing any functionality that is only available to the owner."
      },
      "transferOwnership(address)": {
        "details": "Transfers ownership of the contract to a new account (`newOwner`). Can only be called by the current owner."
      }
    }
  },
  "userdoc": {
    "methods": {}
  }
}