{
  "contractName": "DistrictFactory",
  "abi": [
    {
      "inputs": [
        {
          "internalType": "uint8",
          "name": "_districtNumber",
          "type": "uint8"
        },
        {
          "components": [
            {
              "internalType": "address",
              "name": "_address",
              "type": "address"
            },
            {
              "internalType": "uint8",
              "name": "party",
              "type": "uint8"
            },
            {
              "internalType": "uint8",
              "name": "district",
              "type": "uint8"
            },
            {
              "internalType": "bool",
              "name": "elected",
              "type": "bool"
            },
            {
              "internalType": "bool",
              "name": "eliminated",
              "type": "bool"
            }
          ],
          "internalType": "struct Shared.Candidate[]",
          "name": "_candidates",
          "type": "tuple[]"
        },
        {
          "internalType": "contract VoteToken",
          "name": "_voteToken",
          "type": "address"
        }
      ],
      "name": "create",
      "outputs": [
        {
          "internalType": "contract District",
          "name": "",
          "type": "address"
        }
      ],
      "stateMutability": "nonpayable",
      "type": "function"
    }
  ],
  "bytecode": "0x608060405234801561001057600080fd5b50612b99806100206000396000f3fe60806040523480156200001157600080fd5b50600436106200002e5760003560e01c806312d571371462000033575b600080fd5b6200005160048036036200004b91908101906200023d565b62000069565b60405162000060919062000408565b60405180910390f35b60008383836040516200007c90620000b1565b6200008a9392919062000425565b604051809103906000f080158015620000a7573d6000803e3d6000fd5b5090509392505050565b612551806200061383390190565b600081359050620000d081620005aa565b92915050565b600082601f830112620000e857600080fd5b8135620000ff620000f98262000497565b62000469565b915081818352602084019350602081019050838560a08402820111156200012557600080fd5b60005b838110156200015957816200013e888262000191565b845260208401935060a0830192505060018101905062000128565b5050505092915050565b6000813590506200017481620005c4565b92915050565b6000813590506200018b81620005de565b92915050565b600060a08284031215620001a457600080fd5b620001b060a062000469565b90506000620001c284828501620000bf565b6000830152506020620001d88482850162000226565b6020830152506040620001ee8482850162000226565b6040830152506060620002048482850162000163565b60608301525060806200021a8482850162000163565b60808301525092915050565b6000813590506200023781620005f8565b92915050565b6000806000606084860312156200025357600080fd5b6000620002638682870162000226565b935050602084013567ffffffffffffffff8111156200028157600080fd5b6200028f86828701620000d6565b9250506040620002a2868287016200017a565b9150509250925092565b6000620002ba838362000374565b60a08301905092915050565b620002d181620004f9565b82525050565b6000620002e482620004d0565b620002f08185620004e8565b9350620002fd83620004c0565b8060005b8381101562000334578151620003188882620002ac565b97506200032583620004db565b92505060018101905062000301565b5085935050505092915050565b6200034c816200050d565b82525050565b6200035d816200055a565b82525050565b6200036e8162000582565b82525050565b60a0820160008201516200038c6000850182620002c6565b506020820151620003a16020850182620003e6565b506040820151620003b66040850182620003e6565b506060820151620003cb606085018262000341565b506080820151620003e0608085018262000341565b50505050565b620003f1816200054d565b82525050565b62000402816200054d565b82525050565b60006020820190506200041f600083018462000352565b92915050565b60006060820190506200043c6000830186620003f7565b8181036020830152620004508185620002d7565b905062000461604083018462000363565b949350505050565b6000604051905081810181811067ffffffffffffffff821117156200048d57600080fd5b8060405250919050565b600067ffffffffffffffff821115620004af57600080fd5b602082029050602081019050919050565b6000819050602082019050919050565b600081519050919050565b6000602082019050919050565b600082825260208201905092915050565b600062000506826200052d565b9050919050565b60008115159050919050565b60006200052682620004f9565b9050919050565b600073ffffffffffffffffffffffffffffffffffffffff82169050919050565b600060ff82169050919050565b600062000567826200056e565b9050919050565b60006200057b826200052d565b9050919050565b60006200058f8262000596565b9050919050565b6000620005a3826200052d565b9050919050565b620005b581620004f9565b8114620005c157600080fd5b50565b620005cf816200050d565b8114620005db57600080fd5b50565b620005e98162000519565b8114620005f557600080fd5b50565b62000603816200054d565b81146200060f57600080fd5b5056fe60806040523480156200001157600080fd5b506040516200255138038062002551833981810160405262000037919081019062000445565b806000806101000a81548173ffffffffffffffffffffffffffffffffffffffff021916908373ffffffffffffffffffffffffffffffffffffffff16021790555082600060146101000a81548160ff021916908360ff16021790555060008060156101000a81548163ffffffff021916908363ffffffff1602179055508151600460006101000a81548160ff021916908360ff16021790555060008090505b600460009054906101000a900460ff1660ff168160ff161015620002bd576003838260ff16815181106200010557fe5b6020026020010151600001519080600181540180825580915050600190039060005260206000200160009091909190916101000a81548173ffffffffffffffffffffffffffffffffffffffff021916908373ffffffffffffffffffffffffffffffffffffffff160217905550828160ff16815181106200018157fe5b602002602001015160026000858460ff16815181106200019d57fe5b60200260200101516000015173ffffffffffffffffffffffffffffffffffffffff1673ffffffffffffffffffffffffffffffffffffffff16815260200190815260200160002060008201518160000160006101000a81548173ffffffffffffffffffffffffffffffffffffffff021916908373ffffffffffffffffffffffffffffffffffffffff16021790555060208201518160000160146101000a81548160ff021916908360ff16021790555060408201518160000160156101000a81548160ff021916908360ff16021790555060608201518160000160166101000a81548160ff02191690831515021790555060808201518160000160176101000a81548160ff0219169083151502179055509050508080600101915050620000d5565b50505050620005d4565b600081519050620002d8816200056c565b92915050565b600082601f830112620002f057600080fd5b8151620003076200030182620004e2565b620004b4565b915081818352602084019350602081019050838560a08402820111156200032d57600080fd5b60005b8381101562000361578162000346888262000399565b845260208401935060a0830192505060018101905062000330565b5050505092915050565b6000815190506200037c8162000586565b92915050565b6000815190506200039381620005a0565b92915050565b600060a08284031215620003ac57600080fd5b620003b860a0620004b4565b90506000620003ca84828501620002c7565b6000830152506020620003e0848285016200042e565b6020830152506040620003f6848285016200042e565b60408301525060606200040c848285016200036b565b606083015250608062000422848285016200036b565b60808301525092915050565b6000815190506200043f81620005ba565b92915050565b6000806000606084860312156200045b57600080fd5b60006200046b868287016200042e565b935050602084015167ffffffffffffffff8111156200048957600080fd5b6200049786828701620002de565b9250506040620004aa8682870162000382565b9150509250925092565b6000604051905081810181811067ffffffffffffffff82111715620004d857600080fd5b8060405250919050565b600067ffffffffffffffff821115620004fa57600080fd5b602082029050602081019050919050565b600062000518826200053f565b9050919050565b60008115159050919050565b600062000538826200050b565b9050919050565b600073ffffffffffffffffffffffffffffffffffffffff82169050919050565b600060ff82169050919050565b62000577816200050b565b81146200058357600080fd5b50565b62000591816200051f565b81146200059d57600080fd5b50565b620005ab816200052b565b8114620005b757600080fd5b50565b620005c5816200055f565b8114620005d157600080fd5b50565b611f6d80620005e46000396000f3fe608060405234801561001057600080fd5b50600436106100a95760003560e01c80636d89c6ab116100715780636d89c6ab146101425780638ab66a90146101725780639c5655d6146101a6578063c5bf93ba146101c4578063cebe09c9146101e0578063d55d73c5146101fe576100a9565b806306661abd146100ae578063150b7a02146100b85780632d35a8a2146100e857806343d4ed83146101065780634ede20d814610124575b600080fd5b6100b661022e565b005b6100d260048036036100cd9190810190611890565b611017565b6040516100df9190611c95565b60405180910390f35b6100f0611121565b6040516100fd9190611d5f565b60405180910390f35b61010e611134565b60405161011b9190611d44565b60405180910390f35b61012c61114a565b6040516101399190611c73565b60405180910390f35b61015c600480360361015791908101906119b6565b6113ae565b6040516101699190611cd0565b60405180910390f35b61018c6004803603610187919081019061183e565b6113c6565b60405161019d959493929190611c20565b60405180910390f35b6101ae611450565b6040516101bb9190611d5f565b60405180910390f35b6101de60048036036101d99190810190611962565b611455565b005b6101e861163c565b6040516101f59190611d44565b60405180910390f35b61021860048036036102139190810190611910565b611652565b6040516102259190611b45565b60405180910390f35b6000809054906101000a900473ffffffffffffffffffffffffffffffffffffffff1673ffffffffffffffffffffffffffffffffffffffff166370a08231306040518263ffffffff1660e01b81526004016102889190611b45565b60206040518083038186803b1580156102a057600080fd5b505afa1580156102b4573d6000803e3d6000fd5b505050506040513d601f19601f820116820180604052506102d89190810190611939565b600060156101000a81548163ffffffff021916908363ffffffff160217905550600060159054906101000a900463ffffffff16600060196101000a81548163ffffffff021916908363ffffffff16021790555061033361168e565b600160006101000a81548163ffffffff021916908363ffffffff1602179055506000806000600190505b600460009054906101000a900460ff1660ff168160ff1611610b0d576000809054906101000a900473ffffffffffffffffffffffffffffffffffffffff1673ffffffffffffffffffffffffffffffffffffffff166370a08231306040518263ffffffff1660e01b81526004016103d39190611b45565b60206040518083038186803b1580156103eb57600080fd5b505afa1580156103ff573d6000803e3d6000fd5b505050506040513d601f19601f820116820180604052506104239190810190611939565b600060196101000a81548163ffffffff021916908363ffffffff16021790555060008090505b600060199054906101000a900463ffffffff1663ffffffff16811015610a185760008060009054906101000a900473ffffffffffffffffffffffffffffffffffffffff1673ffffffffffffffffffffffffffffffffffffffff16632f745c5930846040518363ffffffff1660e01b81526004016104c7929190611bce565b60206040518083038186803b1580156104df57600080fd5b505afa1580156104f3573d6000803e3d6000fd5b505050506040513d601f19601f820116820180604052506105179190810190611939565b905060008060009054906101000a900473ffffffffffffffffffffffffffffffffffffffff1673ffffffffffffffffffffffffffffffffffffffff1663d1d0a5ea83866040518363ffffffff1660e01b8152600401610577929190611d1b565b60206040518083038186803b15801561058f57600080fd5b505afa1580156105a3573d6000803e3d6000fd5b505050506040513d601f19601f820116820180604052506105c79190810190611867565b905060018460ff16141561064d57600160056000600260008573ffffffffffffffffffffffffffffffffffffffff1673ffffffffffffffffffffffffffffffffffffffff16815260200190815260200160002060000160149054906101000a900460ff1660ff1660ff168152602001908152602001600020600082825401925050819055505b60008060009054906101000a900473ffffffffffffffffffffffffffffffffffffffff1673ffffffffffffffffffffffffffffffffffffffff166370a08231836040518263ffffffff1660e01b81526004016106a99190611b45565b60206040518083038186803b1580156106c157600080fd5b505afa1580156106d5573d6000803e3d6000fd5b505050506040513d601f19601f820116820180604052506106f99190810190611939565b905060018060009054906101000a900463ffffffff160363ffffffff168163ffffffff1614801561077d575060001515600260008473ffffffffffffffffffffffffffffffffffffffff1673ffffffffffffffffffffffffffffffffffffffff16815260200190815260200160002060000160179054906101000a900460ff161515145b15610872576000809054906101000a900473ffffffffffffffffffffffffffffffffffffffff1673ffffffffffffffffffffffffffffffffffffffff166323b872dd3084866040518463ffffffff1660e01b81526004016107e093929190611b97565b600060405180830381600087803b1580156107fa57600080fd5b505af115801561080e573d6000803e3d6000fd5b505050506001600260008473ffffffffffffffffffffffffffffffffffffffff1673ffffffffffffffffffffffffffffffffffffffff16815260200190815260200160002060000160166101000a81548160ff0219169083151502179055506109e6565b60001515600260008473ffffffffffffffffffffffffffffffffffffffff1673ffffffffffffffffffffffffffffffffffffffff16815260200190815260200160002060000160169054906101000a900460ff161515148015610928575060001515600260008473ffffffffffffffffffffffffffffffffffffffff1673ffffffffffffffffffffffffffffffffffffffff16815260200190815260200160002060000160179054906101000a900460ff161515145b156109c2576000809054906101000a900473ffffffffffffffffffffffffffffffffffffffff1673ffffffffffffffffffffffffffffffffffffffff166323b872dd3084866040518463ffffffff1660e01b815260040161098b93929190611b97565b600060405180830381600087803b1580156109a557600080fd5b505af11580156109b9573d6000803e3d6000fd5b505050506109e5565b8563ffffffff168163ffffffff1610156109dd578095508196505b505050610a0b565b5b8563ffffffff166001820163ffffffff161015610a07576001810195508196505b5050505b8080600101915050610449565b506001600260008573ffffffffffffffffffffffffffffffffffffffff1673ffffffffffffffffffffffffffffffffffffffff16815260200190815260200160002060000160176101000a81548160ff0219169083151502179055506000809054906101000a900473ffffffffffffffffffffffffffffffffffffffff1673ffffffffffffffffffffffffffffffffffffffff1663abd2a233846040518263ffffffff1660e01b8152600401610ace9190611b45565b600060405180830381600087803b158015610ae857600080fd5b505af1158015610afc573d6000803e3d6000fd5b50505050808060010191505061035d565b5060008090505b600060159054906101000a900463ffffffff1663ffffffff168163ffffffff1610156110125760008060009054906101000a900473ffffffffffffffffffffffffffffffffffffffff1673ffffffffffffffffffffffffffffffffffffffff16632f745c5930846040518363ffffffff1660e01b8152600401610b98929190611bf7565b60206040518083038186803b158015610bb057600080fd5b505afa158015610bc4573d6000803e3d6000fd5b505050506040513d601f19601f82011682018060405250610be89190810190611939565b90506000600190505b600460009054906101000a900460ff1660ff168160ff16116110035760008060009054906101000a900473ffffffffffffffffffffffffffffffffffffffff1673ffffffffffffffffffffffffffffffffffffffff1663d1d0a5ea84846040518363ffffffff1660e01b8152600401610c6b929190611d1b565b60206040518083038186803b158015610c8357600080fd5b505afa158015610c97573d6000803e3d6000fd5b505050506040513d601f19601f82011682018060405250610cbb9190810190611867565b905060018260ff161415610d4157600160056000600260008573ffffffffffffffffffffffffffffffffffffffff1673ffffffffffffffffffffffffffffffffffffffff16815260200190815260200160002060000160149054906101000a900460ff1660ff1660ff168152602001908152602001600020600082825401925050819055505b60018060009054906101000a900463ffffffff160363ffffffff166000809054906101000a900473ffffffffffffffffffffffffffffffffffffffff1673ffffffffffffffffffffffffffffffffffffffff166370a08231836040518263ffffffff1660e01b8152600401610db69190611b45565b60206040518083038186803b158015610dce57600080fd5b505afa158015610de2573d6000803e3d6000fd5b505050506040513d601f19601f82011682018060405250610e069190810190611939565b1415610efc576000809054906101000a900473ffffffffffffffffffffffffffffffffffffffff1673ffffffffffffffffffffffffffffffffffffffff166323b872dd3083866040518463ffffffff1660e01b8152600401610e6a93929190611b97565b600060405180830381600087803b158015610e8457600080fd5b505af1158015610e98573d6000803e3d6000fd5b505050506001600260008373ffffffffffffffffffffffffffffffffffffffff1673ffffffffffffffffffffffffffffffffffffffff16815260200190815260200160002060000160166101000a81548160ff021916908315150217905550610ff4565b60001515600260008373ffffffffffffffffffffffffffffffffffffffff1673ffffffffffffffffffffffffffffffffffffffff16815260200190815260200160002060000160169054906101000a900460ff1615151415610fed576000809054906101000a900473ffffffffffffffffffffffffffffffffffffffff1673ffffffffffffffffffffffffffffffffffffffff166323b872dd3083866040518463ffffffff1660e01b8152600401610fb693929190611b97565b600060405180830381600087803b158015610fd057600080fd5b505af1158015610fe4573d6000803e3d6000fd5b50505050610ff3565b50610ff6565b5b505b8080600101915050610bf1565b50508080600101915050610b14565b505050565b60008060149054906101000a900460ff1660ff166000809054906101000a900473ffffffffffffffffffffffffffffffffffffffff1673ffffffffffffffffffffffffffffffffffffffff16631979955e866040518263ffffffff1660e01b81526004016110859190611cd0565b60206040518083038186803b15801561109d57600080fd5b505afa1580156110b1573d6000803e3d6000fd5b505050506040513d601f19601f820116820180604052506110d591908101906119df565b60ff1614611118576040517f08c379a000000000000000000000000000000000000000000000000000000000815260040161110f90611cb0565b60405180910390fd5b95945050505050565b600460009054906101000a900460ff1681565b600060159054906101000a900463ffffffff1681565b6060600060068054905014156113225760008090505b600460009054906101000a900460ff1660ff168160ff16101561132057600115156002600060038460ff168154811061119557fe5b9060005260206000200160009054906101000a900473ffffffffffffffffffffffffffffffffffffffff1673ffffffffffffffffffffffffffffffffffffffff1673ffffffffffffffffffffffffffffffffffffffff16815260200190815260200160002060000160169054906101000a900460ff16151514156113135760066002600060038460ff168154811061122957fe5b9060005260206000200160009054906101000a900473ffffffffffffffffffffffffffffffffffffffff1673ffffffffffffffffffffffffffffffffffffffff1673ffffffffffffffffffffffffffffffffffffffff16815260200190815260200160002060000160009054906101000a900473ffffffffffffffffffffffffffffffffffffffff169080600181540180825580915050600190039060005260206000200160009091909190916101000a81548173ffffffffffffffffffffffffffffffffffffffff021916908373ffffffffffffffffffffffffffffffffffffffff1602179055505b8080600101915050611160565b505b60068054806020026020016040519081016040528092919081815260200182805480156113a457602002820191906000526020600020905b8160009054906101000a900473ffffffffffffffffffffffffffffffffffffffff1673ffffffffffffffffffffffffffffffffffffffff168152602001906001019080831161135a575b5050505050905090565b60056020528060005260406000206000915090505481565b60026020528060005260406000206000915090508060000160009054906101000a900473ffffffffffffffffffffffffffffffffffffffff16908060000160149054906101000a900460ff16908060000160159054906101000a900460ff16908060000160169054906101000a900460ff16908060000160179054906101000a900460ff16905085565b600581565b6000809054906101000a900473ffffffffffffffffffffffffffffffffffffffff1673ffffffffffffffffffffffffffffffffffffffff1663095ea7b330846040518363ffffffff1660e01b81526004016114b1929190611bce565b600060405180830381600087803b1580156114cb57600080fd5b505af11580156114df573d6000803e3d6000fd5b505050506000809054906101000a900473ffffffffffffffffffffffffffffffffffffffff1673ffffffffffffffffffffffffffffffffffffffff166323b872dd3330856040518463ffffffff1660e01b815260040161154193929190611b60565b600060405180830381600087803b15801561155b57600080fd5b505af115801561156f573d6000803e3d6000fd5b505050506000809054906101000a900473ffffffffffffffffffffffffffffffffffffffff1673ffffffffffffffffffffffffffffffffffffffff1663324b1dc683836040518363ffffffff1660e01b81526004016115cf929190611ceb565b600060405180830381600087803b1580156115e957600080fd5b505af11580156115fd573d6000803e3d6000fd5b505050506001600060158282829054906101000a900463ffffffff160192506101000a81548163ffffffff021916908363ffffffff1602179055505050565b600160009054906101000a900463ffffffff1681565b6003818154811061165f57fe5b906000526020600020016000915054906101000a900473ffffffffffffffffffffffffffffffffffffffff1681565b600060018060050160ff16600060159054906101000a900463ffffffff1663ffffffff16816116b957fe5b0401600160006101000a81548163ffffffff021916908363ffffffff160217905550600160009054906101000a900463ffffffff16905090565b60008135905061170281611ef2565b92915050565b60008151905061171781611ef2565b92915050565b600082601f83011261172e57600080fd5b813561174161173c82611da7565b611d7a565b9150818183526020840193506020810190508385602084028201111561176657600080fd5b60005b83811015611796578161177c88826116f3565b845260208401935060208301925050600181019050611769565b5050505092915050565b60008083601f8401126117b257600080fd5b8235905067ffffffffffffffff8111156117cb57600080fd5b6020830191508360018202830111156117e357600080fd5b9250929050565b6000813590506117f981611f09565b92915050565b60008151905061180e81611f09565b92915050565b60008135905061182381611f20565b92915050565b60008151905061183881611f20565b92915050565b60006020828403121561185057600080fd5b600061185e848285016116f3565b91505092915050565b60006020828403121561187957600080fd5b600061188784828501611708565b91505092915050565b6000806000806000608086880312156118a857600080fd5b60006118b6888289016116f3565b95505060206118c7888289016116f3565b94505060406118d8888289016117ea565b935050606086013567ffffffffffffffff8111156118f557600080fd5b611901888289016117a0565b92509250509295509295909350565b60006020828403121561192257600080fd5b6000611930848285016117ea565b91505092915050565b60006020828403121561194b57600080fd5b6000611959848285016117ff565b91505092915050565b6000806040838503121561197557600080fd5b6000611983858286016117ea565b925050602083013567ffffffffffffffff8111156119a057600080fd5b6119ac8582860161171d565b9150509250929050565b6000602082840312156119c857600080fd5b60006119d684828501611814565b91505092915050565b6000602082840312156119f157600080fd5b60006119ff84828501611829565b91505092915050565b6000611a148383611a2f565b60208301905092915050565b611a2981611eaa565b82525050565b611a3881611e19565b82525050565b611a4781611e19565b82525050565b6000611a5882611ddf565b611a628185611df7565b9350611a6d83611dcf565b8060005b83811015611a9e578151611a858882611a08565b9750611a9083611dea565b925050600181019050611a71565b5085935050505092915050565b611ab481611e2b565b82525050565b611ac381611e37565b82525050565b6000611ad6601283611e08565b91507f496e636f727265637420446973747269637400000000000000000000000000006000830152602082019050919050565b611b1281611e83565b82525050565b611b2181611ee0565b82525050565b611b3081611e8d565b82525050565b611b3f81611e9d565b82525050565b6000602082019050611b5a6000830184611a3e565b92915050565b6000606082019050611b756000830186611a20565b611b826020830185611a3e565b611b8f6040830184611b09565b949350505050565b6000606082019050611bac6000830186611a3e565b611bb96020830185611a3e565b611bc66040830184611b09565b949350505050565b6000604082019050611be36000830185611a3e565b611bf06020830184611b09565b9392505050565b6000604082019050611c0c6000830185611a3e565b611c196020830184611b18565b9392505050565b600060a082019050611c356000830188611a3e565b611c426020830187611b36565b611c4f6040830186611b36565b611c5c6060830185611aab565b611c696080830184611aab565b9695505050505050565b60006020820190508181036000830152611c8d8184611a4d565b905092915050565b6000602082019050611caa6000830184611aba565b92915050565b60006020820190508181036000830152611cc981611ac9565b9050919050565b6000602082019050611ce56000830184611b09565b92915050565b6000604082019050611d006000830185611b09565b8181036020830152611d128184611a4d565b90509392505050565b6000604082019050611d306000830185611b09565b611d3d6020830184611b36565b9392505050565b6000602082019050611d596000830184611b27565b92915050565b6000602082019050611d746000830184611b36565b92915050565b6000604051905081810181811067ffffffffffffffff82111715611d9d57600080fd5b8060405250919050565b600067ffffffffffffffff821115611dbe57600080fd5b602082029050602081019050919050565b6000819050602082019050919050565b600081519050919050565b6000602082019050919050565b600082825260208201905092915050565b600082825260208201905092915050565b6000611e2482611e63565b9050919050565b60008115159050919050565b60007fffffffff0000000000000000000000000000000000000000000000000000000082169050919050565b600073ffffffffffffffffffffffffffffffffffffffff82169050919050565b6000819050919050565b600063ffffffff82169050919050565b600060ff82169050919050565b6000611eb582611ebc565b9050919050565b6000611ec782611ece565b9050919050565b6000611ed982611e63565b9050919050565b6000611eeb82611e8d565b9050919050565b611efb81611e19565b8114611f0657600080fd5b50565b611f1281611e83565b8114611f1d57600080fd5b50565b611f2981611e9d565b8114611f3457600080fd5b5056fea2646970667358221220e6b7dad54282fbfe5e54a77cd7ac2fb8379f2a731fed372bf7386a99892527c764736f6c63430006020033a2646970667358221220adc3c5bb1779911fb614d5b44fb1a9c499fe4ac48124e58d787f531b2b17102164736f6c63430006020033",
  "source": "pragma solidity ^0.6.0;\npragma experimental ABIEncoderV2;\n\nimport \"./District.sol\";\n\ncontract DistrictFactory{\n    function create(uint8 _districtNumber, Shared.Candidate[] memory _candidates, VoteToken _voteToken) public returns(District) {\n        return new District(_districtNumber, _candidates, _voteToken);\n    }\n}",
  "sourcePath": "/Users/timothymuscat/Documents/MScThesis/BlockVote_ReactBox/contracts/DistrictFactory.sol",
  "compiler": {
    "name": "solc",
    "version": "0.6.2+commit.bacdbe57.Emscripten.clang"
  },
  "schemaVersion": "3.2.2",
  "updatedAt": "2020-08-26T21:54:22.159Z",
  "networkType": "ethereum",
  "devdoc": {
    "methods": {}
  },
  "userdoc": {
    "methods": {}
  }
}