{
  "contractName": "DistrictFactory",
  "abi": [
    {
      "inputs": [],
      "stateMutability": "nonpayable",
      "type": "constructor"
    },
    {
      "inputs": [
        {
          "internalType": "uint8",
          "name": "_districtNumber",
          "type": "uint8"
        },
        {
          "components": [
            {
              "internalType": "address",
              "name": "_address",
              "type": "address"
            },
            {
              "internalType": "uint8",
              "name": "party",
              "type": "uint8"
            },
            {
              "internalType": "uint8",
              "name": "districtNo",
              "type": "uint8"
            },
            {
              "internalType": "bool",
              "name": "elected",
              "type": "bool"
            },
            {
              "internalType": "bool",
              "name": "eliminated",
              "type": "bool"
            },
            {
              "internalType": "uint32",
              "name": "votes",
              "type": "uint32"
            }
          ],
          "internalType": "struct Shared.Candidate[]",
          "name": "_candidates",
          "type": "tuple[]"
        }
      ],
      "name": "create",
      "outputs": [
        {
          "internalType": "contract District",
          "name": "",
          "type": "address"
        }
      ],
      "stateMutability": "nonpayable",
      "type": "function"
    }
  ],
  "bytecode": "0x608060405234801561001057600080fd5b50613d7b806100206000396000f3fe60806040523480156200001157600080fd5b50600436106200002e5760003560e01c8063d6fb2bce1462000033575b600080fd5b6200005160048036036200004b9190810190620002c4565b62000069565b604051620000609190620004bd565b60405180910390f35b60008083836040516200007c9062000122565b62000089929190620004da565b604051809103906000f080158015620000a6573d6000803e3d6000fd5b5090508073ffffffffffffffffffffffffffffffffffffffff1663f2fde38b336040518263ffffffff1660e01b8152600401620000e49190620004a0565b600060405180830381600087803b158015620000ff57600080fd5b505af115801562000114573d6000803e3d6000fd5b505050508091505092915050565b61367e80620006c883390190565b60008135905062000141816200065f565b92915050565b600082601f8301126200015957600080fd5b8135620001706200016a826200053c565b6200050e565b915081818352602084019350602081019050838560c08402820111156200019657600080fd5b60005b83811015620001ca5781620001af8882620001eb565b845260208401935060c0830192505060018101905062000199565b5050505092915050565b600081359050620001e58162000679565b92915050565b600060c08284031215620001fe57600080fd5b6200020a60c06200050e565b905060006200021c8482850162000130565b60008301525060206200023284828501620002ad565b60208301525060406200024884828501620002ad565b60408301525060606200025e84828501620001d4565b60608301525060806200027484828501620001d4565b60808301525060a06200028a8482850162000296565b60a08301525092915050565b600081359050620002a78162000693565b92915050565b600081359050620002be81620006ad565b92915050565b60008060408385031215620002d857600080fd5b6000620002e885828601620002ad565b925050602083013567ffffffffffffffff8111156200030657600080fd5b620003148582860162000147565b9150509250929050565b60006200032c8383620003e6565b60c08301905092915050565b6200034381620005fb565b82525050565b62000354816200059e565b82525050565b6000620003678262000575565b6200037381856200058d565b9350620003808362000565565b8060005b83811015620003b75781516200039b88826200031e565b9750620003a88362000580565b92505060018101905062000384565b5085935050505092915050565b620003cf81620005b2565b82525050565b620003e0816200060f565b82525050565b60c082016000820151620003fe600085018262000349565b5060208201516200041360208501826200047e565b5060408201516200042860408501826200047e565b5060608201516200043d6060850182620003c4565b506080820151620004526080850182620003c4565b5060a08201516200046760a08501826200046d565b50505050565b6200047881620005de565b82525050565b6200048981620005ee565b82525050565b6200049a81620005ee565b82525050565b6000602082019050620004b7600083018462000338565b92915050565b6000602082019050620004d46000830184620003d5565b92915050565b6000604082019050620004f160008301856200048f565b81810360208301526200050581846200035a565b90509392505050565b6000604051905081810181811067ffffffffffffffff821117156200053257600080fd5b8060405250919050565b600067ffffffffffffffff8211156200055457600080fd5b602082029050602081019050919050565b6000819050602082019050919050565b600081519050919050565b6000602082019050919050565b600082825260208201905092915050565b6000620005ab82620005be565b9050919050565b60008115159050919050565b600073ffffffffffffffffffffffffffffffffffffffff82169050919050565b600063ffffffff82169050919050565b600060ff82169050919050565b6000620006088262000637565b9050919050565b60006200061c8262000623565b9050919050565b60006200063082620005be565b9050919050565b600062000644826200064b565b9050919050565b60006200065882620005be565b9050919050565b6200066a816200059e565b81146200067657600080fd5b50565b6200068481620005b2565b81146200069057600080fd5b50565b6200069e81620005de565b8114620006aa57600080fd5b50565b620006b881620005ee565b8114620006c457600080fd5b5056fe60806040526000600760006101000a81548160ff0219169083151502179055503480156200002c57600080fd5b506040516200367e3803806200367e833981810160405262000052919081019062000515565b6000620000646200037960201b60201c565b9050806000806101000a81548173ffffffffffffffffffffffffffffffffffffffff021916908373ffffffffffffffffffffffffffffffffffffffff1602179055508073ffffffffffffffffffffffffffffffffffffffff16600073ffffffffffffffffffffffffffffffffffffffff167f8be0079c531659141344cd1fd0a4f28419497f9722a3daafe3b4186f6b6457e060405160405180910390a35081600160146101000a81548160ff021916908360ff1602179055506000600160156101000a81548163ffffffff021916908363ffffffff1602179055508051600460006101000a81548160ff021916908360ff16021790555060008090505b600460009054906101000a900460ff1660ff168160ff16101562000370576003828260ff16815181106200019157fe5b6020026020010151600001519080600181540180825580915050600190039060005260206000200160009091909190916101000a81548173ffffffffffffffffffffffffffffffffffffffff021916908373ffffffffffffffffffffffffffffffffffffffff160217905550818160ff16815181106200020d57fe5b602002602001015160026000848460ff16815181106200022957fe5b60200260200101516000015173ffffffffffffffffffffffffffffffffffffffff1673ffffffffffffffffffffffffffffffffffffffff16815260200190815260200160002060008201518160000160006101000a81548173ffffffffffffffffffffffffffffffffffffffff021916908373ffffffffffffffffffffffffffffffffffffffff16021790555060208201518160000160146101000a81548160ff021916908360ff16021790555060408201518160000160156101000a81548160ff021916908360ff16021790555060608201518160000160166101000a81548160ff02191690831515021790555060808201518160000160176101000a81548160ff02191690831515021790555060a08201518160000160186101000a81548163ffffffff021916908363ffffffff160217905550905050808060010191505062000161565b5050506200068b565b600033905090565b600081519050620003928162000623565b92915050565b600082601f830112620003aa57600080fd5b8151620003c1620003bb826200059d565b6200056f565b915081818352602084019350602081019050838560c0840282011115620003e757600080fd5b60005b838110156200041b57816200040088826200043c565b845260208401935060c08301925050600181019050620003ea565b5050505092915050565b60008151905062000436816200063d565b92915050565b600060c082840312156200044f57600080fd5b6200045b60c06200056f565b905060006200046d8482850162000381565b60008301525060206200048384828501620004fe565b60208301525060406200049984828501620004fe565b6040830152506060620004af8482850162000425565b6060830152506080620004c58482850162000425565b60808301525060a0620004db84828501620004e7565b60a08301525092915050565b600081519050620004f88162000657565b92915050565b6000815190506200050f8162000671565b92915050565b600080604083850312156200052957600080fd5b60006200053985828601620004fe565b925050602083015167ffffffffffffffff8111156200055757600080fd5b620005658582860162000398565b9150509250929050565b6000604051905081810181811067ffffffffffffffff821117156200059357600080fd5b8060405250919050565b600067ffffffffffffffff821115620005b557600080fd5b602082029050602081019050919050565b6000620005d382620005e6565b9050919050565b60008115159050919050565b600073ffffffffffffffffffffffffffffffffffffffff82169050919050565b600063ffffffff82169050919050565b600060ff82169050919050565b6200062e81620005c6565b81146200063a57600080fd5b50565b6200064881620005da565b81146200065457600080fd5b50565b620006628162000606565b81146200066e57600080fd5b50565b6200067c8162000616565b81146200068857600080fd5b50565b612fe3806200069b6000396000f3fe608060405234801561001057600080fd5b506004361061014d5760003560e01c80638ab66a90116100c3578063c5bf93ba1161007c578063c5bf93ba14610339578063cebe09c914610355578063d55d73c514610373578063dd7177d8146103a3578063f2fde38b146103c1578063f937f910146103dd5761014d565b80638ab66a90146102845780638da5cb5b146102b95780639c5655d6146102d7578063a39fac12146102f5578063abd2a23314610313578063b647990a1461032f5761014d565b806343d4ed831161011557806343d4ed83146101d45780634d23aaa7146101f25780634ede20d81461020e5780636d89c6ab1461022c578063715018a61461025c5780638155f736146102665761014d565b8063160d66ae146101525780631df8ba77146101705780632d35a8a21461018e57806337b40f66146101ac57806341c0e1b5146101ca575b600080fd5b61015a6103fb565b6040516101679190612c8a565b60405180910390f35b610178610421565b6040516101859190612d99565b60405180910390f35b610196610453565b6040516101a39190612db4565b60405180910390f35b6101b4610466565b6040516101c19190612db4565b60405180910390f35b6101d2610479565b005b6101dc610528565b6040516101e99190612d99565b60405180910390f35b61020c60048036036102079190810190612799565b61053e565b005b610216610618565b6040516102239190612c4d565b60405180910390f35b61024660048036036102419190810190612868565b61087c565b6040516102539190612d99565b60405180910390f35b61026461089f565b005b61026e6109f4565b60405161027b9190612c4d565b60405180910390f35b61029e60048036036102999190810190612747565b610a82565b6040516102b096959493929190612bec565b60405180910390f35b6102c1610b22565b6040516102ce9190612b03565b60405180910390f35b6102df610b4b565b6040516102ec9190612db4565b60405180910390f35b6102fd610b50565b60405161030a9190612c4d565b60405180910390f35b61032d60048036036103289190810190612747565b610bde565b005b610337610c6e565b005b610353600480360361034e9190810190612814565b611f4e565b005b61035d61230d565b60405161036a9190612d99565b60405180910390f35b61038d600480360361038891908101906127c2565b612323565b60405161039a9190612b03565b60405180910390f35b6103ab61235f565b6040516103b89190612db4565b60405180910390f35b6103db60048036036103d69190810190612747565b612372565b005b6103e5612536565b6040516103f29190612c6f565b60405180910390f35b600160009054906101000a900473ffffffffffffffffffffffffffffffffffffffff1681565b600060018060050160ff16600160159054906101000a900463ffffffff1663ffffffff168161044c57fe5b0401905090565b600460009054906101000a900460ff1681565b600160199054906101000a900460ff1681565b610481612549565b73ffffffffffffffffffffffffffffffffffffffff166000809054906101000a900473ffffffffffffffffffffffffffffffffffffffff1673ffffffffffffffffffffffffffffffffffffffff161461050f576040517f08c379a000000000000000000000000000000000000000000000000000000000815260040161050690612d05565b60405180910390fd5b3373ffffffffffffffffffffffffffffffffffffffff16ff5b600160159054906101000a900463ffffffff1681565b610546612549565b73ffffffffffffffffffffffffffffffffffffffff166000809054906101000a900473ffffffffffffffffffffffffffffffffffffffff1673ffffffffffffffffffffffffffffffffffffffff16146105d4576040517f08c379a00000000000000000000000000000000000000000000000000000000081526004016105cb90612d05565b60405180910390fd5b80600160006101000a81548173ffffffffffffffffffffffffffffffffffffffff021916908373ffffffffffffffffffffffffffffffffffffffff16021790555050565b6060600060068054905014156107f05760008090505b600460009054906101000a900460ff1660ff168160ff1610156107ee57600115156002600060038460ff168154811061066357fe5b9060005260206000200160009054906101000a900473ffffffffffffffffffffffffffffffffffffffff1673ffffffffffffffffffffffffffffffffffffffff1673ffffffffffffffffffffffffffffffffffffffff16815260200190815260200160002060000160169054906101000a900460ff16151514156107e15760066002600060038460ff16815481106106f757fe5b9060005260206000200160009054906101000a900473ffffffffffffffffffffffffffffffffffffffff1673ffffffffffffffffffffffffffffffffffffffff1673ffffffffffffffffffffffffffffffffffffffff16815260200190815260200160002060000160009054906101000a900473ffffffffffffffffffffffffffffffffffffffff169080600181540180825580915050600190039060005260206000200160009091909190916101000a81548173ffffffffffffffffffffffffffffffffffffffff021916908373ffffffffffffffffffffffffffffffffffffffff1602179055505b808060010191505061062e565b505b600680548060200260200160405190810160405280929190818152602001828054801561087257602002820191906000526020600020905b8160009054906101000a900473ffffffffffffffffffffffffffffffffffffffff1673ffffffffffffffffffffffffffffffffffffffff1681526020019060010190808311610828575b5050505050905090565b60056020528060005260406000206000915054906101000a900463ffffffff1681565b6108a7612549565b73ffffffffffffffffffffffffffffffffffffffff166000809054906101000a900473ffffffffffffffffffffffffffffffffffffffff1673ffffffffffffffffffffffffffffffffffffffff1614610935576040517f08c379a000000000000000000000000000000000000000000000000000000000815260040161092c90612d05565b60405180910390fd5b600073ffffffffffffffffffffffffffffffffffffffff166000809054906101000a900473ffffffffffffffffffffffffffffffffffffffff1673ffffffffffffffffffffffffffffffffffffffff167f8be0079c531659141344cd1fd0a4f28419497f9722a3daafe3b4186f6b6457e060405160405180910390a360008060006101000a81548173ffffffffffffffffffffffffffffffffffffffff021916908373ffffffffffffffffffffffffffffffffffffffff160217905550565b60606003805480602002602001604051908101604052809291908181526020018280548015610a7857602002820191906000526020600020905b8160009054906101000a900473ffffffffffffffffffffffffffffffffffffffff1673ffffffffffffffffffffffffffffffffffffffff1681526020019060010190808311610a2e575b5050505050905090565b60026020528060005260406000206000915090508060000160009054906101000a900473ffffffffffffffffffffffffffffffffffffffff16908060000160149054906101000a900460ff16908060000160159054906101000a900460ff16908060000160169054906101000a900460ff16908060000160179054906101000a900460ff16908060000160189054906101000a900463ffffffff16905086565b60008060009054906101000a900473ffffffffffffffffffffffffffffffffffffffff16905090565b600581565b60606003805480602002602001604051908101604052809291908181526020018280548015610bd457602002820191906000526020600020905b8160009054906101000a900473ffffffffffffffffffffffffffffffffffffffff1673ffffffffffffffffffffffffffffffffffffffff1681526020019060010190808311610b8a575b5050505050905090565b600160009054906101000a900473ffffffffffffffffffffffffffffffffffffffff1673ffffffffffffffffffffffffffffffffffffffff1663abd2a233826040518263ffffffff1660e01b8152600401610c399190612b03565b600060405180830381600087803b158015610c5357600080fd5b505af1158015610c67573d6000803e3d6000fd5b5050505050565b600060059050600160009054906101000a900473ffffffffffffffffffffffffffffffffffffffff1673ffffffffffffffffffffffffffffffffffffffff166370a08231306040518263ffffffff1660e01b8152600401610ccf9190612b03565b60206040518083038186803b158015610ce757600080fd5b505afa158015610cfb573d6000803e3d6000fd5b505050506040513d601f19601f82011682018060405250610d1f91908101906127eb565b600160156101000a81548163ffffffff021916908363ffffffff160217905550610d47610421565b6001601a6101000a81548163ffffffff021916908363ffffffff1602179055506000600190505b600460009054906101000a900460ff1660ff168160ff1611611a6e5760006001905060008090506000600160009054906101000a900473ffffffffffffffffffffffffffffffffffffffff1673ffffffffffffffffffffffffffffffffffffffff166370a08231306040518263ffffffff1660e01b8152600401610df29190612b03565b60206040518083038186803b158015610e0a57600080fd5b505afa158015610e1e573d6000803e3d6000fd5b505050506040513d601f19601f82011682018060405250610e4291908101906127eb565b905060608163ffffffff16604051908082528060200260200182016040528015610e7b5781602001602082028038833980820191505090505b50905060008090505b8263ffffffff168163ffffffff161015610f76576000600160009054906101000a900473ffffffffffffffffffffffffffffffffffffffff1673ffffffffffffffffffffffffffffffffffffffff16632f745c5930846040518363ffffffff1660e01b8152600401610ef7929190612bc3565b60206040518083038186803b158015610f0f57600080fd5b505afa158015610f23573d6000803e3d6000fd5b505050506040513d601f19601f82011682018060405250610f4791908101906127eb565b905080838363ffffffff1681518110610f5c57fe5b602002602001018181525050508080600101915050610e84565b5060008090505b81518163ffffffff161015611614576000828263ffffffff1681518110610fa057fe5b602002602001015190506000600160009054906101000a900473ffffffffffffffffffffffffffffffffffffffff1673ffffffffffffffffffffffffffffffffffffffff1663d1d0a5ea838a6040518363ffffffff1660e01b8152600401611009929190612d70565b60206040518083038186803b15801561102157600080fd5b505afa158015611035573d6000803e3d6000fd5b505050506040513d601f19601f820116820180604052506110599190810190612770565b9050600073ffffffffffffffffffffffffffffffffffffffff168173ffffffffffffffffffffffffffffffffffffffff161415611097575050611607565b6000965060018860ff16141561114557600160056000600260008573ffffffffffffffffffffffffffffffffffffffff1673ffffffffffffffffffffffffffffffffffffffff16815260200190815260200160002060000160149054906101000a900460ff1660ff1660ff16815260200190815260200160002060008282829054906101000a900463ffffffff160192506101000a81548163ffffffff021916908363ffffffff1602179055505b6000600160009054906101000a900473ffffffffffffffffffffffffffffffffffffffff1673ffffffffffffffffffffffffffffffffffffffff166370a08231836040518263ffffffff1660e01b81526004016111a29190612b03565b60206040518083038186803b1580156111ba57600080fd5b505afa1580156111ce573d6000803e3d6000fd5b505050506040513d601f19601f820116820180604052506111f291908101906127eb565b9050600180601a9054906101000a900463ffffffff160363ffffffff168163ffffffff16148015611276575060001515600260008473ffffffffffffffffffffffffffffffffffffffff1673ffffffffffffffffffffffffffffffffffffffff16815260200190815260200160002060000160179054906101000a900460ff161515145b156113ee57600160009054906101000a900473ffffffffffffffffffffffffffffffffffffffff1673ffffffffffffffffffffffffffffffffffffffff166323b872dd3084866040518463ffffffff1660e01b81526004016112da93929190612b8c565b600060405180830381600087803b1580156112f457600080fd5b505af1158015611308573d6000803e3d6000fd5b505050506001600260008473ffffffffffffffffffffffffffffffffffffffff1673ffffffffffffffffffffffffffffffffffffffff16815260200190815260200160002060000160166101000a81548160ff021916908315150217905550600196506006829080600181540180825580915050600190039060005260206000200160009091909190916101000a81548173ffffffffffffffffffffffffffffffffffffffff021916908373ffffffffffffffffffffffffffffffffffffffff16021790555060008a600190039a508a60ff1614156113e957505050611614565b611603565b60001515600260008473ffffffffffffffffffffffffffffffffffffffff1673ffffffffffffffffffffffffffffffffffffffff16815260200190815260200160002060000160169054906101000a900460ff1615151480156114a4575060001515600260008473ffffffffffffffffffffffffffffffffffffffff1673ffffffffffffffffffffffffffffffffffffffff16815260200190815260200160002060000160179054906101000a900460ff161515145b1561153f57600160009054906101000a900473ffffffffffffffffffffffffffffffffffffffff1673ffffffffffffffffffffffffffffffffffffffff166323b872dd3084866040518463ffffffff1660e01b815260040161150893929190612b8c565b600060405180830381600087803b15801561152257600080fd5b505af1158015611536573d6000803e3d6000fd5b50505050611602565b60011515600260008473ffffffffffffffffffffffffffffffffffffffff1673ffffffffffffffffffffffffffffffffffffffff16815260200190815260200160002060000160169054906101000a900460ff16151514806115f4575060011515600260008473ffffffffffffffffffffffffffffffffffffffff1673ffffffffffffffffffffffffffffffffffffffff16815260200190815260200160002060000160179054906101000a900460ff161515145b1561160157505050611607565b5b5b5050505b8080600101915050610f7d565b508380611624575060008660ff16145b156116325750505050611a6e565b82156116415750505050611a61565b6000600360008154811061165157fe5b9060005260206000200160009054906101000a900473ffffffffffffffffffffffffffffffffffffffff1690506000600160009054906101000a900473ffffffffffffffffffffffffffffffffffffffff1673ffffffffffffffffffffffffffffffffffffffff166370a08231836040518263ffffffff1660e01b81526004016116db9190612b03565b60206040518083038186803b1580156116f357600080fd5b505afa158015611707573d6000803e3d6000fd5b505050506040513d601f19601f8201168201806040525061172b91908101906127eb565b90506000600190505b600460009054906101000a900460ff1660ff168160ff161015611961576000600160009054906101000a900473ffffffffffffffffffffffffffffffffffffffff1673ffffffffffffffffffffffffffffffffffffffff166370a0823160038460ff16815481106117a157fe5b9060005260206000200160009054906101000a900473ffffffffffffffffffffffffffffffffffffffff166040518263ffffffff1660e01b81526004016117e89190612b03565b60206040518083038186803b15801561180057600080fd5b505afa158015611814573d6000803e3d6000fd5b505050506040513d601f19601f8201168201806040525061183891908101906127eb565b9050600060038360ff168154811061184c57fe5b9060005260206000200160009054906101000a900473ffffffffffffffffffffffffffffffffffffffff1690508363ffffffff168263ffffffff161080156118e7575060001515600260008373ffffffffffffffffffffffffffffffffffffffff1673ffffffffffffffffffffffffffffffffffffffff16815260200190815260200160002060000160179054906101000a900460ff161515145b8015611946575060001515600260008373ffffffffffffffffffffffffffffffffffffffff1673ffffffffffffffffffffffffffffffffffffffff16815260200190815260200160002060000160169054906101000a900460ff161515145b15611952578094508193505b50508080600101915050611734565b506001600260008473ffffffffffffffffffffffffffffffffffffffff1673ffffffffffffffffffffffffffffffffffffffff16815260200190815260200160002060000160176101000a81548160ff02191690831515021790555060008163ffffffff161115611a5a57600160009054906101000a900473ffffffffffffffffffffffffffffffffffffffff1673ffffffffffffffffffffffffffffffffffffffff1663abd2a233836040518263ffffffff1660e01b8152600401611a279190612b03565b600060405180830381600087803b158015611a4157600080fd5b505af1158015611a55573d6000803e3d6000fd5b505050505b5050505050505b8080600101915050610d6e565b5080600503600160196101000a81548160ff021916908360ff16021790555060008090505b6003805490508160ff161015611e2857600160009054906101000a900473ffffffffffffffffffffffffffffffffffffffff1673ffffffffffffffffffffffffffffffffffffffff166370a0823160038360ff1681548110611af157fe5b9060005260206000200160009054906101000a900473ffffffffffffffffffffffffffffffffffffffff166040518263ffffffff1660e01b8152600401611b389190612b03565b60206040518083038186803b158015611b5057600080fd5b505afa158015611b64573d6000803e3d6000fd5b505050506040513d601f19601f82011682018060405250611b8891908101906127eb565b6002600060038460ff1681548110611b9c57fe5b9060005260206000200160009054906101000a900473ffffffffffffffffffffffffffffffffffffffff1673ffffffffffffffffffffffffffffffffffffffff1673ffffffffffffffffffffffffffffffffffffffff16815260200190815260200160002060000160186101000a81548163ffffffff021916908363ffffffff16021790555060086001016002600060038460ff1681548110611c3b57fe5b9060005260206000200160009054906101000a900473ffffffffffffffffffffffffffffffffffffffff1673ffffffffffffffffffffffffffffffffffffffff1673ffffffffffffffffffffffffffffffffffffffff168152602001908152602001600020908060018154018082558091505060019003906000526020600020016000909190919091506000820160009054906101000a900473ffffffffffffffffffffffffffffffffffffffff168160000160006101000a81548173ffffffffffffffffffffffffffffffffffffffff021916908373ffffffffffffffffffffffffffffffffffffffff1602179055506000820160149054906101000a900460ff168160000160146101000a81548160ff021916908360ff1602179055506000820160159054906101000a900460ff168160000160156101000a81548160ff021916908360ff1602179055506000820160169054906101000a900460ff168160000160166101000a81548160ff0219169083151502179055506000820160179054906101000a900460ff168160000160176101000a81548160ff0219169083151502179055506000820160189054906101000a900463ffffffff168160000160186101000a81548163ffffffff021916908363ffffffff16021790555050508080600101915050611a93565b5060008090505b6000600560008360ff1660ff16815260200190815260200160002060009054906101000a900463ffffffff1663ffffffff161115611f2f57600260ff16604051908082528060200260200182016040528015611e9a5781602001602082028038833980820191505090505b5060086002019080519060200190611eb3929190612551565b50600560008280600101935060ff1660ff16815260200190815260200160002060009054906101000a900463ffffffff1660086002018260ff1681548110611ef757fe5b90600052602060002090600891828204019190066004026101000a81548163ffffffff021916908363ffffffff160217905550611e2f565b6001600760006101000a81548160ff0219169083151502179055505050565b600160149054906101000a900460ff1660ff16600160009054906101000a900473ffffffffffffffffffffffffffffffffffffffff1673ffffffffffffffffffffffffffffffffffffffff16631979955e846040518263ffffffff1660e01b8152600401611fbc9190612d25565b60206040518083038186803b158015611fd457600080fd5b505afa158015611fe8573d6000803e3d6000fd5b505050506040513d601f19601f8201168201806040525061200c9190810190612891565b60ff161461204f576040517f08c379a000000000000000000000000000000000000000000000000000000000815260040161204690612ce5565b60405180910390fd5b60008090505b81518160ff16101561215657600073ffffffffffffffffffffffffffffffffffffffff1660026000848460ff168151811061208c57fe5b602002602001015173ffffffffffffffffffffffffffffffffffffffff1673ffffffffffffffffffffffffffffffffffffffff16815260200190815260200160002060000160009054906101000a900473ffffffffffffffffffffffffffffffffffffffff1673ffffffffffffffffffffffffffffffffffffffff161415612149576040517f08c379a000000000000000000000000000000000000000000000000000000000815260040161214090612ca5565b60405180910390fd5b8080600101915050612055565b50600160009054906101000a900473ffffffffffffffffffffffffffffffffffffffff1673ffffffffffffffffffffffffffffffffffffffff166323b872dd3330856040518463ffffffff1660e01b81526004016121b693929190612b1e565b600060405180830381600087803b1580156121d057600080fd5b505af11580156121e4573d6000803e3d6000fd5b50505050600160009054906101000a900473ffffffffffffffffffffffffffffffffffffffff1673ffffffffffffffffffffffffffffffffffffffff1663324b1dc683836040518363ffffffff1660e01b8152600401612245929190612d40565b600060405180830381600087803b15801561225f57600080fd5b505af1158015612273573d6000803e3d6000fd5b5050505060018060158282829054906101000a900463ffffffff160192506101000a81548163ffffffff021916908363ffffffff1602179055507fd68b742028f68048faefb8051bcb1780ed03a757f341c613cce8cd9b9d794a2333600160149054906101000a900460ff16600160159054906101000a900463ffffffff1660405161230193929190612b55565b60405180910390a15050565b6001601a9054906101000a900463ffffffff1681565b6003818154811061233057fe5b906000526020600020016000915054906101000a900473ffffffffffffffffffffffffffffffffffffffff1681565b600160149054906101000a900460ff1681565b61237a612549565b73ffffffffffffffffffffffffffffffffffffffff166000809054906101000a900473ffffffffffffffffffffffffffffffffffffffff1673ffffffffffffffffffffffffffffffffffffffff1614612408576040517f08c379a00000000000000000000000000000000000000000000000000000000081526004016123ff90612d05565b60405180910390fd5b600073ffffffffffffffffffffffffffffffffffffffff168173ffffffffffffffffffffffffffffffffffffffff161415612478576040517f08c379a000000000000000000000000000000000000000000000000000000000815260040161246f90612cc5565b60405180910390fd5b8073ffffffffffffffffffffffffffffffffffffffff166000809054906101000a900473ffffffffffffffffffffffffffffffffffffffff1673ffffffffffffffffffffffffffffffffffffffff167f8be0079c531659141344cd1fd0a4f28419497f9722a3daafe3b4186f6b6457e060405160405180910390a3806000806101000a81548173ffffffffffffffffffffffffffffffffffffffff021916908373ffffffffffffffffffffffffffffffffffffffff16021790555050565b600760009054906101000a900460ff1681565b600033905090565b828054828255906000526020600020906007016008900481019282156125ed5791602002820160005b838211156125bb57835183826101000a81548163ffffffff021916908360ff160217905550926020019260040160208160030104928301926001030261257a565b80156125eb5782816101000a81549063ffffffff02191690556004016020816003010492830192600103026125bb565b505b5090506125fa91906125fe565b5090565b61262e91905b8082111561262a57600081816101000a81549063ffffffff021916905550600101612604565b5090565b90565b60008135905061264081612f51565b92915050565b60008151905061265581612f51565b92915050565b600082601f83011261266c57600080fd5b813561267f61267a82612dfc565b612dcf565b915081818352602084019350602081019050838560208402820111156126a457600080fd5b60005b838110156126d457816126ba8882612631565b8452602084019350602083019250506001810190506126a7565b5050505092915050565b6000813590506126ed81612f68565b92915050565b60008135905061270281612f7f565b92915050565b60008151905061271781612f7f565b92915050565b60008135905061272c81612f96565b92915050565b60008151905061274181612f96565b92915050565b60006020828403121561275957600080fd5b600061276784828501612631565b91505092915050565b60006020828403121561278257600080fd5b600061279084828501612646565b91505092915050565b6000602082840312156127ab57600080fd5b60006127b9848285016126de565b91505092915050565b6000602082840312156127d457600080fd5b60006127e2848285016126f3565b91505092915050565b6000602082840312156127fd57600080fd5b600061280b84828501612708565b91505092915050565b6000806040838503121561282757600080fd5b6000612835858286016126f3565b925050602083013567ffffffffffffffff81111561285257600080fd5b61285e8582860161265b565b9150509250929050565b60006020828403121561287a57600080fd5b60006128888482850161271d565b91505092915050565b6000602082840312156128a357600080fd5b60006128b184828501612732565b91505092915050565b60006128c683836128e1565b60208301905092915050565b6128db81612ee5565b82525050565b6128ea81612e6e565b82525050565b6128f981612e6e565b82525050565b600061290a82612e34565b6129148185612e4c565b935061291f83612e24565b8060005b8381101561295057815161293788826128ba565b975061294283612e3f565b925050600181019050612923565b5085935050505092915050565b61296681612e80565b82525050565b61297581612ef7565b82525050565b6000612988603a83612e5d565b91507f566f74656420666f722063616e646964617465206e6f742066726f6d2074686960008301527f732064697374726963742e20566f74652052656a65637465642e0000000000006020830152604082019050919050565b60006129ee602683612e5d565b91507f4f776e61626c653a206e6577206f776e657220697320746865207a65726f206160008301527f64647265737300000000000000000000000000000000000000000000000000006020830152604082019050919050565b6000612a54601283612e5d565b91507f496e636f727265637420446973747269637400000000000000000000000000006000830152602082019050919050565b6000612a94602083612e5d565b91507f4f776e61626c653a2063616c6c6572206973206e6f7420746865206f776e65726000830152602082019050919050565b612ad081612ebe565b82525050565b612adf81612f3f565b82525050565b612aee81612ec8565b82525050565b612afd81612ed8565b82525050565b6000602082019050612b1860008301846128f0565b92915050565b6000606082019050612b3360008301866128d2565b612b4060208301856128f0565b612b4d6040830184612ac7565b949350505050565b6000606082019050612b6a60008301866128d2565b612b776020830185612af4565b612b846040830184612ae5565b949350505050565b6000606082019050612ba160008301866128f0565b612bae60208301856128f0565b612bbb6040830184612ac7565b949350505050565b6000604082019050612bd860008301856128f0565b612be56020830184612ad6565b9392505050565b600060c082019050612c0160008301896128f0565b612c0e6020830188612af4565b612c1b6040830187612af4565b612c28606083018661295d565b612c35608083018561295d565b612c4260a0830184612ae5565b979650505050505050565b60006020820190508181036000830152612c6781846128ff565b905092915050565b6000602082019050612c84600083018461295d565b92915050565b6000602082019050612c9f600083018461296c565b92915050565b60006020820190508181036000830152612cbe8161297b565b9050919050565b60006020820190508181036000830152612cde816129e1565b9050919050565b60006020820190508181036000830152612cfe81612a47565b9050919050565b60006020820190508181036000830152612d1e81612a87565b9050919050565b6000602082019050612d3a6000830184612ac7565b92915050565b6000604082019050612d556000830185612ac7565b8181036020830152612d6781846128ff565b90509392505050565b6000604082019050612d856000830185612ac7565b612d926020830184612af4565b9392505050565b6000602082019050612dae6000830184612ae5565b92915050565b6000602082019050612dc96000830184612af4565b92915050565b6000604051905081810181811067ffffffffffffffff82111715612df257600080fd5b8060405250919050565b600067ffffffffffffffff821115612e1357600080fd5b602082029050602081019050919050565b6000819050602082019050919050565b600081519050919050565b6000602082019050919050565b600082825260208201905092915050565b600082825260208201905092915050565b6000612e7982612e9e565b9050919050565b60008115159050919050565b6000612e9782612e6e565b9050919050565b600073ffffffffffffffffffffffffffffffffffffffff82169050919050565b6000819050919050565b600063ffffffff82169050919050565b600060ff82169050919050565b6000612ef082612f1b565b9050919050565b6000612f0282612f09565b9050919050565b6000612f1482612e9e565b9050919050565b6000612f2682612f2d565b9050919050565b6000612f3882612e9e565b9050919050565b6000612f4a82612ec8565b9050919050565b612f5a81612e6e565b8114612f6557600080fd5b50565b612f7181612e8c565b8114612f7c57600080fd5b50565b612f8881612ebe565b8114612f9357600080fd5b50565b612f9f81612ed8565b8114612faa57600080fd5b5056fea26469706673582212205b057f30166a99c1f4a74454e0d588157c02d68bd8cc1c5bcdb488aaaaa2e9ab64736f6c63430006020033a2646970667358221220f1c9dd3094fd810be839a5010bb55c0ce675f2c664b55b0de6678fca7102684064736f6c63430006020033",
  "source": "pragma solidity ^0.6.0;\npragma experimental ABIEncoderV2;\n\nimport \"./District.sol\";\n\ncontract DistrictFactory{\n    constructor() public{\n\n    }\n\n    function create(uint8 _districtNumber, Shared.Candidate[] memory _candidates) public returns(District) {\n        District d = new District(_districtNumber, _candidates);\n        d.transferOwnership(msg.sender);\n        return d;\n    }\n}",
  "sourcePath": "/Users/timothymuscat/Documents/MScThesis/BlockVote_ReactBox/contracts/DistrictFactory.sol",
  "compiler": {
    "name": "solc",
    "version": "0.6.2+commit.bacdbe57.Emscripten.clang"
  },
  "schemaVersion": "3.2.2",
  "updatedAt": "2020-09-15T18:40:27.803Z",
  "networkType": "ethereum",
  "devdoc": {
    "methods": {}
  },
  "userdoc": {
    "methods": {}
  }
}