{
  "contractName": "ElectionController",
  "abi": [
    {
      "inputs": [
        {
          "internalType": "uint8",
          "name": "_districtsNo",
          "type": "uint8"
        },
        {
          "internalType": "contract DistrictFactory",
          "name": "_districtFactory",
          "type": "address"
        },
        {
          "internalType": "contract VoteTokenFactory",
          "name": "_voteTokenFactory",
          "type": "address"
        }
      ],
      "stateMutability": "payable",
      "type": "constructor",
      "payable": true
    },
    {
      "anonymous": false,
      "inputs": [
        {
          "indexed": true,
          "internalType": "address",
          "name": "previousOwner",
          "type": "address"
        },
        {
          "indexed": true,
          "internalType": "address",
          "name": "newOwner",
          "type": "address"
        }
      ],
      "name": "OwnershipTransferred",
      "type": "event"
    },
    {
      "inputs": [],
      "name": "districtsNo",
      "outputs": [
        {
          "internalType": "uint8",
          "name": "",
          "type": "uint8"
        }
      ],
      "stateMutability": "view",
      "type": "function",
      "constant": true
    },
    {
      "inputs": [
        {
          "internalType": "uint256",
          "name": "",
          "type": "uint256"
        }
      ],
      "name": "elections",
      "outputs": [
        {
          "internalType": "string",
          "name": "name",
          "type": "string"
        },
        {
          "internalType": "uint256",
          "name": "voteStart",
          "type": "uint256"
        },
        {
          "internalType": "uint256",
          "name": "voteEnd",
          "type": "uint256"
        },
        {
          "internalType": "contract VoteToken",
          "name": "voteToken",
          "type": "address"
        },
        {
          "internalType": "bool",
          "name": "concluded",
          "type": "bool"
        },
        {
          "internalType": "uint8",
          "name": "partyWithMostVotesIndex",
          "type": "uint8"
        },
        {
          "internalType": "uint8",
          "name": "numberOfPartiesContesting",
          "type": "uint8"
        }
      ],
      "stateMutability": "view",
      "type": "function",
      "constant": true
    },
    {
      "inputs": [],
      "name": "owner",
      "outputs": [
        {
          "internalType": "address",
          "name": "",
          "type": "address"
        }
      ],
      "stateMutability": "view",
      "type": "function",
      "constant": true
    },
    {
      "inputs": [],
      "name": "renounceOwnership",
      "outputs": [],
      "stateMutability": "nonpayable",
      "type": "function"
    },
    {
      "inputs": [
        {
          "internalType": "address",
          "name": "newOwner",
          "type": "address"
        }
      ],
      "name": "transferOwnership",
      "outputs": [],
      "stateMutability": "nonpayable",
      "type": "function"
    },
    {
      "inputs": [
        {
          "internalType": "uint8",
          "name": "_electionNo",
          "type": "uint8"
        }
      ],
      "name": "endElection",
      "outputs": [],
      "stateMutability": "nonpayable",
      "type": "function"
    },
    {
      "inputs": [
        {
          "internalType": "string",
          "name": "_name",
          "type": "string"
        },
        {
          "internalType": "uint256",
          "name": "_voteStart",
          "type": "uint256"
        },
        {
          "internalType": "uint256",
          "name": "_voteEnd",
          "type": "uint256"
        },
        {
          "internalType": "uint8",
          "name": "numberOfPartiesContesting",
          "type": "uint8"
        },
        {
          "components": [
            {
              "internalType": "address",
              "name": "_address",
              "type": "address"
            },
            {
              "internalType": "uint8",
              "name": "party",
              "type": "uint8"
            },
            {
              "internalType": "uint8",
              "name": "districtNo",
              "type": "uint8"
            },
            {
              "internalType": "bool",
              "name": "elected",
              "type": "bool"
            },
            {
              "internalType": "bool",
              "name": "eliminated",
              "type": "bool"
            },
            {
              "internalType": "uint32",
              "name": "votes",
              "type": "uint32"
            }
          ],
          "internalType": "struct Shared.Candidate[][]",
          "name": "candidates",
          "type": "tuple[][]"
        }
      ],
      "name": "launchElection",
      "outputs": [],
      "stateMutability": "nonpayable",
      "type": "function"
    },
    {
      "inputs": [
        {
          "internalType": "uint8",
          "name": "_electionNo",
          "type": "uint8"
        },
        {
          "internalType": "uint256",
          "name": "_voteTokenID",
          "type": "uint256"
        },
        {
          "internalType": "address[]",
          "name": "_preferences",
          "type": "address[]"
        }
      ],
      "name": "vote",
      "outputs": [],
      "stateMutability": "nonpayable",
      "type": "function"
    },
    {
      "inputs": [
        {
          "internalType": "address",
          "name": "_address",
          "type": "address"
        },
        {
          "internalType": "uint16",
          "name": "_election",
          "type": "uint16"
        }
      ],
      "name": "balanceOf",
      "outputs": [
        {
          "internalType": "uint256",
          "name": "",
          "type": "uint256"
        }
      ],
      "stateMutability": "view",
      "type": "function",
      "constant": true
    },
    {
      "inputs": [
        {
          "internalType": "uint8",
          "name": "_election",
          "type": "uint8"
        },
        {
          "internalType": "uint8",
          "name": "_district",
          "type": "uint8"
        }
      ],
      "name": "getDistrictCandidateAddresses",
      "outputs": [
        {
          "internalType": "address[]",
          "name": "",
          "type": "address[]"
        }
      ],
      "stateMutability": "view",
      "type": "function",
      "constant": true
    },
    {
      "inputs": [
        {
          "internalType": "uint8",
          "name": "_election",
          "type": "uint8"
        },
        {
          "internalType": "uint8",
          "name": "_district",
          "type": "uint8"
        }
      ],
      "name": "getDistrictContract",
      "outputs": [
        {
          "internalType": "contract District",
          "name": "",
          "type": "address"
        }
      ],
      "stateMutability": "view",
      "type": "function",
      "constant": true
    },
    {
      "inputs": [
        {
          "internalType": "uint256",
          "name": "_tokenId",
          "type": "uint256"
        },
        {
          "internalType": "uint8",
          "name": "_districtNo",
          "type": "uint8"
        },
        {
          "internalType": "uint32",
          "name": "_electionNo",
          "type": "uint32"
        }
      ],
      "name": "mintVote",
      "outputs": [],
      "stateMutability": "nonpayable",
      "type": "function"
    }
  ],
  "bytecode": "0x608060405260405162002ddb38038062002ddb8339818101604052620000299190810190620001cc565b60006200003b6200017f60201b60201c565b9050806000806101000a81548173ffffffffffffffffffffffffffffffffffffffff021916908373ffffffffffffffffffffffffffffffffffffffff1602179055508073ffffffffffffffffffffffffffffffffffffffff16600073ffffffffffffffffffffffffffffffffffffffff167f8be0079c531659141344cd1fd0a4f28419497f9722a3daafe3b4186f6b6457e060405160405180910390a35082600260006101000a81548160ff021916908360ff16021790555081600260016101000a81548173ffffffffffffffffffffffffffffffffffffffff021916908373ffffffffffffffffffffffffffffffffffffffff16021790555080600360006101000a81548173ffffffffffffffffffffffffffffffffffffffff021916908373ffffffffffffffffffffffffffffffffffffffff160217905550505050620002d9565b600033905090565b60008151905062000198816200028b565b92915050565b600081519050620001af81620002a5565b92915050565b600081519050620001c681620002bf565b92915050565b600080600060608486031215620001e257600080fd5b6000620001f286828701620001b5565b9350506020620002058682870162000187565b925050604062000218868287016200019e565b9150509250925092565b60006200022f826200025e565b9050919050565b6000620002438262000222565b9050919050565b6000620002578262000222565b9050919050565b600073ffffffffffffffffffffffffffffffffffffffff82169050919050565b600060ff82169050919050565b620002968162000236565b8114620002a257600080fd5b50565b620002b0816200024a565b8114620002bc57600080fd5b50565b620002ca816200027e565b8114620002d657600080fd5b50565b612af280620002e96000396000f3fe608060405234801561001057600080fd5b50600436106100b45760003560e01c8063adcb165511610071578063adcb165514610193578063b1cafb3a146101af578063ceeaba62146101cb578063e39c4078146101e7578063ee3031c614610205578063f2fde38b14610235576100b4565b8063100fe522146100b95780634948a529146100e95780635e6fef0114610105578063715018a61461013b5780638da5cb5b146101455780639e5576e714610163575b600080fd5b6100d360048036036100ce9190810190612091565b610251565b6040516100e0919061251a565b60405180910390f35b61010360048036036100fe9190810190611fd8565b61033b565b005b61011f600480360361011a9190810190611f0e565b61082b565b60405161013297969594939291906125d2565b60405180910390f35b610143610959565b005b61014d610aae565b60405161015a919061249f565b60405180910390f35b61017d60048036036101789190810190611d6f565b610ad7565b60405161018a91906126a8565b60405180910390f35b6101ad60048036036101a89190810190611f60565b610bac565b005b6101c960048036036101c4919081019061202a565b610cfa565b005b6101e560048036036101e09190810190611e67565b610f76565b005b6101ef611661565b6040516101fc91906126f3565b60405180910390f35b61021f600480360361021a9190810190612091565b611674565b60405161022c919061253c565b60405180910390f35b61024f600480360361024a9190810190611d46565b6116d7565b005b60608060018460ff168154811061026457fe5b906000526020600020906006020160000160008460ff1660ff16815260200190815260200160002060009054906101000a900473ffffffffffffffffffffffffffffffffffffffff1673ffffffffffffffffffffffffffffffffffffffff16638155f7366040518163ffffffff1660e01b815260040160006040518083038186803b1580156102f257600080fd5b505afa158015610306573d6000803e3d6000fd5b505050506040513d6000823e3d601f19601f8201168201806040525061032f9190810190611dab565b90508091505092915050565b6000806000600190505b600260009054906101000a900460ff1660ff168160ff16116107b25760018460ff168154811061037157fe5b906000526020600020906006020160000160008260ff1660ff16815260200190815260200160002060009054906101000a900473ffffffffffffffffffffffffffffffffffffffff1673ffffffffffffffffffffffffffffffffffffffff1663b647990a6040518163ffffffff1660e01b8152600401600060405180830381600087803b15801561040157600080fd5b505af1158015610415573d6000803e3d6000fd5b505050506001151560018560ff168154811061042d57fe5b906000526020600020906006020160000160008360ff1660ff16815260200190815260200160002060009054906101000a900473ffffffffffffffffffffffffffffffffffffffff1673ffffffffffffffffffffffffffffffffffffffff1663f937f9106040518163ffffffff1660e01b815260040160206040518083038186803b1580156104bb57600080fd5b505afa1580156104cf573d6000803e3d6000fd5b505050506040513d601f19601f820116820180604052506104f39190810190611dec565b151514816040516020016105079190612479565b60405160208183030381529060405290610557576040517f08c379a000000000000000000000000000000000000000000000000000000000815260040161054e9190612572565b60405180910390fd5b5060008090505b60018560ff168154811061056e57fe5b906000526020600020906006020160040160169054906101000a900460ff1660ff168160ff1610156107a457600060018660ff16815481106105ac57fe5b906000526020600020906006020160000160008460ff1660ff16815260200190815260200160002060009054906101000a900473ffffffffffffffffffffffffffffffffffffffff1673ffffffffffffffffffffffffffffffffffffffff16636d89c6ab836040518263ffffffff1660e01b815260040161062d91906126f3565b60206040518083038186803b15801561064557600080fd5b505afa158015610659573d6000803e3d6000fd5b505050506040513d601f19601f8201168201806040525061067d9190810190611faf565b90508060018760ff168154811061069057fe5b906000526020600020906006020160050160008460ff1660ff16815260200190815260200160002060008282829054906101000a900463ffffffff160192506101000a81548163ffffffff021916908363ffffffff1602179055508363ffffffff1660018760ff168154811061070257fe5b906000526020600020906006020160050160008460ff1660ff16815260200190815260200160002060009054906101000a900463ffffffff1663ffffffff1611156107965760018660ff168154811061075757fe5b906000526020600020906006020160050160008360ff1660ff16815260200190815260200160002060009054906101000a900463ffffffff1693508194505b50808060010191505061055e565b508080600101915050610345565b508160018460ff16815481106107c457fe5b906000526020600020906006020160040160156101000a81548160ff021916908360ff1602179055506001808460ff16815481106107fe57fe5b906000526020600020906006020160040160146101000a81548160ff021916908315150217905550505050565b6001818154811061083857fe5b9060005260206000209060060201600091509050806001018054600181600116156101000203166002900480601f0160208091040260200160405190810160405280929190818152602001828054600181600116156101000203166002900480156108e45780601f106108b9576101008083540402835291602001916108e4565b820191906000526020600020905b8154815290600101906020018083116108c757829003601f168201915b5050505050908060020154908060030154908060040160009054906101000a900473ffffffffffffffffffffffffffffffffffffffff16908060040160149054906101000a900460ff16908060040160159054906101000a900460ff16908060040160169054906101000a900460ff16905087565b61096161189b565b73ffffffffffffffffffffffffffffffffffffffff166000809054906101000a900473ffffffffffffffffffffffffffffffffffffffff1673ffffffffffffffffffffffffffffffffffffffff16146109ef576040517f08c379a00000000000000000000000000000000000000000000000000000000081526004016109e690612668565b60405180910390fd5b600073ffffffffffffffffffffffffffffffffffffffff166000809054906101000a900473ffffffffffffffffffffffffffffffffffffffff1673ffffffffffffffffffffffffffffffffffffffff167f8be0079c531659141344cd1fd0a4f28419497f9722a3daafe3b4186f6b6457e060405160405180910390a360008060006101000a81548173ffffffffffffffffffffffffffffffffffffffff021916908373ffffffffffffffffffffffffffffffffffffffff160217905550565b60008060009054906101000a900473ffffffffffffffffffffffffffffffffffffffff16905090565b600060018261ffff1681548110610aea57fe5b906000526020600020906006020160040160009054906101000a900473ffffffffffffffffffffffffffffffffffffffff1673ffffffffffffffffffffffffffffffffffffffff166370a08231846040518263ffffffff1660e01b8152600401610b54919061249f565b60206040518083038186803b158015610b6c57600080fd5b505afa158015610b80573d6000803e3d6000fd5b505050506040513d601f19601f82011682018060405250610ba49190810190611f37565b905092915050565b610bb461189b565b73ffffffffffffffffffffffffffffffffffffffff166000809054906101000a900473ffffffffffffffffffffffffffffffffffffffff1673ffffffffffffffffffffffffffffffffffffffff1614610c42576040517f08c379a0000000000000000000000000000000000000000000000000000000008152600401610c3990612668565b60405180910390fd5b60018163ffffffff1681548110610c5557fe5b906000526020600020906006020160040160009054906101000a900473ffffffffffffffffffffffffffffffffffffffff1673ffffffffffffffffffffffffffffffffffffffff16636112e8ac3085856040518463ffffffff1660e01b8152600401610cc3939291906124e3565b600060405180830381600087803b158015610cdd57600080fd5b505af1158015610cf1573d6000803e3d6000fd5b50505050505050565b610d0261189b565b73ffffffffffffffffffffffffffffffffffffffff166000809054906101000a900473ffffffffffffffffffffffffffffffffffffffff1673ffffffffffffffffffffffffffffffffffffffff1614610d90576040517f08c379a0000000000000000000000000000000000000000000000000000000008152600401610d8790612668565b60405180910390fd5b600060018460ff1681548110610da257fe5b906000526020600020906006020160040160009054906101000a900473ffffffffffffffffffffffffffffffffffffffff1673ffffffffffffffffffffffffffffffffffffffff16631979955e846040518263ffffffff1660e01b8152600401610e0c91906126a8565b60206040518083038186803b158015610e2457600080fd5b505afa158015610e38573d6000803e3d6000fd5b505050506040513d601f19601f82011682018060405250610e5c9190810190612001565b905060008160ff161415610ea5576040517f08c379a0000000000000000000000000000000000000000000000000000000008152600401610e9c90612688565b60405180910390fd5b600060018560ff1681548110610eb757fe5b906000526020600020906006020160000160008360ff1660ff16815260200190815260200160002060009054906101000a900473ffffffffffffffffffffffffffffffffffffffff1690508073ffffffffffffffffffffffffffffffffffffffff1663c5bf93ba85856040518363ffffffff1660e01b8152600401610f3d9291906126c3565b600060405180830381600087803b158015610f5757600080fd5b505af1158015610f6b573d6000803e3d6000fd5b505050505050505050565b610f7e61189b565b73ffffffffffffffffffffffffffffffffffffffff166000809054906101000a900473ffffffffffffffffffffffffffffffffffffffff1673ffffffffffffffffffffffffffffffffffffffff161461100c576040517f08c379a000000000000000000000000000000000000000000000000000000000815260040161100390612668565b60405180910390fd5b6000600360009054906101000a900473ffffffffffffffffffffffffffffffffffffffff1673ffffffffffffffffffffffffffffffffffffffff1663cda3c4998787876040518463ffffffff1660e01b815260040161106d93929190612594565b602060405180830381600087803b15801561108757600080fd5b505af115801561109b573d6000803e3d6000fd5b505050506040513d601f19601f820116820180604052506110bf9190810190611e3e565b905060016040518060e001604052808881526020018781526020018681526020018373ffffffffffffffffffffffffffffffffffffffff16815260200160001515815260200160ff80168152602001845160ff168152509080600181540180825580915050600190039060005260206000209060060201600090919091909150600082015181600101908051906020019061115b9291906118a3565b50602082015181600201556040820151816003015560608201518160040160006101000a81548173ffffffffffffffffffffffffffffffffffffffff021916908373ffffffffffffffffffffffffffffffffffffffff16021790555060808201518160040160146101000a81548160ff02191690831515021790555060a08201518160040160156101000a81548160ff021916908360ff16021790555060c08201518160040160166101000a81548160ff021916908360ff16021790555050506000600190505b600260009054906101000a900460ff1660ff168160ff1611611658576000600260019054906101000a900473ffffffffffffffffffffffffffffffffffffffff1673ffffffffffffffffffffffffffffffffffffffff1663d6fb2bce83866001860360ff168151811061129157fe5b60200260200101516040518363ffffffff1660e01b81526004016112b692919061270e565b602060405180830381600087803b1580156112d057600080fd5b505af11580156112e4573d6000803e3d6000fd5b505050506040513d601f19601f820116820180604052506113089190810190611e15565b90506001808080549050038154811061131d57fe5b906000526020600020906006020160040160009054906101000a900473ffffffffffffffffffffffffffffffffffffffff1673ffffffffffffffffffffffffffffffffffffffff1663a22cb4658260016040518363ffffffff1660e01b815260040161138a9291906124ba565b600060405180830381600087803b1580156113a457600080fd5b505af11580156113b8573d6000803e3d6000fd5b5050505080600180808054905003815481106113d057fe5b906000526020600020906006020160000160008460ff1660ff16815260200190815260200160002060006101000a81548173ffffffffffffffffffffffffffffffffffffffff021916908373ffffffffffffffffffffffffffffffffffffffff1602179055506001808080549050038154811061144957fe5b906000526020600020906006020160040160009054906101000a900473ffffffffffffffffffffffffffffffffffffffff1673ffffffffffffffffffffffffffffffffffffffff1663c0e79a11600180808054905003815481106114a957fe5b906000526020600020906006020160000160008560ff1660ff16815260200190815260200160002060009054906101000a900473ffffffffffffffffffffffffffffffffffffffff166040518263ffffffff1660e01b815260040161150e919061249f565b600060405180830381600087803b15801561152857600080fd5b505af115801561153c573d6000803e3d6000fd5b505050506001808080549050038154811061155357fe5b906000526020600020906006020160000160008360ff1660ff16815260200190815260200160002060009054906101000a900473ffffffffffffffffffffffffffffffffffffffff1673ffffffffffffffffffffffffffffffffffffffff16634d23aaa7600180808054905003815481106115ca57fe5b906000526020600020906006020160040160009054906101000a900473ffffffffffffffffffffffffffffffffffffffff166040518263ffffffff1660e01b81526004016116189190612557565b600060405180830381600087803b15801561163257600080fd5b505af1158015611646573d6000803e3d6000fd5b50505050508080600101915050611222565b50505050505050565b600260009054906101000a900460ff1681565b600060018360ff168154811061168657fe5b906000526020600020906006020160000160008360ff1660ff16815260200190815260200160002060009054906101000a900473ffffffffffffffffffffffffffffffffffffffff16905092915050565b6116df61189b565b73ffffffffffffffffffffffffffffffffffffffff166000809054906101000a900473ffffffffffffffffffffffffffffffffffffffff1673ffffffffffffffffffffffffffffffffffffffff161461176d576040517f08c379a000000000000000000000000000000000000000000000000000000000815260040161176490612668565b60405180910390fd5b600073ffffffffffffffffffffffffffffffffffffffff168173ffffffffffffffffffffffffffffffffffffffff1614156117dd576040517f08c379a00000000000000000000000000000000000000000000000000000000081526004016117d490612648565b60405180910390fd5b8073ffffffffffffffffffffffffffffffffffffffff166000809054906101000a900473ffffffffffffffffffffffffffffffffffffffff1673ffffffffffffffffffffffffffffffffffffffff167f8be0079c531659141344cd1fd0a4f28419497f9722a3daafe3b4186f6b6457e060405160405180910390a3806000806101000a81548173ffffffffffffffffffffffffffffffffffffffff021916908373ffffffffffffffffffffffffffffffffffffffff16021790555050565b600033905090565b828054600181600116156101000203166002900490600052602060002090601f016020900481019282601f106118e457805160ff1916838001178555611912565b82800160010185558215611912579182015b828111156119115782518255916020019190600101906118f6565b5b50905061191f9190611923565b5090565b61194591905b80821115611941576000816000905550600101611929565b5090565b90565b60008135905061195781612a04565b92915050565b60008151905061196c81612a04565b92915050565b600082601f83011261198357600080fd5b81356119966119918261276b565b61273e565b915081818352602084019350602081019050838560208402820111156119bb57600080fd5b60005b838110156119eb57816119d18882611948565b8452602084019350602083019250506001810190506119be565b5050505092915050565b600082601f830112611a0657600080fd5b8151611a19611a148261276b565b61273e565b91508181835260208401935060208101905083856020840282011115611a3e57600080fd5b60005b83811015611a6e5781611a54888261195d565b845260208401935060208301925050600181019050611a41565b5050505092915050565b600082601f830112611a8957600080fd5b8135611a9c611a9782612793565b61273e565b9150818183526020840193506020810190508360005b83811015611ae25781358601611ac88882611aec565b845260208401935060208301925050600181019050611ab2565b5050505092915050565b600082601f830112611afd57600080fd5b8135611b10611b0b826127bb565b61273e565b915081818352602084019350602081019050838560c0840282011115611b3557600080fd5b60005b83811015611b655781611b4b8882611c17565b845260208401935060c08301925050600181019050611b38565b5050505092915050565b600081359050611b7e81612a1b565b92915050565b600081519050611b9381612a1b565b92915050565b600081519050611ba881612a32565b92915050565b600081519050611bbd81612a49565b92915050565b600082601f830112611bd457600080fd5b8135611be7611be2826127e3565b61273e565b91508082526020830160208301858383011115611c0357600080fd5b611c0e838284612992565b50505092915050565b600060c08284031215611c2957600080fd5b611c3360c061273e565b90506000611c4384828501611948565b6000830152506020611c5784828501611d1c565b6020830152506040611c6b84828501611d1c565b6040830152506060611c7f84828501611b6f565b6060830152506080611c9384828501611b6f565b60808301525060a0611ca784828501611cf2565b60a08301525092915050565b600081359050611cc281612a60565b92915050565b600081359050611cd781612a77565b92915050565b600081519050611cec81612a77565b92915050565b600081359050611d0181612a8e565b92915050565b600081519050611d1681612a8e565b92915050565b600081359050611d2b81612aa5565b92915050565b600081519050611d4081612aa5565b92915050565b600060208284031215611d5857600080fd5b6000611d6684828501611948565b91505092915050565b60008060408385031215611d8257600080fd5b6000611d9085828601611948565b9250506020611da185828601611cb3565b9150509250929050565b600060208284031215611dbd57600080fd5b600082015167ffffffffffffffff811115611dd757600080fd5b611de3848285016119f5565b91505092915050565b600060208284031215611dfe57600080fd5b6000611e0c84828501611b84565b91505092915050565b600060208284031215611e2757600080fd5b6000611e3584828501611b99565b91505092915050565b600060208284031215611e5057600080fd5b6000611e5e84828501611bae565b91505092915050565b600080600080600060a08688031215611e7f57600080fd5b600086013567ffffffffffffffff811115611e9957600080fd5b611ea588828901611bc3565b9550506020611eb688828901611cc8565b9450506040611ec788828901611cc8565b9350506060611ed888828901611d1c565b925050608086013567ffffffffffffffff811115611ef557600080fd5b611f0188828901611a78565b9150509295509295909350565b600060208284031215611f2057600080fd5b6000611f2e84828501611cc8565b91505092915050565b600060208284031215611f4957600080fd5b6000611f5784828501611cdd565b91505092915050565b600080600060608486031215611f7557600080fd5b6000611f8386828701611cc8565b9350506020611f9486828701611d1c565b9250506040611fa586828701611cf2565b9150509250925092565b600060208284031215611fc157600080fd5b6000611fcf84828501611d07565b91505092915050565b600060208284031215611fea57600080fd5b6000611ff884828501611d1c565b91505092915050565b60006020828403121561201357600080fd5b600061202184828501611d31565b91505092915050565b60008060006060848603121561203f57600080fd5b600061204d86828701611d1c565b935050602061205e86828701611cc8565b925050604084013567ffffffffffffffff81111561207b57600080fd5b61208786828701611972565b9150509250925092565b600080604083850312156120a457600080fd5b60006120b285828601611d1c565b92505060206120c385828601611d1c565b9150509250929050565b60006120d983836120fd565b60208301905092915050565b60006120f183836123ab565b60c08301905092915050565b612106816128b3565b82525050565b612115816128b3565b82525050565b60006121268261282f565b6121308185612875565b935061213b8361280f565b8060005b8381101561216c57815161215388826120cd565b975061215e8361285b565b92505060018101905061213f565b5085935050505092915050565b60006121848261283a565b61218e8185612886565b93506121998361281f565b8060005b838110156121ca5781516121b188826120e5565b97506121bc83612868565b92505060018101905061219d565b5085935050505092915050565b6121e0816128c5565b82525050565b6121ef816128c5565b82525050565b6121fe8161294a565b82525050565b61220d8161296e565b82525050565b600061221e82612850565b6122288185612897565b93506122388185602086016129a1565b612241816129e6565b840191505092915050565b600061225782612845565b6122618185612897565b93506122718185602086016129a1565b61227a816129e6565b840191505092915050565b6000612292602683612897565b91507f4f776e61626c653a206e6577206f776e657220697320746865207a65726f206160008301527f64647265737300000000000000000000000000000000000000000000000000006020830152604082019050919050565b60006122f8601e836128a8565b91507f436f756e74696e67206661696c656420666f722064697374726963743a2000006000830152601e82019050919050565b6000612338602083612897565b91507f4f776e61626c653a2063616c6c6572206973206e6f7420746865206f776e65726000830152602082019050919050565b6000612378601383612897565b91507f496e76616c696420566f746520546f6b656e2e000000000000000000000000006000830152602082019050919050565b60c0820160008201516123c160008501826120fd565b5060208201516123d46020850182612444565b5060408201516123e76040850182612444565b5060608201516123fa60608501826121d7565b50608082015161240d60808501826121d7565b5060a082015161242060a0850182612435565b50505050565b61242f81612923565b82525050565b61243e8161292d565b82525050565b61244d8161293d565b82525050565b61245c8161293d565b82525050565b61247361246e8261293d565b6129d4565b82525050565b6000612484826122eb565b91506124908284612462565b60018201915081905092915050565b60006020820190506124b4600083018461210c565b92915050565b60006040820190506124cf600083018561210c565b6124dc60208301846121e6565b9392505050565b60006060820190506124f8600083018661210c565b6125056020830185612426565b6125126040830184612453565b949350505050565b60006020820190508181036000830152612534818461211b565b905092915050565b600060208201905061255160008301846121f5565b92915050565b600060208201905061256c6000830184612204565b92915050565b6000602082019050818103600083015261258c8184612213565b905092915050565b600060608201905081810360008301526125ae8186612213565b90506125bd6020830185612426565b6125ca6040830184612426565b949350505050565b600060e08201905081810360008301526125ec818a61224c565b90506125fb6020830189612426565b6126086040830188612426565b6126156060830187612204565b61262260808301866121e6565b61262f60a0830185612453565b61263c60c0830184612453565b98975050505050505050565b6000602082019050818103600083015261266181612285565b9050919050565b600060208201905081810360008301526126818161232b565b9050919050565b600060208201905081810360008301526126a18161236b565b9050919050565b60006020820190506126bd6000830184612426565b92915050565b60006040820190506126d86000830185612426565b81810360208301526126ea818461211b565b90509392505050565b60006020820190506127086000830184612453565b92915050565b60006040820190506127236000830185612453565b81810360208301526127358184612179565b90509392505050565b6000604051905081810181811067ffffffffffffffff8211171561276157600080fd5b8060405250919050565b600067ffffffffffffffff82111561278257600080fd5b602082029050602081019050919050565b600067ffffffffffffffff8211156127aa57600080fd5b602082029050602081019050919050565b600067ffffffffffffffff8211156127d257600080fd5b602082029050602081019050919050565b600067ffffffffffffffff8211156127fa57600080fd5b601f19601f8301169050602081019050919050565b6000819050602082019050919050565b6000819050602082019050919050565b600081519050919050565b600081519050919050565b600081519050919050565b600081519050919050565b6000602082019050919050565b6000602082019050919050565b600082825260208201905092915050565b600082825260208201905092915050565b600082825260208201905092915050565b600081905092915050565b60006128be82612903565b9050919050565b60008115159050919050565b60006128dc826128b3565b9050919050565b60006128ee826128b3565b9050919050565b600061ffff82169050919050565b600073ffffffffffffffffffffffffffffffffffffffff82169050919050565b6000819050919050565b600063ffffffff82169050919050565b600060ff82169050919050565b60006129558261295c565b9050919050565b600061296782612903565b9050919050565b600061297982612980565b9050919050565b600061298b82612903565b9050919050565b82818337600083830152505050565b60005b838110156129bf5780820151818401526020810190506129a4565b838111156129ce576000848401525b50505050565b60006129df826129f7565b9050919050565b6000601f19601f8301169050919050565b60008160f81b9050919050565b612a0d816128b3565b8114612a1857600080fd5b50565b612a24816128c5565b8114612a2f57600080fd5b50565b612a3b816128d1565b8114612a4657600080fd5b50565b612a52816128e3565b8114612a5d57600080fd5b50565b612a69816128f5565b8114612a7457600080fd5b50565b612a8081612923565b8114612a8b57600080fd5b50565b612a978161292d565b8114612aa257600080fd5b50565b612aae8161293d565b8114612ab957600080fd5b5056fea2646970667358221220b371aa6871d8f28bcf58a982c915a392b65aa8ac72a7155881f475bdbb5b070664736f6c63430006020033",
  "source": "pragma solidity ^0.6.0;\npragma experimental ABIEncoderV2;\n\nimport \"@openzeppelin/contracts/access/Ownable.sol\";\nimport \"./VoteToken.sol\";\nimport \"./Shared.sol\";\nimport \"./District.sol\";\nimport \"./DistrictFactory.sol\";\nimport \"./VoteTokenFactory.sol\";\n\n\ncontract ElectionController is Ownable{\n\n    Shared.Election[] public elections;\n    uint8 public districtsNo;\n    DistrictFactory internal districtFactory;\n    VoteTokenFactory internal voteTokenFactory;\n    \n    constructor(uint8 _districtsNo, DistrictFactory _districtFactory, VoteTokenFactory _voteTokenFactory) Ownable() public payable{\n        districtsNo = _districtsNo;\n        districtFactory = _districtFactory;\n        voteTokenFactory = _voteTokenFactory;\n    }\n\n    function endElection(uint8 _electionNo) external{\n        //Shared.Election storage election = elections[_electionNo]; //storage in order to copy by reference.\n        uint8 partyWithMostVotesIndex;\n        uint32 mostVotes;\n        \n        for(uint8 i = 1; i <= districtsNo; i++){\n            //require(election.districtContracts[i].counted() == true, string(abi.encodePacked(\"Hasn't Counted Yet: \",i)));\n            elections[_electionNo].districtContracts[i].countVotes();\n            require(elections[_electionNo].districtContracts[i].counted() == true, string(abi.encodePacked(\"Counting failed for district: \",i)));\n            //election.districtContracts[i].getAllElected();\n            \n            for(uint8 j = 0; j < elections[_electionNo].numberOfPartiesContesting ;j++){\n                \n                uint32 _votes = uint32(elections[_electionNo].districtContracts[i].party1stCountVotes(j));\n                \n                /*if(_votes == 0)\n                    break;*/\n                \n                elections[_electionNo].party1stCountVotes[j] += _votes;\n                if(elections[_electionNo].party1stCountVotes[j] > mostVotes){\n                    mostVotes = elections[_electionNo].party1stCountVotes[j];\n                    partyWithMostVotesIndex = j;\n                }\n            }\n        }\n        \n        elections[_electionNo].partyWithMostVotesIndex = partyWithMostVotesIndex;\n        elections[_electionNo].concluded = true;\n    }\n    \n    function launchElection (\n        string memory _name,\n        uint _voteStart,\n        uint _voteEnd,\n        uint8 numberOfPartiesContesting,\n        Shared.Candidate[][] memory candidates\n        ) public onlyOwner{\n\n        VoteToken _voteToken = voteTokenFactory.create(_name,_voteStart,_voteEnd);\n        elections.push(Shared.Election({name: _name, voteStart: _voteStart, voteEnd: _voteEnd, voteToken: _voteToken, concluded:false, partyWithMostVotesIndex:255, numberOfPartiesContesting: uint8(candidates.length)}));\n        \n        \n        for(uint8 i = 1 ; i <= districtsNo; i++){\n            District d = districtFactory.create(i, candidates[i-1]);\n            elections[elections.length-1].voteToken.setApprovalForAll(address(d),true);\n            elections[elections.length-1].districtContracts[i] = d;\n            elections[elections.length-1].voteToken.setAllowed(address(elections[elections.length-1].districtContracts[i]));\n            elections[elections.length-1].districtContracts[i].setVoteToken(elections[elections.length-1].voteToken);\n        \n        }\n \n    }\n\n    function vote(uint8 _electionNo, uint256 _voteTokenID, address[] memory _preferences) public onlyOwner {\n        uint8 districtNo = elections[_electionNo].voteToken.district(_voteTokenID);\n        require(districtNo != 0,\"Invalid Vote Token.\");\n        District _district = elections[_electionNo].districtContracts[districtNo];\n        //voteToken.setApprovalForAll(_district,true);\n        _district.vote(_voteTokenID,_preferences);\n\n    }\n    \n    function balanceOf(address _address, uint16 _election) public view returns(uint256){\n        return elections[_election].voteToken.balanceOf(_address);\n    }\n\n    function getDistrictCandidateAddresses(uint8 _election,uint8 _district)  public view returns(address[] memory){\n        address[] memory addresses = elections[_election].districtContracts[_district].getCandidateAddresses();\n        return addresses;\n    }\n\n    function getDistrictContract(uint8 _election, uint8 _district) public view returns(District){\n        return elections[_election].districtContracts[_district];\n    }\n\n    function mintVote(uint256 _tokenId, uint8 _districtNo, uint32 _electionNo) public onlyOwner {\n        elections[_electionNo].voteToken.mint(address(this), _tokenId, _districtNo);\n\n    }\n    \n}",
  "sourcePath": "/Users/timothymuscat/Documents/MScThesis/BlockVote_ReactBox/contracts/ElectionController.sol",
  "compiler": {
    "name": "solc",
    "version": "0.6.2+commit.bacdbe57.Emscripten.clang"
  },
  "schemaVersion": "3.2.2",
  "updatedAt": "2020-09-15T18:40:27.796Z",
  "networkType": "ethereum",
  "devdoc": {
    "methods": {
      "owner()": {
        "details": "Returns the address of the current owner."
      },
      "renounceOwnership()": {
        "details": "Leaves the contract without owner. It will not be possible to call `onlyOwner` functions anymore. Can only be called by the current owner.     * NOTE: Renouncing ownership will leave the contract without an owner, thereby removing any functionality that is only available to the owner."
      },
      "transferOwnership(address)": {
        "details": "Transfers ownership of the contract to a new account (`newOwner`). Can only be called by the current owner."
      }
    }
  },
  "userdoc": {
    "methods": {}
  }
}