{
  "contractName": "ElectionController",
  "abi": [
    {
      "inputs": [
        {
          "internalType": "uint8",
          "name": "_districtsNo",
          "type": "uint8"
        },
        {
          "internalType": "contract DistrictFactory",
          "name": "_districtFactory",
          "type": "address"
        },
        {
          "internalType": "contract VoteTokenFactory",
          "name": "_voteTokenFactory",
          "type": "address"
        }
      ],
      "stateMutability": "payable",
      "type": "constructor"
    },
    {
      "anonymous": false,
      "inputs": [
        {
          "indexed": false,
          "internalType": "uint256",
          "name": "electionNo",
          "type": "uint256"
        },
        {
          "indexed": false,
          "internalType": "uint256",
          "name": "time",
          "type": "uint256"
        },
        {
          "indexed": false,
          "internalType": "uint256",
          "name": "voteStart",
          "type": "uint256"
        },
        {
          "indexed": false,
          "internalType": "uint256",
          "name": "voteEnd",
          "type": "uint256"
        },
        {
          "indexed": false,
          "internalType": "uint8",
          "name": "numberOfPartiesContesting",
          "type": "uint8"
        },
        {
          "indexed": false,
          "internalType": "string",
          "name": "name",
          "type": "string"
        }
      ],
      "name": "ElectionLaunched",
      "type": "event"
    },
    {
      "anonymous": false,
      "inputs": [
        {
          "indexed": true,
          "internalType": "address",
          "name": "previousOwner",
          "type": "address"
        },
        {
          "indexed": true,
          "internalType": "address",
          "name": "newOwner",
          "type": "address"
        }
      ],
      "name": "OwnershipTransferred",
      "type": "event"
    },
    {
      "inputs": [],
      "name": "districtsNo",
      "outputs": [
        {
          "internalType": "uint8",
          "name": "",
          "type": "uint8"
        }
      ],
      "stateMutability": "view",
      "type": "function"
    },
    {
      "inputs": [
        {
          "internalType": "uint256",
          "name": "",
          "type": "uint256"
        }
      ],
      "name": "elections",
      "outputs": [
        {
          "internalType": "string",
          "name": "name",
          "type": "string"
        },
        {
          "internalType": "uint256",
          "name": "voteStart",
          "type": "uint256"
        },
        {
          "internalType": "uint256",
          "name": "voteEnd",
          "type": "uint256"
        },
        {
          "internalType": "contract VoteToken",
          "name": "voteToken",
          "type": "address"
        },
        {
          "internalType": "bool",
          "name": "concluded",
          "type": "bool"
        },
        {
          "internalType": "uint8",
          "name": "partyWithMostVotesIndex",
          "type": "uint8"
        },
        {
          "internalType": "uint8",
          "name": "numberOfPartiesContesting",
          "type": "uint8"
        }
      ],
      "stateMutability": "view",
      "type": "function"
    },
    {
      "inputs": [],
      "name": "owner",
      "outputs": [
        {
          "internalType": "address",
          "name": "",
          "type": "address"
        }
      ],
      "stateMutability": "view",
      "type": "function"
    },
    {
      "inputs": [],
      "name": "renounceOwnership",
      "outputs": [],
      "stateMutability": "nonpayable",
      "type": "function"
    },
    {
      "inputs": [
        {
          "internalType": "address",
          "name": "newOwner",
          "type": "address"
        }
      ],
      "name": "transferOwnership",
      "outputs": [],
      "stateMutability": "nonpayable",
      "type": "function"
    },
    {
      "inputs": [
        {
          "internalType": "uint8",
          "name": "_electionNo",
          "type": "uint8"
        }
      ],
      "name": "endElection",
      "outputs": [],
      "stateMutability": "nonpayable",
      "type": "function"
    },
    {
      "inputs": [
        {
          "internalType": "string",
          "name": "_name",
          "type": "string"
        },
        {
          "internalType": "uint256",
          "name": "_voteStart",
          "type": "uint256"
        },
        {
          "internalType": "uint256",
          "name": "_voteEnd",
          "type": "uint256"
        },
        {
          "internalType": "uint8",
          "name": "numberOfPartiesContesting",
          "type": "uint8"
        },
        {
          "components": [
            {
              "internalType": "address",
              "name": "_address",
              "type": "address"
            },
            {
              "internalType": "uint8",
              "name": "party",
              "type": "uint8"
            },
            {
              "internalType": "uint8",
              "name": "districtNo",
              "type": "uint8"
            },
            {
              "internalType": "bool",
              "name": "elected",
              "type": "bool"
            },
            {
              "internalType": "bool",
              "name": "eliminated",
              "type": "bool"
            },
            {
              "internalType": "uint32",
              "name": "votes",
              "type": "uint32"
            }
          ],
          "internalType": "struct Shared.Candidate[][]",
          "name": "candidates",
          "type": "tuple[][]"
        }
      ],
      "name": "launchElection",
      "outputs": [],
      "stateMutability": "nonpayable",
      "type": "function"
    },
    {
      "inputs": [
        {
          "internalType": "uint8",
          "name": "_electionNo",
          "type": "uint8"
        },
        {
          "internalType": "uint256",
          "name": "_voteTokenID",
          "type": "uint256"
        },
        {
          "internalType": "address[]",
          "name": "_preferences",
          "type": "address[]"
        }
      ],
      "name": "vote",
      "outputs": [],
      "stateMutability": "nonpayable",
      "type": "function"
    },
    {
      "inputs": [
        {
          "internalType": "address",
          "name": "_address",
          "type": "address"
        },
        {
          "internalType": "uint16",
          "name": "_election",
          "type": "uint16"
        }
      ],
      "name": "balanceOf",
      "outputs": [
        {
          "internalType": "uint256",
          "name": "",
          "type": "uint256"
        }
      ],
      "stateMutability": "view",
      "type": "function"
    },
    {
      "inputs": [
        {
          "internalType": "uint8",
          "name": "_election",
          "type": "uint8"
        },
        {
          "internalType": "uint8",
          "name": "_district",
          "type": "uint8"
        }
      ],
      "name": "getDistrictCandidateAddresses",
      "outputs": [
        {
          "internalType": "address[]",
          "name": "",
          "type": "address[]"
        }
      ],
      "stateMutability": "view",
      "type": "function"
    },
    {
      "inputs": [
        {
          "internalType": "uint8",
          "name": "_election",
          "type": "uint8"
        },
        {
          "internalType": "uint8",
          "name": "_district",
          "type": "uint8"
        }
      ],
      "name": "getDistrictContract",
      "outputs": [
        {
          "internalType": "contract District",
          "name": "",
          "type": "address"
        }
      ],
      "stateMutability": "view",
      "type": "function"
    },
    {
      "inputs": [
        {
          "internalType": "uint256",
          "name": "_tokenId",
          "type": "uint256"
        },
        {
          "internalType": "uint8",
          "name": "_districtNo",
          "type": "uint8"
        },
        {
          "internalType": "uint32",
          "name": "_electionNo",
          "type": "uint32"
        }
      ],
      "name": "mintVote",
      "outputs": [],
      "stateMutability": "nonpayable",
      "type": "function"
    }
  ],
  "bytecode": "0x6080604052604051620030d9380380620030d98339818101604052620000299190810190620001cc565b60006200003b6200017f60201b60201c565b9050806000806101000a81548173ffffffffffffffffffffffffffffffffffffffff021916908373ffffffffffffffffffffffffffffffffffffffff1602179055508073ffffffffffffffffffffffffffffffffffffffff16600073ffffffffffffffffffffffffffffffffffffffff167f8be0079c531659141344cd1fd0a4f28419497f9722a3daafe3b4186f6b6457e060405160405180910390a35082600260006101000a81548160ff021916908360ff16021790555081600260016101000a81548173ffffffffffffffffffffffffffffffffffffffff021916908373ffffffffffffffffffffffffffffffffffffffff16021790555080600360006101000a81548173ffffffffffffffffffffffffffffffffffffffff021916908373ffffffffffffffffffffffffffffffffffffffff160217905550505050620002d9565b600033905090565b60008151905062000198816200028b565b92915050565b600081519050620001af81620002a5565b92915050565b600081519050620001c681620002bf565b92915050565b600080600060608486031215620001e257600080fd5b6000620001f286828701620001b5565b9350506020620002058682870162000187565b925050604062000218868287016200019e565b9150509250925092565b60006200022f826200025e565b9050919050565b6000620002438262000222565b9050919050565b6000620002578262000222565b9050919050565b600073ffffffffffffffffffffffffffffffffffffffff82169050919050565b600060ff82169050919050565b620002968162000236565b8114620002a257600080fd5b50565b620002b0816200024a565b8114620002bc57600080fd5b50565b620002ca816200027e565b8114620002d657600080fd5b50565b612df080620002e96000396000f3fe608060405234801561001057600080fd5b50600436106100b45760003560e01c8063adcb165511610071578063adcb165514610193578063b1cafb3a146101af578063ceeaba62146101cb578063e39c4078146101e7578063ee3031c614610205578063f2fde38b14610235576100b4565b8063100fe522146100b95780634948a529146100e95780635e6fef0114610105578063715018a61461013b5780638da5cb5b146101455780639e5576e714610163575b600080fd5b6100d360048036036100ce919081019061223c565b610251565b6040516100e09190612745565b60405180910390f35b61010360048036036100fe9190810190612183565b61033b565b005b61011f600480360361011a91908101906120b9565b610946565b60405161013297969594939291906127fd565b60405180910390f35b610143610a74565b005b61014d610bc9565b60405161015a91906126ca565b60405180910390f35b61017d60048036036101789190810190611f1a565b610bf2565b60405161018a9190612913565b60405180910390f35b6101ad60048036036101a8919081019061210b565b610cc7565b005b6101c960048036036101c491908101906121d5565b610e15565b005b6101e560048036036101e09190810190612012565b611091565b005b6101ef61180c565b6040516101fc91906129c6565b60405180910390f35b61021f600480360361021a919081019061223c565b61181f565b60405161022c9190612767565b60405180910390f35b61024f600480360361024a9190810190611ef1565b611882565b005b60608060018460ff168154811061026457fe5b906000526020600020906006020160000160008460ff1660ff16815260200190815260200160002060009054906101000a900473ffffffffffffffffffffffffffffffffffffffff1673ffffffffffffffffffffffffffffffffffffffff16638155f7366040518163ffffffff1660e01b815260040160006040518083038186803b1580156102f257600080fd5b505afa158015610306573d6000803e3d6000fd5b505050506040513d6000823e3d601f19601f8201168201806040525061032f9190810190611f56565b90508091505092915050565b610343611a46565b73ffffffffffffffffffffffffffffffffffffffff166000809054906101000a900473ffffffffffffffffffffffffffffffffffffffff1673ffffffffffffffffffffffffffffffffffffffff16146103d1576040517f08c379a00000000000000000000000000000000000000000000000000000000081526004016103c8906128b3565b60405180910390fd5b60018160ff16815481106103e157fe5b9060005260206000209060060201600301544211610434576040517f08c379a000000000000000000000000000000000000000000000000000000000815260040161042b90612893565b60405180910390fd5b6000806000600190505b600260009054906101000a900460ff1660ff168160ff16116108cd5760018460ff168154811061046a57fe5b906000526020600020906006020160000160008260ff1660ff16815260200190815260200160002060009054906101000a900473ffffffffffffffffffffffffffffffffffffffff1673ffffffffffffffffffffffffffffffffffffffff1663b647990a6040518163ffffffff1660e01b8152600401600060405180830381600087803b1580156104fa57600080fd5b505af115801561050e573d6000803e3d6000fd5b505050506001151560018560ff168154811061052657fe5b906000526020600020906006020160000160008360ff1660ff16815260200190815260200160002060009054906101000a900473ffffffffffffffffffffffffffffffffffffffff1673ffffffffffffffffffffffffffffffffffffffff1663f937f9106040518163ffffffff1660e01b815260040160206040518083038186803b1580156105b457600080fd5b505afa1580156105c8573d6000803e3d6000fd5b505050506040513d601f19601f820116820180604052506105ec9190810190611f97565b1515148160405160200161060091906126a4565b60405160208183030381529060405290610650576040517f08c379a0000000000000000000000000000000000000000000000000000000008152600401610647919061279d565b60405180910390fd5b5060008090505b60018560ff168154811061066757fe5b906000526020600020906006020160040160169054906101000a900460ff1660ff168160ff1610156108bf57600060018660ff16815481106106a557fe5b906000526020600020906006020160000160008460ff1660ff16815260200190815260200160002060009054906101000a900473ffffffffffffffffffffffffffffffffffffffff1673ffffffffffffffffffffffffffffffffffffffff16636d89c6ab836040518263ffffffff1660e01b815260040161072691906129c6565b60206040518083038186803b15801561073e57600080fd5b505afa158015610752573d6000803e3d6000fd5b505050506040513d601f19601f82011682018060405250610776919081019061215a565b90508063ffffffff1660018760ff168154811061078f57fe5b906000526020600020906006020160050160008460ff1660ff16815260200190815260200160002060008282829054906101000a900467ffffffffffffffff160192506101000a81548167ffffffffffffffff021916908367ffffffffffffffff1602179055508367ffffffffffffffff1660018760ff168154811061081157fe5b906000526020600020906006020160050160008460ff1660ff16815260200190815260200160002060009054906101000a900467ffffffffffffffff1667ffffffffffffffff1611156108b15760018660ff168154811061086e57fe5b906000526020600020906006020160050160008360ff1660ff16815260200190815260200160002060009054906101000a900467ffffffffffffffff1693508194505b508080600101915050610657565b50808060010191505061043e565b508160018460ff16815481106108df57fe5b906000526020600020906006020160040160156101000a81548160ff021916908360ff1602179055506001808460ff168154811061091957fe5b906000526020600020906006020160040160146101000a81548160ff021916908315150217905550505050565b6001818154811061095357fe5b9060005260206000209060060201600091509050806001018054600181600116156101000203166002900480601f0160208091040260200160405190810160405280929190818152602001828054600181600116156101000203166002900480156109ff5780601f106109d4576101008083540402835291602001916109ff565b820191906000526020600020905b8154815290600101906020018083116109e257829003601f168201915b5050505050908060020154908060030154908060040160009054906101000a900473ffffffffffffffffffffffffffffffffffffffff16908060040160149054906101000a900460ff16908060040160159054906101000a900460ff16908060040160169054906101000a900460ff16905087565b610a7c611a46565b73ffffffffffffffffffffffffffffffffffffffff166000809054906101000a900473ffffffffffffffffffffffffffffffffffffffff1673ffffffffffffffffffffffffffffffffffffffff1614610b0a576040517f08c379a0000000000000000000000000000000000000000000000000000000008152600401610b01906128b3565b60405180910390fd5b600073ffffffffffffffffffffffffffffffffffffffff166000809054906101000a900473ffffffffffffffffffffffffffffffffffffffff1673ffffffffffffffffffffffffffffffffffffffff167f8be0079c531659141344cd1fd0a4f28419497f9722a3daafe3b4186f6b6457e060405160405180910390a360008060006101000a81548173ffffffffffffffffffffffffffffffffffffffff021916908373ffffffffffffffffffffffffffffffffffffffff160217905550565b60008060009054906101000a900473ffffffffffffffffffffffffffffffffffffffff16905090565b600060018261ffff1681548110610c0557fe5b906000526020600020906006020160040160009054906101000a900473ffffffffffffffffffffffffffffffffffffffff1673ffffffffffffffffffffffffffffffffffffffff166370a08231846040518263ffffffff1660e01b8152600401610c6f91906126ca565b60206040518083038186803b158015610c8757600080fd5b505afa158015610c9b573d6000803e3d6000fd5b505050506040513d601f19601f82011682018060405250610cbf91908101906120e2565b905092915050565b610ccf611a46565b73ffffffffffffffffffffffffffffffffffffffff166000809054906101000a900473ffffffffffffffffffffffffffffffffffffffff1673ffffffffffffffffffffffffffffffffffffffff1614610d5d576040517f08c379a0000000000000000000000000000000000000000000000000000000008152600401610d54906128b3565b60405180910390fd5b60018163ffffffff1681548110610d7057fe5b906000526020600020906006020160040160009054906101000a900473ffffffffffffffffffffffffffffffffffffffff1673ffffffffffffffffffffffffffffffffffffffff16636112e8ac3085856040518463ffffffff1660e01b8152600401610dde9392919061270e565b600060405180830381600087803b158015610df857600080fd5b505af1158015610e0c573d6000803e3d6000fd5b50505050505050565b610e1d611a46565b73ffffffffffffffffffffffffffffffffffffffff166000809054906101000a900473ffffffffffffffffffffffffffffffffffffffff1673ffffffffffffffffffffffffffffffffffffffff1614610eab576040517f08c379a0000000000000000000000000000000000000000000000000000000008152600401610ea2906128b3565b60405180910390fd5b600060018460ff1681548110610ebd57fe5b906000526020600020906006020160040160009054906101000a900473ffffffffffffffffffffffffffffffffffffffff1673ffffffffffffffffffffffffffffffffffffffff16631979955e846040518263ffffffff1660e01b8152600401610f279190612913565b60206040518083038186803b158015610f3f57600080fd5b505afa158015610f53573d6000803e3d6000fd5b505050506040513d601f19601f82011682018060405250610f7791908101906121ac565b905060008160ff161415610fc0576040517f08c379a0000000000000000000000000000000000000000000000000000000008152600401610fb7906128f3565b60405180910390fd5b600060018560ff1681548110610fd257fe5b906000526020600020906006020160000160008360ff1660ff16815260200190815260200160002060009054906101000a900473ffffffffffffffffffffffffffffffffffffffff1690508073ffffffffffffffffffffffffffffffffffffffff1663c5bf93ba85856040518363ffffffff1660e01b815260040161105892919061292e565b600060405180830381600087803b15801561107257600080fd5b505af1158015611086573d6000803e3d6000fd5b505050505050505050565b611099611a46565b73ffffffffffffffffffffffffffffffffffffffff166000809054906101000a900473ffffffffffffffffffffffffffffffffffffffff1673ffffffffffffffffffffffffffffffffffffffff1614611127576040517f08c379a000000000000000000000000000000000000000000000000000000000815260040161111e906128b3565b60405180910390fd5b6000600360009054906101000a900473ffffffffffffffffffffffffffffffffffffffff1673ffffffffffffffffffffffffffffffffffffffff1663cda3c4998787876040518463ffffffff1660e01b8152600401611188939291906127bf565b602060405180830381600087803b1580156111a257600080fd5b505af11580156111b6573d6000803e3d6000fd5b505050506040513d601f19601f820116820180604052506111da9190810190611fe9565b905060016040518060e001604052808881526020018781526020018681526020018373ffffffffffffffffffffffffffffffffffffffff16815260200160001515815260200160ff80168152602001845160ff1681525090806001815401808255809150506001900390600052602060002090600602016000909190919091506000820151816001019080519060200190611276929190611a4e565b50602082015181600201556040820151816003015560608201518160040160006101000a81548173ffffffffffffffffffffffffffffffffffffffff021916908373ffffffffffffffffffffffffffffffffffffffff16021790555060808201518160040160146101000a81548160ff02191690831515021790555060a08201518160040160156101000a81548160ff021916908360ff16021790555060c08201518160040160166101000a81548160ff021916908360ff160217905550505060006001805490501161137e576040517f08c379a0000000000000000000000000000000000000000000000000000000008152600401611375906128d3565b60405180910390fd5b6000600190505b600260009054906101000a900460ff1660ff168160ff16116117bb576000600260019054906101000a900473ffffffffffffffffffffffffffffffffffffffff1673ffffffffffffffffffffffffffffffffffffffff1663d6fb2bce83866001860360ff16815181106113f457fe5b60200260200101516040518363ffffffff1660e01b81526004016114199291906129e1565b602060405180830381600087803b15801561143357600080fd5b505af1158015611447573d6000803e3d6000fd5b505050506040513d601f19601f8201168201806040525061146b9190810190611fc0565b90506001808080549050038154811061148057fe5b906000526020600020906006020160040160009054906101000a900473ffffffffffffffffffffffffffffffffffffffff1673ffffffffffffffffffffffffffffffffffffffff1663a22cb4658260016040518363ffffffff1660e01b81526004016114ed9291906126e5565b600060405180830381600087803b15801561150757600080fd5b505af115801561151b573d6000803e3d6000fd5b50505050806001808080549050038154811061153357fe5b906000526020600020906006020160000160008460ff1660ff16815260200190815260200160002060006101000a81548173ffffffffffffffffffffffffffffffffffffffff021916908373ffffffffffffffffffffffffffffffffffffffff160217905550600180808054905003815481106115ac57fe5b906000526020600020906006020160040160009054906101000a900473ffffffffffffffffffffffffffffffffffffffff1673ffffffffffffffffffffffffffffffffffffffff1663c0e79a116001808080549050038154811061160c57fe5b906000526020600020906006020160000160008560ff1660ff16815260200190815260200160002060009054906101000a900473ffffffffffffffffffffffffffffffffffffffff166040518263ffffffff1660e01b815260040161167191906126ca565b600060405180830381600087803b15801561168b57600080fd5b505af115801561169f573d6000803e3d6000fd5b50505050600180808054905003815481106116b657fe5b906000526020600020906006020160000160008360ff1660ff16815260200190815260200160002060009054906101000a900473ffffffffffffffffffffffffffffffffffffffff1673ffffffffffffffffffffffffffffffffffffffff16634d23aaa76001808080549050038154811061172d57fe5b906000526020600020906006020160040160009054906101000a900473ffffffffffffffffffffffffffffffffffffffff166040518263ffffffff1660e01b815260040161177b9190612782565b600060405180830381600087803b15801561179557600080fd5b505af11580156117a9573d6000803e3d6000fd5b50505050508080600101915050611385565b507fab991fe964de3fca43a0159d6a26144439df0073b48816a39c88ef6c0ca2cd1d6001808054905003428787878b6040516117fc9695949392919061295e565b60405180910390a1505050505050565b600260009054906101000a900460ff1681565b600060018360ff168154811061183157fe5b906000526020600020906006020160000160008360ff1660ff16815260200190815260200160002060009054906101000a900473ffffffffffffffffffffffffffffffffffffffff16905092915050565b61188a611a46565b73ffffffffffffffffffffffffffffffffffffffff166000809054906101000a900473ffffffffffffffffffffffffffffffffffffffff1673ffffffffffffffffffffffffffffffffffffffff1614611918576040517f08c379a000000000000000000000000000000000000000000000000000000000815260040161190f906128b3565b60405180910390fd5b600073ffffffffffffffffffffffffffffffffffffffff168173ffffffffffffffffffffffffffffffffffffffff161415611988576040517f08c379a000000000000000000000000000000000000000000000000000000000815260040161197f90612873565b60405180910390fd5b8073ffffffffffffffffffffffffffffffffffffffff166000809054906101000a900473ffffffffffffffffffffffffffffffffffffffff1673ffffffffffffffffffffffffffffffffffffffff167f8be0079c531659141344cd1fd0a4f28419497f9722a3daafe3b4186f6b6457e060405160405180910390a3806000806101000a81548173ffffffffffffffffffffffffffffffffffffffff021916908373ffffffffffffffffffffffffffffffffffffffff16021790555050565b600033905090565b828054600181600116156101000203166002900490600052602060002090601f016020900481019282601f10611a8f57805160ff1916838001178555611abd565b82800160010185558215611abd579182015b82811115611abc578251825591602001919060010190611aa1565b5b509050611aca9190611ace565b5090565b611af091905b80821115611aec576000816000905550600101611ad4565b5090565b90565b600081359050611b0281612ceb565b92915050565b600081519050611b1781612ceb565b92915050565b600082601f830112611b2e57600080fd5b8135611b41611b3c82612a3e565b612a11565b91508181835260208401935060208101905083856020840282011115611b6657600080fd5b60005b83811015611b965781611b7c8882611af3565b845260208401935060208301925050600181019050611b69565b5050505092915050565b600082601f830112611bb157600080fd5b8151611bc4611bbf82612a3e565b612a11565b91508181835260208401935060208101905083856020840282011115611be957600080fd5b60005b83811015611c195781611bff8882611b08565b845260208401935060208301925050600181019050611bec565b5050505092915050565b600082601f830112611c3457600080fd5b8135611c47611c4282612a66565b612a11565b9150818183526020840193506020810190508360005b83811015611c8d5781358601611c738882611c97565b845260208401935060208301925050600181019050611c5d565b5050505092915050565b600082601f830112611ca857600080fd5b8135611cbb611cb682612a8e565b612a11565b915081818352602084019350602081019050838560c0840282011115611ce057600080fd5b60005b83811015611d105781611cf68882611dc2565b845260208401935060c08301925050600181019050611ce3565b5050505092915050565b600081359050611d2981612d02565b92915050565b600081519050611d3e81612d02565b92915050565b600081519050611d5381612d19565b92915050565b600081519050611d6881612d30565b92915050565b600082601f830112611d7f57600080fd5b8135611d92611d8d82612ab6565b612a11565b91508082526020830160208301858383011115611dae57600080fd5b611db9838284612c79565b50505092915050565b600060c08284031215611dd457600080fd5b611dde60c0612a11565b90506000611dee84828501611af3565b6000830152506020611e0284828501611ec7565b6020830152506040611e1684828501611ec7565b6040830152506060611e2a84828501611d1a565b6060830152506080611e3e84828501611d1a565b60808301525060a0611e5284828501611e9d565b60a08301525092915050565b600081359050611e6d81612d47565b92915050565b600081359050611e8281612d5e565b92915050565b600081519050611e9781612d5e565b92915050565b600081359050611eac81612d75565b92915050565b600081519050611ec181612d8c565b92915050565b600081359050611ed681612da3565b92915050565b600081519050611eeb81612da3565b92915050565b600060208284031215611f0357600080fd5b6000611f1184828501611af3565b91505092915050565b60008060408385031215611f2d57600080fd5b6000611f3b85828601611af3565b9250506020611f4c85828601611e5e565b9150509250929050565b600060208284031215611f6857600080fd5b600082015167ffffffffffffffff811115611f8257600080fd5b611f8e84828501611ba0565b91505092915050565b600060208284031215611fa957600080fd5b6000611fb784828501611d2f565b91505092915050565b600060208284031215611fd257600080fd5b6000611fe084828501611d44565b91505092915050565b600060208284031215611ffb57600080fd5b600061200984828501611d59565b91505092915050565b600080600080600060a0868803121561202a57600080fd5b600086013567ffffffffffffffff81111561204457600080fd5b61205088828901611d6e565b955050602061206188828901611e73565b945050604061207288828901611e73565b935050606061208388828901611ec7565b925050608086013567ffffffffffffffff8111156120a057600080fd5b6120ac88828901611c23565b9150509295509295909350565b6000602082840312156120cb57600080fd5b60006120d984828501611e73565b91505092915050565b6000602082840312156120f457600080fd5b600061210284828501611e88565b91505092915050565b60008060006060848603121561212057600080fd5b600061212e86828701611e73565b935050602061213f86828701611ec7565b925050604061215086828701611e9d565b9150509250925092565b60006020828403121561216c57600080fd5b600061217a84828501611eb2565b91505092915050565b60006020828403121561219557600080fd5b60006121a384828501611ec7565b91505092915050565b6000602082840312156121be57600080fd5b60006121cc84828501611edc565b91505092915050565b6000806000606084860312156121ea57600080fd5b60006121f886828701611ec7565b935050602061220986828701611e73565b925050604084013567ffffffffffffffff81111561222657600080fd5b61223286828701611b1d565b9150509250925092565b6000806040838503121561224f57600080fd5b600061225d85828601611ec7565b925050602061226e85828601611ec7565b9150509250929050565b600061228483836122a8565b60208301905092915050565b600061229c83836125d6565b60c08301905092915050565b6122b181612b86565b82525050565b6122c081612b86565b82525050565b60006122d182612b02565b6122db8185612b48565b93506122e683612ae2565b8060005b838110156123175781516122fe8882612278565b975061230983612b2e565b9250506001810190506122ea565b5085935050505092915050565b600061232f82612b0d565b6123398185612b59565b935061234483612af2565b8060005b8381101561237557815161235c8882612290565b975061236783612b3b565b925050600181019050612348565b5085935050505092915050565b61238b81612b98565b82525050565b61239a81612b98565b82525050565b6123a981612c31565b82525050565b6123b881612c55565b82525050565b60006123c982612b23565b6123d38185612b6a565b93506123e3818560208601612c88565b6123ec81612ccd565b840191505092915050565b600061240282612b18565b61240c8185612b6a565b935061241c818560208601612c88565b61242581612ccd565b840191505092915050565b600061243d602683612b6a565b91507f4f776e61626c653a206e6577206f776e657220697320746865207a65726f206160008301527f64647265737300000000000000000000000000000000000000000000000000006020830152604082019050919050565b60006124a3601383612b6a565b91507f566f74696e67204e6f74204f76657220596574000000000000000000000000006000830152602082019050919050565b60006124e3601e83612b7b565b91507f436f756e74696e67206661696c656420666f722064697374726963743a2000006000830152601e82019050919050565b6000612523602083612b6a565b91507f4f776e61626c653a2063616c6c6572206973206e6f7420746865206f776e65726000830152602082019050919050565b6000612563601783612b6a565b91507f456c656374696f6e204c61756e6368204661696c65642e0000000000000000006000830152602082019050919050565b60006125a3601383612b6a565b91507f496e76616c696420566f746520546f6b656e2e000000000000000000000000006000830152602082019050919050565b60c0820160008201516125ec60008501826122a8565b5060208201516125ff602085018261266f565b506040820151612612604085018261266f565b5060608201516126256060850182612382565b5060808201516126386080850182612382565b5060a082015161264b60a0850182612660565b50505050565b61265a81612bf6565b82525050565b61266981612c00565b82525050565b61267881612c24565b82525050565b61268781612c24565b82525050565b61269e61269982612c24565b612cbb565b82525050565b60006126af826124d6565b91506126bb828461268d565b60018201915081905092915050565b60006020820190506126df60008301846122b7565b92915050565b60006040820190506126fa60008301856122b7565b6127076020830184612391565b9392505050565b600060608201905061272360008301866122b7565b6127306020830185612651565b61273d604083018461267e565b949350505050565b6000602082019050818103600083015261275f81846122c6565b905092915050565b600060208201905061277c60008301846123a0565b92915050565b600060208201905061279760008301846123af565b92915050565b600060208201905081810360008301526127b781846123be565b905092915050565b600060608201905081810360008301526127d981866123be565b90506127e86020830185612651565b6127f56040830184612651565b949350505050565b600060e0820190508181036000830152612817818a6123f7565b90506128266020830189612651565b6128336040830188612651565b61284060608301876123af565b61284d6080830186612391565b61285a60a083018561267e565b61286760c083018461267e565b98975050505050505050565b6000602082019050818103600083015261288c81612430565b9050919050565b600060208201905081810360008301526128ac81612496565b9050919050565b600060208201905081810360008301526128cc81612516565b9050919050565b600060208201905081810360008301526128ec81612556565b9050919050565b6000602082019050818103600083015261290c81612596565b9050919050565b60006020820190506129286000830184612651565b92915050565b60006040820190506129436000830185612651565b818103602083015261295581846122c6565b90509392505050565b600060c0820190506129736000830189612651565b6129806020830188612651565b61298d6040830187612651565b61299a6060830186612651565b6129a7608083018561267e565b81810360a08301526129b981846123be565b9050979650505050505050565b60006020820190506129db600083018461267e565b92915050565b60006040820190506129f6600083018561267e565b8181036020830152612a088184612324565b90509392505050565b6000604051905081810181811067ffffffffffffffff82111715612a3457600080fd5b8060405250919050565b600067ffffffffffffffff821115612a5557600080fd5b602082029050602081019050919050565b600067ffffffffffffffff821115612a7d57600080fd5b602082029050602081019050919050565b600067ffffffffffffffff821115612aa557600080fd5b602082029050602081019050919050565b600067ffffffffffffffff821115612acd57600080fd5b601f19601f8301169050602081019050919050565b6000819050602082019050919050565b6000819050602082019050919050565b600081519050919050565b600081519050919050565b600081519050919050565b600081519050919050565b6000602082019050919050565b6000602082019050919050565b600082825260208201905092915050565b600082825260208201905092915050565b600082825260208201905092915050565b600081905092915050565b6000612b9182612bd6565b9050919050565b60008115159050919050565b6000612baf82612b86565b9050919050565b6000612bc182612b86565b9050919050565b600061ffff82169050919050565b600073ffffffffffffffffffffffffffffffffffffffff82169050919050565b6000819050919050565b600063ffffffff82169050919050565b600067ffffffffffffffff82169050919050565b600060ff82169050919050565b6000612c3c82612c43565b9050919050565b6000612c4e82612bd6565b9050919050565b6000612c6082612c67565b9050919050565b6000612c7282612bd6565b9050919050565b82818337600083830152505050565b60005b83811015612ca6578082015181840152602081019050612c8b565b83811115612cb5576000848401525b50505050565b6000612cc682612cde565b9050919050565b6000601f19601f8301169050919050565b60008160f81b9050919050565b612cf481612b86565b8114612cff57600080fd5b50565b612d0b81612b98565b8114612d1657600080fd5b50565b612d2281612ba4565b8114612d2d57600080fd5b50565b612d3981612bb6565b8114612d4457600080fd5b50565b612d5081612bc8565b8114612d5b57600080fd5b50565b612d6781612bf6565b8114612d7257600080fd5b50565b612d7e81612c00565b8114612d8957600080fd5b50565b612d9581612c10565b8114612da057600080fd5b50565b612dac81612c24565b8114612db757600080fd5b5056fea2646970667358221220d48ad2b7a4616c37e5b39094e48d3a5c1221b50d586ee16486f6fbf98586a40064736f6c63430006020033",
  "source": "pragma solidity ^0.6.0;\npragma experimental ABIEncoderV2;\n\nimport \"@openzeppelin/contracts/access/Ownable.sol\";\nimport \"./VoteToken.sol\";\nimport \"./Shared.sol\";\nimport \"./District.sol\";\nimport \"./DistrictFactory.sol\";\nimport \"./VoteTokenFactory.sol\";\n\n\ncontract ElectionController is Ownable{\n\n    Shared.Election[] public elections;\n    uint8 public districtsNo;\n    DistrictFactory internal districtFactory;\n    VoteTokenFactory internal voteTokenFactory;\n    \n    constructor(uint8 _districtsNo, DistrictFactory _districtFactory, VoteTokenFactory _voteTokenFactory) Ownable() public payable{\n        districtsNo = _districtsNo;\n        districtFactory = _districtFactory;\n        voteTokenFactory = _voteTokenFactory;\n    }\n\n    function endElection(uint8 _electionNo) onlyOwner external{\n        //Shared.Election storage election = elections[_electionNo]; //storage in order to copy by reference.\n        require(now > elections[_electionNo].voteEnd,\"Voting Not Over Yet\");\n        uint8 partyWithMostVotesIndex;\n        uint64 mostVotes;\n        \n        for(uint8 i = 1; i <= districtsNo; i++){\n            //require(election.districtContracts[i].counted() == true, string(abi.encodePacked(\"Hasn't Counted Yet: \",i)));\n            elections[_electionNo].districtContracts[i].countVotes();\n            require(elections[_electionNo].districtContracts[i].counted() == true, string(abi.encodePacked(\"Counting failed for district: \",i)));\n            //election.districtContracts[i].getAllElected();\n            \n            for(uint8 j = 0; j < elections[_electionNo].numberOfPartiesContesting ;j++){\n                \n                uint32 _votes = uint32(elections[_electionNo].districtContracts[i].party1stCountVotes(j));\n                \n                /*if(_votes == 0)\n                    break;*/\n                \n                elections[_electionNo].party1stCountVotes[j] += _votes;\n                if(elections[_electionNo].party1stCountVotes[j] > mostVotes){\n                    mostVotes = elections[_electionNo].party1stCountVotes[j];\n                    partyWithMostVotesIndex = j;\n                }\n            }\n        }\n        \n        elections[_electionNo].partyWithMostVotesIndex = partyWithMostVotesIndex;\n        elections[_electionNo].concluded = true;\n    }\n    \n    event ElectionLaunched(uint electionNo, uint time, uint voteStart, uint voteEnd, uint8 numberOfPartiesContesting, string name);\n    function launchElection (\n            string memory _name,\n            uint _voteStart,\n            uint _voteEnd,\n            uint8 numberOfPartiesContesting,\n            Shared.Candidate[][] memory candidates\n            ) public onlyOwner{\n\n        VoteToken _voteToken = voteTokenFactory.create(_name,_voteStart,_voteEnd);\n        elections.push(Shared.Election({name: _name, voteStart: _voteStart, voteEnd: _voteEnd, voteToken: _voteToken, concluded:false, partyWithMostVotesIndex:255, numberOfPartiesContesting: uint8(candidates.length)}));\n        \n        require(elections.length > 0,\"Election Launch Failed.\");\n        for(uint8 i = 1 ; i <= districtsNo; i++){\n            District d = districtFactory.create(i, candidates[i-1]);\n            elections[elections.length-1].voteToken.setApprovalForAll(address(d),true);\n            elections[elections.length-1].districtContracts[i] = d;\n            elections[elections.length-1].voteToken.setAllowed(address(elections[elections.length-1].districtContracts[i]));\n            elections[elections.length-1].districtContracts[i].setVoteToken(elections[elections.length-1].voteToken);\n        \n        }\n\n        emit ElectionLaunched(elections.length-1, now, _voteStart, _voteEnd, numberOfPartiesContesting, _name);\n    }\n\n    function vote(uint8 _electionNo, uint256 _voteTokenID, address[] memory _preferences) public onlyOwner {\n        uint8 districtNo = elections[_electionNo].voteToken.district(_voteTokenID);\n        require(districtNo != 0,\"Invalid Vote Token.\");\n        District _district = elections[_electionNo].districtContracts[districtNo];\n        //voteToken.setApprovalForAll(_district,true);\n        _district.vote(_voteTokenID,_preferences);\n\n    }\n    \n    function balanceOf(address _address, uint16 _election) public view returns(uint256){\n        return elections[_election].voteToken.balanceOf(_address);\n    }\n\n    function getDistrictCandidateAddresses(uint8 _election,uint8 _district)  public view returns(address[] memory){\n        address[] memory addresses = elections[_election].districtContracts[_district].getCandidateAddresses();\n        return addresses;\n    }\n\n    function getDistrictContract(uint8 _election, uint8 _district) public view returns(District){\n        return elections[_election].districtContracts[_district];\n    }\n\n    function mintVote(uint256 _tokenId, uint8 _districtNo, uint32 _electionNo) public onlyOwner {\n        elections[_electionNo].voteToken.mint(address(this), _tokenId, _districtNo);\n\n    }\n    \n}",
  "sourcePath": "/Users/timothymuscat/Documents/MScThesis/BlockVote_ReactBox/contracts/ElectionController.sol",
  "compiler": {
    "name": "solc",
    "version": "0.6.2+commit.bacdbe57.Emscripten.clang"
  },
  "schemaVersion": "3.2.2",
  "updatedAt": "2020-09-21T08:53:10.745Z",
  "devdoc": {
    "methods": {
      "owner()": {
        "details": "Returns the address of the current owner."
      },
      "renounceOwnership()": {
        "details": "Leaves the contract without owner. It will not be possible to call `onlyOwner` functions anymore. Can only be called by the current owner.     * NOTE: Renouncing ownership will leave the contract without an owner, thereby removing any functionality that is only available to the owner."
      },
      "transferOwnership(address)": {
        "details": "Transfers ownership of the contract to a new account (`newOwner`). Can only be called by the current owner."
      }
    }
  },
  "userdoc": {
    "methods": {}
  }
}