{
  "contractName": "ElectionController",
  "abi": [
    {
      "inputs": [
        {
          "internalType": "uint8",
          "name": "_districtsNo",
          "type": "uint8"
        },
        {
          "internalType": "contract DistrictFactory",
          "name": "_districtFactory",
          "type": "address"
        },
        {
          "internalType": "contract VoteTokenFactory",
          "name": "_voteTokenFactory",
          "type": "address"
        }
      ],
      "stateMutability": "payable",
      "type": "constructor"
    },
    {
      "anonymous": false,
      "inputs": [
        {
          "indexed": true,
          "internalType": "address",
          "name": "previousOwner",
          "type": "address"
        },
        {
          "indexed": true,
          "internalType": "address",
          "name": "newOwner",
          "type": "address"
        }
      ],
      "name": "OwnershipTransferred",
      "type": "event"
    },
    {
      "inputs": [],
      "name": "districtsNo",
      "outputs": [
        {
          "internalType": "uint8",
          "name": "",
          "type": "uint8"
        }
      ],
      "stateMutability": "view",
      "type": "function"
    },
    {
      "inputs": [
        {
          "internalType": "uint256",
          "name": "",
          "type": "uint256"
        }
      ],
      "name": "elections",
      "outputs": [
        {
          "internalType": "string",
          "name": "name",
          "type": "string"
        },
        {
          "internalType": "uint256",
          "name": "voteStart",
          "type": "uint256"
        },
        {
          "internalType": "uint256",
          "name": "voteEnd",
          "type": "uint256"
        },
        {
          "internalType": "contract VoteToken",
          "name": "voteToken",
          "type": "address"
        }
      ],
      "stateMutability": "view",
      "type": "function"
    },
    {
      "inputs": [],
      "name": "owner",
      "outputs": [
        {
          "internalType": "address",
          "name": "",
          "type": "address"
        }
      ],
      "stateMutability": "view",
      "type": "function"
    },
    {
      "inputs": [],
      "name": "renounceOwnership",
      "outputs": [],
      "stateMutability": "nonpayable",
      "type": "function"
    },
    {
      "inputs": [
        {
          "internalType": "address",
          "name": "newOwner",
          "type": "address"
        }
      ],
      "name": "transferOwnership",
      "outputs": [],
      "stateMutability": "nonpayable",
      "type": "function"
    },
    {
      "inputs": [
        {
          "internalType": "string",
          "name": "_name",
          "type": "string"
        },
        {
          "internalType": "uint256",
          "name": "_voteStart",
          "type": "uint256"
        },
        {
          "internalType": "uint256",
          "name": "_voteEnd",
          "type": "uint256"
        },
        {
          "components": [
            {
              "internalType": "address",
              "name": "_address",
              "type": "address"
            },
            {
              "internalType": "uint8",
              "name": "party",
              "type": "uint8"
            },
            {
              "internalType": "uint8",
              "name": "districtNo",
              "type": "uint8"
            },
            {
              "internalType": "bool",
              "name": "elected",
              "type": "bool"
            },
            {
              "internalType": "bool",
              "name": "eliminated",
              "type": "bool"
            },
            {
              "internalType": "uint32",
              "name": "votes",
              "type": "uint32"
            }
          ],
          "internalType": "struct Shared.Candidate[][]",
          "name": "candidates",
          "type": "tuple[][]"
        }
      ],
      "name": "launchElection",
      "outputs": [],
      "stateMutability": "nonpayable",
      "type": "function"
    },
    {
      "inputs": [
        {
          "internalType": "address",
          "name": "_address",
          "type": "address"
        },
        {
          "internalType": "uint16",
          "name": "_election",
          "type": "uint16"
        }
      ],
      "name": "balanceOf",
      "outputs": [
        {
          "internalType": "uint256",
          "name": "",
          "type": "uint256"
        }
      ],
      "stateMutability": "view",
      "type": "function"
    },
    {
      "inputs": [
        {
          "internalType": "uint8",
          "name": "_election",
          "type": "uint8"
        },
        {
          "internalType": "uint8",
          "name": "_district",
          "type": "uint8"
        }
      ],
      "name": "getDistrictCandidateAddresses",
      "outputs": [
        {
          "internalType": "address[]",
          "name": "",
          "type": "address[]"
        }
      ],
      "stateMutability": "view",
      "type": "function"
    },
    {
      "inputs": [
        {
          "internalType": "address",
          "name": "_to",
          "type": "address"
        },
        {
          "internalType": "uint256",
          "name": "_tokenId",
          "type": "uint256"
        },
        {
          "internalType": "uint8",
          "name": "_districtNo",
          "type": "uint8"
        },
        {
          "internalType": "uint32",
          "name": "_electionNo",
          "type": "uint32"
        }
      ],
      "name": "mintVote",
      "outputs": [],
      "stateMutability": "nonpayable",
      "type": "function"
    },
    {
      "inputs": [
        {
          "internalType": "uint32",
          "name": "_electionNo",
          "type": "uint32"
        }
      ],
      "name": "endElection",
      "outputs": [
        {
          "internalType": "uint8",
          "name": "",
          "type": "uint8"
        }
      ],
      "stateMutability": "nonpayable",
      "type": "function"
    }
  ],
  "bytecode": "0x60806040526040516200265b3803806200265b8339818101604052620000299190810190620001cc565b60006200003b6200017f60201b60201c565b9050806000806101000a81548173ffffffffffffffffffffffffffffffffffffffff021916908373ffffffffffffffffffffffffffffffffffffffff1602179055508073ffffffffffffffffffffffffffffffffffffffff16600073ffffffffffffffffffffffffffffffffffffffff167f8be0079c531659141344cd1fd0a4f28419497f9722a3daafe3b4186f6b6457e060405160405180910390a35082600260006101000a81548160ff021916908360ff16021790555081600260016101000a81548173ffffffffffffffffffffffffffffffffffffffff021916908373ffffffffffffffffffffffffffffffffffffffff16021790555080600360006101000a81548173ffffffffffffffffffffffffffffffffffffffff021916908373ffffffffffffffffffffffffffffffffffffffff160217905550505050620002d9565b600033905090565b60008151905062000198816200028b565b92915050565b600081519050620001af81620002a5565b92915050565b600081519050620001c681620002bf565b92915050565b600080600060608486031215620001e257600080fd5b6000620001f286828701620001b5565b9350506020620002058682870162000187565b925050604062000218868287016200019e565b9150509250925092565b60006200022f826200025e565b9050919050565b6000620002438262000222565b9050919050565b6000620002578262000222565b9050919050565b600073ffffffffffffffffffffffffffffffffffffffff82169050919050565b600060ff82169050919050565b620002968162000236565b8114620002a257600080fd5b50565b620002b0816200024a565b8114620002bc57600080fd5b50565b620002ca816200027e565b8114620002d657600080fd5b50565b61237280620002e96000396000f3fe608060405234801561001057600080fd5b506004361061009e5760003560e01c80638da5cb5b116100665780638da5cb5b1461015c5780639e5576e71461017a578063c1e1ac0c146101aa578063e39c4078146101c6578063f2fde38b146101e45761009e565b8063100fe522146100a35780634a502c00146100d35780635e6fef01146100ef578063715018a6146101225780638827e05a1461012c575b600080fd5b6100bd60048036036100b89190810190611a51565b610200565b6040516100ca9190611e53565b60405180910390f35b6100ed60048036036100e8919081019061191a565b6102ea565b005b610109600480360361010491908101906119ad565b6108a4565b6040516101199493929190611ef0565b60405180910390f35b61012a610999565b005b610146600480360361014191908101906119ff565b610aee565b6040516101539190611f97565b60405180910390f35b610164610f5f565b6040516101719190611e01565b60405180910390f35b610194600480360361018f91908101906117bf565b610f88565b6040516101a19190611f7c565b60405180910390f35b6101c460048036036101bf91908101906117fb565b61105d565b005b6101ce6111ac565b6040516101db9190611f97565b60405180910390f35b6101fe60048036036101f99190810190611796565b6111bf565b005b60608060018460ff168154811061021357fe5b906000526020600020906006020160000160008460ff1660ff16815260200190815260200160002060009054906101000a900473ffffffffffffffffffffffffffffffffffffffff1673ffffffffffffffffffffffffffffffffffffffff16638155f7366040518163ffffffff1660e01b815260040160006040518083038186803b1580156102a157600080fd5b505afa1580156102b5573d6000803e3d6000fd5b505050506040513d6000823e3d601f19601f820116820180604052506102de919081019061185e565b90508091505092915050565b6102f2611383565b73ffffffffffffffffffffffffffffffffffffffff166000809054906101000a900473ffffffffffffffffffffffffffffffffffffffff1673ffffffffffffffffffffffffffffffffffffffff1614610380576040517f08c379a000000000000000000000000000000000000000000000000000000000815260040161037790611f5c565b60405180910390fd5b6000600360009054906101000a900473ffffffffffffffffffffffffffffffffffffffff1673ffffffffffffffffffffffffffffffffffffffff1663cda3c4998686866040518463ffffffff1660e01b81526004016103e193929190611eb2565b602060405180830381600087803b1580156103fb57600080fd5b505af115801561040f573d6000803e3d6000fd5b505050506040513d601f19601f8201168201806040525061043391908101906118f1565b9050600160405180608001604052808781526020018681526020018581526020018373ffffffffffffffffffffffffffffffffffffffff16815250908060018154018082558091505060019003906000526020600020906006020160009091909190915060008201518160010190805190602001906104b392919061138b565b50602082015181600201556040820151816003015560608201518160040160006101000a81548173ffffffffffffffffffffffffffffffffffffffff021916908373ffffffffffffffffffffffffffffffffffffffff16021790555050506000600190505b600260009054906101000a900460ff1660ff168160ff161161089c576000600260019054906101000a900473ffffffffffffffffffffffffffffffffffffffff1673ffffffffffffffffffffffffffffffffffffffff1663d6fb2bce83866001860360ff168151811061058757fe5b60200260200101516040518363ffffffff1660e01b81526004016105ac929190611fb2565b602060405180830381600087803b1580156105c657600080fd5b505af11580156105da573d6000803e3d6000fd5b505050506040513d601f19601f820116820180604052506105fe91908101906118c8565b9050806001808080549050038154811061061457fe5b906000526020600020906006020160000160008460ff1660ff16815260200190815260200160002060006101000a81548173ffffffffffffffffffffffffffffffffffffffff021916908373ffffffffffffffffffffffffffffffffffffffff1602179055506001808080549050038154811061068d57fe5b906000526020600020906006020160040160009054906101000a900473ffffffffffffffffffffffffffffffffffffffff1673ffffffffffffffffffffffffffffffffffffffff1663c0e79a11600180808054905003815481106106ed57fe5b906000526020600020906006020160000160008560ff1660ff16815260200190815260200160002060009054906101000a900473ffffffffffffffffffffffffffffffffffffffff166040518263ffffffff1660e01b81526004016107529190611e01565b600060405180830381600087803b15801561076c57600080fd5b505af1158015610780573d6000803e3d6000fd5b505050506001808080549050038154811061079757fe5b906000526020600020906006020160000160008360ff1660ff16815260200190815260200160002060009054906101000a900473ffffffffffffffffffffffffffffffffffffffff1673ffffffffffffffffffffffffffffffffffffffff16634d23aaa76001808080549050038154811061080e57fe5b906000526020600020906006020160040160009054906101000a900473ffffffffffffffffffffffffffffffffffffffff166040518263ffffffff1660e01b815260040161085c9190611e75565b600060405180830381600087803b15801561087657600080fd5b505af115801561088a573d6000803e3d6000fd5b50505050508080600101915050610518565b505050505050565b600181815481106108b157fe5b9060005260206000209060060201600091509050806001018054600181600116156101000203166002900480601f01602080910402602001604051908101604052809291908181526020018280546001816001161561010002031660029004801561095d5780601f106109325761010080835404028352916020019161095d565b820191906000526020600020905b81548152906001019060200180831161094057829003601f168201915b5050505050908060020154908060030154908060040160009054906101000a900473ffffffffffffffffffffffffffffffffffffffff16905084565b6109a1611383565b73ffffffffffffffffffffffffffffffffffffffff166000809054906101000a900473ffffffffffffffffffffffffffffffffffffffff1673ffffffffffffffffffffffffffffffffffffffff1614610a2f576040517f08c379a0000000000000000000000000000000000000000000000000000000008152600401610a2690611f5c565b60405180910390fd5b600073ffffffffffffffffffffffffffffffffffffffff166000809054906101000a900473ffffffffffffffffffffffffffffffffffffffff1673ffffffffffffffffffffffffffffffffffffffff167f8be0079c531659141344cd1fd0a4f28419497f9722a3daafe3b4186f6b6457e060405160405180910390a360008060006101000a81548173ffffffffffffffffffffffffffffffffffffffff021916908373ffffffffffffffffffffffffffffffffffffffff160217905550565b6000610af8611383565b73ffffffffffffffffffffffffffffffffffffffff166000809054906101000a900473ffffffffffffffffffffffffffffffffffffffff1673ffffffffffffffffffffffffffffffffffffffff1614610b86576040517f08c379a0000000000000000000000000000000000000000000000000000000008152600401610b7d90611f5c565b60405180910390fd5b600060018363ffffffff1681548110610b9b57fe5b906000526020600020906006020190506000806000600190505b600260009054906101000a900460ff1660ff168160ff1611610f5357606081604051602001610be49190611ddb565b6040516020818303038152906040529050600115158560000160008460ff1660ff16815260200190815260200160002060009054906101000a900473ffffffffffffffffffffffffffffffffffffffff1673ffffffffffffffffffffffffffffffffffffffff1663f937f9106040518163ffffffff1660e01b815260040160206040518083038186803b158015610c7a57600080fd5b505afa158015610c8e573d6000803e3d6000fd5b505050506040513d601f19601f82011682018060405250610cb2919081019061189f565b1515148190610cf7576040517f08c379a0000000000000000000000000000000000000000000000000000000008152600401610cee9190611e90565b60405180910390fd5b508460000160008360ff1660ff16815260200190815260200160002060009054906101000a900473ffffffffffffffffffffffffffffffffffffffff1673ffffffffffffffffffffffffffffffffffffffff1663b647990a6040518163ffffffff1660e01b8152600401600060405180830381600087803b158015610d7b57600080fd5b505af1158015610d8f573d6000803e3d6000fd5b5050505060008090505b60008660000160008560ff1660ff16815260200190815260200160002060009054906101000a900473ffffffffffffffffffffffffffffffffffffffff1673ffffffffffffffffffffffffffffffffffffffff16636d89c6ab836040518263ffffffff1660e01b8152600401610e0f9190611f97565b60206040518083038186803b158015610e2757600080fd5b505afa158015610e3b573d6000803e3d6000fd5b505050506040513d601f19601f82011682018060405250610e5f9190810190611a28565b905060008163ffffffff161415610e765750610f44565b808760050160008460ff1660ff16815260200190815260200160002060008282829054906101000a900463ffffffff160192506101000a81548163ffffffff021916908363ffffffff1602179055508463ffffffff168760050160008460ff1660ff16815260200190815260200160002060009054906101000a900463ffffffff1663ffffffff161115610f36578660050160008360ff1660ff16815260200190815260200160002060009054906101000a900463ffffffff1694508195505b508080600101915050610d99565b50508080600101915050610bb5565b50819350505050919050565b60008060009054906101000a900473ffffffffffffffffffffffffffffffffffffffff16905090565b600060018261ffff1681548110610f9b57fe5b906000526020600020906006020160040160009054906101000a900473ffffffffffffffffffffffffffffffffffffffff1673ffffffffffffffffffffffffffffffffffffffff166370a08231846040518263ffffffff1660e01b81526004016110059190611e01565b60206040518083038186803b15801561101d57600080fd5b505afa158015611031573d6000803e3d6000fd5b505050506040513d601f19601f8201168201806040525061105591908101906119d6565b905092915050565b611065611383565b73ffffffffffffffffffffffffffffffffffffffff166000809054906101000a900473ffffffffffffffffffffffffffffffffffffffff1673ffffffffffffffffffffffffffffffffffffffff16146110f3576040517f08c379a00000000000000000000000000000000000000000000000000000000081526004016110ea90611f5c565b60405180910390fd5b60018163ffffffff168154811061110657fe5b906000526020600020906006020160040160009054906101000a900473ffffffffffffffffffffffffffffffffffffffff1673ffffffffffffffffffffffffffffffffffffffff16636112e8ac8585856040518463ffffffff1660e01b815260040161117493929190611e1c565b600060405180830381600087803b15801561118e57600080fd5b505af11580156111a2573d6000803e3d6000fd5b5050505050505050565b600260009054906101000a900460ff1681565b6111c7611383565b73ffffffffffffffffffffffffffffffffffffffff166000809054906101000a900473ffffffffffffffffffffffffffffffffffffffff1673ffffffffffffffffffffffffffffffffffffffff1614611255576040517f08c379a000000000000000000000000000000000000000000000000000000000815260040161124c90611f5c565b60405180910390fd5b600073ffffffffffffffffffffffffffffffffffffffff168173ffffffffffffffffffffffffffffffffffffffff1614156112c5576040517f08c379a00000000000000000000000000000000000000000000000000000000081526004016112bc90611f3c565b60405180910390fd5b8073ffffffffffffffffffffffffffffffffffffffff166000809054906101000a900473ffffffffffffffffffffffffffffffffffffffff1673ffffffffffffffffffffffffffffffffffffffff167f8be0079c531659141344cd1fd0a4f28419497f9722a3daafe3b4186f6b6457e060405160405180910390a3806000806101000a81548173ffffffffffffffffffffffffffffffffffffffff021916908373ffffffffffffffffffffffffffffffffffffffff16021790555050565b600033905090565b828054600181600116156101000203166002900490600052602060002090601f016020900481019282601f106113cc57805160ff19168380011785556113fa565b828001600101855582156113fa579182015b828111156113f95782518255916020019190600101906113de565b5b509050611407919061140b565b5090565b61142d91905b80821115611429576000816000905550600101611411565b5090565b90565b60008135905061143f81612284565b92915050565b60008151905061145481612284565b92915050565b600082601f83011261146b57600080fd5b815161147e6114798261200f565b611fe2565b915081818352602084019350602081019050838560208402820111156114a357600080fd5b60005b838110156114d357816114b98882611445565b8452602084019350602083019250506001810190506114a6565b5050505092915050565b600082601f8301126114ee57600080fd5b81356115016114fc82612037565b611fe2565b9150818183526020840193506020810190508360005b83811015611547578135860161152d8882611551565b845260208401935060208301925050600181019050611517565b5050505092915050565b600082601f83011261156257600080fd5b81356115756115708261205f565b611fe2565b915081818352602084019350602081019050838560c084028201111561159a57600080fd5b60005b838110156115ca57816115b0888261167c565b845260208401935060c0830192505060018101905061159d565b5050505092915050565b6000813590506115e38161229b565b92915050565b6000815190506115f88161229b565b92915050565b60008151905061160d816122b2565b92915050565b600081519050611622816122c9565b92915050565b600082601f83011261163957600080fd5b813561164c61164782612087565b611fe2565b9150808252602083016020830185838301111561166857600080fd5b611673838284612212565b50505092915050565b600060c0828403121561168e57600080fd5b61169860c0611fe2565b905060006116a884828501611430565b60008301525060206116bc84828501611781565b60208301525060406116d084828501611781565b60408301525060606116e4848285016115d4565b60608301525060806116f8848285016115d4565b60808301525060a061170c84828501611757565b60a08301525092915050565b600081359050611727816122e0565b92915050565b60008135905061173c816122f7565b92915050565b600081519050611751816122f7565b92915050565b6000813590506117668161230e565b92915050565b60008151905061177b8161230e565b92915050565b60008135905061179081612325565b92915050565b6000602082840312156117a857600080fd5b60006117b684828501611430565b91505092915050565b600080604083850312156117d257600080fd5b60006117e085828601611430565b92505060206117f185828601611718565b9150509250929050565b6000806000806080858703121561181157600080fd5b600061181f87828801611430565b94505060206118308782880161172d565b935050604061184187828801611781565b925050606061185287828801611757565b91505092959194509250565b60006020828403121561187057600080fd5b600082015167ffffffffffffffff81111561188a57600080fd5b6118968482850161145a565b91505092915050565b6000602082840312156118b157600080fd5b60006118bf848285016115e9565b91505092915050565b6000602082840312156118da57600080fd5b60006118e8848285016115fe565b91505092915050565b60006020828403121561190357600080fd5b600061191184828501611613565b91505092915050565b6000806000806080858703121561193057600080fd5b600085013567ffffffffffffffff81111561194a57600080fd5b61195687828801611628565b94505060206119678782880161172d565b93505060406119788782880161172d565b925050606085013567ffffffffffffffff81111561199557600080fd5b6119a1878288016114dd565b91505092959194509250565b6000602082840312156119bf57600080fd5b60006119cd8482850161172d565b91505092915050565b6000602082840312156119e857600080fd5b60006119f684828501611742565b91505092915050565b600060208284031215611a1157600080fd5b6000611a1f84828501611757565b91505092915050565b600060208284031215611a3a57600080fd5b6000611a488482850161176c565b91505092915050565b60008060408385031215611a6457600080fd5b6000611a7285828601611781565b9250506020611a8385828601611781565b9150509250929050565b6000611a998383611abd565b60208301905092915050565b6000611ab18383611d0d565b60c08301905092915050565b611ac681612157565b82525050565b611ad581612157565b82525050565b6000611ae6826120d3565b611af08185612119565b9350611afb836120b3565b8060005b83811015611b2c578151611b138882611a8d565b9750611b1e836120ff565b925050600181019050611aff565b5085935050505092915050565b6000611b44826120de565b611b4e818561212a565b9350611b59836120c3565b8060005b83811015611b8a578151611b718882611aa5565b9750611b7c8361210c565b925050600181019050611b5d565b5085935050505092915050565b611ba081612169565b82525050565b611baf816121ee565b82525050565b6000611bc0826120f4565b611bca818561213b565b9350611bda818560208601612221565b611be381612266565b840191505092915050565b6000611bf9826120e9565b611c03818561213b565b9350611c13818560208601612221565b611c1c81612266565b840191505092915050565b6000611c3460268361213b565b91507f4f776e61626c653a206e6577206f776e657220697320746865207a65726f206160008301527f64647265737300000000000000000000000000000000000000000000000000006020830152604082019050919050565b6000611c9a60148361214c565b91507f4861736e277420436f756e746564205965743a200000000000000000000000006000830152601482019050919050565b6000611cda60208361213b565b91507f4f776e61626c653a2063616c6c6572206973206e6f7420746865206f776e65726000830152602082019050919050565b60c082016000820151611d236000850182611abd565b506020820151611d366020850182611da6565b506040820151611d496040850182611da6565b506060820151611d5c6060850182611b97565b506080820151611d6f6080850182611b97565b5060a0820151611d8260a0850182611d97565b50505050565b611d91816121c7565b82525050565b611da0816121d1565b82525050565b611daf816121e1565b82525050565b611dbe816121e1565b82525050565b611dd5611dd0826121e1565b612254565b82525050565b6000611de682611c8d565b9150611df28284611dc4565b60018201915081905092915050565b6000602082019050611e166000830184611acc565b92915050565b6000606082019050611e316000830186611acc565b611e3e6020830185611d88565b611e4b6040830184611db5565b949350505050565b60006020820190508181036000830152611e6d8184611adb565b905092915050565b6000602082019050611e8a6000830184611ba6565b92915050565b60006020820190508181036000830152611eaa8184611bb5565b905092915050565b60006060820190508181036000830152611ecc8186611bb5565b9050611edb6020830185611d88565b611ee86040830184611d88565b949350505050565b60006080820190508181036000830152611f0a8187611bee565b9050611f196020830186611d88565b611f266040830185611d88565b611f336060830184611ba6565b95945050505050565b60006020820190508181036000830152611f5581611c27565b9050919050565b60006020820190508181036000830152611f7581611ccd565b9050919050565b6000602082019050611f916000830184611d88565b92915050565b6000602082019050611fac6000830184611db5565b92915050565b6000604082019050611fc76000830185611db5565b8181036020830152611fd98184611b39565b90509392505050565b6000604051905081810181811067ffffffffffffffff8211171561200557600080fd5b8060405250919050565b600067ffffffffffffffff82111561202657600080fd5b602082029050602081019050919050565b600067ffffffffffffffff82111561204e57600080fd5b602082029050602081019050919050565b600067ffffffffffffffff82111561207657600080fd5b602082029050602081019050919050565b600067ffffffffffffffff82111561209e57600080fd5b601f19601f8301169050602081019050919050565b6000819050602082019050919050565b6000819050602082019050919050565b600081519050919050565b600081519050919050565b600081519050919050565b600081519050919050565b6000602082019050919050565b6000602082019050919050565b600082825260208201905092915050565b600082825260208201905092915050565b600082825260208201905092915050565b600081905092915050565b6000612162826121a7565b9050919050565b60008115159050919050565b600061218082612157565b9050919050565b600061219282612157565b9050919050565b600061ffff82169050919050565b600073ffffffffffffffffffffffffffffffffffffffff82169050919050565b6000819050919050565b600063ffffffff82169050919050565b600060ff82169050919050565b60006121f982612200565b9050919050565b600061220b826121a7565b9050919050565b82818337600083830152505050565b60005b8381101561223f578082015181840152602081019050612224565b8381111561224e576000848401525b50505050565b600061225f82612277565b9050919050565b6000601f19601f8301169050919050565b60008160f81b9050919050565b61228d81612157565b811461229857600080fd5b50565b6122a481612169565b81146122af57600080fd5b50565b6122bb81612175565b81146122c657600080fd5b50565b6122d281612187565b81146122dd57600080fd5b50565b6122e981612199565b81146122f457600080fd5b50565b612300816121c7565b811461230b57600080fd5b50565b612317816121d1565b811461232257600080fd5b50565b61232e816121e1565b811461233957600080fd5b5056fea2646970667358221220971a257da685640e3029d868083aa565ee09b08630d60cfe835b00e97996abea64736f6c63430006020033",
  "source": "pragma solidity ^0.6.0;\npragma experimental ABIEncoderV2;\n\nimport \"@openzeppelin/contracts/access/Ownable.sol\";\nimport \"./VoteToken.sol\";\nimport \"./Shared.sol\";\nimport \"./District.sol\";\nimport \"./DistrictFactory.sol\";\nimport \"./VoteTokenFactory.sol\";\n\n\ncontract ElectionController is Ownable{\n    Shared.Election[] public elections;\n    uint8 public districtsNo;\n    DistrictFactory districtFactory;\n    VoteTokenFactory voteTokenFactory;\n    \n    constructor(uint8 _districtsNo, DistrictFactory _districtFactory, VoteTokenFactory _voteTokenFactory) Ownable() public payable{\n        districtsNo = _districtsNo;\n        districtFactory = _districtFactory;\n        voteTokenFactory = _voteTokenFactory;\n    }\n    \n    function launchElection (\n        string memory _name,\n        uint _voteStart,\n        uint _voteEnd,\n        Shared.Candidate[][] memory candidates) public onlyOwner{\n\n        VoteToken _voteToken = voteTokenFactory.create(_name,_voteStart,_voteEnd);\n        elections.push(Shared.Election({name: _name, voteStart: _voteStart, voteEnd: _voteEnd, voteToken: _voteToken }));\n        \n        \n        for(uint8 i = 1 ; i <= districtsNo; i++){\n            District d = districtFactory.create(i, candidates[i-1]);\n            elections[elections.length-1].districtContracts[i] = d;\n            elections[elections.length-1].voteToken.setAllowed(address(elections[elections.length-1].districtContracts[i]));\n            elections[elections.length-1].districtContracts[i].setVoteToken(elections[elections.length-1].voteToken);\n        \n        }\n \n    }\n    \n    function balanceOf(address _address, uint16 _election) public view returns(uint256){\n        return elections[_election].voteToken.balanceOf(_address);\n    }\n\n    function getDistrictCandidateAddresses(uint8 _election,uint8 _district)  public view returns(address[] memory){\n        address[] memory addresses = elections[_election].districtContracts[_district].getCandidateAddresses();\n        return addresses;\n    }\n\n    function mintVote(address _to, uint256 _tokenId, uint8 _districtNo, uint32 _electionNo) public onlyOwner {\n        elections[_electionNo].voteToken.mint(_to, _tokenId, _districtNo);\n    }\n    \n    function endElection(uint32 _electionNo) public onlyOwner returns(uint8){\n        Shared.Election storage election = elections[_electionNo]; //storage in order to copy by reference.\n        uint8 partyWithMostVotesIndex;\n        uint32 mostVotes;\n        \n        for(uint8 i = 1; i <= districtsNo; i++){\n            string memory _districtmsg = string(abi.encodePacked(\"Hasn't Counted Yet: \",i));\n            require(election.districtContracts[i].counted() == true, _districtmsg);\n            election.districtContracts[i].countVotes();\n            //election.districtContracts[i].getAllElected();\n            \n            for(uint8 j = 0; ; j++){\n                \n                uint32 _votes = uint32(election.districtContracts[i].party1stCountVotes(j));\n                \n                if(_votes == 0)\n                    break;\n                \n                election.party1stCountVotes[j] += _votes;\n                if(election.party1stCountVotes[j] > mostVotes){\n                    mostVotes = election.party1stCountVotes[j];\n                    partyWithMostVotesIndex = j;\n                }\n            }\n        }\n        \n        return partyWithMostVotesIndex;\n    }\n    \n}",
  "sourcePath": "/Users/timothymuscat/Documents/MScThesis/BlockVote_ReactBox/contracts/ElectionController.sol",
  "compiler": {
    "name": "solc",
    "version": "0.6.2+commit.bacdbe57.Emscripten.clang"
  },
  "schemaVersion": "3.2.2",
  "updatedAt": "2020-09-05T11:37:03.218Z",
  "devdoc": {
    "methods": {
      "owner()": {
        "details": "Returns the address of the current owner."
      },
      "renounceOwnership()": {
        "details": "Leaves the contract without owner. It will not be possible to call `onlyOwner` functions anymore. Can only be called by the current owner.     * NOTE: Renouncing ownership will leave the contract without an owner, thereby removing any functionality that is only available to the owner."
      },
      "transferOwnership(address)": {
        "details": "Transfers ownership of the contract to a new account (`newOwner`). Can only be called by the current owner."
      }
    }
  },
  "userdoc": {
    "methods": {}
  }
}