{
  "contractName": "Main",
  "abi": [
    {
      "inputs": [
        {
          "internalType": "uint8",
          "name": "_districtsNo",
          "type": "uint8"
        },
        {
          "internalType": "contract DistrictFactory",
          "name": "_districtFactory",
          "type": "address"
        },
        {
          "internalType": "contract VoteTokenFactory",
          "name": "_voteTokenFactory",
          "type": "address"
        }
      ],
      "stateMutability": "payable",
      "type": "constructor",
      "payable": true
    },
    {
      "anonymous": false,
      "inputs": [
        {
          "indexed": true,
          "internalType": "address",
          "name": "previousOwner",
          "type": "address"
        },
        {
          "indexed": true,
          "internalType": "address",
          "name": "newOwner",
          "type": "address"
        }
      ],
      "name": "OwnershipTransferred",
      "type": "event"
    },
    {
      "inputs": [],
      "name": "districtsNo",
      "outputs": [
        {
          "internalType": "uint8",
          "name": "",
          "type": "uint8"
        }
      ],
      "stateMutability": "view",
      "type": "function",
      "constant": true
    },
    {
      "inputs": [],
      "name": "owner",
      "outputs": [
        {
          "internalType": "address",
          "name": "",
          "type": "address"
        }
      ],
      "stateMutability": "view",
      "type": "function",
      "constant": true
    },
    {
      "inputs": [],
      "name": "renounceOwnership",
      "outputs": [],
      "stateMutability": "nonpayable",
      "type": "function"
    },
    {
      "inputs": [
        {
          "internalType": "address",
          "name": "newOwner",
          "type": "address"
        }
      ],
      "name": "transferOwnership",
      "outputs": [],
      "stateMutability": "nonpayable",
      "type": "function"
    },
    {
      "inputs": [
        {
          "internalType": "string",
          "name": "_name",
          "type": "string"
        },
        {
          "internalType": "uint256",
          "name": "_voteStart",
          "type": "uint256"
        },
        {
          "internalType": "uint256",
          "name": "_voteEnd",
          "type": "uint256"
        },
        {
          "components": [
            {
              "internalType": "address",
              "name": "_address",
              "type": "address"
            },
            {
              "internalType": "uint8",
              "name": "party",
              "type": "uint8"
            },
            {
              "internalType": "uint8",
              "name": "district",
              "type": "uint8"
            },
            {
              "internalType": "bool",
              "name": "elected",
              "type": "bool"
            },
            {
              "internalType": "bool",
              "name": "eliminated",
              "type": "bool"
            }
          ],
          "internalType": "struct Shared.Candidate[][]",
          "name": "candidates",
          "type": "tuple[][]"
        }
      ],
      "name": "launchElection",
      "outputs": [],
      "stateMutability": "nonpayable",
      "type": "function"
    },
    {
      "inputs": [
        {
          "internalType": "address",
          "name": "_to",
          "type": "address"
        },
        {
          "internalType": "uint256",
          "name": "_tokenId",
          "type": "uint256"
        },
        {
          "internalType": "uint8",
          "name": "_districtNo",
          "type": "uint8"
        },
        {
          "internalType": "uint32",
          "name": "_electionNo",
          "type": "uint32"
        }
      ],
      "name": "mintVote",
      "outputs": [],
      "stateMutability": "nonpayable",
      "type": "function"
    },
    {
      "inputs": [
        {
          "internalType": "uint32",
          "name": "_electionNo",
          "type": "uint32"
        }
      ],
      "name": "endElection",
      "outputs": [
        {
          "internalType": "uint8",
          "name": "",
          "type": "uint8"
        }
      ],
      "stateMutability": "nonpayable",
      "type": "function"
    }
  ],
  "bytecode": "0x608060405260405162001a7b38038062001a7b8339818101604052620000299190810190620001cc565b60006200003b6200017f60201b60201c565b9050806000806101000a81548173ffffffffffffffffffffffffffffffffffffffff021916908373ffffffffffffffffffffffffffffffffffffffff1602179055508073ffffffffffffffffffffffffffffffffffffffff16600073ffffffffffffffffffffffffffffffffffffffff167f8be0079c531659141344cd1fd0a4f28419497f9722a3daafe3b4186f6b6457e060405160405180910390a35082600260006101000a81548160ff021916908360ff16021790555081600260016101000a81548173ffffffffffffffffffffffffffffffffffffffff021916908373ffffffffffffffffffffffffffffffffffffffff16021790555080600360006101000a81548173ffffffffffffffffffffffffffffffffffffffff021916908373ffffffffffffffffffffffffffffffffffffffff160217905550505050620002d9565b600033905090565b60008151905062000198816200028b565b92915050565b600081519050620001af81620002a5565b92915050565b600081519050620001c681620002bf565b92915050565b600080600060608486031215620001e257600080fd5b6000620001f286828701620001b5565b9350506020620002058682870162000187565b925050604062000218868287016200019e565b9150509250925092565b60006200022f826200025e565b9050919050565b6000620002438262000222565b9050919050565b6000620002578262000222565b9050919050565b600073ffffffffffffffffffffffffffffffffffffffff82169050919050565b600060ff82169050919050565b620002968162000236565b8114620002a257600080fd5b50565b620002b0816200024a565b8114620002bc57600080fd5b50565b620002ca816200027e565b8114620002d657600080fd5b50565b61179280620002e96000396000f3fe608060405234801561001057600080fd5b506004361061007d5760003560e01c80638da5cb5b1161005b5780638da5cb5b146100d8578063c1e1ac0c146100f6578063e39c407814610112578063f2fde38b146101305761007d565b80630b9fa18914610082578063715018a61461009e5780638827e05a146100a8575b600080fd5b61009c60048036036100979190810190611089565b61014c565b005b6100a661052c565b005b6100c260048036036100bd9190810190611145565b610681565b6040516100cf9190611464565b60405180910390f35b6100e06109ca565b6040516100ed9190611394565b60405180910390f35b610110600480360361010b9190810190610fd4565b6109f3565b005b61011a610aac565b6040516101279190611464565b60405180910390f35b61014a60048036036101459190810190610fab565b610abf565b005b610154610c83565b73ffffffffffffffffffffffffffffffffffffffff166000809054906101000a900473ffffffffffffffffffffffffffffffffffffffff1673ffffffffffffffffffffffffffffffffffffffff16146101e2576040517f08c379a00000000000000000000000000000000000000000000000000000000081526004016101d990611444565b60405180910390fd5b60016040518060800160405280868152602001858152602001848152602001600360009054906101000a900473ffffffffffffffffffffffffffffffffffffffff1673ffffffffffffffffffffffffffffffffffffffff1663cda3c4998888886040518463ffffffff1660e01b8152600401610260939291906113e6565b602060405180830381600087803b15801561027a57600080fd5b505af115801561028e573d6000803e3d6000fd5b505050506040513d601f19601f820116820180604052506102b29190810190611060565b73ffffffffffffffffffffffffffffffffffffffff1681525090806001815401808255809150506001900390600052602060002090600602016000909190919091506000820151816000019080519060200190610310929190610c8b565b50602082015181600101556040820151816002015560608201518160030160006101000a81548173ffffffffffffffffffffffffffffffffffffffff021916908373ffffffffffffffffffffffffffffffffffffffff16021790555050506000600190505b600260009054906101000a900460ff1660ff168160ff161161052557600260019054906101000a900473ffffffffffffffffffffffffffffffffffffffff1673ffffffffffffffffffffffffffffffffffffffff166312d5713782846001850360ff16815181106103e257fe5b6020026020010151600180808054905003815481106103fd57fe5b906000526020600020906006020160030160009054906101000a900473ffffffffffffffffffffffffffffffffffffffff166040518463ffffffff1660e01b815260040161044d9392919061147f565b602060405180830381600087803b15801561046757600080fd5b505af115801561047b573d6000803e3d6000fd5b505050506040513d601f19601f8201168201806040525061049f9190810190611037565b600180808054905003815481106104b257fe5b906000526020600020906006020160050160008360ff1660ff16815260200190815260200160002060006101000a81548173ffffffffffffffffffffffffffffffffffffffff021916908373ffffffffffffffffffffffffffffffffffffffff1602179055508080600101915050610375565b5050505050565b610534610c83565b73ffffffffffffffffffffffffffffffffffffffff166000809054906101000a900473ffffffffffffffffffffffffffffffffffffffff1673ffffffffffffffffffffffffffffffffffffffff16146105c2576040517f08c379a00000000000000000000000000000000000000000000000000000000081526004016105b990611444565b60405180910390fd5b600073ffffffffffffffffffffffffffffffffffffffff166000809054906101000a900473ffffffffffffffffffffffffffffffffffffffff1673ffffffffffffffffffffffffffffffffffffffff167f8be0079c531659141344cd1fd0a4f28419497f9722a3daafe3b4186f6b6457e060405160405180910390a360008060006101000a81548173ffffffffffffffffffffffffffffffffffffffff021916908373ffffffffffffffffffffffffffffffffffffffff160217905550565b600061068b610c83565b73ffffffffffffffffffffffffffffffffffffffff166000809054906101000a900473ffffffffffffffffffffffffffffffffffffffff1673ffffffffffffffffffffffffffffffffffffffff1614610719576040517f08c379a000000000000000000000000000000000000000000000000000000000815260040161071090611444565b60405180910390fd5b600060018363ffffffff168154811061072e57fe5b906000526020600020906006020190506000806000600190505b600260009054906101000a900460ff1660ff168160ff16116109be578360050160008260ff1660ff16815260200190815260200160002060009054906101000a900473ffffffffffffffffffffffffffffffffffffffff1673ffffffffffffffffffffffffffffffffffffffff166306661abd6040518163ffffffff1660e01b8152600401600060405180830381600087803b1580156107e757600080fd5b505af11580156107fb573d6000803e3d6000fd5b5050505060008090505b60008560050160008460ff1660ff16815260200190815260200160002060009054906101000a900473ffffffffffffffffffffffffffffffffffffffff1673ffffffffffffffffffffffffffffffffffffffff16636d89c6ab836040518263ffffffff1660e01b815260040161087b9190611464565b60206040518083038186803b15801561089357600080fd5b505afa1580156108a7573d6000803e3d6000fd5b505050506040513d601f19601f820116820180604052506108cb919081019061111c565b905060008163ffffffff1614156108e257506109b0565b808660040160008460ff1660ff16815260200190815260200160002060008282829054906101000a900463ffffffff160192506101000a81548163ffffffff021916908363ffffffff1602179055508363ffffffff168660040160008460ff1660ff16815260200190815260200160002060009054906101000a900463ffffffff1663ffffffff1611156109a2578560040160008360ff1660ff16815260200190815260200160002060009054906101000a900463ffffffff1693508194505b508080600101915050610805565b508080600101915050610748565b50819350505050919050565b60008060009054906101000a900473ffffffffffffffffffffffffffffffffffffffff16905090565b60018163ffffffff1681548110610a0657fe5b906000526020600020906006020160030160009054906101000a900473ffffffffffffffffffffffffffffffffffffffff1673ffffffffffffffffffffffffffffffffffffffff16636112e8ac8585856040518463ffffffff1660e01b8152600401610a74939291906113af565b600060405180830381600087803b158015610a8e57600080fd5b505af1158015610aa2573d6000803e3d6000fd5b5050505050505050565b600260009054906101000a900460ff1681565b610ac7610c83565b73ffffffffffffffffffffffffffffffffffffffff166000809054906101000a900473ffffffffffffffffffffffffffffffffffffffff1673ffffffffffffffffffffffffffffffffffffffff1614610b55576040517f08c379a0000000000000000000000000000000000000000000000000000000008152600401610b4c90611444565b60405180910390fd5b600073ffffffffffffffffffffffffffffffffffffffff168173ffffffffffffffffffffffffffffffffffffffff161415610bc5576040517f08c379a0000000000000000000000000000000000000000000000000000000008152600401610bbc90611424565b60405180910390fd5b8073ffffffffffffffffffffffffffffffffffffffff166000809054906101000a900473ffffffffffffffffffffffffffffffffffffffff1673ffffffffffffffffffffffffffffffffffffffff167f8be0079c531659141344cd1fd0a4f28419497f9722a3daafe3b4186f6b6457e060405160405180910390a3806000806101000a81548173ffffffffffffffffffffffffffffffffffffffff021916908373ffffffffffffffffffffffffffffffffffffffff16021790555050565b600033905090565b828054600181600116156101000203166002900490600052602060002090601f016020900481019282601f10610ccc57805160ff1916838001178555610cfa565b82800160010185558215610cfa579182015b82811115610cf9578251825591602001919060010190610cde565b5b509050610d079190610d0b565b5090565b610d2d91905b80821115610d29576000816000905550600101610d11565b5090565b90565b600081359050610d3f816116bb565b92915050565b600082601f830112610d5657600080fd5b8135610d69610d64826114ea565b6114bd565b9150818183526020840193506020810190508360005b83811015610daf5781358601610d958882610db9565b845260208401935060208301925050600181019050610d7f565b5050505092915050565b600082601f830112610dca57600080fd5b8135610ddd610dd882611512565b6114bd565b915081818352602084019350602081019050838560a0840282011115610e0257600080fd5b60005b83811015610e325781610e188882610ecf565b845260208401935060a08301925050600181019050610e05565b5050505092915050565b600081359050610e4b816116d2565b92915050565b600081519050610e60816116e9565b92915050565b600081519050610e7581611700565b92915050565b600082601f830112610e8c57600080fd5b8135610e9f610e9a8261153a565b6114bd565b91508082526020830160208301858383011115610ebb57600080fd5b610ec6838284611668565b50505092915050565b600060a08284031215610ee157600080fd5b610eeb60a06114bd565b90506000610efb84828501610d30565b6000830152506020610f0f84828501610f96565b6020830152506040610f2384828501610f96565b6040830152506060610f3784828501610e3c565b6060830152506080610f4b84828501610e3c565b60808301525092915050565b600081359050610f6681611717565b92915050565b600081519050610f7b81611717565b92915050565b600081359050610f908161172e565b92915050565b600081359050610fa581611745565b92915050565b600060208284031215610fbd57600080fd5b6000610fcb84828501610d30565b91505092915050565b60008060008060808587031215610fea57600080fd5b6000610ff887828801610d30565b945050602061100987828801610f57565b935050604061101a87828801610f96565b925050606061102b87828801610f81565b91505092959194509250565b60006020828403121561104957600080fd5b600061105784828501610e51565b91505092915050565b60006020828403121561107257600080fd5b600061108084828501610e66565b91505092915050565b6000806000806080858703121561109f57600080fd5b600085013567ffffffffffffffff8111156110b957600080fd5b6110c587828801610e7b565b94505060206110d687828801610f57565b93505060406110e787828801610f57565b925050606085013567ffffffffffffffff81111561110457600080fd5b61111087828801610d45565b91505092959194509250565b60006020828403121561112e57600080fd5b600061113c84828501610f6c565b91505092915050565b60006020828403121561115757600080fd5b600061116584828501610f81565b91505092915050565b600061117a83836112ff565b60a08301905092915050565b61118f816115bb565b82525050565b61119e816115bb565b82525050565b60006111af82611576565b6111b98185611599565b93506111c483611566565b8060005b838110156111f55781516111dc888261116e565b97506111e78361158c565b9250506001810190506111c8565b5085935050505092915050565b61120b816115cd565b82525050565b61121a81611644565b82525050565b600061122b82611581565b61123581856115aa565b9350611245818560208601611677565b61124e816116aa565b840191505092915050565b60006112666026836115aa565b91507f4f776e61626c653a206e6577206f776e657220697320746865207a65726f206160008301527f64647265737300000000000000000000000000000000000000000000000000006020830152604082019050919050565b60006112cc6020836115aa565b91507f4f776e61626c653a2063616c6c6572206973206e6f7420746865206f776e65726000830152602082019050919050565b60a0820160008201516113156000850182611186565b5060208201516113286020850182611376565b50604082015161133b6040850182611376565b50606082015161134e6060850182611202565b5060808201516113616080850182611202565b50505050565b6113708161161d565b82525050565b61137f81611637565b82525050565b61138e81611637565b82525050565b60006020820190506113a96000830184611195565b92915050565b60006060820190506113c46000830186611195565b6113d16020830185611367565b6113de6040830184611385565b949350505050565b600060608201905081810360008301526114008186611220565b905061140f6020830185611367565b61141c6040830184611367565b949350505050565b6000602082019050818103600083015261143d81611259565b9050919050565b6000602082019050818103600083015261145d816112bf565b9050919050565b60006020820190506114796000830184611385565b92915050565b60006060820190506114946000830186611385565b81810360208301526114a681856111a4565b90506114b56040830184611211565b949350505050565b6000604051905081810181811067ffffffffffffffff821117156114e057600080fd5b8060405250919050565b600067ffffffffffffffff82111561150157600080fd5b602082029050602081019050919050565b600067ffffffffffffffff82111561152957600080fd5b602082029050602081019050919050565b600067ffffffffffffffff82111561155157600080fd5b601f19601f8301169050602081019050919050565b6000819050602082019050919050565b600081519050919050565b600081519050919050565b6000602082019050919050565b600082825260208201905092915050565b600082825260208201905092915050565b60006115c6826115fd565b9050919050565b60008115159050919050565b60006115e4826115bb565b9050919050565b60006115f6826115bb565b9050919050565b600073ffffffffffffffffffffffffffffffffffffffff82169050919050565b6000819050919050565b600063ffffffff82169050919050565b600060ff82169050919050565b600061164f82611656565b9050919050565b6000611661826115fd565b9050919050565b82818337600083830152505050565b60005b8381101561169557808201518184015260208101905061167a565b838111156116a4576000848401525b50505050565b6000601f19601f8301169050919050565b6116c4816115bb565b81146116cf57600080fd5b50565b6116db816115cd565b81146116e657600080fd5b50565b6116f2816115d9565b81146116fd57600080fd5b50565b611709816115eb565b811461171457600080fd5b50565b6117208161161d565b811461172b57600080fd5b50565b61173781611627565b811461174257600080fd5b50565b61174e81611637565b811461175957600080fd5b5056fea2646970667358221220768b6f04c6c387a4ce5687693dca0a9d2bf1592b84492c17a09f9c8828e27ee764736f6c63430006020033",
  "source": "pragma solidity ^0.6.0;\npragma experimental ABIEncoderV2;\n\nimport \"@openzeppelin/contracts/access/Ownable.sol\";\nimport \"./VoteToken.sol\";\nimport \"./Shared.sol\";\nimport \"./District.sol\";\nimport \"./DistrictFactory.sol\";\nimport \"./VoteTokenFactory.sol\";\n\n\ncontract Main is Ownable{\n    Shared.Election[] internal elections;\n    uint8 public districtsNo;\n    DistrictFactory districtFactory;\n    VoteTokenFactory voteTokenFactory;\n    \n    constructor(uint8 _districtsNo, DistrictFactory _districtFactory, VoteTokenFactory _voteTokenFactory) Ownable() public payable{\n        districtsNo = _districtsNo;\n        districtFactory = _districtFactory;\n        voteTokenFactory = _voteTokenFactory;\n    }\n    \n    function launchElection(\n        string memory _name,\n        uint _voteStart,\n        uint _voteEnd,\n        Shared.Candidate[][] memory candidates//, //first dimension index is the district number - 1\n        //uint32[] memory districtEligibleVotes\n        ) public onlyOwner{\n        \n        elections.push(Shared.Election({name: _name, voteStart: _voteStart, voteEnd: _voteEnd, voteToken: voteTokenFactory.create(_name,_voteStart,_voteEnd)}));\n        \n        for(uint8 i = 1 ; i <= districtsNo; i++){\n            elections[elections.length-1].districtContracts[i] = districtFactory.create(i, candidates[i-1], elections[elections.length-1].voteToken);\n        }\n \n    }\n    \n    function mintVote(address _to, uint256 _tokenId, uint8 _districtNo, uint32 _electionNo) public {\n        elections[_electionNo].voteToken.mint(_to, _tokenId, _districtNo);\n    }\n    \n    function endElection(uint32 _electionNo) public onlyOwner returns(uint8){\n        Shared.Election storage election = elections[_electionNo]; //storage in order to copy by reference.\n        uint8 partyWithMostVotesIndex;\n        uint32 mostVotes;\n        \n        for(uint8 i = 1; i <= districtsNo; i++){\n            election.districtContracts[i].count();\n            //election.districtContracts[i].getAllElected();\n            \n            for(uint8 j = 0; ; j++){\n                \n                uint32 _votes = uint32(election.districtContracts[i].party1stCountVotes(j));\n                \n                if(_votes == 0)\n                    break;\n                \n                election.party1stCountVotes[j] += _votes;\n                if(election.party1stCountVotes[j] > mostVotes){\n                    mostVotes = election.party1stCountVotes[j];\n                    partyWithMostVotesIndex = j;\n                }\n            }\n        }\n        \n        return partyWithMostVotesIndex;\n    }\n    \n}",
  "sourcePath": "/Users/timothymuscat/Documents/MScThesis/BlockVote_ReactBox/contracts/Main.sol",
  "compiler": {
    "name": "solc",
    "version": "0.6.2+commit.bacdbe57.Emscripten.clang"
  },
  "schemaVersion": "3.2.2",
  "updatedAt": "2020-08-26T21:54:22.155Z",
  "networkType": "ethereum",
  "devdoc": {
    "methods": {
      "owner()": {
        "details": "Returns the address of the current owner."
      },
      "renounceOwnership()": {
        "details": "Leaves the contract without owner. It will not be possible to call `onlyOwner` functions anymore. Can only be called by the current owner.     * NOTE: Renouncing ownership will leave the contract without an owner, thereby removing any functionality that is only available to the owner."
      },
      "transferOwnership(address)": {
        "details": "Transfers ownership of the contract to a new account (`newOwner`). Can only be called by the current owner."
      }
    }
  },
  "userdoc": {
    "methods": {}
  }
}