{
  "contractName": "VoteToken",
  "abi": [
    {
      "inputs": [
        {
          "internalType": "string",
          "name": "__name",
          "type": "string"
        },
        {
          "internalType": "string",
          "name": "__symbol",
          "type": "string"
        },
        {
          "internalType": "uint256",
          "name": "_voteStart",
          "type": "uint256"
        },
        {
          "internalType": "uint256",
          "name": "_voteEnd",
          "type": "uint256"
        }
      ],
      "stateMutability": "nonpayable",
      "type": "constructor"
    },
    {
      "anonymous": false,
      "inputs": [
        {
          "indexed": true,
          "internalType": "address",
          "name": "owner",
          "type": "address"
        },
        {
          "indexed": true,
          "internalType": "address",
          "name": "approved",
          "type": "address"
        },
        {
          "indexed": true,
          "internalType": "uint256",
          "name": "tokenId",
          "type": "uint256"
        }
      ],
      "name": "Approval",
      "type": "event"
    },
    {
      "anonymous": false,
      "inputs": [
        {
          "indexed": true,
          "internalType": "address",
          "name": "owner",
          "type": "address"
        },
        {
          "indexed": true,
          "internalType": "address",
          "name": "operator",
          "type": "address"
        },
        {
          "indexed": false,
          "internalType": "bool",
          "name": "approved",
          "type": "bool"
        }
      ],
      "name": "ApprovalForAll",
      "type": "event"
    },
    {
      "anonymous": false,
      "inputs": [
        {
          "indexed": true,
          "internalType": "address",
          "name": "previousOwner",
          "type": "address"
        },
        {
          "indexed": true,
          "internalType": "address",
          "name": "newOwner",
          "type": "address"
        }
      ],
      "name": "OwnershipTransferred",
      "type": "event"
    },
    {
      "anonymous": false,
      "inputs": [
        {
          "indexed": true,
          "internalType": "address",
          "name": "from",
          "type": "address"
        },
        {
          "indexed": true,
          "internalType": "address",
          "name": "to",
          "type": "address"
        },
        {
          "indexed": true,
          "internalType": "uint256",
          "name": "tokenId",
          "type": "uint256"
        }
      ],
      "name": "Transfer",
      "type": "event"
    },
    {
      "inputs": [
        {
          "internalType": "address",
          "name": "",
          "type": "address"
        }
      ],
      "name": "allowedContracts",
      "outputs": [
        {
          "internalType": "bool",
          "name": "",
          "type": "bool"
        }
      ],
      "stateMutability": "view",
      "type": "function"
    },
    {
      "inputs": [
        {
          "internalType": "address",
          "name": "to",
          "type": "address"
        },
        {
          "internalType": "uint256",
          "name": "tokenId",
          "type": "uint256"
        }
      ],
      "name": "approve",
      "outputs": [],
      "stateMutability": "nonpayable",
      "type": "function"
    },
    {
      "inputs": [
        {
          "internalType": "address",
          "name": "owner",
          "type": "address"
        }
      ],
      "name": "balanceOf",
      "outputs": [
        {
          "internalType": "uint256",
          "name": "",
          "type": "uint256"
        }
      ],
      "stateMutability": "view",
      "type": "function"
    },
    {
      "inputs": [],
      "name": "baseURI",
      "outputs": [
        {
          "internalType": "string",
          "name": "",
          "type": "string"
        }
      ],
      "stateMutability": "view",
      "type": "function"
    },
    {
      "inputs": [
        {
          "internalType": "uint256",
          "name": "",
          "type": "uint256"
        }
      ],
      "name": "district",
      "outputs": [
        {
          "internalType": "uint8",
          "name": "",
          "type": "uint8"
        }
      ],
      "stateMutability": "view",
      "type": "function"
    },
    {
      "inputs": [
        {
          "internalType": "uint256",
          "name": "tokenId",
          "type": "uint256"
        }
      ],
      "name": "getApproved",
      "outputs": [
        {
          "internalType": "address",
          "name": "",
          "type": "address"
        }
      ],
      "stateMutability": "view",
      "type": "function"
    },
    {
      "inputs": [
        {
          "internalType": "address",
          "name": "owner",
          "type": "address"
        },
        {
          "internalType": "address",
          "name": "operator",
          "type": "address"
        }
      ],
      "name": "isApprovedForAll",
      "outputs": [
        {
          "internalType": "bool",
          "name": "",
          "type": "bool"
        }
      ],
      "stateMutability": "view",
      "type": "function"
    },
    {
      "inputs": [],
      "name": "name",
      "outputs": [
        {
          "internalType": "string",
          "name": "",
          "type": "string"
        }
      ],
      "stateMutability": "view",
      "type": "function"
    },
    {
      "inputs": [],
      "name": "owner",
      "outputs": [
        {
          "internalType": "address",
          "name": "",
          "type": "address"
        }
      ],
      "stateMutability": "view",
      "type": "function"
    },
    {
      "inputs": [
        {
          "internalType": "uint256",
          "name": "tokenId",
          "type": "uint256"
        }
      ],
      "name": "ownerOf",
      "outputs": [
        {
          "internalType": "address",
          "name": "",
          "type": "address"
        }
      ],
      "stateMutability": "view",
      "type": "function"
    },
    {
      "inputs": [
        {
          "internalType": "uint256",
          "name": "",
          "type": "uint256"
        },
        {
          "internalType": "uint8",
          "name": "",
          "type": "uint8"
        }
      ],
      "name": "preferences",
      "outputs": [
        {
          "internalType": "address",
          "name": "",
          "type": "address"
        }
      ],
      "stateMutability": "view",
      "type": "function"
    },
    {
      "inputs": [],
      "name": "renounceOwnership",
      "outputs": [],
      "stateMutability": "nonpayable",
      "type": "function"
    },
    {
      "inputs": [
        {
          "internalType": "address",
          "name": "operator",
          "type": "address"
        },
        {
          "internalType": "bool",
          "name": "approved",
          "type": "bool"
        }
      ],
      "name": "setApprovalForAll",
      "outputs": [],
      "stateMutability": "nonpayable",
      "type": "function"
    },
    {
      "inputs": [
        {
          "internalType": "bytes4",
          "name": "interfaceId",
          "type": "bytes4"
        }
      ],
      "name": "supportsInterface",
      "outputs": [
        {
          "internalType": "bool",
          "name": "",
          "type": "bool"
        }
      ],
      "stateMutability": "view",
      "type": "function"
    },
    {
      "inputs": [],
      "name": "symbol",
      "outputs": [
        {
          "internalType": "string",
          "name": "",
          "type": "string"
        }
      ],
      "stateMutability": "view",
      "type": "function"
    },
    {
      "inputs": [
        {
          "internalType": "uint256",
          "name": "index",
          "type": "uint256"
        }
      ],
      "name": "tokenByIndex",
      "outputs": [
        {
          "internalType": "uint256",
          "name": "",
          "type": "uint256"
        }
      ],
      "stateMutability": "view",
      "type": "function"
    },
    {
      "inputs": [
        {
          "internalType": "address",
          "name": "owner",
          "type": "address"
        },
        {
          "internalType": "uint256",
          "name": "index",
          "type": "uint256"
        }
      ],
      "name": "tokenOfOwnerByIndex",
      "outputs": [
        {
          "internalType": "uint256",
          "name": "",
          "type": "uint256"
        }
      ],
      "stateMutability": "view",
      "type": "function"
    },
    {
      "inputs": [
        {
          "internalType": "uint256",
          "name": "tokenId",
          "type": "uint256"
        }
      ],
      "name": "tokenURI",
      "outputs": [
        {
          "internalType": "string",
          "name": "",
          "type": "string"
        }
      ],
      "stateMutability": "view",
      "type": "function"
    },
    {
      "inputs": [],
      "name": "totalSupply",
      "outputs": [
        {
          "internalType": "uint256",
          "name": "",
          "type": "uint256"
        }
      ],
      "stateMutability": "view",
      "type": "function"
    },
    {
      "inputs": [
        {
          "internalType": "address",
          "name": "newOwner",
          "type": "address"
        }
      ],
      "name": "transferOwnership",
      "outputs": [],
      "stateMutability": "nonpayable",
      "type": "function"
    },
    {
      "inputs": [],
      "name": "voteEnd",
      "outputs": [
        {
          "internalType": "uint256",
          "name": "",
          "type": "uint256"
        }
      ],
      "stateMutability": "view",
      "type": "function"
    },
    {
      "inputs": [],
      "name": "voteStart",
      "outputs": [
        {
          "internalType": "uint256",
          "name": "",
          "type": "uint256"
        }
      ],
      "stateMutability": "view",
      "type": "function"
    },
    {
      "inputs": [],
      "name": "votesTotal",
      "outputs": [
        {
          "internalType": "uint64",
          "name": "",
          "type": "uint64"
        }
      ],
      "stateMutability": "view",
      "type": "function"
    },
    {
      "inputs": [
        {
          "internalType": "address",
          "name": "_address",
          "type": "address"
        }
      ],
      "name": "setAllowed",
      "outputs": [],
      "stateMutability": "nonpayable",
      "type": "function"
    },
    {
      "inputs": [
        {
          "internalType": "uint256",
          "name": "_tokenId",
          "type": "uint256"
        },
        {
          "internalType": "address[]",
          "name": "_preferences",
          "type": "address[]"
        }
      ],
      "name": "setVotePreferences",
      "outputs": [],
      "stateMutability": "nonpayable",
      "type": "function"
    },
    {
      "inputs": [
        {
          "internalType": "address",
          "name": "_to",
          "type": "address"
        },
        {
          "internalType": "uint256",
          "name": "_tokenId",
          "type": "uint256"
        },
        {
          "internalType": "uint8",
          "name": "_districtNo",
          "type": "uint8"
        }
      ],
      "name": "mint",
      "outputs": [],
      "stateMutability": "nonpayable",
      "type": "function"
    },
    {
      "inputs": [
        {
          "internalType": "address",
          "name": "_from",
          "type": "address"
        }
      ],
      "name": "transferAllBack",
      "outputs": [],
      "stateMutability": "nonpayable",
      "type": "function"
    },
    {
      "inputs": [
        {
          "internalType": "address",
          "name": "from",
          "type": "address"
        },
        {
          "internalType": "address",
          "name": "to",
          "type": "address"
        },
        {
          "internalType": "uint256",
          "name": "tokenId",
          "type": "uint256"
        }
      ],
      "name": "transferFrom",
      "outputs": [],
      "stateMutability": "nonpayable",
      "type": "function"
    },
    {
      "inputs": [
        {
          "internalType": "address",
          "name": "from",
          "type": "address"
        },
        {
          "internalType": "address",
          "name": "to",
          "type": "address"
        },
        {
          "internalType": "uint256",
          "name": "tokenId",
          "type": "uint256"
        }
      ],
      "name": "safeTransferFrom",
      "outputs": [],
      "stateMutability": "nonpayable",
      "type": "function"
    },
    {
      "inputs": [
        {
          "internalType": "address",
          "name": "from",
          "type": "address"
        },
        {
          "internalType": "address",
          "name": "to",
          "type": "address"
        },
        {
          "internalType": "uint256",
          "name": "tokenId",
          "type": "uint256"
        },
        {
          "internalType": "bytes",
          "name": "_data",
          "type": "bytes"
        }
      ],
      "name": "safeTransferFrom",
      "outputs": [],
      "stateMutability": "nonpayable",
      "type": "function"
    },
    {
      "inputs": [],
      "name": "kill",
      "outputs": [],
      "stateMutability": "nonpayable",
      "type": "function"
    }
  ],
  "bytecode": "0x60806040523480156200001157600080fd5b5060405162003fc738038062003fc7833981810160405260808110156200003757600080fd5b81019080805160405193929190846401000000008211156200005857600080fd5b838201915060208201858111156200006f57600080fd5b82518660018202830111640100000000821117156200008d57600080fd5b8083526020830192505050908051906020019080838360005b83811015620000c3578082015181840152602081019050620000a6565b50505050905090810190601f168015620000f15780820380516001836020036101000a031916815260200191505b50604052602001805160405193929190846401000000008211156200011557600080fd5b838201915060208201858111156200012c57600080fd5b82518660018202830111640100000000821117156200014a57600080fd5b8083526020830192505050908051906020019080838360005b838110156200018057808201518184015260208101905062000163565b50505050905090810190601f168015620001ae5780820380516001836020036101000a031916815260200191505b5060405260200180519060200190929190805190602001909291905050508383620001e66301ffc9a760e01b6200038360201b60201c565b8160069080519060200190620001fe92919062000494565b5080600790805190602001906200021792919062000494565b50620002306380ac58cd60e01b6200038360201b60201c565b62000248635b5e139f60e01b6200038360201b60201c565b6200026063780e9d6360e01b6200038360201b60201c565b50506000620002746200048c60201b60201c565b905080600a60006101000a81548173ffffffffffffffffffffffffffffffffffffffff021916908373ffffffffffffffffffffffffffffffffffffffff1602179055508073ffffffffffffffffffffffffffffffffffffffff16600073ffffffffffffffffffffffffffffffffffffffff167f8be0079c531659141344cd1fd0a4f28419497f9722a3daafe3b4186f6b6457e060405160405180910390a35081600d8190555080600e819055506001601060003073ffffffffffffffffffffffffffffffffffffffff1673ffffffffffffffffffffffffffffffffffffffff16815260200190815260200160002060006101000a81548160ff0219169083151502179055505050505062000543565b63ffffffff60e01b817bffffffffffffffffffffffffffffffffffffffffffffffffffffffff1916141562000420576040517f08c379a000000000000000000000000000000000000000000000000000000000815260040180806020018281038252601c8152602001807f4552433136353a20696e76616c696420696e746572666163652069640000000081525060200191505060405180910390fd5b6001600080837bffffffffffffffffffffffffffffffffffffffffffffffffffffffff19167bffffffffffffffffffffffffffffffffffffffffffffffffffffffff1916815260200190815260200160002060006101000a81548160ff02191690831515021790555050565b600033905090565b828054600181600116156101000203166002900490600052602060002090601f016020900481019282601f10620004d757805160ff191683800117855562000508565b8280016001018555821562000508579182015b8281111562000507578251825591602001919060010190620004ea565b5b5090506200051791906200051b565b5090565b6200054091905b808211156200053c57600081600090555060010162000522565b5090565b90565b613a7480620005536000396000f3fe608060405234801561001057600080fd5b50600436106101e55760003560e01c80636352211e1161010f578063b88d4fde116100a2578063ddbe8f0911610071578063ddbe8f0914610c48578063e031535b14610c66578063e985e9c514610c84578063f2fde38b14610d00576101e5565b8063b88d4fde146109dd578063c0e79a1114610ae2578063c87b56dd14610b26578063d1d0a5ea14610bcd576101e5565b80638da5cb5b116100de5780638da5cb5b1461087c57806395d89b41146108c6578063a22cb46514610949578063abd2a23314610999576101e5565b80636352211e146107295780636c0360eb1461079757806370a082311461081a578063715018a614610872576101e5565b80632f745c59116101875780634f6ccce7116101565780634f6ccce7146105fe57806351e0e26b1461064057806354218cd81461069c5780636112e8ac146106ce576101e5565b80632f745c5914610462578063324b1dc6146104c457806341c0e1b51461058657806342842e0e14610590576101e5565b8063095ea7b3116101c3578063095ea7b31461034057806318160ddd1461038e5780631979955e146103ac57806323b872dd146103f4576101e5565b806301ffc9a7146101ea57806306fdde031461024f578063081812fc146102d2575b600080fd5b6102356004803603602081101561020057600080fd5b8101908080357bffffffffffffffffffffffffffffffffffffffffffffffffffffffff19169060200190929190505050610d44565b604051808215151515815260200191505060405180910390f35b610257610dab565b6040518080602001828103825283818151815260200191508051906020019080838360005b8381101561029757808201518184015260208101905061027c565b50505050905090810190601f1680156102c45780820380516001836020036101000a031916815260200191505b509250505060405180910390f35b6102fe600480360360208110156102e857600080fd5b8101908080359060200190929190505050610e4d565b604051808273ffffffffffffffffffffffffffffffffffffffff1673ffffffffffffffffffffffffffffffffffffffff16815260200191505060405180910390f35b61038c6004803603604081101561035657600080fd5b81019080803573ffffffffffffffffffffffffffffffffffffffff16906020019092919080359060200190929190505050610ee8565b005b61039661102c565b6040518082815260200191505060405180910390f35b6103d8600480360360208110156103c257600080fd5b810190808035906020019092919050505061103d565b604051808260ff1660ff16815260200191505060405180910390f35b6104606004803603606081101561040a57600080fd5b81019080803573ffffffffffffffffffffffffffffffffffffffff169060200190929190803573ffffffffffffffffffffffffffffffffffffffff1690602001909291908035906020019092919050505061105d565b005b6104ae6004803603604081101561047857600080fd5b81019080803573ffffffffffffffffffffffffffffffffffffffff16906020019092919080359060200190929190505050611116565b6040518082815260200191505060405180910390f35b610584600480360360408110156104da57600080fd5b81019080803590602001909291908035906020019064010000000081111561050157600080fd5b82018360208201111561051357600080fd5b8035906020019184602083028401116401000000008311171561053557600080fd5b919080806020026020016040519081016040528093929190818152602001838360200280828437600081840152601f19601f820116905080830192505050505050509192919290505050611171565b005b61058e611229565b005b6105fc600480360360608110156105a657600080fd5b81019080803573ffffffffffffffffffffffffffffffffffffffff169060200190929190803573ffffffffffffffffffffffffffffffffffffffff1690602001909291908035906020019092919050505061130c565b005b61062a6004803603602081101561061457600080fd5b8101908080359060200190929190505050611311565b6040518082815260200191505060405180910390f35b6106826004803603602081101561065657600080fd5b81019080803573ffffffffffffffffffffffffffffffffffffffff169060200190929190505050611334565b604051808215151515815260200191505060405180910390f35b6106a4611354565b604051808267ffffffffffffffff1667ffffffffffffffff16815260200191505060405180910390f35b610727600480360360608110156106e457600080fd5b81019080803573ffffffffffffffffffffffffffffffffffffffff16906020019092919080359060200190929190803560ff16906020019092919050505061136e565b005b6107556004803603602081101561073f57600080fd5b81019080803590602001909291905050506114ba565b604051808273ffffffffffffffffffffffffffffffffffffffff1673ffffffffffffffffffffffffffffffffffffffff16815260200191505060405180910390f35b61079f6114f1565b6040518080602001828103825283818151815260200191508051906020019080838360005b838110156107df5780820151818401526020810190506107c4565b50505050905090810190601f16801561080c5780820380516001836020036101000a031916815260200191505b509250505060405180910390f35b61085c6004803603602081101561083057600080fd5b81019080803573ffffffffffffffffffffffffffffffffffffffff169060200190929190505050611593565b6040518082815260200191505060405180910390f35b61087a611668565b005b6108846117f3565b604051808273ffffffffffffffffffffffffffffffffffffffff1673ffffffffffffffffffffffffffffffffffffffff16815260200191505060405180910390f35b6108ce61181d565b6040518080602001828103825283818151815260200191508051906020019080838360005b8381101561090e5780820151818401526020810190506108f3565b50505050905090810190601f16801561093b5780820380516001836020036101000a031916815260200191505b509250505060405180910390f35b6109976004803603604081101561095f57600080fd5b81019080803573ffffffffffffffffffffffffffffffffffffffff1690602001909291908035151590602001909291905050506118bf565b005b6109db600480360360208110156109af57600080fd5b81019080803573ffffffffffffffffffffffffffffffffffffffff169060200190929190505050611a77565b005b610ae0600480360360808110156109f357600080fd5b81019080803573ffffffffffffffffffffffffffffffffffffffff169060200190929190803573ffffffffffffffffffffffffffffffffffffffff1690602001909291908035906020019092919080359060200190640100000000811115610a5a57600080fd5b820183602082011115610a6c57600080fd5b80359060200191846001830284011164010000000083111715610a8e57600080fd5b91908080601f016020809104026020016040519081016040528093929190818152602001838380828437600081840152601f19601f820116905080830192505050505050509192919290505050611c77565b005b610b2460048036036020811015610af857600080fd5b81019080803573ffffffffffffffffffffffffffffffffffffffff169060200190929190505050611cef565b005b610b5260048036036020811015610b3c57600080fd5b8101908080359060200190929190505050611e14565b6040518080602001828103825283818151815260200191508051906020019080838360005b83811015610b92578082015181840152602081019050610b77565b50505050905090810190601f168015610bbf5780820380516001836020036101000a031916815260200191505b509250505060405180910390f35b610c0660048036036040811015610be357600080fd5b8101908080359060200190929190803560ff1690602001909291905050506120fd565b604051808273ffffffffffffffffffffffffffffffffffffffff1673ffffffffffffffffffffffffffffffffffffffff16815260200191505060405180910390f35b610c5061213f565b6040518082815260200191505060405180910390f35b610c6e612145565b6040518082815260200191505060405180910390f35b610ce660048036036040811015610c9a57600080fd5b81019080803573ffffffffffffffffffffffffffffffffffffffff169060200190929190803573ffffffffffffffffffffffffffffffffffffffff16906020019092919050505061214b565b604051808215151515815260200191505060405180910390f35b610d4260048036036020811015610d1657600080fd5b81019080803573ffffffffffffffffffffffffffffffffffffffff1690602001909291905050506121df565b005b6000806000837bffffffffffffffffffffffffffffffffffffffffffffffffffffffff19167bffffffffffffffffffffffffffffffffffffffffffffffffffffffff1916815260200190815260200160002060009054906101000a900460ff169050919050565b606060068054600181600116156101000203166002900480601f016020809104026020016040519081016040528092919081815260200182805460018160011615610100020316600290048015610e435780601f10610e1857610100808354040283529160200191610e43565b820191906000526020600020905b815481529060010190602001808311610e2657829003601f168201915b5050505050905090565b6000610e58826123ef565b610ead576040517f08c379a000000000000000000000000000000000000000000000000000000000815260040180806020018281038252602c815260200180613938602c913960400191505060405180910390fd5b6004600083815260200190815260200160002060009054906101000a900473ffffffffffffffffffffffffffffffffffffffff169050919050565b6000610ef3826114ba565b90508073ffffffffffffffffffffffffffffffffffffffff168373ffffffffffffffffffffffffffffffffffffffff161415610f7a576040517f08c379a00000000000000000000000000000000000000000000000000000000081526004018080602001828103825260218152602001806139bc6021913960400191505060405180910390fd5b8073ffffffffffffffffffffffffffffffffffffffff16610f9961240c565b73ffffffffffffffffffffffffffffffffffffffff161480610fc85750610fc781610fc261240c565b61214b565b5b61101d576040517f08c379a000000000000000000000000000000000000000000000000000000000815260040180806020018281038252603881526020018061388b6038913960400191505060405180910390fd5b6110278383612414565b505050565b600061103860026124cd565b905090565b600b6020528060005260406000206000915054906101000a900460ff1681565b60011515601060003373ffffffffffffffffffffffffffffffffffffffff1673ffffffffffffffffffffffffffffffffffffffff16815260200190815260200160002060009054906101000a900460ff16151514611106576040517f08c379a0000000000000000000000000000000000000000000000000000000008152600401808060200182810382526031815260200180613a0e6031913960400191505060405180910390fd5b6111118383836124e2565b505050565b600061116982600160008673ffffffffffffffffffffffffffffffffffffffff1673ffffffffffffffffffffffffffffffffffffffff16815260200190815260200160002061255890919063ffffffff16565b905092915050565b61118261117c61240c565b83612572565b506000600190505b81518160ff161161122457816001820360ff16815181106111a757fe5b6020026020010151600c600085815260200190815260200160002060008360ff1660ff16815260200190815260200160002060006101000a81548173ffffffffffffffffffffffffffffffffffffffff021916908373ffffffffffffffffffffffffffffffffffffffff160217905550808060010191505061118a565b505050565b61123161240c565b73ffffffffffffffffffffffffffffffffffffffff16600a60009054906101000a900473ffffffffffffffffffffffffffffffffffffffff1673ffffffffffffffffffffffffffffffffffffffff16146112f3576040517f08c379a00000000000000000000000000000000000000000000000000000000081526004018080602001828103825260208152602001807f4f776e61626c653a2063616c6c6572206973206e6f7420746865206f776e657281525060200191505060405180910390fd5b3373ffffffffffffffffffffffffffffffffffffffff16ff5b600080fd5b60008061132883600261266690919063ffffffff16565b50905080915050919050565b60106020528060005260406000206000915054906101000a900460ff1681565b600f60009054906101000a900467ffffffffffffffff1681565b61137661240c565b73ffffffffffffffffffffffffffffffffffffffff16600a60009054906101000a900473ffffffffffffffffffffffffffffffffffffffff1673ffffffffffffffffffffffffffffffffffffffff1614611438576040517f08c379a00000000000000000000000000000000000000000000000000000000081526004018080602001828103825260208152602001807f4f776e61626c653a2063616c6c6572206973206e6f7420746865206f776e657281525060200191505060405180910390fd5b6114428383612695565b80600b600084815260200190815260200160002060006101000a81548160ff021916908360ff160217905550600f600081819054906101000a900467ffffffffffffffff168092919060010191906101000a81548167ffffffffffffffff021916908367ffffffffffffffff16021790555050505050565b60006114ea826040518060600160405280602981526020016138ed6029913960026128899092919063ffffffff16565b9050919050565b606060098054600181600116156101000203166002900480601f0160208091040260200160405190810160405280929190818152602001828054600181600116156101000203166002900480156115895780601f1061155e57610100808354040283529160200191611589565b820191906000526020600020905b81548152906001019060200180831161156c57829003601f168201915b5050505050905090565b60008073ffffffffffffffffffffffffffffffffffffffff168273ffffffffffffffffffffffffffffffffffffffff16141561161a576040517f08c379a000000000000000000000000000000000000000000000000000000000815260040180806020018281038252602a8152602001806138c3602a913960400191505060405180910390fd5b611661600160008473ffffffffffffffffffffffffffffffffffffffff1673ffffffffffffffffffffffffffffffffffffffff1681526020019081526020016000206128a8565b9050919050565b61167061240c565b73ffffffffffffffffffffffffffffffffffffffff16600a60009054906101000a900473ffffffffffffffffffffffffffffffffffffffff1673ffffffffffffffffffffffffffffffffffffffff1614611732576040517f08c379a00000000000000000000000000000000000000000000000000000000081526004018080602001828103825260208152602001807f4f776e61626c653a2063616c6c6572206973206e6f7420746865206f776e657281525060200191505060405180910390fd5b600073ffffffffffffffffffffffffffffffffffffffff16600a60009054906101000a900473ffffffffffffffffffffffffffffffffffffffff1673ffffffffffffffffffffffffffffffffffffffff167f8be0079c531659141344cd1fd0a4f28419497f9722a3daafe3b4186f6b6457e060405160405180910390a36000600a60006101000a81548173ffffffffffffffffffffffffffffffffffffffff021916908373ffffffffffffffffffffffffffffffffffffffff160217905550565b6000600a60009054906101000a900473ffffffffffffffffffffffffffffffffffffffff16905090565b606060078054600181600116156101000203166002900480601f0160208091040260200160405190810160405280929190818152602001828054600181600116156101000203166002900480156118b55780601f1061188a576101008083540402835291602001916118b5565b820191906000526020600020905b81548152906001019060200180831161189857829003601f168201915b5050505050905090565b6118c761240c565b73ffffffffffffffffffffffffffffffffffffffff168273ffffffffffffffffffffffffffffffffffffffff161415611968576040517f08c379a00000000000000000000000000000000000000000000000000000000081526004018080602001828103825260198152602001807f4552433732313a20617070726f766520746f2063616c6c65720000000000000081525060200191505060405180910390fd5b806005600061197561240c565b73ffffffffffffffffffffffffffffffffffffffff1673ffffffffffffffffffffffffffffffffffffffff16815260200190815260200160002060008473ffffffffffffffffffffffffffffffffffffffff1673ffffffffffffffffffffffffffffffffffffffff16815260200190815260200160002060006101000a81548160ff0219169083151502179055508173ffffffffffffffffffffffffffffffffffffffff16611a2261240c565b73ffffffffffffffffffffffffffffffffffffffff167f17307eab39ab6107e8899845ad3d59bd9653f200f220920489ca2b5937696c3183604051808215151515815260200191505060405180910390a35050565b60011515601060003373ffffffffffffffffffffffffffffffffffffffff1673ffffffffffffffffffffffffffffffffffffffff16815260200190815260200160002060009054906101000a900460ff16151514611b20576040517f08c379a0000000000000000000000000000000000000000000000000000000008152600401808060200182810382526031815260200180613a0e6031913960400191505060405180910390fd5b60003373ffffffffffffffffffffffffffffffffffffffff1663dd7177d86040518163ffffffff1660e01b815260040160206040518083038186803b158015611b6857600080fd5b505afa158015611b7c573d6000803e3d6000fd5b505050506040513d6020811015611b9257600080fd5b810190808051906020019092919050505090506000611bb083611593565b905060008090505b818163ffffffff161015611c71576000611bd8858363ffffffff16611116565b90508360ff16600b600083815260200190815260200160002060009054906101000a900460ff1660ff1614611c58576040517f08c379a000000000000000000000000000000000000000000000000000000000815260040180806020018281038252603081526020018061382f6030913960400191505060405180910390fd5b611c6385338361105d565b508080600101915050611bb8565b50505050565b611c88611c8261240c565b83612572565b611cdd576040517f08c379a00000000000000000000000000000000000000000000000000000000081526004018080602001828103825260318152602001806139dd6031913960400191505060405180910390fd5b611ce9848484846128bd565b50505050565b611cf761240c565b73ffffffffffffffffffffffffffffffffffffffff16600a60009054906101000a900473ffffffffffffffffffffffffffffffffffffffff1673ffffffffffffffffffffffffffffffffffffffff1614611db9576040517f08c379a00000000000000000000000000000000000000000000000000000000081526004018080602001828103825260208152602001807f4f776e61626c653a2063616c6c6572206973206e6f7420746865206f776e657281525060200191505060405180910390fd5b6001601060008373ffffffffffffffffffffffffffffffffffffffff1673ffffffffffffffffffffffffffffffffffffffff16815260200190815260200160002060006101000a81548160ff02191690831515021790555050565b6060611e1f826123ef565b611e74576040517f08c379a000000000000000000000000000000000000000000000000000000000815260040180806020018281038252602f81526020018061398d602f913960400191505060405180910390fd5b6060600860008481526020019081526020016000208054600181600116156101000203166002900480601f016020809104026020016040519081016040528092919081815260200182805460018160011615610100020316600290048015611f1d5780601f10611ef257610100808354040283529160200191611f1d565b820191906000526020600020905b815481529060010190602001808311611f0057829003601f168201915b50505050509050600060098054600181600116156101000203166002900490501415611f4c57809150506120f8565b600081511115612025576009816040516020018083805460018160011615610100020316600290048015611fb75780601f10611f95576101008083540402835291820191611fb7565b820191906000526020600020905b815481529060010190602001808311611fa3575b505082805190602001908083835b60208310611fe85780518252602082019150602081019050602083039250611fc5565b6001836020036101000a038019825116818451168082178552505050505050905001925050506040516020818303038152906040529150506120f8565b60096120308461292f565b604051602001808380546001816001161561010002031660029004801561208e5780601f1061206c57610100808354040283529182019161208e565b820191906000526020600020905b81548152906001019060200180831161207a575b505082805190602001908083835b602083106120bf578051825260208201915060208101905060208303925061209c565b6001836020036101000a038019825116818451168082178552505050505050905001925050506040516020818303038152906040529150505b919050565b600c6020528160005260406000206020528060005260406000206000915091509054906101000a900473ffffffffffffffffffffffffffffffffffffffff1681565b600e5481565b600d5481565b6000600560008473ffffffffffffffffffffffffffffffffffffffff1673ffffffffffffffffffffffffffffffffffffffff16815260200190815260200160002060008373ffffffffffffffffffffffffffffffffffffffff1673ffffffffffffffffffffffffffffffffffffffff16815260200190815260200160002060009054906101000a900460ff16905092915050565b6121e761240c565b73ffffffffffffffffffffffffffffffffffffffff16600a60009054906101000a900473ffffffffffffffffffffffffffffffffffffffff1673ffffffffffffffffffffffffffffffffffffffff16146122a9576040517f08c379a00000000000000000000000000000000000000000000000000000000081526004018080602001828103825260208152602001807f4f776e61626c653a2063616c6c6572206973206e6f7420746865206f776e657281525060200191505060405180910390fd5b600073ffffffffffffffffffffffffffffffffffffffff168173ffffffffffffffffffffffffffffffffffffffff16141561232f576040517f08c379a00000000000000000000000000000000000000000000000000000000081526004018080602001828103825260268152602001806137e56026913960400191505060405180910390fd5b8073ffffffffffffffffffffffffffffffffffffffff16600a60009054906101000a900473ffffffffffffffffffffffffffffffffffffffff1673ffffffffffffffffffffffffffffffffffffffff167f8be0079c531659141344cd1fd0a4f28419497f9722a3daafe3b4186f6b6457e060405160405180910390a380600a60006101000a81548173ffffffffffffffffffffffffffffffffffffffff021916908373ffffffffffffffffffffffffffffffffffffffff16021790555050565b6000612405826002612a5f90919063ffffffff16565b9050919050565b600033905090565b816004600083815260200190815260200160002060006101000a81548173ffffffffffffffffffffffffffffffffffffffff021916908373ffffffffffffffffffffffffffffffffffffffff160217905550808273ffffffffffffffffffffffffffffffffffffffff16612487836114ba565b73ffffffffffffffffffffffffffffffffffffffff167f8c5be1e5ebec7d5bd14f71427d1e84f3dd0314c0f7b2291e5b200ac8c7c3b92560405160405180910390a45050565b60006124db82600001612a79565b9050919050565b6124f36124ed61240c565b82612572565b612548576040517f08c379a00000000000000000000000000000000000000000000000000000000081526004018080602001828103825260318152602001806139dd6031913960400191505060405180910390fd5b612553838383612a8a565b505050565b60006125678360000183612ccd565b60001c905092915050565b600061257d826123ef565b6125d2576040517f08c379a000000000000000000000000000000000000000000000000000000000815260040180806020018281038252602c81526020018061385f602c913960400191505060405180910390fd5b60006125dd836114ba565b90508073ffffffffffffffffffffffffffffffffffffffff168473ffffffffffffffffffffffffffffffffffffffff16148061264c57508373ffffffffffffffffffffffffffffffffffffffff1661263484610e4d565b73ffffffffffffffffffffffffffffffffffffffff16145b8061265d575061265c818561214b565b5b91505092915050565b6000806000806126798660000186612d50565b915091508160001c8160001c8090509350935050509250929050565b600073ffffffffffffffffffffffffffffffffffffffff168273ffffffffffffffffffffffffffffffffffffffff161415612738576040517f08c379a00000000000000000000000000000000000000000000000000000000081526004018080602001828103825260208152602001807f4552433732313a206d696e7420746f20746865207a65726f206164647265737381525060200191505060405180910390fd5b612741816123ef565b156127b4576040517f08c379a000000000000000000000000000000000000000000000000000000000815260040180806020018281038252601c8152602001807f4552433732313a20746f6b656e20616c7265616479206d696e7465640000000081525060200191505060405180910390fd5b6127c060008383612de9565b61281181600160008573ffffffffffffffffffffffffffffffffffffffff1673ffffffffffffffffffffffffffffffffffffffff168152602001908152602001600020612f3090919063ffffffff16565b5061282881836002612f4a9092919063ffffffff16565b50808273ffffffffffffffffffffffffffffffffffffffff16600073ffffffffffffffffffffffffffffffffffffffff167fddf252ad1be2c89b69c2b068fc378daa952ba7f163c4a11628f55a4df523b3ef60405160405180910390a45050565b600061289c846000018460001b84612f7f565b60001c90509392505050565b60006128b682600001613075565b9050919050565b6128c8848484612a8a565b6128d484848484613086565b612929576040517f08c379a00000000000000000000000000000000000000000000000000000000081526004018080602001828103825260328152602001806137b36032913960400191505060405180910390fd5b50505050565b60606000821415612977576040518060400160405280600181526020017f30000000000000000000000000000000000000000000000000000000000000008152509050612a5a565b600082905060005b600082146129a1578080600101915050600a828161299957fe5b04915061297f565b6060816040519080825280601f01601f1916602001820160405280156129d65781602001600182028038833980820191505090505b50905060006001830390508593505b60008414612a5257600a84816129f757fe5b0660300160f81b82828060019003935081518110612a1157fe5b60200101907effffffffffffffffffffffffffffffffffffffffffffffffffffffffffffff1916908160001a905350600a8481612a4a57fe5b0493506129e5565b819450505050505b919050565b6000612a71836000018360001b6132cb565b905092915050565b600081600001805490509050919050565b8273ffffffffffffffffffffffffffffffffffffffff16612aaa826114ba565b73ffffffffffffffffffffffffffffffffffffffff1614612b16576040517f08c379a00000000000000000000000000000000000000000000000000000000081526004018080602001828103825260298152602001806139646029913960400191505060405180910390fd5b600073ffffffffffffffffffffffffffffffffffffffff168273ffffffffffffffffffffffffffffffffffffffff161415612b9c576040517f08c379a000000000000000000000000000000000000000000000000000000000815260040180806020018281038252602481526020018061380b6024913960400191505060405180910390fd5b612ba7838383612de9565b612bb2600082612414565b612c0381600160008673ffffffffffffffffffffffffffffffffffffffff1673ffffffffffffffffffffffffffffffffffffffff1681526020019081526020016000206132ee90919063ffffffff16565b50612c5581600160008573ffffffffffffffffffffffffffffffffffffffff1673ffffffffffffffffffffffffffffffffffffffff168152602001908152602001600020612f3090919063ffffffff16565b50612c6c81836002612f4a9092919063ffffffff16565b50808273ffffffffffffffffffffffffffffffffffffffff168473ffffffffffffffffffffffffffffffffffffffff167fddf252ad1be2c89b69c2b068fc378daa952ba7f163c4a11628f55a4df523b3ef60405160405180910390a4505050565b600081836000018054905011612d2e576040517f08c379a00000000000000000000000000000000000000000000000000000000081526004018080602001828103825260228152602001806137916022913960400191505060405180910390fd5b826000018281548110612d3d57fe5b9060005260206000200154905092915050565b60008082846000018054905011612db2576040517f08c379a00000000000000000000000000000000000000000000000000000000081526004018080602001828103825260228152602001806139166022913960400191505060405180910390fd5b6000846000018481548110612dc357fe5b906000526020600020906002020190508060000154816001015492509250509250929050565b600d544210158015612dfd5750600e544211155b80612e415750612e0b6117f3565b73ffffffffffffffffffffffffffffffffffffffff16612e2961240c565b73ffffffffffffffffffffffffffffffffffffffff16145b612eb3576040517f08c379a00000000000000000000000000000000000000000000000000000000081526004018080602001828103825260108152602001807f566f74696e67204e6f74204f70656e2e0000000000000000000000000000000081525060200191505060405180910390fd5b600e54421115612f2b576040517f08c379a00000000000000000000000000000000000000000000000000000000081526004018080602001828103825260118152602001807f456c656374696f6e206973206f7665722e00000000000000000000000000000081525060200191505060405180910390fd5b505050565b6000612f42836000018360001b613308565b905092915050565b6000612f76846000018460001b8473ffffffffffffffffffffffffffffffffffffffff1660001b613378565b90509392505050565b60008084600101600085815260200190815260200160002054905060008114158390613046576040517f08c379a00000000000000000000000000000000000000000000000000000000081526004018080602001828103825283818151815260200191508051906020019080838360005b8381101561300b578082015181840152602081019050612ff0565b50505050905090810190601f1680156130385780820380516001836020036101000a031916815260200191505b509250505060405180910390fd5b5084600001600182038154811061305957fe5b9060005260206000209060020201600101549150509392505050565b600081600001805490509050919050565b60006130a78473ffffffffffffffffffffffffffffffffffffffff16613454565b6130b457600190506132c3565b606061324a63150b7a0260e01b6130c961240c565b888787604051602401808573ffffffffffffffffffffffffffffffffffffffff1673ffffffffffffffffffffffffffffffffffffffff1681526020018473ffffffffffffffffffffffffffffffffffffffff1673ffffffffffffffffffffffffffffffffffffffff16815260200183815260200180602001828103825283818151815260200191508051906020019080838360005b8381101561317957808201518184015260208101905061315e565b50505050905090810190601f1680156131a65780820380516001836020036101000a031916815260200191505b5095505050505050604051602081830303815290604052907bffffffffffffffffffffffffffffffffffffffffffffffffffffffff19166020820180517bffffffffffffffffffffffffffffffffffffffffffffffffffffffff83818316178352505050506040518060600160405280603281526020016137b3603291398773ffffffffffffffffffffffffffffffffffffffff166134679092919063ffffffff16565b9050600081806020019051602081101561326357600080fd5b8101908080519060200190929190505050905063150b7a0260e01b7bffffffffffffffffffffffffffffffffffffffffffffffffffffffff1916817bffffffffffffffffffffffffffffffffffffffffffffffffffffffff191614925050505b949350505050565b600080836001016000848152602001908152602001600020541415905092915050565b6000613300836000018360001b61347f565b905092915050565b60006133148383613567565b61336d578260000182908060018154018082558091505060019003906000526020600020016000909190919091505582600001805490508360010160008481526020019081526020016000208190555060019050613372565b600090505b92915050565b600080846001016000858152602001908152602001600020549050600081141561341f5784600001604051806040016040528086815260200185815250908060018154018082558091505060019003906000526020600020906002020160009091909190915060008201518160000155602082015181600101555050846000018054905085600101600086815260200190815260200160002081905550600191505061344d565b8285600001600183038154811061343257fe5b90600052602060002090600202016001018190555060009150505b9392505050565b600080823b905060008111915050919050565b6060613476848460008561358a565b90509392505050565b6000808360010160008481526020019081526020016000205490506000811461355b57600060018203905060006001866000018054905003905060008660000182815481106134ca57fe5b90600052602060002001549050808760000184815481106134e757fe5b906000526020600020018190555060018301876001016000838152602001908152602001600020819055508660000180548061351f57fe5b60019003818190600052602060002001600090559055866001016000878152602001908152602001600020600090556001945050505050613561565b60009150505b92915050565b600080836001016000848152602001908152602001600020541415905092915050565b606061359585613454565b613607576040517f08c379a000000000000000000000000000000000000000000000000000000000815260040180806020018281038252601d8152602001807f416464726573733a2063616c6c20746f206e6f6e2d636f6e747261637400000081525060200191505060405180910390fd5b600060608673ffffffffffffffffffffffffffffffffffffffff1685876040518082805190602001908083835b602083106136575780518252602082019150602081019050602083039250613634565b6001836020036101000a03801982511681845116808217855250505050505090500191505060006040518083038185875af1925050503d80600081146136b9576040519150601f19603f3d011682016040523d82523d6000602084013e6136be565b606091505b509150915081156136d3578092505050613788565b6000815111156136e65780518082602001fd5b836040517f08c379a00000000000000000000000000000000000000000000000000000000081526004018080602001828103825283818151815260200191508051906020019080838360005b8381101561374d578082015181840152602081019050613732565b50505050905090810190601f16801561377a5780820380516001836020036101000a031916815260200191505b509250505060405180910390fd5b94935050505056fe456e756d657261626c655365743a20696e646578206f7574206f6620626f756e64734552433732313a207472616e7366657220746f206e6f6e20455243373231526563656976657220696d706c656d656e7465724f776e61626c653a206e6577206f776e657220697320746865207a65726f20616464726573734552433732313a207472616e7366657220746f20746865207a65726f2061646472657373417474656d7074696e6720746f207365697a6520746f6b656e2066726f6d20616e6f746865722064697374726963742e4552433732313a206f70657261746f7220717565727920666f72206e6f6e6578697374656e7420746f6b656e4552433732313a20617070726f76652063616c6c6572206973206e6f74206f776e6572206e6f7220617070726f76656420666f7220616c6c4552433732313a2062616c616e636520717565727920666f7220746865207a65726f20616464726573734552433732313a206f776e657220717565727920666f72206e6f6e6578697374656e7420746f6b656e456e756d657261626c654d61703a20696e646578206f7574206f6620626f756e64734552433732313a20617070726f76656420717565727920666f72206e6f6e6578697374656e7420746f6b656e4552433732313a207472616e73666572206f6620746f6b656e2074686174206973206e6f74206f776e4552433732314d657461646174613a2055524920717565727920666f72206e6f6e6578697374656e7420746f6b656e4552433732313a20617070726f76616c20746f2063757272656e74206f776e65724552433732313a207472616e736665722063616c6c6572206973206e6f74206f776e6572206e6f7220617070726f76656443616c6c696e672041646472657373206e6f7420696e206c697374206f6620616c6c6f77656420636f6e7472616374732ea26469706673582212206baaf128795cb621a6a392278178b23d4bf5345f434e7efd3ddbaef74c51ca2464736f6c63430006020033",
  "source": "pragma solidity ^0.6.0;\nimport \"@openzeppelin/contracts/token/ERC721/ERC721.sol\";\nimport \"./District.sol\";\nimport \"@openzeppelin/contracts/access/Ownable.sol\";\nimport \"@openzeppelin/contracts/math/SafeMath.sol\";\n\ncontract VoteToken is ERC721, Ownable{\n    mapping(uint256 => uint8) public district; //maps token ID to District voter it is issued to is on.\n    mapping(uint256 => mapping(uint8=>address)) public preferences; //maps token ID to the preferences selected by the voter.\n    uint public voteStart; //Time (in seconds since epoch) \n    uint public voteEnd;\n    uint64 public votesTotal;\n\n    using SafeMath for uint64;\n    //Much of the ERC721 functionality will be restricted to only the District contracts.\n    mapping(address => bool) public allowedContracts; \n    modifier OnlyAllowed {\n        require(allowedContracts[msg.sender] == true,\"Calling Address not in list of allowed contracts.\");\n        _;\n    }\n\n    constructor(string memory __name, string memory __symbol, uint _voteStart, uint _voteEnd) ERC721(__name,__symbol) Ownable() public{\n        voteStart = _voteStart;\n        voteEnd = _voteEnd;\n        allowedContracts[address(this)] = true;\n        \n    }\n\n    //Called For Each District Contract Address.\n    function setAllowed(address _address) public onlyOwner {\n        allowedContracts[_address] = true;\n    }\n\n    /*\n    Ensures No tokens can be transferred (ie: voting) before or after voting period ends\n    */\n    function _beforeTokenTransfer(address from, address to, uint256 tokenId) internal override {\n        require((now >= voteStart && now <= voteEnd) || (_msgSender() == owner()),\"Voting Not Open.\"); \n        require(now <= voteEnd,\"Election is over.\");\n    }\n    \n    /* Maps a given vote Token ID to a mapping of the voter's preferences (1..N) to the addresses of the corresponding candidates. */\n    function setVotePreferences(uint256 _tokenId, address[] memory _preferences) public{\n        _isApprovedOrOwner(_msgSender(), _tokenId);\n\n        for(uint8 i = 1; i <= _preferences.length; i++){\n            preferences[_tokenId][i] = _preferences[i-1];\n        }\n    }\n    \n    /* Utilises vanilla ERC721 mint functionality but adds the restrictions that the mint is rejected if the recipient has a balance larger than 0;\n    As every voter may only be issued one vote and that only the owner of the VoteToken contract (the Election Controller contract) may call it.\n    Additionally, it also assigns the number of the electoral district in which the voter resides as metadata*/\n    function mint(address _to, uint256 _tokenId, uint8 _districtNo) public onlyOwner{\n        //require(balanceOf(_to) == 0,\"Recipient Already has a vote. (balance non 0)\"); //no one may have more than 1 vote.\n\n        _mint(_to , _tokenId);\n        district[_tokenId] = _districtNo;\n        votesTotal++;\n    }\n    \n    /*\n    May be called only by District contracts (onlyAllowed). Used in order to redistribute votes from candidates that are eliminated in the process of counting.\n    Has the additional restriction that each token must \"belong\" to the District that is attempting to seize it.\n     */\n    function transferAllBack(address _from) public OnlyAllowed {\n        uint8 _districtNo = District(msg.sender).districtNumber();\n        uint balance = balanceOf(_from);\n\n        for(uint32 i = 0; i < balance; i++){\n            uint256 tokenId = tokenOfOwnerByIndex(_from,i);\n            require(district[tokenId] == _districtNo,\"Attempting to seize token from another district.\");\n            transferFrom(_from,msg.sender,tokenId);\n        }\n    }\n    \n    /*Proxy for the vanilla transferFrom function of ERC721, but restricts it to only allowed callers (District contracts))*/\n    function transferFrom(address from, address to, uint256 tokenId) public OnlyAllowed override {\n        //_beforeTokenTransfer(from,to,tokenId);\n        super.transferFrom(from,to,tokenId);\n    }\n\n    /*\n    Safe Transfer is used to check that a recipient of a token is either: a wallet address or, if it is a contract, that it has functionality that allows it to\n    transfer otherwise make use of the tokens it receives. This was implemented in order to ensure tokens are not lost by being sent to a contract that has no way of moving them.\n    It is not necessary for this application given the limited use-scope of our token. It has therefore been overriden with an empty function.\n     */\n    function safeTransferFrom(address from, address to, uint256 tokenId) public override {\n        /*unnecessary*/\n        revert();\n    }\n\n    \n    function kill() public onlyOwner {\n        selfdestruct(msg.sender);\n    }\n}",
  "sourcePath": "/Users/timothymuscat/Documents/MScThesis/BlockVote_ReactBox/contracts/VoteToken.sol",
  "compiler": {
    "name": "solc",
    "version": "0.6.2+commit.bacdbe57.Emscripten.clang"
  },
  "schemaVersion": "3.2.2",
  "updatedAt": "2020-09-21T08:53:10.756Z",
  "devdoc": {
    "methods": {
      "approve(address,uint256)": {
        "details": "See {IERC721-approve}."
      },
      "balanceOf(address)": {
        "details": "See {IERC721-balanceOf}."
      },
      "baseURI()": {
        "details": "Returns the base URI set via {_setBaseURI}. This will be automatically added as a prefix in {tokenURI} to each token's URI, or to the token ID if no specific URI is set for that token ID."
      },
      "getApproved(uint256)": {
        "details": "See {IERC721-getApproved}."
      },
      "isApprovedForAll(address,address)": {
        "details": "See {IERC721-isApprovedForAll}."
      },
      "name()": {
        "details": "See {IERC721Metadata-name}."
      },
      "owner()": {
        "details": "Returns the address of the current owner."
      },
      "ownerOf(uint256)": {
        "details": "See {IERC721-ownerOf}."
      },
      "renounceOwnership()": {
        "details": "Leaves the contract without owner. It will not be possible to call `onlyOwner` functions anymore. Can only be called by the current owner.     * NOTE: Renouncing ownership will leave the contract without an owner, thereby removing any functionality that is only available to the owner."
      },
      "safeTransferFrom(address,address,uint256,bytes)": {
        "details": "See {IERC721-safeTransferFrom}."
      },
      "setApprovalForAll(address,bool)": {
        "details": "See {IERC721-setApprovalForAll}."
      },
      "supportsInterface(bytes4)": {
        "details": "See {IERC165-supportsInterface}.     * Time complexity O(1), guaranteed to always use less than 30 000 gas."
      },
      "symbol()": {
        "details": "See {IERC721Metadata-symbol}."
      },
      "tokenByIndex(uint256)": {
        "details": "See {IERC721Enumerable-tokenByIndex}."
      },
      "tokenOfOwnerByIndex(address,uint256)": {
        "details": "See {IERC721Enumerable-tokenOfOwnerByIndex}."
      },
      "tokenURI(uint256)": {
        "details": "See {IERC721Metadata-tokenURI}."
      },
      "totalSupply()": {
        "details": "See {IERC721Enumerable-totalSupply}."
      },
      "transferOwnership(address)": {
        "details": "Transfers ownership of the contract to a new account (`newOwner`). Can only be called by the current owner."
      }
    }
  },
  "userdoc": {
    "methods": {}
  }
}