{
  "contractName": "VoteToken",
  "abi": [
    {
      "inputs": [
        {
          "internalType": "string",
          "name": "__name",
          "type": "string"
        },
        {
          "internalType": "string",
          "name": "__symbol",
          "type": "string"
        },
        {
          "internalType": "uint256",
          "name": "_voteStart",
          "type": "uint256"
        },
        {
          "internalType": "uint256",
          "name": "_voteEnd",
          "type": "uint256"
        }
      ],
      "stateMutability": "nonpayable",
      "type": "constructor"
    },
    {
      "anonymous": false,
      "inputs": [
        {
          "indexed": true,
          "internalType": "address",
          "name": "owner",
          "type": "address"
        },
        {
          "indexed": true,
          "internalType": "address",
          "name": "approved",
          "type": "address"
        },
        {
          "indexed": true,
          "internalType": "uint256",
          "name": "tokenId",
          "type": "uint256"
        }
      ],
      "name": "Approval",
      "type": "event"
    },
    {
      "anonymous": false,
      "inputs": [
        {
          "indexed": true,
          "internalType": "address",
          "name": "owner",
          "type": "address"
        },
        {
          "indexed": true,
          "internalType": "address",
          "name": "operator",
          "type": "address"
        },
        {
          "indexed": false,
          "internalType": "bool",
          "name": "approved",
          "type": "bool"
        }
      ],
      "name": "ApprovalForAll",
      "type": "event"
    },
    {
      "anonymous": false,
      "inputs": [
        {
          "indexed": true,
          "internalType": "address",
          "name": "previousOwner",
          "type": "address"
        },
        {
          "indexed": true,
          "internalType": "address",
          "name": "newOwner",
          "type": "address"
        }
      ],
      "name": "OwnershipTransferred",
      "type": "event"
    },
    {
      "anonymous": false,
      "inputs": [
        {
          "indexed": true,
          "internalType": "address",
          "name": "from",
          "type": "address"
        },
        {
          "indexed": true,
          "internalType": "address",
          "name": "to",
          "type": "address"
        },
        {
          "indexed": true,
          "internalType": "uint256",
          "name": "tokenId",
          "type": "uint256"
        }
      ],
      "name": "Transfer",
      "type": "event"
    },
    {
      "inputs": [
        {
          "internalType": "address",
          "name": "to",
          "type": "address"
        },
        {
          "internalType": "uint256",
          "name": "tokenId",
          "type": "uint256"
        }
      ],
      "name": "approve",
      "outputs": [],
      "stateMutability": "nonpayable",
      "type": "function"
    },
    {
      "inputs": [
        {
          "internalType": "address",
          "name": "owner",
          "type": "address"
        }
      ],
      "name": "balanceOf",
      "outputs": [
        {
          "internalType": "uint256",
          "name": "",
          "type": "uint256"
        }
      ],
      "stateMutability": "view",
      "type": "function"
    },
    {
      "inputs": [],
      "name": "baseURI",
      "outputs": [
        {
          "internalType": "string",
          "name": "",
          "type": "string"
        }
      ],
      "stateMutability": "view",
      "type": "function"
    },
    {
      "inputs": [
        {
          "internalType": "uint256",
          "name": "",
          "type": "uint256"
        }
      ],
      "name": "district",
      "outputs": [
        {
          "internalType": "uint8",
          "name": "",
          "type": "uint8"
        }
      ],
      "stateMutability": "view",
      "type": "function"
    },
    {
      "inputs": [
        {
          "internalType": "uint256",
          "name": "tokenId",
          "type": "uint256"
        }
      ],
      "name": "getApproved",
      "outputs": [
        {
          "internalType": "address",
          "name": "",
          "type": "address"
        }
      ],
      "stateMutability": "view",
      "type": "function"
    },
    {
      "inputs": [
        {
          "internalType": "address",
          "name": "owner",
          "type": "address"
        },
        {
          "internalType": "address",
          "name": "operator",
          "type": "address"
        }
      ],
      "name": "isApprovedForAll",
      "outputs": [
        {
          "internalType": "bool",
          "name": "",
          "type": "bool"
        }
      ],
      "stateMutability": "view",
      "type": "function"
    },
    {
      "inputs": [],
      "name": "name",
      "outputs": [
        {
          "internalType": "string",
          "name": "",
          "type": "string"
        }
      ],
      "stateMutability": "view",
      "type": "function"
    },
    {
      "inputs": [],
      "name": "owner",
      "outputs": [
        {
          "internalType": "address",
          "name": "",
          "type": "address"
        }
      ],
      "stateMutability": "view",
      "type": "function"
    },
    {
      "inputs": [
        {
          "internalType": "uint256",
          "name": "tokenId",
          "type": "uint256"
        }
      ],
      "name": "ownerOf",
      "outputs": [
        {
          "internalType": "address",
          "name": "",
          "type": "address"
        }
      ],
      "stateMutability": "view",
      "type": "function"
    },
    {
      "inputs": [
        {
          "internalType": "uint256",
          "name": "",
          "type": "uint256"
        },
        {
          "internalType": "uint8",
          "name": "",
          "type": "uint8"
        }
      ],
      "name": "preferences",
      "outputs": [
        {
          "internalType": "address",
          "name": "",
          "type": "address"
        }
      ],
      "stateMutability": "view",
      "type": "function"
    },
    {
      "inputs": [],
      "name": "renounceOwnership",
      "outputs": [],
      "stateMutability": "nonpayable",
      "type": "function"
    },
    {
      "inputs": [
        {
          "internalType": "address",
          "name": "operator",
          "type": "address"
        },
        {
          "internalType": "bool",
          "name": "approved",
          "type": "bool"
        }
      ],
      "name": "setApprovalForAll",
      "outputs": [],
      "stateMutability": "nonpayable",
      "type": "function"
    },
    {
      "inputs": [
        {
          "internalType": "bytes4",
          "name": "interfaceId",
          "type": "bytes4"
        }
      ],
      "name": "supportsInterface",
      "outputs": [
        {
          "internalType": "bool",
          "name": "",
          "type": "bool"
        }
      ],
      "stateMutability": "view",
      "type": "function"
    },
    {
      "inputs": [],
      "name": "symbol",
      "outputs": [
        {
          "internalType": "string",
          "name": "",
          "type": "string"
        }
      ],
      "stateMutability": "view",
      "type": "function"
    },
    {
      "inputs": [
        {
          "internalType": "uint256",
          "name": "index",
          "type": "uint256"
        }
      ],
      "name": "tokenByIndex",
      "outputs": [
        {
          "internalType": "uint256",
          "name": "",
          "type": "uint256"
        }
      ],
      "stateMutability": "view",
      "type": "function"
    },
    {
      "inputs": [
        {
          "internalType": "address",
          "name": "owner",
          "type": "address"
        },
        {
          "internalType": "uint256",
          "name": "index",
          "type": "uint256"
        }
      ],
      "name": "tokenOfOwnerByIndex",
      "outputs": [
        {
          "internalType": "uint256",
          "name": "",
          "type": "uint256"
        }
      ],
      "stateMutability": "view",
      "type": "function"
    },
    {
      "inputs": [
        {
          "internalType": "uint256",
          "name": "tokenId",
          "type": "uint256"
        }
      ],
      "name": "tokenURI",
      "outputs": [
        {
          "internalType": "string",
          "name": "",
          "type": "string"
        }
      ],
      "stateMutability": "view",
      "type": "function"
    },
    {
      "inputs": [],
      "name": "totalSupply",
      "outputs": [
        {
          "internalType": "uint256",
          "name": "",
          "type": "uint256"
        }
      ],
      "stateMutability": "view",
      "type": "function"
    },
    {
      "inputs": [
        {
          "internalType": "address",
          "name": "newOwner",
          "type": "address"
        }
      ],
      "name": "transferOwnership",
      "outputs": [],
      "stateMutability": "nonpayable",
      "type": "function"
    },
    {
      "inputs": [],
      "name": "voteEnd",
      "outputs": [
        {
          "internalType": "uint256",
          "name": "",
          "type": "uint256"
        }
      ],
      "stateMutability": "view",
      "type": "function"
    },
    {
      "inputs": [],
      "name": "voteStart",
      "outputs": [
        {
          "internalType": "uint256",
          "name": "",
          "type": "uint256"
        }
      ],
      "stateMutability": "view",
      "type": "function"
    },
    {
      "inputs": [],
      "name": "votesTotal",
      "outputs": [
        {
          "internalType": "uint64",
          "name": "",
          "type": "uint64"
        }
      ],
      "stateMutability": "view",
      "type": "function"
    },
    {
      "inputs": [
        {
          "internalType": "address",
          "name": "_address",
          "type": "address"
        }
      ],
      "name": "setAllowed",
      "outputs": [],
      "stateMutability": "nonpayable",
      "type": "function"
    },
    {
      "inputs": [
        {
          "internalType": "uint256",
          "name": "_tokenId",
          "type": "uint256"
        },
        {
          "internalType": "address[]",
          "name": "_preferences",
          "type": "address[]"
        }
      ],
      "name": "setVotePreferences",
      "outputs": [],
      "stateMutability": "nonpayable",
      "type": "function"
    },
    {
      "inputs": [
        {
          "internalType": "address",
          "name": "_to",
          "type": "address"
        },
        {
          "internalType": "uint256",
          "name": "_tokenId",
          "type": "uint256"
        },
        {
          "internalType": "uint8",
          "name": "_districtNo",
          "type": "uint8"
        }
      ],
      "name": "mint",
      "outputs": [],
      "stateMutability": "nonpayable",
      "type": "function"
    },
    {
      "inputs": [
        {
          "internalType": "address",
          "name": "_from",
          "type": "address"
        }
      ],
      "name": "transferAllBack",
      "outputs": [],
      "stateMutability": "nonpayable",
      "type": "function"
    },
    {
      "inputs": [
        {
          "internalType": "address",
          "name": "from",
          "type": "address"
        },
        {
          "internalType": "address",
          "name": "to",
          "type": "address"
        },
        {
          "internalType": "uint256",
          "name": "tokenId",
          "type": "uint256"
        }
      ],
      "name": "transferFrom",
      "outputs": [],
      "stateMutability": "nonpayable",
      "type": "function"
    },
    {
      "inputs": [
        {
          "internalType": "address",
          "name": "from",
          "type": "address"
        },
        {
          "internalType": "address",
          "name": "to",
          "type": "address"
        },
        {
          "internalType": "uint256",
          "name": "tokenId",
          "type": "uint256"
        }
      ],
      "name": "safeTransferFrom",
      "outputs": [],
      "stateMutability": "nonpayable",
      "type": "function"
    },
    {
      "inputs": [
        {
          "internalType": "address",
          "name": "from",
          "type": "address"
        },
        {
          "internalType": "address",
          "name": "to",
          "type": "address"
        },
        {
          "internalType": "uint256",
          "name": "tokenId",
          "type": "uint256"
        },
        {
          "internalType": "bytes",
          "name": "_data",
          "type": "bytes"
        }
      ],
      "name": "safeTransferFrom",
      "outputs": [],
      "stateMutability": "nonpayable",
      "type": "function"
    },
    {
      "inputs": [],
      "name": "kill",
      "outputs": [],
      "stateMutability": "nonpayable",
      "type": "function"
    }
  ],
  "bytecode": "0x60806040523480156200001157600080fd5b5060405162003f1938038062003f19833981810160405260808110156200003757600080fd5b81019080805160405193929190846401000000008211156200005857600080fd5b838201915060208201858111156200006f57600080fd5b82518660018202830111640100000000821117156200008d57600080fd5b8083526020830192505050908051906020019080838360005b83811015620000c3578082015181840152602081019050620000a6565b50505050905090810190601f168015620000f15780820380516001836020036101000a031916815260200191505b50604052602001805160405193929190846401000000008211156200011557600080fd5b838201915060208201858111156200012c57600080fd5b82518660018202830111640100000000821117156200014a57600080fd5b8083526020830192505050908051906020019080838360005b838110156200018057808201518184015260208101905062000163565b50505050905090810190601f168015620001ae5780820380516001836020036101000a031916815260200191505b5060405260200180519060200190929190805190602001909291905050508383620001e66301ffc9a760e01b6200038360201b60201c565b8160069080519060200190620001fe92919062000494565b5080600790805190602001906200021792919062000494565b50620002306380ac58cd60e01b6200038360201b60201c565b62000248635b5e139f60e01b6200038360201b60201c565b6200026063780e9d6360e01b6200038360201b60201c565b50506000620002746200048c60201b60201c565b905080600a60006101000a81548173ffffffffffffffffffffffffffffffffffffffff021916908373ffffffffffffffffffffffffffffffffffffffff1602179055508073ffffffffffffffffffffffffffffffffffffffff16600073ffffffffffffffffffffffffffffffffffffffff167f8be0079c531659141344cd1fd0a4f28419497f9722a3daafe3b4186f6b6457e060405160405180910390a35081600d8190555080600e819055506001601060003073ffffffffffffffffffffffffffffffffffffffff1673ffffffffffffffffffffffffffffffffffffffff16815260200190815260200160002060006101000a81548160ff0219169083151502179055505050505062000543565b63ffffffff60e01b817bffffffffffffffffffffffffffffffffffffffffffffffffffffffff1916141562000420576040517f08c379a000000000000000000000000000000000000000000000000000000000815260040180806020018281038252601c8152602001807f4552433136353a20696e76616c696420696e746572666163652069640000000081525060200191505060405180910390fd5b6001600080837bffffffffffffffffffffffffffffffffffffffffffffffffffffffff19167bffffffffffffffffffffffffffffffffffffffffffffffffffffffff1916815260200190815260200160002060006101000a81548160ff02191690831515021790555050565b600033905090565b828054600181600116156101000203166002900490600052602060002090601f016020900481019282601f10620004d757805160ff191683800117855562000508565b8280016001018555821562000508579182015b8281111562000507578251825591602001919060010190620004ea565b5b5090506200051791906200051b565b5090565b6200054091905b808211156200053c57600081600090555060010162000522565b5090565b90565b6139c680620005536000396000f3fe608060405234801561001057600080fd5b50600436106101da5760003560e01c80636c0360eb11610104578063b88d4fde116100a2578063ddbe8f0911610071578063ddbe8f0914610ba2578063e031535b14610bc0578063e985e9c514610bde578063f2fde38b14610c5a576101da565b8063b88d4fde14610937578063c0e79a1114610a3c578063c87b56dd14610a80578063d1d0a5ea14610b27576101da565b80638da5cb5b116100de5780638da5cb5b146107d657806395d89b4114610820578063a22cb465146108a3578063abd2a233146108f3576101da565b80636c0360eb146106f157806370a0823114610774578063715018a6146107cc576101da565b80632f745c591161017c5780634f6ccce71161014b5780634f6ccce7146105b457806354218cd8146105f65780636112e8ac146106285780636352211e14610683576101da565b80632f745c5914610457578063324b1dc6146104b957806341c0e1b51461053c57806342842e0e14610546576101da565b8063095ea7b3116101b8578063095ea7b31461033557806318160ddd146103835780631979955e146103a157806323b872dd146103e9576101da565b806301ffc9a7146101df57806306fdde0314610244578063081812fc146102c7575b600080fd5b61022a600480360360208110156101f557600080fd5b8101908080357bffffffffffffffffffffffffffffffffffffffffffffffffffffffff19169060200190929190505050610c9e565b604051808215151515815260200191505060405180910390f35b61024c610d05565b6040518080602001828103825283818151815260200191508051906020019080838360005b8381101561028c578082015181840152602081019050610271565b50505050905090810190601f1680156102b95780820380516001836020036101000a031916815260200191505b509250505060405180910390f35b6102f3600480360360208110156102dd57600080fd5b8101908080359060200190929190505050610da7565b604051808273ffffffffffffffffffffffffffffffffffffffff1673ffffffffffffffffffffffffffffffffffffffff16815260200191505060405180910390f35b6103816004803603604081101561034b57600080fd5b81019080803573ffffffffffffffffffffffffffffffffffffffff16906020019092919080359060200190929190505050610e42565b005b61038b610f86565b6040518082815260200191505060405180910390f35b6103cd600480360360208110156103b757600080fd5b8101908080359060200190929190505050610f97565b604051808260ff1660ff16815260200191505060405180910390f35b610455600480360360608110156103ff57600080fd5b81019080803573ffffffffffffffffffffffffffffffffffffffff169060200190929190803573ffffffffffffffffffffffffffffffffffffffff16906020019092919080359060200190929190505050610fb7565b005b6104a36004803603604081101561046d57600080fd5b81019080803573ffffffffffffffffffffffffffffffffffffffff16906020019092919080359060200190929190505050611070565b6040518082815260200191505060405180910390f35b61053a600480360360408110156104cf57600080fd5b8101908080359060200190929190803590602001906401000000008111156104f657600080fd5b82018360208201111561050857600080fd5b8035906020019184602083028401116401000000008311171561052a57600080fd5b90919293919293905050506110cb565b005b61054461119b565b005b6105b26004803603606081101561055c57600080fd5b81019080803573ffffffffffffffffffffffffffffffffffffffff169060200190929190803573ffffffffffffffffffffffffffffffffffffffff1690602001909291908035906020019092919050505061127e565b005b6105e0600480360360208110156105ca57600080fd5b8101908080359060200190929190505050611283565b6040518082815260200191505060405180910390f35b6105fe6112a6565b604051808267ffffffffffffffff1667ffffffffffffffff16815260200191505060405180910390f35b6106816004803603606081101561063e57600080fd5b81019080803573ffffffffffffffffffffffffffffffffffffffff16906020019092919080359060200190929190803560ff1690602001909291905050506112c0565b005b6106af6004803603602081101561069957600080fd5b810190808035906020019092919050505061140c565b604051808273ffffffffffffffffffffffffffffffffffffffff1673ffffffffffffffffffffffffffffffffffffffff16815260200191505060405180910390f35b6106f9611443565b6040518080602001828103825283818151815260200191508051906020019080838360005b8381101561073957808201518184015260208101905061071e565b50505050905090810190601f1680156107665780820380516001836020036101000a031916815260200191505b509250505060405180910390f35b6107b66004803603602081101561078a57600080fd5b81019080803573ffffffffffffffffffffffffffffffffffffffff1690602001909291905050506114e5565b6040518082815260200191505060405180910390f35b6107d46115ba565b005b6107de611745565b604051808273ffffffffffffffffffffffffffffffffffffffff1673ffffffffffffffffffffffffffffffffffffffff16815260200191505060405180910390f35b61082861176f565b6040518080602001828103825283818151815260200191508051906020019080838360005b8381101561086857808201518184015260208101905061084d565b50505050905090810190601f1680156108955780820380516001836020036101000a031916815260200191505b509250505060405180910390f35b6108f1600480360360408110156108b957600080fd5b81019080803573ffffffffffffffffffffffffffffffffffffffff169060200190929190803515159060200190929190505050611811565b005b6109356004803603602081101561090957600080fd5b81019080803573ffffffffffffffffffffffffffffffffffffffff1690602001909291905050506119c9565b005b610a3a6004803603608081101561094d57600080fd5b81019080803573ffffffffffffffffffffffffffffffffffffffff169060200190929190803573ffffffffffffffffffffffffffffffffffffffff16906020019092919080359060200190929190803590602001906401000000008111156109b457600080fd5b8201836020820111156109c657600080fd5b803590602001918460018302840111640100000000831117156109e857600080fd5b91908080601f016020809104026020016040519081016040528093929190818152602001838380828437600081840152601f19601f820116905080830192505050505050509192919290505050611bc9565b005b610a7e60048036036020811015610a5257600080fd5b81019080803573ffffffffffffffffffffffffffffffffffffffff169060200190929190505050611c41565b005b610aac60048036036020811015610a9657600080fd5b8101908080359060200190929190505050611d66565b6040518080602001828103825283818151815260200191508051906020019080838360005b83811015610aec578082015181840152602081019050610ad1565b50505050905090810190601f168015610b195780820380516001836020036101000a031916815260200191505b509250505060405180910390f35b610b6060048036036040811015610b3d57600080fd5b8101908080359060200190929190803560ff16906020019092919050505061204f565b604051808273ffffffffffffffffffffffffffffffffffffffff1673ffffffffffffffffffffffffffffffffffffffff16815260200191505060405180910390f35b610baa612091565b6040518082815260200191505060405180910390f35b610bc8612097565b6040518082815260200191505060405180910390f35b610c4060048036036040811015610bf457600080fd5b81019080803573ffffffffffffffffffffffffffffffffffffffff169060200190929190803573ffffffffffffffffffffffffffffffffffffffff16906020019092919050505061209d565b604051808215151515815260200191505060405180910390f35b610c9c60048036036020811015610c7057600080fd5b81019080803573ffffffffffffffffffffffffffffffffffffffff169060200190929190505050612131565b005b6000806000837bffffffffffffffffffffffffffffffffffffffffffffffffffffffff19167bffffffffffffffffffffffffffffffffffffffffffffffffffffffff1916815260200190815260200160002060009054906101000a900460ff169050919050565b606060068054600181600116156101000203166002900480601f016020809104026020016040519081016040528092919081815260200182805460018160011615610100020316600290048015610d9d5780601f10610d7257610100808354040283529160200191610d9d565b820191906000526020600020905b815481529060010190602001808311610d8057829003601f168201915b5050505050905090565b6000610db282612341565b610e07576040517f08c379a000000000000000000000000000000000000000000000000000000000815260040180806020018281038252602c81526020018061388a602c913960400191505060405180910390fd5b6004600083815260200190815260200160002060009054906101000a900473ffffffffffffffffffffffffffffffffffffffff169050919050565b6000610e4d8261140c565b90508073ffffffffffffffffffffffffffffffffffffffff168373ffffffffffffffffffffffffffffffffffffffff161415610ed4576040517f08c379a000000000000000000000000000000000000000000000000000000000815260040180806020018281038252602181526020018061390e6021913960400191505060405180910390fd5b8073ffffffffffffffffffffffffffffffffffffffff16610ef361235e565b73ffffffffffffffffffffffffffffffffffffffff161480610f225750610f2181610f1c61235e565b61209d565b5b610f77576040517f08c379a00000000000000000000000000000000000000000000000000000000081526004018080602001828103825260388152602001806137dd6038913960400191505060405180910390fd5b610f818383612366565b505050565b6000610f92600261241f565b905090565b600b6020528060005260406000206000915054906101000a900460ff1681565b60011515601060003373ffffffffffffffffffffffffffffffffffffffff1673ffffffffffffffffffffffffffffffffffffffff16815260200190815260200160002060009054906101000a900460ff16151514611060576040517f08c379a00000000000000000000000000000000000000000000000000000000081526004018080602001828103825260318152602001806139606031913960400191505060405180910390fd5b61106b838383612434565b505050565b60006110c382600160008673ffffffffffffffffffffffffffffffffffffffff1673ffffffffffffffffffffffffffffffffffffffff1681526020019081526020016000206124aa90919063ffffffff16565b905092915050565b6110dc6110d661235e565b846124c4565b506000600190505b828290508160ff16116111955782826001830360ff1681811061110357fe5b9050602002013573ffffffffffffffffffffffffffffffffffffffff16600c600086815260200190815260200160002060008360ff1660ff16815260200190815260200160002060006101000a81548173ffffffffffffffffffffffffffffffffffffffff021916908373ffffffffffffffffffffffffffffffffffffffff16021790555080806001019150506110e4565b50505050565b6111a361235e565b73ffffffffffffffffffffffffffffffffffffffff16600a60009054906101000a900473ffffffffffffffffffffffffffffffffffffffff1673ffffffffffffffffffffffffffffffffffffffff1614611265576040517f08c379a00000000000000000000000000000000000000000000000000000000081526004018080602001828103825260208152602001807f4f776e61626c653a2063616c6c6572206973206e6f7420746865206f776e657281525060200191505060405180910390fd5b3373ffffffffffffffffffffffffffffffffffffffff16ff5b600080fd5b60008061129a8360026125b890919063ffffffff16565b50905080915050919050565b600f60009054906101000a900467ffffffffffffffff1681565b6112c861235e565b73ffffffffffffffffffffffffffffffffffffffff16600a60009054906101000a900473ffffffffffffffffffffffffffffffffffffffff1673ffffffffffffffffffffffffffffffffffffffff161461138a576040517f08c379a00000000000000000000000000000000000000000000000000000000081526004018080602001828103825260208152602001807f4f776e61626c653a2063616c6c6572206973206e6f7420746865206f776e657281525060200191505060405180910390fd5b61139483836125e7565b80600b600084815260200190815260200160002060006101000a81548160ff021916908360ff160217905550600f600081819054906101000a900467ffffffffffffffff168092919060010191906101000a81548167ffffffffffffffff021916908367ffffffffffffffff16021790555050505050565b600061143c8260405180606001604052806029815260200161383f6029913960026127db9092919063ffffffff16565b9050919050565b606060098054600181600116156101000203166002900480601f0160208091040260200160405190810160405280929190818152602001828054600181600116156101000203166002900480156114db5780601f106114b0576101008083540402835291602001916114db565b820191906000526020600020905b8154815290600101906020018083116114be57829003601f168201915b5050505050905090565b60008073ffffffffffffffffffffffffffffffffffffffff168273ffffffffffffffffffffffffffffffffffffffff16141561156c576040517f08c379a000000000000000000000000000000000000000000000000000000000815260040180806020018281038252602a815260200180613815602a913960400191505060405180910390fd5b6115b3600160008473ffffffffffffffffffffffffffffffffffffffff1673ffffffffffffffffffffffffffffffffffffffff1681526020019081526020016000206127fa565b9050919050565b6115c261235e565b73ffffffffffffffffffffffffffffffffffffffff16600a60009054906101000a900473ffffffffffffffffffffffffffffffffffffffff1673ffffffffffffffffffffffffffffffffffffffff1614611684576040517f08c379a00000000000000000000000000000000000000000000000000000000081526004018080602001828103825260208152602001807f4f776e61626c653a2063616c6c6572206973206e6f7420746865206f776e657281525060200191505060405180910390fd5b600073ffffffffffffffffffffffffffffffffffffffff16600a60009054906101000a900473ffffffffffffffffffffffffffffffffffffffff1673ffffffffffffffffffffffffffffffffffffffff167f8be0079c531659141344cd1fd0a4f28419497f9722a3daafe3b4186f6b6457e060405160405180910390a36000600a60006101000a81548173ffffffffffffffffffffffffffffffffffffffff021916908373ffffffffffffffffffffffffffffffffffffffff160217905550565b6000600a60009054906101000a900473ffffffffffffffffffffffffffffffffffffffff16905090565b606060078054600181600116156101000203166002900480601f0160208091040260200160405190810160405280929190818152602001828054600181600116156101000203166002900480156118075780601f106117dc57610100808354040283529160200191611807565b820191906000526020600020905b8154815290600101906020018083116117ea57829003601f168201915b5050505050905090565b61181961235e565b73ffffffffffffffffffffffffffffffffffffffff168273ffffffffffffffffffffffffffffffffffffffff1614156118ba576040517f08c379a00000000000000000000000000000000000000000000000000000000081526004018080602001828103825260198152602001807f4552433732313a20617070726f766520746f2063616c6c65720000000000000081525060200191505060405180910390fd5b80600560006118c761235e565b73ffffffffffffffffffffffffffffffffffffffff1673ffffffffffffffffffffffffffffffffffffffff16815260200190815260200160002060008473ffffffffffffffffffffffffffffffffffffffff1673ffffffffffffffffffffffffffffffffffffffff16815260200190815260200160002060006101000a81548160ff0219169083151502179055508173ffffffffffffffffffffffffffffffffffffffff1661197461235e565b73ffffffffffffffffffffffffffffffffffffffff167f17307eab39ab6107e8899845ad3d59bd9653f200f220920489ca2b5937696c3183604051808215151515815260200191505060405180910390a35050565b60011515601060003373ffffffffffffffffffffffffffffffffffffffff1673ffffffffffffffffffffffffffffffffffffffff16815260200190815260200160002060009054906101000a900460ff16151514611a72576040517f08c379a00000000000000000000000000000000000000000000000000000000081526004018080602001828103825260318152602001806139606031913960400191505060405180910390fd5b60003373ffffffffffffffffffffffffffffffffffffffff1663dd7177d86040518163ffffffff1660e01b815260040160206040518083038186803b158015611aba57600080fd5b505afa158015611ace573d6000803e3d6000fd5b505050506040513d6020811015611ae457600080fd5b810190808051906020019092919050505090506000611b02836114e5565b905060008090505b818163ffffffff161015611bc3576000611b2a858363ffffffff16611070565b90508360ff16600b600083815260200190815260200160002060009054906101000a900460ff1660ff1614611baa576040517f08c379a00000000000000000000000000000000000000000000000000000000081526004018080602001828103825260308152602001806137816030913960400191505060405180910390fd5b611bb5853383610fb7565b508080600101915050611b0a565b50505050565b611bda611bd461235e565b836124c4565b611c2f576040517f08c379a000000000000000000000000000000000000000000000000000000000815260040180806020018281038252603181526020018061392f6031913960400191505060405180910390fd5b611c3b8484848461280f565b50505050565b611c4961235e565b73ffffffffffffffffffffffffffffffffffffffff16600a60009054906101000a900473ffffffffffffffffffffffffffffffffffffffff1673ffffffffffffffffffffffffffffffffffffffff1614611d0b576040517f08c379a00000000000000000000000000000000000000000000000000000000081526004018080602001828103825260208152602001807f4f776e61626c653a2063616c6c6572206973206e6f7420746865206f776e657281525060200191505060405180910390fd5b6001601060008373ffffffffffffffffffffffffffffffffffffffff1673ffffffffffffffffffffffffffffffffffffffff16815260200190815260200160002060006101000a81548160ff02191690831515021790555050565b6060611d7182612341565b611dc6576040517f08c379a000000000000000000000000000000000000000000000000000000000815260040180806020018281038252602f8152602001806138df602f913960400191505060405180910390fd5b6060600860008481526020019081526020016000208054600181600116156101000203166002900480601f016020809104026020016040519081016040528092919081815260200182805460018160011615610100020316600290048015611e6f5780601f10611e4457610100808354040283529160200191611e6f565b820191906000526020600020905b815481529060010190602001808311611e5257829003601f168201915b50505050509050600060098054600181600116156101000203166002900490501415611e9e578091505061204a565b600081511115611f77576009816040516020018083805460018160011615610100020316600290048015611f095780601f10611ee7576101008083540402835291820191611f09565b820191906000526020600020905b815481529060010190602001808311611ef5575b505082805190602001908083835b60208310611f3a5780518252602082019150602081019050602083039250611f17565b6001836020036101000a0380198251168184511680821785525050505050509050019250505060405160208183030381529060405291505061204a565b6009611f8284612881565b6040516020018083805460018160011615610100020316600290048015611fe05780601f10611fbe576101008083540402835291820191611fe0565b820191906000526020600020905b815481529060010190602001808311611fcc575b505082805190602001908083835b602083106120115780518252602082019150602081019050602083039250611fee565b6001836020036101000a038019825116818451168082178552505050505050905001925050506040516020818303038152906040529150505b919050565b600c6020528160005260406000206020528060005260406000206000915091509054906101000a900473ffffffffffffffffffffffffffffffffffffffff1681565b600e5481565b600d5481565b6000600560008473ffffffffffffffffffffffffffffffffffffffff1673ffffffffffffffffffffffffffffffffffffffff16815260200190815260200160002060008373ffffffffffffffffffffffffffffffffffffffff1673ffffffffffffffffffffffffffffffffffffffff16815260200190815260200160002060009054906101000a900460ff16905092915050565b61213961235e565b73ffffffffffffffffffffffffffffffffffffffff16600a60009054906101000a900473ffffffffffffffffffffffffffffffffffffffff1673ffffffffffffffffffffffffffffffffffffffff16146121fb576040517f08c379a00000000000000000000000000000000000000000000000000000000081526004018080602001828103825260208152602001807f4f776e61626c653a2063616c6c6572206973206e6f7420746865206f776e657281525060200191505060405180910390fd5b600073ffffffffffffffffffffffffffffffffffffffff168173ffffffffffffffffffffffffffffffffffffffff161415612281576040517f08c379a00000000000000000000000000000000000000000000000000000000081526004018080602001828103825260268152602001806137376026913960400191505060405180910390fd5b8073ffffffffffffffffffffffffffffffffffffffff16600a60009054906101000a900473ffffffffffffffffffffffffffffffffffffffff1673ffffffffffffffffffffffffffffffffffffffff167f8be0079c531659141344cd1fd0a4f28419497f9722a3daafe3b4186f6b6457e060405160405180910390a380600a60006101000a81548173ffffffffffffffffffffffffffffffffffffffff021916908373ffffffffffffffffffffffffffffffffffffffff16021790555050565b60006123578260026129b190919063ffffffff16565b9050919050565b600033905090565b816004600083815260200190815260200160002060006101000a81548173ffffffffffffffffffffffffffffffffffffffff021916908373ffffffffffffffffffffffffffffffffffffffff160217905550808273ffffffffffffffffffffffffffffffffffffffff166123d98361140c565b73ffffffffffffffffffffffffffffffffffffffff167f8c5be1e5ebec7d5bd14f71427d1e84f3dd0314c0f7b2291e5b200ac8c7c3b92560405160405180910390a45050565b600061242d826000016129cb565b9050919050565b61244561243f61235e565b826124c4565b61249a576040517f08c379a000000000000000000000000000000000000000000000000000000000815260040180806020018281038252603181526020018061392f6031913960400191505060405180910390fd5b6124a58383836129dc565b505050565b60006124b98360000183612c1f565b60001c905092915050565b60006124cf82612341565b612524576040517f08c379a000000000000000000000000000000000000000000000000000000000815260040180806020018281038252602c8152602001806137b1602c913960400191505060405180910390fd5b600061252f8361140c565b90508073ffffffffffffffffffffffffffffffffffffffff168473ffffffffffffffffffffffffffffffffffffffff16148061259e57508373ffffffffffffffffffffffffffffffffffffffff1661258684610da7565b73ffffffffffffffffffffffffffffffffffffffff16145b806125af57506125ae818561209d565b5b91505092915050565b6000806000806125cb8660000186612ca2565b915091508160001c8160001c8090509350935050509250929050565b600073ffffffffffffffffffffffffffffffffffffffff168273ffffffffffffffffffffffffffffffffffffffff16141561268a576040517f08c379a00000000000000000000000000000000000000000000000000000000081526004018080602001828103825260208152602001807f4552433732313a206d696e7420746f20746865207a65726f206164647265737381525060200191505060405180910390fd5b61269381612341565b15612706576040517f08c379a000000000000000000000000000000000000000000000000000000000815260040180806020018281038252601c8152602001807f4552433732313a20746f6b656e20616c7265616479206d696e7465640000000081525060200191505060405180910390fd5b61271260008383612d3b565b61276381600160008573ffffffffffffffffffffffffffffffffffffffff1673ffffffffffffffffffffffffffffffffffffffff168152602001908152602001600020612e8290919063ffffffff16565b5061277a81836002612e9c9092919063ffffffff16565b50808273ffffffffffffffffffffffffffffffffffffffff16600073ffffffffffffffffffffffffffffffffffffffff167fddf252ad1be2c89b69c2b068fc378daa952ba7f163c4a11628f55a4df523b3ef60405160405180910390a45050565b60006127ee846000018460001b84612ed1565b60001c90509392505050565b600061280882600001612fc7565b9050919050565b61281a8484846129dc565b61282684848484612fd8565b61287b576040517f08c379a00000000000000000000000000000000000000000000000000000000081526004018080602001828103825260328152602001806137056032913960400191505060405180910390fd5b50505050565b606060008214156128c9576040518060400160405280600181526020017f300000000000000000000000000000000000000000000000000000000000000081525090506129ac565b600082905060005b600082146128f3578080600101915050600a82816128eb57fe5b0491506128d1565b6060816040519080825280601f01601f1916602001820160405280156129285781602001600182028038833980820191505090505b50905060006001830390508593505b600084146129a457600a848161294957fe5b0660300160f81b8282806001900393508151811061296357fe5b60200101907effffffffffffffffffffffffffffffffffffffffffffffffffffffffffffff1916908160001a905350600a848161299c57fe5b049350612937565b819450505050505b919050565b60006129c3836000018360001b61321d565b905092915050565b600081600001805490509050919050565b8273ffffffffffffffffffffffffffffffffffffffff166129fc8261140c565b73ffffffffffffffffffffffffffffffffffffffff1614612a68576040517f08c379a00000000000000000000000000000000000000000000000000000000081526004018080602001828103825260298152602001806138b66029913960400191505060405180910390fd5b600073ffffffffffffffffffffffffffffffffffffffff168273ffffffffffffffffffffffffffffffffffffffff161415612aee576040517f08c379a000000000000000000000000000000000000000000000000000000000815260040180806020018281038252602481526020018061375d6024913960400191505060405180910390fd5b612af9838383612d3b565b612b04600082612366565b612b5581600160008673ffffffffffffffffffffffffffffffffffffffff1673ffffffffffffffffffffffffffffffffffffffff16815260200190815260200160002061324090919063ffffffff16565b50612ba781600160008573ffffffffffffffffffffffffffffffffffffffff1673ffffffffffffffffffffffffffffffffffffffff168152602001908152602001600020612e8290919063ffffffff16565b50612bbe81836002612e9c9092919063ffffffff16565b50808273ffffffffffffffffffffffffffffffffffffffff168473ffffffffffffffffffffffffffffffffffffffff167fddf252ad1be2c89b69c2b068fc378daa952ba7f163c4a11628f55a4df523b3ef60405160405180910390a4505050565b600081836000018054905011612c80576040517f08c379a00000000000000000000000000000000000000000000000000000000081526004018080602001828103825260228152602001806136e36022913960400191505060405180910390fd5b826000018281548110612c8f57fe5b9060005260206000200154905092915050565b60008082846000018054905011612d04576040517f08c379a00000000000000000000000000000000000000000000000000000000081526004018080602001828103825260228152602001806138686022913960400191505060405180910390fd5b6000846000018481548110612d1557fe5b906000526020600020906002020190508060000154816001015492509250509250929050565b600d544210158015612d4f5750600e544211155b80612d935750612d5d611745565b73ffffffffffffffffffffffffffffffffffffffff16612d7b61235e565b73ffffffffffffffffffffffffffffffffffffffff16145b612e05576040517f08c379a00000000000000000000000000000000000000000000000000000000081526004018080602001828103825260108152602001807f566f74696e67204e6f74204f70656e2e0000000000000000000000000000000081525060200191505060405180910390fd5b600e54421115612e7d576040517f08c379a00000000000000000000000000000000000000000000000000000000081526004018080602001828103825260118152602001807f456c656374696f6e206973206f7665722e00000000000000000000000000000081525060200191505060405180910390fd5b505050565b6000612e94836000018360001b61325a565b905092915050565b6000612ec8846000018460001b8473ffffffffffffffffffffffffffffffffffffffff1660001b6132ca565b90509392505050565b60008084600101600085815260200190815260200160002054905060008114158390612f98576040517f08c379a00000000000000000000000000000000000000000000000000000000081526004018080602001828103825283818151815260200191508051906020019080838360005b83811015612f5d578082015181840152602081019050612f42565b50505050905090810190601f168015612f8a5780820380516001836020036101000a031916815260200191505b509250505060405180910390fd5b50846000016001820381548110612fab57fe5b9060005260206000209060020201600101549150509392505050565b600081600001805490509050919050565b6000612ff98473ffffffffffffffffffffffffffffffffffffffff166133a6565b6130065760019050613215565b606061319c63150b7a0260e01b61301b61235e565b888787604051602401808573ffffffffffffffffffffffffffffffffffffffff1673ffffffffffffffffffffffffffffffffffffffff1681526020018473ffffffffffffffffffffffffffffffffffffffff1673ffffffffffffffffffffffffffffffffffffffff16815260200183815260200180602001828103825283818151815260200191508051906020019080838360005b838110156130cb5780820151818401526020810190506130b0565b50505050905090810190601f1680156130f85780820380516001836020036101000a031916815260200191505b5095505050505050604051602081830303815290604052907bffffffffffffffffffffffffffffffffffffffffffffffffffffffff19166020820180517bffffffffffffffffffffffffffffffffffffffffffffffffffffffff8381831617835250505050604051806060016040528060328152602001613705603291398773ffffffffffffffffffffffffffffffffffffffff166133b99092919063ffffffff16565b905060008180602001905160208110156131b557600080fd5b8101908080519060200190929190505050905063150b7a0260e01b7bffffffffffffffffffffffffffffffffffffffffffffffffffffffff1916817bffffffffffffffffffffffffffffffffffffffffffffffffffffffff191614925050505b949350505050565b600080836001016000848152602001908152602001600020541415905092915050565b6000613252836000018360001b6133d1565b905092915050565b600061326683836134b9565b6132bf5782600001829080600181540180825580915050600190039060005260206000200160009091909190915055826000018054905083600101600084815260200190815260200160002081905550600190506132c4565b600090505b92915050565b60008084600101600085815260200190815260200160002054905060008114156133715784600001604051806040016040528086815260200185815250908060018154018082558091505060019003906000526020600020906002020160009091909190915060008201518160000155602082015181600101555050846000018054905085600101600086815260200190815260200160002081905550600191505061339f565b8285600001600183038154811061338457fe5b90600052602060002090600202016001018190555060009150505b9392505050565b600080823b905060008111915050919050565b60606133c884846000856134dc565b90509392505050565b600080836001016000848152602001908152602001600020549050600081146134ad576000600182039050600060018660000180549050039050600086600001828154811061341c57fe5b906000526020600020015490508087600001848154811061343957fe5b906000526020600020018190555060018301876001016000838152602001908152602001600020819055508660000180548061347157fe5b600190038181906000526020600020016000905590558660010160008781526020019081526020016000206000905560019450505050506134b3565b60009150505b92915050565b600080836001016000848152602001908152602001600020541415905092915050565b60606134e7856133a6565b613559576040517f08c379a000000000000000000000000000000000000000000000000000000000815260040180806020018281038252601d8152602001807f416464726573733a2063616c6c20746f206e6f6e2d636f6e747261637400000081525060200191505060405180910390fd5b600060608673ffffffffffffffffffffffffffffffffffffffff1685876040518082805190602001908083835b602083106135a95780518252602082019150602081019050602083039250613586565b6001836020036101000a03801982511681845116808217855250505050505090500191505060006040518083038185875af1925050503d806000811461360b576040519150601f19603f3d011682016040523d82523d6000602084013e613610565b606091505b509150915081156136255780925050506136da565b6000815111156136385780518082602001fd5b836040517f08c379a00000000000000000000000000000000000000000000000000000000081526004018080602001828103825283818151815260200191508051906020019080838360005b8381101561369f578082015181840152602081019050613684565b50505050905090810190601f1680156136cc5780820380516001836020036101000a031916815260200191505b509250505060405180910390fd5b94935050505056fe456e756d657261626c655365743a20696e646578206f7574206f6620626f756e64734552433732313a207472616e7366657220746f206e6f6e20455243373231526563656976657220696d706c656d656e7465724f776e61626c653a206e6577206f776e657220697320746865207a65726f20616464726573734552433732313a207472616e7366657220746f20746865207a65726f2061646472657373417474656d7074696e6720746f207365697a6520746f6b656e2066726f6d20616e6f746865722064697374726963742e4552433732313a206f70657261746f7220717565727920666f72206e6f6e6578697374656e7420746f6b656e4552433732313a20617070726f76652063616c6c6572206973206e6f74206f776e6572206e6f7220617070726f76656420666f7220616c6c4552433732313a2062616c616e636520717565727920666f7220746865207a65726f20616464726573734552433732313a206f776e657220717565727920666f72206e6f6e6578697374656e7420746f6b656e456e756d657261626c654d61703a20696e646578206f7574206f6620626f756e64734552433732313a20617070726f76656420717565727920666f72206e6f6e6578697374656e7420746f6b656e4552433732313a207472616e73666572206f6620746f6b656e2074686174206973206e6f74206f776e4552433732314d657461646174613a2055524920717565727920666f72206e6f6e6578697374656e7420746f6b656e4552433732313a20617070726f76616c20746f2063757272656e74206f776e65724552433732313a207472616e736665722063616c6c6572206973206e6f74206f776e6572206e6f7220617070726f76656443616c6c696e672041646472657373206e6f7420696e206c697374206f6620616c6c6f77656420636f6e7472616374732ea2646970667358221220bcbc035e2d0b998cdda614155921ea739314da63dd3ec124cfe8ba6bc51e86f164736f6c63430006020033",
  "source": "pragma solidity ^0.6.0;\nimport \"@openzeppelin/contracts/token/ERC721/ERC721.sol\";\nimport \"./District.sol\";\nimport \"@openzeppelin/contracts/access/Ownable.sol\";\nimport \"@openzeppelin/contracts/math/SafeMath.sol\";\n\ncontract VoteToken is ERC721, Ownable{\n    mapping(uint256 => uint8) public district; //maps token ID to District voter it is issued to is on.\n    mapping(uint256 => mapping(uint8=>address)) public preferences; //maps token ID to the preferences selected by the voter.\n    uint public voteStart; //Time (in seconds since epoch) \n    uint public voteEnd;\n    uint64 public votesTotal;\n\n    using SafeMath for uint64;\n    //Much of the ERC721 functionality will be restricted to only the District contracts.\n    mapping(address => bool) internal allowedContracts; \n    modifier OnlyAllowed {\n        require(allowedContracts[msg.sender] == true,\"Calling Address not in list of allowed contracts.\");\n        _;\n    }\n\n    constructor(string memory __name, string memory __symbol, uint _voteStart, uint _voteEnd) ERC721(__name,__symbol) Ownable() public {\n        voteStart = _voteStart;\n        voteEnd = _voteEnd;\n        allowedContracts[address(this)] = true;\n        \n    }\n\n    //Called For Each District Contract Address.\n    function setAllowed(address _address) external onlyOwner {\n        allowedContracts[_address] = true;\n    }\n\n    /*\n    Ensures No tokens can be transferred (ie: voting) before or after voting period ends\n    */\n    function _beforeTokenTransfer(address from, address to, uint256 tokenId) internal override {\n        require((now >= voteStart && now <= voteEnd) || (_msgSender() == owner()),\"Voting Not Open.\"); \n        require(now <= voteEnd,\"Election is over.\");\n    }\n    \n    /* Maps a given vote Token ID to a mapping of the voter's preferences (1..N) to the addresses of the corresponding candidates. */\n    function setVotePreferences(uint256 _tokenId, address[] calldata _preferences) external {\n        _isApprovedOrOwner(_msgSender(), _tokenId);\n\n        for(uint8 i = 1; i <= _preferences.length; i++){\n            preferences[_tokenId][i] = _preferences[i-1];\n        }\n    }\n    \n    /* Utilises vanilla ERC721 mint functionality but adds the restrictions that the mint is rejected if the recipient has a balance larger than 0;\n    As every voter may only be issued one vote and that only the owner of the VoteToken contract (the Election Controller contract) may call it.\n    Additionally, it also assigns the number of the electoral district in which the voter resides as metadata*/\n    function mint(address _to, uint256 _tokenId, uint8 _districtNo) public onlyOwner{\n        //require(balanceOf(_to) == 0,\"Recipient Already has a vote. (balance non 0)\"); //no one may have more than 1 vote.\n\n        _mint(_to , _tokenId);\n        district[_tokenId] = _districtNo;\n        votesTotal++;\n    }\n    \n    /*\n    May be called only by District contracts (onlyAllowed). Used in order to redistribute votes from candidates that are eliminated in the process of counting.\n    Has the additional restriction that each token must \"belong\" to the District that is attempting to seize it.\n     */\n    function transferAllBack(address _from) external OnlyAllowed {\n        uint8 _districtNo = District(msg.sender).districtNumber();\n        uint balance = balanceOf(_from);\n\n        for(uint32 i = 0; i < balance; i++){\n            uint256 tokenId = tokenOfOwnerByIndex(_from,i);\n            require(district[tokenId] == _districtNo,\"Attempting to seize token from another district.\");\n            transferFrom(_from,msg.sender,tokenId);\n        }\n    }\n    \n    /*Proxy for the vanilla transferFrom function of ERC721, but restricts it to only allowed callers (District contracts))*/\n    function transferFrom(address from, address to, uint256 tokenId) public OnlyAllowed override {\n        //_beforeTokenTransfer(from,to,tokenId);\n        super.transferFrom(from,to,tokenId);\n    }\n\n    /*\n    Safe Transfer is used to check that a recipient of a token is either: a wallet address or, if it is a contract, that it has functionality that allows it to\n    transfer otherwise make use of the tokens it receives. This was implemented in order to ensure tokens are not lost by being sent to a contract that has no way of moving them.\n    It is not necessary for this application given the limited use-scope of our token. It has therefore been overriden with an empty function.\n     */\n    function safeTransferFrom(address from, address to, uint256 tokenId) public override {\n        /*unnecessary*/\n        revert();\n    }\n\n    \n    function kill() external onlyOwner {\n        selfdestruct(msg.sender);\n    }\n}",
  "sourcePath": "/Users/timothymuscat/Documents/MScThesis/BlockVote_ReactBox/contracts/VoteToken.sol",
  "compiler": {
    "name": "solc",
    "version": "0.6.2+commit.bacdbe57.Emscripten.clang"
  },
  "schemaVersion": "3.2.2",
  "updatedAt": "2020-09-22T16:12:16.121Z",
  "devdoc": {
    "methods": {
      "approve(address,uint256)": {
        "details": "See {IERC721-approve}."
      },
      "balanceOf(address)": {
        "details": "See {IERC721-balanceOf}."
      },
      "baseURI()": {
        "details": "Returns the base URI set via {_setBaseURI}. This will be automatically added as a prefix in {tokenURI} to each token's URI, or to the token ID if no specific URI is set for that token ID."
      },
      "getApproved(uint256)": {
        "details": "See {IERC721-getApproved}."
      },
      "isApprovedForAll(address,address)": {
        "details": "See {IERC721-isApprovedForAll}."
      },
      "name()": {
        "details": "See {IERC721Metadata-name}."
      },
      "owner()": {
        "details": "Returns the address of the current owner."
      },
      "ownerOf(uint256)": {
        "details": "See {IERC721-ownerOf}."
      },
      "renounceOwnership()": {
        "details": "Leaves the contract without owner. It will not be possible to call `onlyOwner` functions anymore. Can only be called by the current owner.     * NOTE: Renouncing ownership will leave the contract without an owner, thereby removing any functionality that is only available to the owner."
      },
      "safeTransferFrom(address,address,uint256,bytes)": {
        "details": "See {IERC721-safeTransferFrom}."
      },
      "setApprovalForAll(address,bool)": {
        "details": "See {IERC721-setApprovalForAll}."
      },
      "supportsInterface(bytes4)": {
        "details": "See {IERC165-supportsInterface}.     * Time complexity O(1), guaranteed to always use less than 30 000 gas."
      },
      "symbol()": {
        "details": "See {IERC721Metadata-symbol}."
      },
      "tokenByIndex(uint256)": {
        "details": "See {IERC721Enumerable-tokenByIndex}."
      },
      "tokenOfOwnerByIndex(address,uint256)": {
        "details": "See {IERC721Enumerable-tokenOfOwnerByIndex}."
      },
      "tokenURI(uint256)": {
        "details": "See {IERC721Metadata-tokenURI}."
      },
      "totalSupply()": {
        "details": "See {IERC721Enumerable-totalSupply}."
      },
      "transferOwnership(address)": {
        "details": "Transfers ownership of the contract to a new account (`newOwner`). Can only be called by the current owner."
      }
    }
  },
  "userdoc": {
    "methods": {}
  }
}