{
  "contractName": "VoteTokenFactory",
  "abi": [
    {
      "inputs": [
        {
          "internalType": "string",
          "name": "_name",
          "type": "string"
        },
        {
          "internalType": "uint256",
          "name": "_voteStart",
          "type": "uint256"
        },
        {
          "internalType": "uint256",
          "name": "_voteEnd",
          "type": "uint256"
        }
      ],
      "name": "create",
      "outputs": [
        {
          "internalType": "contract VoteToken",
          "name": "",
          "type": "address"
        }
      ],
      "stateMutability": "nonpayable",
      "type": "function"
    }
  ],
  "bytecode": "0x608060405234801561001057600080fd5b50613d52806100206000396000f3fe60806040523480156200001157600080fd5b50600436106200002e5760003560e01c8063cda3c4991462000033575b600080fd5b6200005160048036036200004b919081019062000132565b62000069565b60405162000060919062000220565b60405180910390f35b60008383836040516200007c90620000b1565b6200008a939291906200023d565b604051809103906000f080158015620000a7573d6000803e3d6000fd5b5090509392505050565b61394d80620003d083390190565b600082601f830112620000d157600080fd5b8135620000e8620000e282620002c4565b62000296565b915080825260208301602083018583830111156200010557600080fd5b620001128382846200035f565b50505092915050565b6000813590506200012c81620003b5565b92915050565b6000806000606084860312156200014857600080fd5b600084013567ffffffffffffffff8111156200016357600080fd5b6200017186828701620000bf565b935050602062000184868287016200011b565b925050604062000197868287016200011b565b9150509250925092565b620001ac8162000337565b82525050565b6000620001bf82620002f1565b620001cb8185620002fc565b9350620001dd8185602086016200036e565b620001e881620003a4565b840191505092915050565b600062000202600083620002fc565b9150600082019050919050565b6200021a816200032d565b82525050565b6000602082019050620002376000830184620001a1565b92915050565b60006080820190508181036000830152620002598186620001b2565b905081810360208301526200026e81620001f3565b90506200027f60408301856200020f565b6200028e60608301846200020f565b949350505050565b6000604051905081810181811067ffffffffffffffff82111715620002ba57600080fd5b8060405250919050565b600067ffffffffffffffff821115620002dc57600080fd5b601f19601f8301169050602081019050919050565b600081519050919050565b600082825260208201905092915050565b600073ffffffffffffffffffffffffffffffffffffffff82169050919050565b6000819050919050565b600062000344826200034b565b9050919050565b600062000358826200030d565b9050919050565b82818337600083830152505050565b60005b838110156200038e57808201518184015260208101905062000371565b838111156200039e576000848401525b50505050565b6000601f19601f8301169050919050565b620003c0816200032d565b8114620003cc57600080fd5b5056fe60806040523480156200001157600080fd5b506040516200394d3803806200394d833981810160405260808110156200003757600080fd5b81019080805160405193929190846401000000008211156200005857600080fd5b838201915060208201858111156200006f57600080fd5b82518660018202830111640100000000821117156200008d57600080fd5b8083526020830192505050908051906020019080838360005b83811015620000c3578082015181840152602081019050620000a6565b50505050905090810190601f168015620000f15780820380516001836020036101000a031916815260200191505b50604052602001805160405193929190846401000000008211156200011557600080fd5b838201915060208201858111156200012c57600080fd5b82518660018202830111640100000000821117156200014a57600080fd5b8083526020830192505050908051906020019080838360005b838110156200018057808201518184015260208101905062000163565b50505050905090810190601f168015620001ae5780820380516001836020036101000a031916815260200191505b5060405260200180519060200190929190805190602001909291905050508383620001e66301ffc9a760e01b6200032b60201b60201c565b8160069080519060200190620001fe9291906200043c565b508060079080519060200190620002179291906200043c565b50620002306380ac58cd60e01b6200032b60201b60201c565b62000248635b5e139f60e01b6200032b60201b60201c565b6200026063780e9d6360e01b6200032b60201b60201c565b50506000620002746200043460201b60201c565b905080600a60006101000a81548173ffffffffffffffffffffffffffffffffffffffff021916908373ffffffffffffffffffffffffffffffffffffffff1602179055508073ffffffffffffffffffffffffffffffffffffffff16600073ffffffffffffffffffffffffffffffffffffffff167f8be0079c531659141344cd1fd0a4f28419497f9722a3daafe3b4186f6b6457e060405160405180910390a35081600d8190555080600e8190555050505050620004eb565b63ffffffff60e01b817bffffffffffffffffffffffffffffffffffffffffffffffffffffffff19161415620003c8576040517f08c379a000000000000000000000000000000000000000000000000000000000815260040180806020018281038252601c8152602001807f4552433136353a20696e76616c696420696e746572666163652069640000000081525060200191505060405180910390fd5b6001600080837bffffffffffffffffffffffffffffffffffffffffffffffffffffffff19167bffffffffffffffffffffffffffffffffffffffffffffffffffffffff1916815260200190815260200160002060006101000a81548160ff02191690831515021790555050565b600033905090565b828054600181600116156101000203166002900490600052602060002090601f016020900481019282601f106200047f57805160ff1916838001178555620004b0565b82800160010185558215620004b0579182015b82811115620004af57825182559160200191906001019062000492565b5b509050620004bf9190620004c3565b5090565b620004e891905b80821115620004e4576000816000905550600101620004ca565b5090565b90565b61345280620004fb6000396000f3fe608060405234801561001057600080fd5b50600436106101a95760003560e01c80636c0360eb116100f9578063b88d4fde11610097578063ddbe8f0911610071578063ddbe8f0914610b30578063e031535b14610b4e578063e985e9c514610b6c578063f2fde38b14610be8576101a9565b8063b88d4fde14610909578063c87b56dd14610a0e578063d1d0a5ea14610ab5576101a9565b80638da5cb5b116100d35780638da5cb5b146107a857806395d89b41146107f2578063a22cb46514610875578063abd2a233146108c5576101a9565b80636c0360eb146106c357806370a0823114610746578063715018a61461079e576101a9565b806323b872dd1161016657806342842e0e1161014057806342842e0e1461054a5780634f6ccce7146105b85780636112e8ac146105fa5780636352211e14610655576101a9565b806323b872dd146103b85780632f745c5914610426578063324b1dc614610488576101a9565b806301ffc9a7146101ae57806306fdde0314610213578063081812fc14610296578063095ea7b31461030457806318160ddd146103525780631979955e14610370575b600080fd5b6101f9600480360360208110156101c457600080fd5b8101908080357bffffffffffffffffffffffffffffffffffffffffffffffffffffffff19169060200190929190505050610c2c565b604051808215151515815260200191505060405180910390f35b61021b610c93565b6040518080602001828103825283818151815260200191508051906020019080838360005b8381101561025b578082015181840152602081019050610240565b50505050905090810190601f1680156102885780820380516001836020036101000a031916815260200191505b509250505060405180910390f35b6102c2600480360360208110156102ac57600080fd5b8101908080359060200190929190505050610d35565b604051808273ffffffffffffffffffffffffffffffffffffffff1673ffffffffffffffffffffffffffffffffffffffff16815260200191505060405180910390f35b6103506004803603604081101561031a57600080fd5b81019080803573ffffffffffffffffffffffffffffffffffffffff16906020019092919080359060200190929190505050610dd0565b005b61035a610f14565b6040518082815260200191505060405180910390f35b61039c6004803603602081101561038657600080fd5b8101908080359060200190929190505050610f25565b604051808260ff1660ff16815260200191505060405180910390f35b610424600480360360608110156103ce57600080fd5b81019080803573ffffffffffffffffffffffffffffffffffffffff169060200190929190803573ffffffffffffffffffffffffffffffffffffffff16906020019092919080359060200190929190505050610f45565b005b6104726004803603604081101561043c57600080fd5b81019080803573ffffffffffffffffffffffffffffffffffffffff16906020019092919080359060200190929190505050610fbb565b6040518082815260200191505060405180910390f35b6105486004803603604081101561049e57600080fd5b8101908080359060200190929190803590602001906401000000008111156104c557600080fd5b8201836020820111156104d757600080fd5b803590602001918460208302840111640100000000831117156104f957600080fd5b919080806020026020016040519081016040528093929190818152602001838360200280828437600081840152601f19601f820116905080830192505050505050509192919290505050611016565b005b6105b66004803603606081101561056057600080fd5b81019080803573ffffffffffffffffffffffffffffffffffffffff169060200190929190803573ffffffffffffffffffffffffffffffffffffffff169060200190929190803590602001909291905050506110bc565b005b6105e4600480360360208110156105ce57600080fd5b81019080803590602001909291905050506110dc565b6040518082815260200191505060405180910390f35b6106536004803603606081101561061057600080fd5b81019080803573ffffffffffffffffffffffffffffffffffffffff16906020019092919080359060200190929190803560ff1690602001909291905050506110ff565b005b6106816004803603602081101561066b57600080fd5b8101908080359060200190929190505050611219565b604051808273ffffffffffffffffffffffffffffffffffffffff1673ffffffffffffffffffffffffffffffffffffffff16815260200191505060405180910390f35b6106cb611250565b6040518080602001828103825283818151815260200191508051906020019080838360005b8381101561070b5780820151818401526020810190506106f0565b50505050905090810190601f1680156107385780820380516001836020036101000a031916815260200191505b509250505060405180910390f35b6107886004803603602081101561075c57600080fd5b81019080803573ffffffffffffffffffffffffffffffffffffffff1690602001909291905050506112f2565b6040518082815260200191505060405180910390f35b6107a66113c7565b005b6107b0611552565b604051808273ffffffffffffffffffffffffffffffffffffffff1673ffffffffffffffffffffffffffffffffffffffff16815260200191505060405180910390f35b6107fa61157c565b6040518080602001828103825283818151815260200191508051906020019080838360005b8381101561083a57808201518184015260208101905061081f565b50505050905090810190601f1680156108675780820380516001836020036101000a031916815260200191505b509250505060405180910390f35b6108c36004803603604081101561088b57600080fd5b81019080803573ffffffffffffffffffffffffffffffffffffffff16906020019092919080351515906020019092919050505061161e565b005b610907600480360360208110156108db57600080fd5b81019080803573ffffffffffffffffffffffffffffffffffffffff1690602001909291905050506117d6565b005b610a0c6004803603608081101561091f57600080fd5b81019080803573ffffffffffffffffffffffffffffffffffffffff169060200190929190803573ffffffffffffffffffffffffffffffffffffffff169060200190929190803590602001909291908035906020019064010000000081111561098657600080fd5b82018360208201111561099857600080fd5b803590602001918460018302840111640100000000831117156109ba57600080fd5b91908080601f016020809104026020016040519081016040528093929190818152602001838380828437600081840152601f19601f8201169050808301925050505050505091929192905050506118f3565b005b610a3a60048036036020811015610a2457600080fd5b810190808035906020019092919050505061196b565b6040518080602001828103825283818151815260200191508051906020019080838360005b83811015610a7a578082015181840152602081019050610a5f565b50505050905090810190601f168015610aa75780820380516001836020036101000a031916815260200191505b509250505060405180910390f35b610aee60048036036040811015610acb57600080fd5b8101908080359060200190929190803560ff169060200190929190505050611c54565b604051808273ffffffffffffffffffffffffffffffffffffffff1673ffffffffffffffffffffffffffffffffffffffff16815260200191505060405180910390f35b610b38611c96565b6040518082815260200191505060405180910390f35b610b56611c9c565b6040518082815260200191505060405180910390f35b610bce60048036036040811015610b8257600080fd5b81019080803573ffffffffffffffffffffffffffffffffffffffff169060200190929190803573ffffffffffffffffffffffffffffffffffffffff169060200190929190505050611ca2565b604051808215151515815260200191505060405180910390f35b610c2a60048036036020811015610bfe57600080fd5b81019080803573ffffffffffffffffffffffffffffffffffffffff169060200190929190505050611d36565b005b6000806000837bffffffffffffffffffffffffffffffffffffffffffffffffffffffff19167bffffffffffffffffffffffffffffffffffffffffffffffffffffffff1916815260200190815260200160002060009054906101000a900460ff169050919050565b606060068054600181600116156101000203166002900480601f016020809104026020016040519081016040528092919081815260200182805460018160011615610100020316600290048015610d2b5780601f10610d0057610100808354040283529160200191610d2b565b820191906000526020600020905b815481529060010190602001808311610d0e57829003601f168201915b5050505050905090565b6000610d4082611f46565b610d95576040517f08c379a000000000000000000000000000000000000000000000000000000000815260040180806020018281038252602c815260200180613347602c913960400191505060405180910390fd5b6004600083815260200190815260200160002060009054906101000a900473ffffffffffffffffffffffffffffffffffffffff169050919050565b6000610ddb82611219565b90508073ffffffffffffffffffffffffffffffffffffffff168373ffffffffffffffffffffffffffffffffffffffff161415610e62576040517f08c379a00000000000000000000000000000000000000000000000000000000081526004018080602001828103825260218152602001806133cb6021913960400191505060405180910390fd5b8073ffffffffffffffffffffffffffffffffffffffff16610e81611f63565b73ffffffffffffffffffffffffffffffffffffffff161480610eb05750610eaf81610eaa611f63565b611ca2565b5b610f05576040517f08c379a000000000000000000000000000000000000000000000000000000000815260040180806020018281038252603881526020018061329a6038913960400191505060405180910390fd5b610f0f8383611f6b565b505050565b6000610f206002612024565b905090565b600b6020528060005260406000206000915054906101000a900460ff1681565b610f56610f50611f63565b82612039565b610fab576040517f08c379a00000000000000000000000000000000000000000000000000000000081526004018080602001828103825260318152602001806133ec6031913960400191505060405180910390fd5b610fb683838361212d565b505050565b600061100e82600160008673ffffffffffffffffffffffffffffffffffffffff1673ffffffffffffffffffffffffffffffffffffffff16815260200190815260200160002061237090919063ffffffff16565b905092915050565b6000600190505b81518160ff16116110b757816001820360ff168151811061103a57fe5b6020026020010151600c600085815260200190815260200160002060008360ff1660ff16815260200190815260200160002060006101000a81548173ffffffffffffffffffffffffffffffffffffffff021916908373ffffffffffffffffffffffffffffffffffffffff160217905550808060010191505061101d565b505050565b6110d7838383604051806020016040528060008152506118f3565b505050565b6000806110f383600261238a90919063ffffffff16565b50905080915050919050565b611107611f63565b73ffffffffffffffffffffffffffffffffffffffff16600a60009054906101000a900473ffffffffffffffffffffffffffffffffffffffff1673ffffffffffffffffffffffffffffffffffffffff16146111c9576040517f08c379a00000000000000000000000000000000000000000000000000000000081526004018080602001828103825260208152602001807f4f776e61626c653a2063616c6c6572206973206e6f7420746865206f776e657281525060200191505060405180910390fd5b60006111d4846112f2565b146111de57600080fd5b6111e883836123b9565b80600b600084815260200190815260200160002060006101000a81548160ff021916908360ff160217905550505050565b6000611249826040518060600160405280602981526020016132fc6029913960026125ad9092919063ffffffff16565b9050919050565b606060098054600181600116156101000203166002900480601f0160208091040260200160405190810160405280929190818152602001828054600181600116156101000203166002900480156112e85780601f106112bd576101008083540402835291602001916112e8565b820191906000526020600020905b8154815290600101906020018083116112cb57829003601f168201915b5050505050905090565b60008073ffffffffffffffffffffffffffffffffffffffff168273ffffffffffffffffffffffffffffffffffffffff161415611379576040517f08c379a000000000000000000000000000000000000000000000000000000000815260040180806020018281038252602a8152602001806132d2602a913960400191505060405180910390fd5b6113c0600160008473ffffffffffffffffffffffffffffffffffffffff1673ffffffffffffffffffffffffffffffffffffffff1681526020019081526020016000206125cc565b9050919050565b6113cf611f63565b73ffffffffffffffffffffffffffffffffffffffff16600a60009054906101000a900473ffffffffffffffffffffffffffffffffffffffff1673ffffffffffffffffffffffffffffffffffffffff1614611491576040517f08c379a00000000000000000000000000000000000000000000000000000000081526004018080602001828103825260208152602001807f4f776e61626c653a2063616c6c6572206973206e6f7420746865206f776e657281525060200191505060405180910390fd5b600073ffffffffffffffffffffffffffffffffffffffff16600a60009054906101000a900473ffffffffffffffffffffffffffffffffffffffff1673ffffffffffffffffffffffffffffffffffffffff167f8be0079c531659141344cd1fd0a4f28419497f9722a3daafe3b4186f6b6457e060405160405180910390a36000600a60006101000a81548173ffffffffffffffffffffffffffffffffffffffff021916908373ffffffffffffffffffffffffffffffffffffffff160217905550565b6000600a60009054906101000a900473ffffffffffffffffffffffffffffffffffffffff16905090565b606060078054600181600116156101000203166002900480601f0160208091040260200160405190810160405280929190818152602001828054600181600116156101000203166002900480156116145780601f106115e957610100808354040283529160200191611614565b820191906000526020600020905b8154815290600101906020018083116115f757829003601f168201915b5050505050905090565b611626611f63565b73ffffffffffffffffffffffffffffffffffffffff168273ffffffffffffffffffffffffffffffffffffffff1614156116c7576040517f08c379a00000000000000000000000000000000000000000000000000000000081526004018080602001828103825260198152602001807f4552433732313a20617070726f766520746f2063616c6c65720000000000000081525060200191505060405180910390fd5b80600560006116d4611f63565b73ffffffffffffffffffffffffffffffffffffffff1673ffffffffffffffffffffffffffffffffffffffff16815260200190815260200160002060008473ffffffffffffffffffffffffffffffffffffffff1673ffffffffffffffffffffffffffffffffffffffff16815260200190815260200160002060006101000a81548160ff0219169083151502179055508173ffffffffffffffffffffffffffffffffffffffff16611781611f63565b73ffffffffffffffffffffffffffffffffffffffff167f17307eab39ab6107e8899845ad3d59bd9653f200f220920489ca2b5937696c3183604051808215151515815260200191505060405180910390a35050565b6117de611f63565b73ffffffffffffffffffffffffffffffffffffffff16600a60009054906101000a900473ffffffffffffffffffffffffffffffffffffffff1673ffffffffffffffffffffffffffffffffffffffff16146118a0576040517f08c379a00000000000000000000000000000000000000000000000000000000081526004018080602001828103825260208152602001807f4f776e61626c653a2063616c6c6572206973206e6f7420746865206f776e657281525060200191505060405180910390fd5b60006118ab826112f2565b905060008090505b818163ffffffff1610156118ee5760006118d3848363ffffffff16610fbb565b90506118e0843383610f45565b5080806001019150506118b3565b505050565b6119046118fe611f63565b83612039565b611959576040517f08c379a00000000000000000000000000000000000000000000000000000000081526004018080602001828103825260318152602001806133ec6031913960400191505060405180910390fd5b611965848484846125e1565b50505050565b606061197682611f46565b6119cb576040517f08c379a000000000000000000000000000000000000000000000000000000000815260040180806020018281038252602f81526020018061339c602f913960400191505060405180910390fd5b6060600860008481526020019081526020016000208054600181600116156101000203166002900480601f016020809104026020016040519081016040528092919081815260200182805460018160011615610100020316600290048015611a745780601f10611a4957610100808354040283529160200191611a74565b820191906000526020600020905b815481529060010190602001808311611a5757829003601f168201915b50505050509050600060098054600181600116156101000203166002900490501415611aa35780915050611c4f565b600081511115611b7c576009816040516020018083805460018160011615610100020316600290048015611b0e5780601f10611aec576101008083540402835291820191611b0e565b820191906000526020600020905b815481529060010190602001808311611afa575b505082805190602001908083835b60208310611b3f5780518252602082019150602081019050602083039250611b1c565b6001836020036101000a03801982511681845116808217855250505050505090500192505050604051602081830303815290604052915050611c4f565b6009611b8784612653565b6040516020018083805460018160011615610100020316600290048015611be55780601f10611bc3576101008083540402835291820191611be5565b820191906000526020600020905b815481529060010190602001808311611bd1575b505082805190602001908083835b60208310611c165780518252602082019150602081019050602083039250611bf3565b6001836020036101000a038019825116818451168082178552505050505050905001925050506040516020818303038152906040529150505b919050565b600c6020528160005260406000206020528060005260406000206000915091509054906101000a900473ffffffffffffffffffffffffffffffffffffffff1681565b600e5481565b600d5481565b6000600560008473ffffffffffffffffffffffffffffffffffffffff1673ffffffffffffffffffffffffffffffffffffffff16815260200190815260200160002060008373ffffffffffffffffffffffffffffffffffffffff1673ffffffffffffffffffffffffffffffffffffffff16815260200190815260200160002060009054906101000a900460ff16905092915050565b611d3e611f63565b73ffffffffffffffffffffffffffffffffffffffff16600a60009054906101000a900473ffffffffffffffffffffffffffffffffffffffff1673ffffffffffffffffffffffffffffffffffffffff1614611e00576040517f08c379a00000000000000000000000000000000000000000000000000000000081526004018080602001828103825260208152602001807f4f776e61626c653a2063616c6c6572206973206e6f7420746865206f776e657281525060200191505060405180910390fd5b600073ffffffffffffffffffffffffffffffffffffffff168173ffffffffffffffffffffffffffffffffffffffff161415611e86576040517f08c379a00000000000000000000000000000000000000000000000000000000081526004018080602001828103825260268152602001806132246026913960400191505060405180910390fd5b8073ffffffffffffffffffffffffffffffffffffffff16600a60009054906101000a900473ffffffffffffffffffffffffffffffffffffffff1673ffffffffffffffffffffffffffffffffffffffff167f8be0079c531659141344cd1fd0a4f28419497f9722a3daafe3b4186f6b6457e060405160405180910390a380600a60006101000a81548173ffffffffffffffffffffffffffffffffffffffff021916908373ffffffffffffffffffffffffffffffffffffffff16021790555050565b6000611f5c82600261278390919063ffffffff16565b9050919050565b600033905090565b816004600083815260200190815260200160002060006101000a81548173ffffffffffffffffffffffffffffffffffffffff021916908373ffffffffffffffffffffffffffffffffffffffff160217905550808273ffffffffffffffffffffffffffffffffffffffff16611fde83611219565b73ffffffffffffffffffffffffffffffffffffffff167f8c5be1e5ebec7d5bd14f71427d1e84f3dd0314c0f7b2291e5b200ac8c7c3b92560405160405180910390a45050565b60006120328260000161279d565b9050919050565b600061204482611f46565b612099576040517f08c379a000000000000000000000000000000000000000000000000000000000815260040180806020018281038252602c81526020018061326e602c913960400191505060405180910390fd5b60006120a483611219565b90508073ffffffffffffffffffffffffffffffffffffffff168473ffffffffffffffffffffffffffffffffffffffff16148061211357508373ffffffffffffffffffffffffffffffffffffffff166120fb84610d35565b73ffffffffffffffffffffffffffffffffffffffff16145b8061212457506121238185611ca2565b5b91505092915050565b8273ffffffffffffffffffffffffffffffffffffffff1661214d82611219565b73ffffffffffffffffffffffffffffffffffffffff16146121b9576040517f08c379a00000000000000000000000000000000000000000000000000000000081526004018080602001828103825260298152602001806133736029913960400191505060405180910390fd5b600073ffffffffffffffffffffffffffffffffffffffff168273ffffffffffffffffffffffffffffffffffffffff16141561223f576040517f08c379a000000000000000000000000000000000000000000000000000000000815260040180806020018281038252602481526020018061324a6024913960400191505060405180910390fd5b61224a8383836127ae565b612255600082611f6b565b6122a681600160008673ffffffffffffffffffffffffffffffffffffffff1673ffffffffffffffffffffffffffffffffffffffff16815260200190815260200160002061281b90919063ffffffff16565b506122f881600160008573ffffffffffffffffffffffffffffffffffffffff1673ffffffffffffffffffffffffffffffffffffffff16815260200190815260200160002061283590919063ffffffff16565b5061230f8183600261284f9092919063ffffffff16565b50808273ffffffffffffffffffffffffffffffffffffffff168473ffffffffffffffffffffffffffffffffffffffff167fddf252ad1be2c89b69c2b068fc378daa952ba7f163c4a11628f55a4df523b3ef60405160405180910390a4505050565b600061237f8360000183612884565b60001c905092915050565b60008060008061239d8660000186612907565b915091508160001c8160001c8090509350935050509250929050565b600073ffffffffffffffffffffffffffffffffffffffff168273ffffffffffffffffffffffffffffffffffffffff16141561245c576040517f08c379a00000000000000000000000000000000000000000000000000000000081526004018080602001828103825260208152602001807f4552433732313a206d696e7420746f20746865207a65726f206164647265737381525060200191505060405180910390fd5b61246581611f46565b156124d8576040517f08c379a000000000000000000000000000000000000000000000000000000000815260040180806020018281038252601c8152602001807f4552433732313a20746f6b656e20616c7265616479206d696e7465640000000081525060200191505060405180910390fd5b6124e4600083836127ae565b61253581600160008573ffffffffffffffffffffffffffffffffffffffff1673ffffffffffffffffffffffffffffffffffffffff16815260200190815260200160002061283590919063ffffffff16565b5061254c8183600261284f9092919063ffffffff16565b50808273ffffffffffffffffffffffffffffffffffffffff16600073ffffffffffffffffffffffffffffffffffffffff167fddf252ad1be2c89b69c2b068fc378daa952ba7f163c4a11628f55a4df523b3ef60405160405180910390a45050565b60006125c0846000018460001b846129a0565b60001c90509392505050565b60006125da82600001612a96565b9050919050565b6125ec84848461212d565b6125f884848484612aa7565b61264d576040517f08c379a00000000000000000000000000000000000000000000000000000000081526004018080602001828103825260328152602001806131f26032913960400191505060405180910390fd5b50505050565b6060600082141561269b576040518060400160405280600181526020017f3000000000000000000000000000000000000000000000000000000000000000815250905061277e565b600082905060005b600082146126c5578080600101915050600a82816126bd57fe5b0491506126a3565b6060816040519080825280601f01601f1916602001820160405280156126fa5781602001600182028038833980820191505090505b50905060006001830390508593505b6000841461277657600a848161271b57fe5b0660300160f81b8282806001900393508151811061273557fe5b60200101907effffffffffffffffffffffffffffffffffffffffffffffffffffffffffffff1916908160001a905350600a848161276e57fe5b049350612709565b819450505050505b919050565b6000612795836000018360001b612cec565b905092915050565b600081600001805490509050919050565b600d5442101580156127c25750600e544211155b8061280d57506127d0611552565b73ffffffffffffffffffffffffffffffffffffffff163373ffffffffffffffffffffffffffffffffffffffff1614801561280c5750600e544211155b5b61281657600080fd5b505050565b600061282d836000018360001b612d0f565b905092915050565b6000612847836000018360001b612df7565b905092915050565b600061287b846000018460001b8473ffffffffffffffffffffffffffffffffffffffff1660001b612e67565b90509392505050565b6000818360000180549050116128e5576040517f08c379a00000000000000000000000000000000000000000000000000000000081526004018080602001828103825260228152602001806131d06022913960400191505060405180910390fd5b8260000182815481106128f457fe5b9060005260206000200154905092915050565b60008082846000018054905011612969576040517f08c379a00000000000000000000000000000000000000000000000000000000081526004018080602001828103825260228152602001806133256022913960400191505060405180910390fd5b600084600001848154811061297a57fe5b906000526020600020906002020190508060000154816001015492509250509250929050565b60008084600101600085815260200190815260200160002054905060008114158390612a67576040517f08c379a00000000000000000000000000000000000000000000000000000000081526004018080602001828103825283818151815260200191508051906020019080838360005b83811015612a2c578082015181840152602081019050612a11565b50505050905090810190601f168015612a595780820380516001836020036101000a031916815260200191505b509250505060405180910390fd5b50846000016001820381548110612a7a57fe5b9060005260206000209060020201600101549150509392505050565b600081600001805490509050919050565b6000612ac88473ffffffffffffffffffffffffffffffffffffffff16612f43565b612ad55760019050612ce4565b6060612c6b63150b7a0260e01b612aea611f63565b888787604051602401808573ffffffffffffffffffffffffffffffffffffffff1673ffffffffffffffffffffffffffffffffffffffff1681526020018473ffffffffffffffffffffffffffffffffffffffff1673ffffffffffffffffffffffffffffffffffffffff16815260200183815260200180602001828103825283818151815260200191508051906020019080838360005b83811015612b9a578082015181840152602081019050612b7f565b50505050905090810190601f168015612bc75780820380516001836020036101000a031916815260200191505b5095505050505050604051602081830303815290604052907bffffffffffffffffffffffffffffffffffffffffffffffffffffffff19166020820180517bffffffffffffffffffffffffffffffffffffffffffffffffffffffff83818316178352505050506040518060600160405280603281526020016131f2603291398773ffffffffffffffffffffffffffffffffffffffff16612f8e9092919063ffffffff16565b90506000818060200190516020811015612c8457600080fd5b8101908080519060200190929190505050905063150b7a0260e01b7bffffffffffffffffffffffffffffffffffffffffffffffffffffffff1916817bffffffffffffffffffffffffffffffffffffffffffffffffffffffff191614925050505b949350505050565b600080836001016000848152602001908152602001600020541415905092915050565b60008083600101600084815260200190815260200160002054905060008114612deb5760006001820390506000600186600001805490500390506000866000018281548110612d5a57fe5b9060005260206000200154905080876000018481548110612d7757fe5b9060005260206000200181905550600183018760010160008381526020019081526020016000208190555086600001805480612daf57fe5b60019003818190600052602060002001600090559055866001016000878152602001908152602001600020600090556001945050505050612df1565b60009150505b92915050565b6000612e038383612fa6565b612e5c578260000182908060018154018082558091505060019003906000526020600020016000909190919091505582600001805490508360010160008481526020019081526020016000208190555060019050612e61565b600090505b92915050565b6000808460010160008581526020019081526020016000205490506000811415612f0e57846000016040518060400160405280868152602001858152509080600181540180825580915050600190039060005260206000209060020201600090919091909150600082015181600001556020820151816001015550508460000180549050856001016000868152602001908152602001600020819055506001915050612f3c565b82856000016001830381548110612f2157fe5b90600052602060002090600202016001018190555060009150505b9392505050565b60008060007fc5d2460186f7233c927e7db2dcc703c0e500b653ca82273b7bfad8045d85a47060001b9050833f9150808214158015612f8557506000801b8214155b92505050919050565b6060612f9d8484600085612fc9565b90509392505050565b600080836001016000848152602001908152602001600020541415905092915050565b6060612fd485612f43565b613046576040517f08c379a000000000000000000000000000000000000000000000000000000000815260040180806020018281038252601d8152602001807f416464726573733a2063616c6c20746f206e6f6e2d636f6e747261637400000081525060200191505060405180910390fd5b600060608673ffffffffffffffffffffffffffffffffffffffff1685876040518082805190602001908083835b602083106130965780518252602082019150602081019050602083039250613073565b6001836020036101000a03801982511681845116808217855250505050505090500191505060006040518083038185875af1925050503d80600081146130f8576040519150601f19603f3d011682016040523d82523d6000602084013e6130fd565b606091505b509150915081156131125780925050506131c7565b6000815111156131255780518082602001fd5b836040517f08c379a00000000000000000000000000000000000000000000000000000000081526004018080602001828103825283818151815260200191508051906020019080838360005b8381101561318c578082015181840152602081019050613171565b50505050905090810190601f1680156131b95780820380516001836020036101000a031916815260200191505b509250505060405180910390fd5b94935050505056fe456e756d657261626c655365743a20696e646578206f7574206f6620626f756e64734552433732313a207472616e7366657220746f206e6f6e20455243373231526563656976657220696d706c656d656e7465724f776e61626c653a206e6577206f776e657220697320746865207a65726f20616464726573734552433732313a207472616e7366657220746f20746865207a65726f20616464726573734552433732313a206f70657261746f7220717565727920666f72206e6f6e6578697374656e7420746f6b656e4552433732313a20617070726f76652063616c6c6572206973206e6f74206f776e6572206e6f7220617070726f76656420666f7220616c6c4552433732313a2062616c616e636520717565727920666f7220746865207a65726f20616464726573734552433732313a206f776e657220717565727920666f72206e6f6e6578697374656e7420746f6b656e456e756d657261626c654d61703a20696e646578206f7574206f6620626f756e64734552433732313a20617070726f76656420717565727920666f72206e6f6e6578697374656e7420746f6b656e4552433732313a207472616e73666572206f6620746f6b656e2074686174206973206e6f74206f776e4552433732314d657461646174613a2055524920717565727920666f72206e6f6e6578697374656e7420746f6b656e4552433732313a20617070726f76616c20746f2063757272656e74206f776e65724552433732313a207472616e736665722063616c6c6572206973206e6f74206f776e6572206e6f7220617070726f766564a2646970667358221220b36f4f447be649bd84b91b6eb9242c67e9e7cd32d323f535b28e77363074ecba64736f6c63430006020033a26469706673582212208630fc8fdfe9149136a9b7c1ec044d75c7fdddebf1e3e132ebbec21e1e6abe9f64736f6c63430006020033",
  "source": "pragma solidity ^0.6.0;\npragma experimental ABIEncoderV2;\n\nimport './VoteToken.sol';\n\ncontract VoteTokenFactory{\n    function create(string memory _name, uint _voteStart, uint _voteEnd) public returns(VoteToken){\n        return new VoteToken(_name,\"\",_voteStart,_voteEnd);\n    }\n}",
  "sourcePath": "/Users/timothymuscat/Documents/MScThesis/BlockVote_ReactBox/contracts/VoteTokenFactory.sol",
  "compiler": {
    "name": "solc",
    "version": "0.6.2+commit.bacdbe57.Emscripten.clang"
  },
  "schemaVersion": "3.2.2",
  "updatedAt": "2020-08-26T21:54:22.158Z",
  "networkType": "ethereum",
  "devdoc": {
    "methods": {}
  },
  "userdoc": {
    "methods": {}
  }
}